{
  "_format": "hh-sol-artifact-1",
  "contractName": "DefincubatorReward",
  "sourceName": "contracts/DefincubatorReward.sol",
  "abi": [
    {
      "inputs": [],
      "stateMutability": "nonpayable",
      "type": "constructor"
    },
    {
      "inputs": [],
      "name": "_tokenId",
      "outputs": [
        {
          "internalType": "uint256",
          "name": "_value",
          "type": "uint256"
        }
      ],
      "stateMutability": "view",
      "type": "function"
    },
    {
      "inputs": [
        {
          "internalType": "address",
          "name": "invitedPerson",
          "type": "address"
        }
      ],
      "name": "addPerson",
      "outputs": [],
      "stateMutability": "nonpayable",
      "type": "function"
    },
    {
      "inputs": [],
      "name": "claim",
      "outputs": [],
      "stateMutability": "nonpayable",
      "type": "function"
    },
    {
      "inputs": [],
      "name": "nCollection",
      "outputs": [
        {
          "internalType": "uint256",
          "name": "",
          "type": "uint256"
        }
      ],
      "stateMutability": "view",
      "type": "function"
    },
    {
      "inputs": [
        {
          "internalType": "uint256",
          "name": "",
          "type": "uint256"
        }
      ],
      "name": "pinataURL",
      "outputs": [
        {
          "internalType": "string",
          "name": "",
          "type": "string"
        }
      ],
      "stateMutability": "view",
      "type": "function"
    },
    {
      "inputs": [
        {
          "internalType": "uint256",
          "name": "collectionIndex",
          "type": "uint256"
        },
        {
          "internalType": "address",
          "name": "owner",
          "type": "address"
        }
      ],
      "name": "purchaseNFT",
      "outputs": [],
      "stateMutability": "payable",
      "type": "function"
    },
    {
      "inputs": [
        {
          "internalType": "address",
          "name": "newBusdContractAddress",
          "type": "address"
        },
        {
          "internalType": "address",
          "name": "newBusdTokenAddress",
          "type": "address"
        },
        {
          "internalType": "address",
          "name": "newClapContractAddress",
          "type": "address"
        },
        {
          "internalType": "address",
          "name": "newClapTokenAddress",
          "type": "address"
        },
        {
          "internalType": "address",
          "name": "newTribalContractAddress",
          "type": "address"
        },
        {
          "internalType": "address",
          "name": "newTribalTokenAddress",
          "type": "address"
        },
        {
          "internalType": "address",
          "name": "newPerformancePoolAddress",
          "type": "address"
        },
        {
          "internalType": "address",
          "name": "newDaoTreasureAddress",
          "type": "address"
        }
      ],
      "name": "setAddresses",
      "outputs": [],
      "stateMutability": "nonpayable",
      "type": "function"
    },
    {
      "inputs": [
        {
          "internalType": "uint256",
          "name": "newBoxReward",
          "type": "uint256"
        },
        {
          "internalType": "uint256",
          "name": "index",
          "type": "uint256"
        }
      ],
      "name": "setBoxReward",
      "outputs": [],
      "stateMutability": "nonpayable",
      "type": "function"
    },
    {
      "inputs": [
        {
          "internalType": "uint256",
          "name": "newFriendChainRewardRate",
          "type": "uint256"
        },
        {
          "internalType": "uint256",
          "name": "index",
          "type": "uint256"
        }
      ],
      "name": "setFriendChainRewardRate",
      "outputs": [],
      "stateMutability": "nonpayable",
      "type": "function"
    },
    {
      "inputs": [
        {
          "internalType": "uint256",
          "name": "newClapTokenRewardRate",
          "type": "uint256"
        },
        {
          "internalType": "uint256",
          "name": "newTribalTokenRewardRate",
          "type": "uint256"
        },
        {
          "internalType": "uint256",
          "name": "newDaoTreasureRewardRate",
          "type": "uint256"
        },
        {
          "internalType": "uint256",
          "name": "newPerformancePoolRewardRate",
          "type": "uint256"
        },
        {
          "internalType": "uint256",
          "name": "newInfluenceRewardRate",
          "type": "uint256"
        }
      ],
      "name": "setOtherRewardRates",
      "outputs": [],
      "stateMutability": "nonpayable",
      "type": "function"
    },
    {
      "inputs": [
        {
          "internalType": "uint256",
          "name": "collectionIndex",
          "type": "uint256"
        },
        {
          "internalType": "string",
          "name": "_pinataURL",
          "type": "string"
        }
      ],
      "name": "setPinataURL",
      "outputs": [],
      "stateMutability": "nonpayable",
      "type": "function"
    },
    {
      "inputs": [
        {
          "internalType": "uint256",
          "name": "newPoolRewardRate",
          "type": "uint256"
        },
        {
          "internalType": "uint256",
          "name": "newPoolQ_price",
          "type": "uint256"
        },
        {
          "internalType": "uint256",
          "name": "newPoolQ_time",
          "type": "uint256"
        }
      ],
      "name": "setPoolValue",
      "outputs": [],
      "stateMutability": "nonpayable",
      "type": "function"
    },
    {
      "inputs": [
        {
          "internalType": "uint256",
          "name": "newPromoter1Rate",
          "type": "uint256"
        },
        {
          "internalType": "uint256",
          "name": "newPromoter2Rate",
          "type": "uint256"
        },
        {
          "internalType": "uint256",
          "name": "newPromoter1Q_time",
          "type": "uint256"
        },
        {
          "internalType": "uint256",
          "name": "newPromoter2Q_time",
          "type": "uint256"
        },
        {
          "internalType": "uint256",
          "name": "newPromoter1Q_price",
          "type": "uint256"
        },
        {
          "internalType": "uint256",
          "name": "newPromoter2Q_price",
          "type": "uint256"
        }
      ],
      "name": "setPromoterValue",
      "outputs": [],
      "stateMutability": "nonpayable",
      "type": "function"
    },
    {
      "inputs": [
        {
          "internalType": "uint256",
          "name": "newRewardBoxPrice",
          "type": "uint256"
        },
        {
          "internalType": "uint256",
          "name": "index",
          "type": "uint256"
        }
      ],
      "name": "setRewardBoxPrice",
      "outputs": [],
      "stateMutability": "nonpayable",
      "type": "function"
    },
    {
      "inputs": [
        {
          "internalType": "uint256",
          "name": "newRewardPeriod",
          "type": "uint256"
        }
      ],
      "name": "setRewardPeroid",
      "outputs": [],
      "stateMutability": "nonpayable",
      "type": "function"
    },
    {
      "inputs": [
        {
          "internalType": "uint256",
          "name": "newSuperPromoter1RewardRate",
          "type": "uint256"
        },
        {
          "internalType": "uint256",
          "name": "newSuperPromoter2RewardRate",
          "type": "uint256"
        }
      ],
      "name": "setSuperPromoterRewardRate",
      "outputs": [],
      "stateMutability": "nonpayable",
      "type": "function"
    },
    {
      "inputs": [
        {
          "internalType": "uint256",
          "name": "newClapTokenMaxReward",
          "type": "uint256"
        },
        {
          "internalType": "uint256",
          "name": "newTribalTokenMaxReward",
          "type": "uint256"
        }
      ],
      "name": "setTokenMaxReward",
      "outputs": [],
      "stateMutability": "nonpayable",
      "type": "function"
    }
  ],
  "bytecode": "0x60806040523480156200001157600080fd5b5033600460006101000a81548173ffffffffffffffffffffffffffffffffffffffff021916908373ffffffffffffffffffffffffffffffffffffffff160217905550600860068190555060405180608001604052806051815260200162003796605191396005600060018152602001908152602001600020908162000097919062000318565b50620003ff565b600081519050919050565b7f4e487b7100000000000000000000000000000000000000000000000000000000600052604160045260246000fd5b7f4e487b7100000000000000000000000000000000000000000000000000000000600052602260045260246000fd5b600060028204905060018216806200012057607f821691505b602082108103620001365762000135620000d8565b5b50919050565b60008190508160005260206000209050919050565b60006020601f8301049050919050565b600082821b905092915050565b600060088302620001a07fffffffffffffffffffffffffffffffffffffffffffffffffffffffffffffffff8262000161565b620001ac868362000161565b95508019841693508086168417925050509392505050565b6000819050919050565b6000819050919050565b6000620001f9620001f3620001ed84620001c4565b620001ce565b620001c4565b9050919050565b6000819050919050565b6200021583620001d8565b6200022d620002248262000200565b8484546200016e565b825550505050565b600090565b6200024462000235565b620002518184846200020a565b505050565b5b8181101562000279576200026d6000826200023a565b60018101905062000257565b5050565b601f821115620002c85762000292816200013c565b6200029d8462000151565b81016020851015620002ad578190505b620002c5620002bc8562000151565b83018262000256565b50505b505050565b600082821c905092915050565b6000620002ed60001984600802620002cd565b1980831691505092915050565b6000620003088383620002da565b9150826002028217905092915050565b62000323826200009e565b67ffffffffffffffff8111156200033f576200033e620000a9565b5b6200034b825462000107565b620003588282856200027d565b600060209050601f8311600181146200039057600084156200037b578287015190505b620003878582620002fa565b865550620003f7565b601f198416620003a0866200013c565b60005b82811015620003ca57848901518255600182019150602085019450602081019050620003a3565b86831015620003ea5784890151620003e6601f891682620002da565b8355505b6001600288020188555050505b505050505050565b613387806200040f6000396000f3fe6080604052600436106100fe5760003560e01c8063849a744211610095578063bc672a3811610064578063bc672a38146102d4578063d2af1246146102fd578063d581dd7114610326578063d733cfd014610363578063fe6799631461038c576100fe565b8063849a74421461022e57806384ec2ed414610257578063a68603fc14610282578063b8edf3d7146102ab576100fe565b80635a8509c6116100d15780635a8509c6146101975780635be1a055146101c05780637684fba3146101e95780637980083614610212576100fe565b806324822514146101035780634e71d92d1461012e578063559e4b261461014557806358fabed51461016e575b600080fd5b34801561010f57600080fd5b506101186103b5565b6040516101259190612759565b60405180910390f35b34801561013a57600080fd5b506101436103c1565b005b34801561015157600080fd5b5061016c600480360381019061016791906128fa565b610697565b005b34801561017a57600080fd5b5061019560048036038101906101909190612956565b610716565b005b3480156101a357600080fd5b506101be60048036038101906101b99190612996565b610798565b005b3480156101cc57600080fd5b506101e760048036038101906101e29190612956565b610824565b005b3480156101f557600080fd5b50610210600480360381019061020b9190612a23565b610890565b005b61022c60048036038101906102279190612ad4565b610904565b005b34801561023a57600080fd5b5061025560048036038101906102509190612956565b611f49565b005b34801561026357600080fd5b5061026c611fbf565b6040516102799190612759565b60405180910390f35b34801561028e57600080fd5b506102a960048036038101906102a49190612b14565b611fc5565b005b3480156102b757600080fd5b506102d260048036038101906102cd9190612956565b612029565b005b3480156102e057600080fd5b506102fb60048036038101906102f69190612b41565b61209f565b005b34801561030957600080fd5b50610324600480360381019061031f9190612b6e565b6122da565b005b34801561033257600080fd5b5061034d60048036038101906103489190612b14565b61235e565b60405161035a9190612c68565b60405180910390f35b34801561036f57600080fd5b5061038a60048036038101906103859190612c8a565b6123fe565b005b34801561039857600080fd5b506103b360048036038101906103ae9190612956565b61266a565b005b60008060000154905081565b6000600f60003373ffffffffffffffffffffffffffffffffffffffff1673ffffffffffffffffffffffffffffffffffffffff1681526020019081526020016000209050600062093a8082600801544261041a9190612d6f565b6104249190612dd2565b905060005b600881101561066c5760185462093a8084600101838154811061044f5761044e612e03565b5b9060005260206000200154426104659190612d6f565b61046f9190612dd2565b1161065957600960009054906101000a900473ffffffffffffffffffffffffffffffffffffffff1673ffffffffffffffffffffffffffffffffffffffff166323b872dd600a60009054906101000a900473ffffffffffffffffffffffffffffffffffffffff1633601854670de0b6b3a76400006016546104ef9190612e32565b876104fa9190612e32565b6105049190612dd2565b6040518463ffffffff1660e01b815260040161052293929190612e83565b6020604051808303816000875af1158015610541573d6000803e3d6000fd5b505050506040513d601f19601f820116820180604052508101906105659190612ef2565b50600b60009054906101000a900473ffffffffffffffffffffffffffffffffffffffff1673ffffffffffffffffffffffffffffffffffffffff166323b872dd600c60009054906101000a900473ffffffffffffffffffffffffffffffffffffffff1633601854670de0b6b3a76400006017546105e19190612e32565b876105ec9190612e32565b6105f69190612dd2565b6040518463ffffffff1660e01b815260040161061493929190612e83565b6020604051808303816000875af1158015610633573d6000803e3d6000fd5b505050506040513d601f19601f820116820180604052508101906106579190612ef2565b505b808061066490612f1f565b915050610429565b5062093a808161067c9190612e32565b826008015461068b9190612f67565b82600801819055505050565b600460009054906101000a900473ffffffffffffffffffffffffffffffffffffffff1673ffffffffffffffffffffffffffffffffffffffff163373ffffffffffffffffffffffffffffffffffffffff16146106f157600080fd5b8060056000848152602001908152602001600020908161071191906131a7565b505050565b600460009054906101000a900473ffffffffffffffffffffffffffffffffffffffff1673ffffffffffffffffffffffffffffffffffffffff163373ffffffffffffffffffffffffffffffffffffffff161461077057600080fd5b81602a60006001846107829190612d6f565b8152602001908152602001600020819055505050565b600460009054906101000a900473ffffffffffffffffffffffffffffffffffffffff1673ffffffffffffffffffffffffffffffffffffffff163373ffffffffffffffffffffffffffffffffffffffff16146107f257600080fd5b85601c8190555084601d8190555083601e8190555082601f819055508160208190555080602181905550505050505050565b600460009054906101000a900473ffffffffffffffffffffffffffffffffffffffff1673ffffffffffffffffffffffffffffffffffffffff163373ffffffffffffffffffffffffffffffffffffffff161461087e57600080fd5b81602781905550806028819055505050565b600460009054906101000a900473ffffffffffffffffffffffffffffffffffffffff1673ffffffffffffffffffffffffffffffffffffffff163373ffffffffffffffffffffffffffffffffffffffff16146108ea57600080fd5b8260198190555081601a8190555080601b81905550505050565b60116000838152602001908152602001600020543414610959576040517f08c379a0000000000000000000000000000000000000000000000000000000008152600401610950906132c5565b60405180910390fd5b6000600f60008373ffffffffffffffffffffffffffffffffffffffff1673ffffffffffffffffffffffffffffffffffffffff16815260200190815260200160002090506001836109a99190612d6f565b8160000154146109ee576040517f08c379a00000000000000000000000000000000000000000000000000000000081526004016109e590613331565b60405180910390fd5b82816000018190555042816001018481548110610a0e57610a0d612e03565b5b906000526020600020018190555060006127109050600760009054906101000a900473ffffffffffffffffffffffffffffffffffffffff1673ffffffffffffffffffffffffffffffffffffffff166323b872dd84600a60009054906101000a900473ffffffffffffffffffffffffffffffffffffffff1661271060225434610a969190612e32565b610aa09190612dd2565b6040518463ffffffff1660e01b8152600401610abe93929190612e83565b6020604051808303816000875af1158015610add573d6000803e3d6000fd5b505050506040513d601f19601f82011682018060405250810190610b019190612ef2565b50600760009054906101000a900473ffffffffffffffffffffffffffffffffffffffff1673ffffffffffffffffffffffffffffffffffffffff166323b872dd84600c60009054906101000a900473ffffffffffffffffffffffffffffffffffffffff1661271060235434610b759190612e32565b610b7f9190612dd2565b6040518463ffffffff1660e01b8152600401610b9d93929190612e83565b6020604051808303816000875af1158015610bbc573d6000803e3d6000fd5b505050506040513d601f19601f82011682018060405250810190610be09190612ef2565b50600760009054906101000a900473ffffffffffffffffffffffffffffffffffffffff1673ffffffffffffffffffffffffffffffffffffffff166323b872dd84601560009054906101000a900473ffffffffffffffffffffffffffffffffffffffff1661271060245434610c549190612e32565b610c5e9190612dd2565b6040518463ffffffff1660e01b8152600401610c7c93929190612e83565b6020604051808303816000875af1158015610c9b573d6000803e3d6000fd5b505050506040513d601f19601f82011682018060405250810190610cbf9190612ef2565b50602454602354602254610cd39190612f67565b610cdd9190612f67565b81610ce89190612d6f565b90506000601060008573ffffffffffffffffffffffffffffffffffffffff1673ffffffffffffffffffffffffffffffffffffffff16815260200190815260200160002060009054906101000a900473ffffffffffffffffffffffffffffffffffffffff169050600073ffffffffffffffffffffffffffffffffffffffff168173ffffffffffffffffffffffffffffffffffffffff1614610e7257600760009054906101000a900473ffffffffffffffffffffffffffffffffffffffff1673ffffffffffffffffffffffffffffffffffffffff166323b872dd8583612710602a60008081526020019081526020016000205434610de49190612e32565b610dee9190612dd2565b6040518463ffffffff1660e01b8152600401610e0c93929190612e83565b6020604051808303816000875af1158015610e2b573d6000803e3d6000fd5b505050506040513d601f19601f82011682018060405250810190610e4f9190612ef2565b50602a60008081526020019081526020016000205482610e6f9190612d6f565b91505b6000600190505b60295481101561101c57601060008373ffffffffffffffffffffffffffffffffffffffff1673ffffffffffffffffffffffffffffffffffffffff16815260200190815260200160002060009054906101000a900473ffffffffffffffffffffffffffffffffffffffff169150600073ffffffffffffffffffffffffffffffffffffffff168273ffffffffffffffffffffffffffffffffffffffff16031561101c57600760009054906101000a900473ffffffffffffffffffffffffffffffffffffffff1673ffffffffffffffffffffffffffffffffffffffff166323b872dd8684612710602a60008781526020019081526020016000205434610f7c9190612e32565b610f869190612dd2565b6040518463ffffffff1660e01b8152600401610fa493929190612e83565b6020604051808303816000875af1158015610fc3573d6000803e3d6000fd5b505050506040513d601f19601f82011682018060405250810190610fe79190612ef2565b50602a600082815260200190815260200160002054836110079190612d6f565b9250808061101490612f1f565b915050610e79565b50600760009054906101000a900473ffffffffffffffffffffffffffffffffffffffff1673ffffffffffffffffffffffffffffffffffffffff166323b872dd85601360009054906101000a900473ffffffffffffffffffffffffffffffffffffffff16612710602554346110909190612e32565b61109a9190612dd2565b6040518463ffffffff1660e01b81526004016110b893929190612e83565b6020604051808303816000875af11580156110d7573d6000803e3d6000fd5b505050506040513d601f19601f820116820180604052508101906110fb9190612ef2565b50600760009054906101000a900473ffffffffffffffffffffffffffffffffffffffff1673ffffffffffffffffffffffffffffffffffffffff166323b872dd85601460009054906101000a900473ffffffffffffffffffffffffffffffffffffffff166127106026543461116f9190612e32565b6111799190612dd2565b6040518463ffffffff1660e01b815260040161119793929190612e83565b6020604051808303816000875af11580156111b6573d6000803e3d6000fd5b505050506040513d601f19601f820116820180604052508101906111da9190612ef2565b506026546025546111eb9190612f67565b826111f69190612d6f565b915060008060005b600d54811015611563576001600f6000600e600085815260200190815260200160002060009054906101000a900473ffffffffffffffffffffffffffffffffffffffff1673ffffffffffffffffffffffffffffffffffffffff1673ffffffffffffffffffffffffffffffffffffffff16815260200190815260200160002060020154036113ac576224ea00601e546112969190612e32565b600f6000600e600085815260200190815260200160002060009054906101000a900473ffffffffffffffffffffffffffffffffffffffff1673ffffffffffffffffffffffffffffffffffffffff1673ffffffffffffffffffffffffffffffffffffffff16815260200190815260200160002060030154426113179190612d6f565b1161132f57828061132790612f1f565b9350506113ab565b6000600f6000600e600085815260200190815260200160002060009054906101000a900473ffffffffffffffffffffffffffffffffffffffff1673ffffffffffffffffffffffffffffffffffffffff1673ffffffffffffffffffffffffffffffffffffffff168152602001908152602001600020600201819055505b5b6002600f6000600e600085815260200190815260200160002060009054906101000a900473ffffffffffffffffffffffffffffffffffffffff1673ffffffffffffffffffffffffffffffffffffffff1673ffffffffffffffffffffffffffffffffffffffff1681526020019081526020016000206002015403611550576224ea00601f5461143a9190612e32565b600f6000600e600085815260200190815260200160002060009054906101000a900473ffffffffffffffffffffffffffffffffffffffff1673ffffffffffffffffffffffffffffffffffffffff1673ffffffffffffffffffffffffffffffffffffffff16815260200190815260200160002060030154426114bb9190612d6f565b116114d35781806114cb90612f1f565b92505061154f565b6000600f6000600e600085815260200190815260200160002060009054906101000a900473ffffffffffffffffffffffffffffffffffffffff1673ffffffffffffffffffffffffffffffffffffffff1673ffffffffffffffffffffffffffffffffffffffff168152602001908152602001600020600201819055505b5b808061155b90612f1f565b9150506111fe565b5060005b600d54811015611876576001600f6000600e600085815260200190815260200160002060009054906101000a900473ffffffffffffffffffffffffffffffffffffffff1673ffffffffffffffffffffffffffffffffffffffff1673ffffffffffffffffffffffffffffffffffffffff16815260200190815260200160002060020154036116ea57600760009054906101000a900473ffffffffffffffffffffffffffffffffffffffff1673ffffffffffffffffffffffffffffffffffffffff166323b872dd88600e600085815260200190815260200160002060009054906101000a900473ffffffffffffffffffffffffffffffffffffffff1661271087602754346116739190612e32565b61167d9190612dd2565b6116879190612dd2565b6040518463ffffffff1660e01b81526004016116a593929190612e83565b6020604051808303816000875af11580156116c4573d6000803e3d6000fd5b505050506040513d601f19601f820116820180604052508101906116e89190612ef2565b505b6002600f6000600e600085815260200190815260200160002060009054906101000a900473ffffffffffffffffffffffffffffffffffffffff1673ffffffffffffffffffffffffffffffffffffffff1673ffffffffffffffffffffffffffffffffffffffff168152602001908152602001600020600201540361186357600760009054906101000a900473ffffffffffffffffffffffffffffffffffffffff1673ffffffffffffffffffffffffffffffffffffffff166323b872dd88600e600085815260200190815260200160002060009054906101000a900473ffffffffffffffffffffffffffffffffffffffff1661271086602854346117ec9190612e32565b6117f69190612dd2565b6118009190612dd2565b6040518463ffffffff1660e01b815260040161181e93929190612e83565b6020604051808303816000875af115801561183d573d6000803e3d6000fd5b505050506040513d601f19601f820116820180604052508101906118619190612ef2565b505b808061186e90612f1f565b915050611567565b50601060008773ffffffffffffffffffffffffffffffffffffffff1673ffffffffffffffffffffffffffffffffffffffff16815260200190815260200160002060009054906101000a900473ffffffffffffffffffffffffffffffffffffffff16925060005b602954811015611e4557601060008573ffffffffffffffffffffffffffffffffffffffff1673ffffffffffffffffffffffffffffffffffffffff16815260200190815260200160002060009054906101000a900473ffffffffffffffffffffffffffffffffffffffff169350600073ffffffffffffffffffffffffffffffffffffffff168473ffffffffffffffffffffffffffffffffffffffff160315611e455734600f60008673ffffffffffffffffffffffffffffffffffffffff1673ffffffffffffffffffffffffffffffffffffffff16815260200190815260200160002060040160008282546119cf9190612f67565b925050819055506000600f60008673ffffffffffffffffffffffffffffffffffffffff1673ffffffffffffffffffffffffffffffffffffffff1681526020019081526020016000206002015403611c9657602154600f60008673ffffffffffffffffffffffffffffffffffffffff1673ffffffffffffffffffffffffffffffffffffffff1681526020019081526020016000206004015410611b5a57602154600f60008673ffffffffffffffffffffffffffffffffffffffff1673ffffffffffffffffffffffffffffffffffffffff1681526020019081526020016000206004016000828254611abf9190612d6f565b925050819055506002600f60008673ffffffffffffffffffffffffffffffffffffffff1673ffffffffffffffffffffffffffffffffffffffff1681526020019081526020016000206002018190555042600f60008673ffffffffffffffffffffffffffffffffffffffff1673ffffffffffffffffffffffffffffffffffffffff16815260200190815260200160002060030181905550611c91565b602054600f60008673ffffffffffffffffffffffffffffffffffffffff1673ffffffffffffffffffffffffffffffffffffffff1681526020019081526020016000206004015410611c9057602054600f60008673ffffffffffffffffffffffffffffffffffffffff1673ffffffffffffffffffffffffffffffffffffffff1681526020019081526020016000206004016000828254611bf99190612d6f565b925050819055506001600f60008673ffffffffffffffffffffffffffffffffffffffff1673ffffffffffffffffffffffffffffffffffffffff1681526020019081526020016000206002018190555042600f60008673ffffffffffffffffffffffffffffffffffffffff1673ffffffffffffffffffffffffffffffffffffffff168152602001908152602001600020600301819055505b5b611e32565b6001600f60008673ffffffffffffffffffffffffffffffffffffffff1673ffffffffffffffffffffffffffffffffffffffff1681526020019081526020016000206002015403611e3157602054602154611cf09190612d6f565b600f60008673ffffffffffffffffffffffffffffffffffffffff1673ffffffffffffffffffffffffffffffffffffffff1681526020019081526020016000206004015410611e3057602054602154611d489190612d6f565b600f60008673ffffffffffffffffffffffffffffffffffffffff1673ffffffffffffffffffffffffffffffffffffffff1681526020019081526020016000206004016000828254611d999190612d6f565b925050819055506002600f60008673ffffffffffffffffffffffffffffffffffffffff1673ffffffffffffffffffffffffffffffffffffffff1681526020019081526020016000206002018190555042600f60008673ffffffffffffffffffffffffffffffffffffffff1673ffffffffffffffffffffffffffffffffffffffff168152602001908152602001600020600301819055505b5b5b8080611e3d90612f1f565b9150506118dc565b50602854602754611e569190612f67565b84611e619190612d6f565b9350600760009054906101000a900473ffffffffffffffffffffffffffffffffffffffff1673ffffffffffffffffffffffffffffffffffffffff166323b872dd87600460009054906101000a900473ffffffffffffffffffffffffffffffffffffffff166127108834611ed49190612e32565b611ede9190612dd2565b6040518463ffffffff1660e01b8152600401611efc93929190612e83565b6020604051808303816000875af1158015611f1b573d6000803e3d6000fd5b505050506040513d601f19601f82011682018060405250810190611f3f9190612ef2565b5050505050505050565b600460009054906101000a900473ffffffffffffffffffffffffffffffffffffffff1673ffffffffffffffffffffffffffffffffffffffff163373ffffffffffffffffffffffffffffffffffffffff1614611fa357600080fd5b8160126000838152602001908152602001600020819055505050565b60065481565b600460009054906101000a900473ffffffffffffffffffffffffffffffffffffffff1673ffffffffffffffffffffffffffffffffffffffff163373ffffffffffffffffffffffffffffffffffffffff161461201f57600080fd5b8060188190555050565b600460009054906101000a900473ffffffffffffffffffffffffffffffffffffffff1673ffffffffffffffffffffffffffffffffffffffff163373ffffffffffffffffffffffffffffffffffffffff161461208357600080fd5b8160116000838152602001908152602001600020819055505050565b33600e6000600d60008154809291906120b790612f1f565b91905055815260200190815260200160002060006101000a81548173ffffffffffffffffffffffffffffffffffffffff021916908373ffffffffffffffffffffffffffffffffffffffff160217905550600060016006546121189190612f67565b67ffffffffffffffff811115612131576121306127cf565b5b60405190808252806020026020018201604052801561215f5781602001602082028036833780820191505090505b50905060405180610120016040528060008152602001828152602001600081526020014281526020016000815260200160008152602001600081526020016000815260200142815250600f60003373ffffffffffffffffffffffffffffffffffffffff1673ffffffffffffffffffffffffffffffffffffffff16815260200190815260200160002060008201518160000155602082015181600101908051906020019061220d9291906126d6565b5060408201518160020155606082015181600301556080820151816004015560a0820151816005015560c0820151816006015560e08201518160070155610100820151816008015590505081601060003373ffffffffffffffffffffffffffffffffffffffff1673ffffffffffffffffffffffffffffffffffffffff16815260200190815260200160002060006101000a81548173ffffffffffffffffffffffffffffffffffffffff021916908373ffffffffffffffffffffffffffffffffffffffff1602179055505050565b600460009054906101000a900473ffffffffffffffffffffffffffffffffffffffff1673ffffffffffffffffffffffffffffffffffffffff163373ffffffffffffffffffffffffffffffffffffffff161461233457600080fd5b84602281905550836023819055508260248190555081602581905550806026819055505050505050565b6005602052806000526040600020600091509050805461237d90612fca565b80601f01602080910402602001604051908101604052809291908181526020018280546123a990612fca565b80156123f65780601f106123cb576101008083540402835291602001916123f6565b820191906000526020600020905b8154815290600101906020018083116123d957829003601f168201915b505050505081565b600460009054906101000a900473ffffffffffffffffffffffffffffffffffffffff1673ffffffffffffffffffffffffffffffffffffffff163373ffffffffffffffffffffffffffffffffffffffff161461245857600080fd5b87600760006101000a81548173ffffffffffffffffffffffffffffffffffffffff021916908373ffffffffffffffffffffffffffffffffffffffff16021790555086600860006101000a81548173ffffffffffffffffffffffffffffffffffffffff021916908373ffffffffffffffffffffffffffffffffffffffff16021790555085600960006101000a81548173ffffffffffffffffffffffffffffffffffffffff021916908373ffffffffffffffffffffffffffffffffffffffff16021790555084600a60006101000a81548173ffffffffffffffffffffffffffffffffffffffff021916908373ffffffffffffffffffffffffffffffffffffffff16021790555083600b60006101000a81548173ffffffffffffffffffffffffffffffffffffffff021916908373ffffffffffffffffffffffffffffffffffffffff16021790555082600c60006101000a81548173ffffffffffffffffffffffffffffffffffffffff021916908373ffffffffffffffffffffffffffffffffffffffff16021790555081601360006101000a81548173ffffffffffffffffffffffffffffffffffffffff021916908373ffffffffffffffffffffffffffffffffffffffff16021790555080601560006101000a81548173ffffffffffffffffffffffffffffffffffffffff021916908373ffffffffffffffffffffffffffffffffffffffff1602179055505050505050505050565b600460009054906101000a900473ffffffffffffffffffffffffffffffffffffffff1673ffffffffffffffffffffffffffffffffffffffff163373ffffffffffffffffffffffffffffffffffffffff16146126c457600080fd5b81601681905550806017819055505050565b828054828255906000526020600020908101928215612712579160200282015b828111156127115782518255916020019190600101906126f6565b5b50905061271f9190612723565b5090565b5b8082111561273c576000816000905550600101612724565b5090565b6000819050919050565b61275381612740565b82525050565b600060208201905061276e600083018461274a565b92915050565b6000604051905090565b600080fd5b600080fd5b61279181612740565b811461279c57600080fd5b50565b6000813590506127ae81612788565b92915050565b600080fd5b600080fd5b6000601f19601f8301169050919050565b7f4e487b7100000000000000000000000000000000000000000000000000000000600052604160045260246000fd5b612807826127be565b810181811067ffffffffffffffff82111715612826576128256127cf565b5b80604052505050565b6000612839612774565b905061284582826127fe565b919050565b600067ffffffffffffffff821115612865576128646127cf565b5b61286e826127be565b9050602081019050919050565b82818337600083830152505050565b600061289d6128988461284a565b61282f565b9050828152602081018484840111156128b9576128b86127b9565b5b6128c484828561287b565b509392505050565b600082601f8301126128e1576128e06127b4565b5b81356128f184826020860161288a565b91505092915050565b600080604083850312156129115761291061277e565b5b600061291f8582860161279f565b925050602083013567ffffffffffffffff8111156129405761293f612783565b5b61294c858286016128cc565b9150509250929050565b6000806040838503121561296d5761296c61277e565b5b600061297b8582860161279f565b925050602061298c8582860161279f565b9150509250929050565b60008060008060008060c087890312156129b3576129b261277e565b5b60006129c189828a0161279f565b96505060206129d289828a0161279f565b95505060406129e389828a0161279f565b94505060606129f489828a0161279f565b9350506080612a0589828a0161279f565b92505060a0612a1689828a0161279f565b9150509295509295509295565b600080600060608486031215612a3c57612a3b61277e565b5b6000612a4a8682870161279f565b9350506020612a5b8682870161279f565b9250506040612a6c8682870161279f565b9150509250925092565b600073ffffffffffffffffffffffffffffffffffffffff82169050919050565b6000612aa182612a76565b9050919050565b612ab181612a96565b8114612abc57600080fd5b50565b600081359050612ace81612aa8565b92915050565b60008060408385031215612aeb57612aea61277e565b5b6000612af98582860161279f565b9250506020612b0a85828601612abf565b9150509250929050565b600060208284031215612b2a57612b2961277e565b5b6000612b388482850161279f565b91505092915050565b600060208284031215612b5757612b5661277e565b5b6000612b6584828501612abf565b91505092915050565b600080600080600060a08688031215612b8a57612b8961277e565b5b6000612b988882890161279f565b9550506020612ba98882890161279f565b9450506040612bba8882890161279f565b9350506060612bcb8882890161279f565b9250506080612bdc8882890161279f565b9150509295509295909350565b600081519050919050565b600082825260208201905092915050565b60005b83811015612c23578082015181840152602081019050612c08565b60008484015250505050565b6000612c3a82612be9565b612c448185612bf4565b9350612c54818560208601612c05565b612c5d816127be565b840191505092915050565b60006020820190508181036000830152612c828184612c2f565b905092915050565b600080600080600080600080610100898b031215612cab57612caa61277e565b5b6000612cb98b828c01612abf565b9850506020612cca8b828c01612abf565b9750506040612cdb8b828c01612abf565b9650506060612cec8b828c01612abf565b9550506080612cfd8b828c01612abf565b94505060a0612d0e8b828c01612abf565b93505060c0612d1f8b828c01612abf565b92505060e0612d308b828c01612abf565b9150509295985092959890939650565b7f4e487b7100000000000000000000000000000000000000000000000000000000600052601160045260246000fd5b6000612d7a82612740565b9150612d8583612740565b9250828203905081811115612d9d57612d9c612d40565b5b92915050565b7f4e487b7100000000000000000000000000000000000000000000000000000000600052601260045260246000fd5b6000612ddd82612740565b9150612de883612740565b925082612df857612df7612da3565b5b828204905092915050565b7f4e487b7100000000000000000000000000000000000000000000000000000000600052603260045260246000fd5b6000612e3d82612740565b9150612e4883612740565b9250828202612e5681612740565b91508282048414831517612e6d57612e6c612d40565b5b5092915050565b612e7d81612a96565b82525050565b6000606082019050612e986000830186612e74565b612ea56020830185612e74565b612eb2604083018461274a565b949350505050565b60008115159050919050565b612ecf81612eba565b8114612eda57600080fd5b50565b600081519050612eec81612ec6565b92915050565b600060208284031215612f0857612f0761277e565b5b6000612f1684828501612edd565b91505092915050565b6000612f2a82612740565b91507fffffffffffffffffffffffffffffffffffffffffffffffffffffffffffffffff8203612f5c57612f5b612d40565b5b600182019050919050565b6000612f7282612740565b9150612f7d83612740565b9250828201905080821115612f9557612f94612d40565b5b92915050565b7f4e487b7100000000000000000000000000000000000000000000000000000000600052602260045260246000fd5b60006002820490506001821680612fe257607f821691505b602082108103612ff557612ff4612f9b565b5b50919050565b60008190508160005260206000209050919050565b60006020601f8301049050919050565b600082821b905092915050565b60006008830261305d7fffffffffffffffffffffffffffffffffffffffffffffffffffffffffffffffff82613020565b6130678683613020565b95508019841693508086168417925050509392505050565b6000819050919050565b60006130a461309f61309a84612740565b61307f565b612740565b9050919050565b6000819050919050565b6130be83613089565b6130d26130ca826130ab565b84845461302d565b825550505050565b600090565b6130e76130da565b6130f28184846130b5565b505050565b5b818110156131165761310b6000826130df565b6001810190506130f8565b5050565b601f82111561315b5761312c81612ffb565b61313584613010565b81016020851015613144578190505b61315861315085613010565b8301826130f7565b50505b505050565b600082821c905092915050565b600061317e60001984600802613160565b1980831691505092915050565b6000613197838361316d565b9150826002028217905092915050565b6131b082612be9565b67ffffffffffffffff8111156131c9576131c86127cf565b5b6131d38254612fca565b6131de82828561311a565b600060209050601f83116001811461321157600084156131ff578287015190505b613209858261318b565b865550613271565b601f19841661321f86612ffb565b60005b8281101561324757848901518255600182019150602085019450602081019050613222565b868310156132645784890151613260601f89168261316d565b8355505b6001600288020188555050505b505050505050565b7f62616c616e6365206e6f7420656e6f75676820746f2062757900000000000000600082015250565b60006132af601983612bf4565b91506132ba82613279565b602082019050919050565b600060208201905081810360008301526132de816132a2565b9050919050565b7f796f752063616e206e6f74207075726368617365207468697320426f78000000600082015250565b600061331b601d83612bf4565b9150613326826132e5565b602082019050919050565b6000602082019050818103600083015261334a8161330e565b905091905056fea26469706673582212202fd15c44790cab2f7d6b6811b0b1bb7768be11481a55b18b09f0dda99aa7fe5164736f6c6343000811003368747470733a2f2f676174657761792e70696e6174612e636c6f75642f697066732f516d5644517a6256466b3236646656665a55574b647967734b554a7a75484a526a3548623472664454553368674b2f",
  "linkReferences": {},
  "deployedLinkReferences": {}
}