{
  "_format": "hh-sol-artifact-1",
  "contractName": "DefincubatorReward",
  "sourceName": "contracts/DefincubatorReward.sol",
  "abi": [
    {
      "inputs": [],
      "stateMutability": "nonpayable",
      "type": "constructor"
    },
    {
      "inputs": [
        {
          "internalType": "address",
          "name": "invitedPerson",
          "type": "address"
        }
      ],
      "name": "addPerson",
      "outputs": [],
      "stateMutability": "nonpayable",
      "type": "function"
    },
    {
      "inputs": [
        {
          "internalType": "uint256",
          "name": "",
          "type": "uint256"
        }
      ],
      "name": "addresses",
      "outputs": [
        {
          "internalType": "address",
          "name": "",
          "type": "address"
        }
      ],
      "stateMutability": "view",
      "type": "function"
    },
    {
      "inputs": [],
      "name": "claimClapAndTribalToken",
      "outputs": [],
      "stateMutability": "nonpayable",
      "type": "function"
    },
    {
      "inputs": [],
      "name": "decimals",
      "outputs": [
        {
          "internalType": "uint256",
          "name": "",
          "type": "uint256"
        }
      ],
      "stateMutability": "view",
      "type": "function"
    },
    {
      "inputs": [
        {
          "internalType": "address",
          "name": "",
          "type": "address"
        }
      ],
      "name": "invitedBy",
      "outputs": [
        {
          "internalType": "address",
          "name": "",
          "type": "address"
        }
      ],
      "stateMutability": "view",
      "type": "function"
    },
    {
      "inputs": [],
      "name": "nCollection",
      "outputs": [
        {
          "internalType": "uint256",
          "name": "",
          "type": "uint256"
        }
      ],
      "stateMutability": "view",
      "type": "function"
    },
    {
      "inputs": [
        {
          "internalType": "address",
          "name": "",
          "type": "address"
        }
      ],
      "name": "persons",
      "outputs": [
        {
          "internalType": "uint256",
          "name": "ownedBoxLastIndex",
          "type": "uint256"
        },
        {
          "internalType": "uint256",
          "name": "poolRewardAccumulated",
          "type": "uint256"
        },
        {
          "internalType": "bool",
          "name": "hasPoolQualification",
          "type": "bool"
        },
        {
          "internalType": "uint256",
          "name": "superPromoterLevel",
          "type": "uint256"
        },
        {
          "internalType": "uint256",
          "name": "getQAt",
          "type": "uint256"
        },
        {
          "internalType": "uint256",
          "name": "getQAmount",
          "type": "uint256"
        },
        {
          "internalType": "uint256",
          "name": "clapBalance",
          "type": "uint256"
        },
        {
          "internalType": "uint256",
          "name": "tribalBalance",
          "type": "uint256"
        },
        {
          "internalType": "uint256",
          "name": "busdBalance",
          "type": "uint256"
        },
        {
          "internalType": "uint256",
          "name": "lastClaimedAt",
          "type": "uint256"
        }
      ],
      "stateMutability": "view",
      "type": "function"
    },
    {
      "inputs": [
        {
          "internalType": "uint256",
          "name": "collectionIndex",
          "type": "uint256"
        },
        {
          "internalType": "address",
          "name": "owner",
          "type": "address"
        }
      ],
      "name": "purchaseNFT",
      "outputs": [],
      "stateMutability": "payable",
      "type": "function"
    },
    {
      "inputs": [
        {
          "internalType": "address",
          "name": "newBusdContractAddress",
          "type": "address"
        },
        {
          "internalType": "address",
          "name": "newClapContractAddress",
          "type": "address"
        },
        {
          "internalType": "address",
          "name": "newClapTokenAddress",
          "type": "address"
        },
        {
          "internalType": "address",
          "name": "newTribalContractAddress",
          "type": "address"
        },
        {
          "internalType": "address",
          "name": "newTribalTokenAddress",
          "type": "address"
        },
        {
          "internalType": "address",
          "name": "newPerformancePoolAddress",
          "type": "address"
        },
        {
          "internalType": "address",
          "name": "newDaoTreasureAddress",
          "type": "address"
        },
        {
          "internalType": "address",
          "name": "newInfluenceAddress",
          "type": "address"
        }
      ],
      "name": "setAddresses",
      "outputs": [],
      "stateMutability": "nonpayable",
      "type": "function"
    },
    {
      "inputs": [
        {
          "internalType": "uint256",
          "name": "newBoxReward",
          "type": "uint256"
        },
        {
          "internalType": "uint256",
          "name": "index",
          "type": "uint256"
        }
      ],
      "name": "setBoxReward",
      "outputs": [],
      "stateMutability": "nonpayable",
      "type": "function"
    },
    {
      "inputs": [
        {
          "internalType": "uint256",
          "name": "newFriendChainRewardRate",
          "type": "uint256"
        },
        {
          "internalType": "uint256",
          "name": "index",
          "type": "uint256"
        }
      ],
      "name": "setFriendChainRewardRate",
      "outputs": [],
      "stateMutability": "nonpayable",
      "type": "function"
    },
    {
      "inputs": [
        {
          "internalType": "uint256",
          "name": "newClapTokenRewardRate",
          "type": "uint256"
        },
        {
          "internalType": "uint256",
          "name": "newTribalTokenRewardRate",
          "type": "uint256"
        },
        {
          "internalType": "uint256",
          "name": "newDaoTreasureRewardRate",
          "type": "uint256"
        },
        {
          "internalType": "uint256",
          "name": "newPerformancePoolRewardRate",
          "type": "uint256"
        },
        {
          "internalType": "uint256",
          "name": "newInfluenceRewardRate",
          "type": "uint256"
        }
      ],
      "name": "setOtherRewardRates",
      "outputs": [],
      "stateMutability": "nonpayable",
      "type": "function"
    },
    {
      "inputs": [
        {
          "internalType": "uint256",
          "name": "newPoolRewardRate",
          "type": "uint256"
        },
        {
          "internalType": "uint256",
          "name": "newPoolQ_price",
          "type": "uint256"
        }
      ],
      "name": "setPoolValue",
      "outputs": [],
      "stateMutability": "nonpayable",
      "type": "function"
    },
    {
      "inputs": [
        {
          "internalType": "uint256",
          "name": "newPromoter1Rate",
          "type": "uint256"
        },
        {
          "internalType": "uint256",
          "name": "newPromoter2Rate",
          "type": "uint256"
        },
        {
          "internalType": "uint256",
          "name": "newPromoter1Q_time",
          "type": "uint256"
        },
        {
          "internalType": "uint256",
          "name": "newPromoter2Q_time",
          "type": "uint256"
        },
        {
          "internalType": "uint256",
          "name": "newPromoter1Q_price",
          "type": "uint256"
        },
        {
          "internalType": "uint256",
          "name": "newPromoter2Q_price",
          "type": "uint256"
        }
      ],
      "name": "setPromoterValue",
      "outputs": [],
      "stateMutability": "nonpayable",
      "type": "function"
    },
    {
      "inputs": [
        {
          "internalType": "uint256",
          "name": "newRewardBoxPrice",
          "type": "uint256"
        },
        {
          "internalType": "uint256",
          "name": "index",
          "type": "uint256"
        }
      ],
      "name": "setRewardBoxPrice",
      "outputs": [],
      "stateMutability": "nonpayable",
      "type": "function"
    },
    {
      "inputs": [
        {
          "internalType": "uint256",
          "name": "newRewardPeriod",
          "type": "uint256"
        }
      ],
      "name": "setRewardPeriodWeeks",
      "outputs": [],
      "stateMutability": "nonpayable",
      "type": "function"
    },
    {
      "inputs": [
        {
          "internalType": "uint256",
          "name": "newClapTokenMaxReward",
          "type": "uint256"
        },
        {
          "internalType": "uint256",
          "name": "newTribalTokenMaxReward",
          "type": "uint256"
        }
      ],
      "name": "setTokenMaxReward",
      "outputs": [],
      "stateMutability": "nonpayable",
      "type": "function"
    },
    {
      "inputs": [],
      "name": "withdraw",
      "outputs": [],
      "stateMutability": "nonpayable",
      "type": "function"
    }
  ],
  "bytecode": "0x60806040523480156200001157600080fd5b50336000806101000a81548173ffffffffffffffffffffffffffffffffffffffff021916908373ffffffffffffffffffffffffffffffffffffffff16021790555060086001819055506005600281905550600560238190555060008062000083426200009e60201b620036181760201c565b509150915081600881905550806009819055505050620004e5565b6000806000620000c46201518085620000b8919062000316565b620000d760201b60201c565b8093508194508295505050509193909250565b600080600080849050600062253d8c62010bd983620000f7919062000358565b62000103919062000358565b9050600062023ab18260046200011a9190620003a3565b62000126919062000427565b9050600460038262023ab16200013d9190620003a3565b62000149919062000358565b62000155919062000427565b826200016291906200049b565b9150600062164b0960018462000179919062000358565b610fa0620001889190620003a3565b62000194919062000427565b9050601f6004826105b5620001aa9190620003a3565b620001b6919062000427565b84620001c391906200049b565b620001cf919062000358565b9250600061098f846050620001e59190620003a3565b620001f1919062000427565b9050600060508261098f620002079190620003a3565b62000213919062000427565b856200022091906200049b565b9050600b8262000231919062000427565b945084600c620002429190620003a3565b60028362000251919062000358565b6200025d91906200049b565b915084836031866200027091906200049b565b60646200027e9190620003a3565b6200028a919062000358565b62000296919062000358565b92508298508197508096505050505050509193909250565b6000819050919050565b7f4e487b7100000000000000000000000000000000000000000000000000000000600052601260045260246000fd5b7f4e487b7100000000000000000000000000000000000000000000000000000000600052601160045260246000fd5b60006200032382620002ae565b91506200033083620002ae565b925082620003435762000342620002b8565b5b828204905092915050565b6000819050919050565b600062000365826200034e565b915062000372836200034e565b9250828201905082811215600083121683821260008412151617156200039d576200039c620002e7565b5b92915050565b6000620003b0826200034e565b9150620003bd836200034e565b9250828202620003cd816200034e565b91507f80000000000000000000000000000000000000000000000000000000000000008414600084121615620004085762000407620002e7565b5b828205841483151762000420576200041f620002e7565b5b5092915050565b600062000434826200034e565b915062000441836200034e565b925082620004545762000453620002b8565b5b600160000383147f80000000000000000000000000000000000000000000000000000000000000008314161562000490576200048f620002e7565b5b828205905092915050565b6000620004a8826200034e565b9150620004b5836200034e565b9250828203905081811260008412168282136000851215161715620004df57620004de620002e7565b5b92915050565b61447480620004f56000396000f3fe6080604052600436106101095760003560e01c80638ada2cf611610095578063d2af124611610064578063d2af124614610313578063d733cfd01461033c578063edf26d9b14610365578063f1f8d7da146103a2578063fe679963146103df57610109565b80638ada2cf614610264578063978653ff146102aa578063b8edf3d7146102c1578063bc672a38146102ea57610109565b806358fabed5116100dc57806358fabed5146101a25780635a8509c6146101cb57806379800836146101f4578063849a74421461021057806384ec2ed41461023957610109565b8063313ce5671461010e5780633853d691146101395780633aa60377146101625780633ccfd60b1461018b575b600080fd5b34801561011a57600080fd5b50610123610408565b6040516101309190613869565b60405180910390f35b34801561014557600080fd5b50610160600480360381019061015b91906138b5565b61040e565b005b34801561016e57600080fd5b50610189600480360381019061018491906138e2565b610470565b005b34801561019757600080fd5b506101a06104ff565b005b3480156101ae57600080fd5b506101c960048036038101906101c491906138e2565b6106bb565b005b3480156101d757600080fd5b506101f260048036038101906101ed9190613922565b610747565b005b61020e60048036038101906102099190613a0d565b61081b565b005b34801561021c57600080fd5b50610237600480360381019061023291906138e2565b612407565b005b34801561024557600080fd5b5061024e612487565b60405161025b9190613869565b60405180910390f35b34801561027057600080fd5b5061028b60048036038101906102869190613a4d565b61248d565b6040516102a19a99989796959493929190613a95565b60405180910390f35b3480156102b657600080fd5b506102bf6124ee565b005b3480156102cd57600080fd5b506102e860048036038101906102e391906138e2565b612c81565b005b3480156102f657600080fd5b50610311600480360381019061030c9190613a4d565b612d0e565b005b34801561031f57600080fd5b5061033a60048036038101906103359190613b31565b61322a565b005b34801561034857600080fd5b50610363600480360381019061035e9190613bac565b6132ac565b005b34801561037157600080fd5b5061038c600480360381019061038791906138b5565b613516565b6040516103999190613c71565b60405180910390f35b3480156103ae57600080fd5b506103c960048036038101906103c49190613a4d565b613549565b6040516103d69190613c71565b60405180910390f35b3480156103eb57600080fd5b50610406600480360381019061040191906138e2565b61357c565b005b60025481565b60008054906101000a900473ffffffffffffffffffffffffffffffffffffffff1673ffffffffffffffffffffffffffffffffffffffff163373ffffffffffffffffffffffffffffffffffffffff161461046657600080fd5b8060158190555050565b60008054906101000a900473ffffffffffffffffffffffffffffffffffffffff1673ffffffffffffffffffffffffffffffffffffffff163373ffffffffffffffffffffffffffffffffffffffff16146104c857600080fd5b6064826104d59190613cbb565b601681905550600254600a6104ea9190613e30565b816104f59190613cbb565b6017819055505050565b60008054906101000a900473ffffffffffffffffffffffffffffffffffffffff1673ffffffffffffffffffffffffffffffffffffffff163373ffffffffffffffffffffffffffffffffffffffff161461055757600080fd5b6000600360009054906101000a900473ffffffffffffffffffffffffffffffffffffffff1673ffffffffffffffffffffffffffffffffffffffff166370a08231306040518263ffffffff1660e01b81526004016105b49190613c71565b602060405180830381865afa1580156105d1573d6000803e3d6000fd5b505050506040513d601f19601f820116820180604052508101906105f59190613e90565b9050600360009054906101000a900473ffffffffffffffffffffffffffffffffffffffff1673ffffffffffffffffffffffffffffffffffffffff1663a9059cbb60008054906101000a900473ffffffffffffffffffffffffffffffffffffffff16836040518363ffffffff1660e01b8152600401610674929190613ebd565b6020604051808303816000875af1158015610693573d6000803e3d6000fd5b505050506040513d601f19601f820116820180604052508101906106b79190613f12565b5050565b60008054906101000a900473ffffffffffffffffffffffffffffffffffffffff1673ffffffffffffffffffffffffffffffffffffffff163373ffffffffffffffffffffffffffffffffffffffff161461071357600080fd5b6064826107209190613cbb565b602460006001846107319190613f3f565b8152602001908152602001600020819055505050565b60008054906101000a900473ffffffffffffffffffffffffffffffffffffffff1673ffffffffffffffffffffffffffffffffffffffff163373ffffffffffffffffffffffffffffffffffffffff161461079f57600080fd5b6064866107ac9190613cbb565b6018819055506064856107bf9190613cbb565b60198190555083601a8190555082601b81905550600254600a6107e29190613e30565b826107ed9190613cbb565b601c81905550600254600a6108029190613e30565b8161080d9190613cbb565b601d81905550505050505050565b600e6000838152602001908152602001600020543414610870576040517f08c379a000000000000000000000000000000000000000000000000000000000815260040161086790613fd0565b60405180910390fd5b6000600c60008373ffffffffffffffffffffffffffffffffffffffff1673ffffffffffffffffffffffffffffffffffffffff16815260200190815260200160002090506001836108c09190613f3f565b816000015414610905576040517f08c379a00000000000000000000000000000000000000000000000000000000081526004016108fc9061403c565b60405180910390fd5b828160000181905550428160010184815481106109255761092461405c565b5b906000526020600020018190555060006127109050600360009054906101000a900473ffffffffffffffffffffffffffffffffffffffff1673ffffffffffffffffffffffffffffffffffffffff166323b872dd8430346040518463ffffffff1660e01b81526004016109999392919061408b565b6020604051808303816000875af11580156109b8573d6000803e3d6000fd5b505050506040513d601f19601f820116820180604052508101906109dc9190613f12565b50600360009054906101000a900473ffffffffffffffffffffffffffffffffffffffff1673ffffffffffffffffffffffffffffffffffffffff1663a9059cbb600560009054906101000a900473ffffffffffffffffffffffffffffffffffffffff16612710601e5434610a4f9190613cbb565b610a5991906140f1565b6040518363ffffffff1660e01b8152600401610a76929190613ebd565b6020604051808303816000875af1158015610a95573d6000803e3d6000fd5b505050506040513d601f19601f82011682018060405250810190610ab99190613f12565b50600360009054906101000a900473ffffffffffffffffffffffffffffffffffffffff1673ffffffffffffffffffffffffffffffffffffffff1663a9059cbb600760009054906101000a900473ffffffffffffffffffffffffffffffffffffffff16612710601f5434610b2c9190613cbb565b610b3691906140f1565b6040518363ffffffff1660e01b8152600401610b53929190613ebd565b6020604051808303816000875af1158015610b72573d6000803e3d6000fd5b505050506040513d601f19601f82011682018060405250810190610b969190613f12565b50600360009054906101000a900473ffffffffffffffffffffffffffffffffffffffff1673ffffffffffffffffffffffffffffffffffffffff1663a9059cbb601260009054906101000a900473ffffffffffffffffffffffffffffffffffffffff1661271060205434610c099190613cbb565b610c1391906140f1565b6040518363ffffffff1660e01b8152600401610c30929190613ebd565b6020604051808303816000875af1158015610c4f573d6000803e3d6000fd5b505050506040513d601f19601f82011682018060405250810190610c739190613f12565b50602054601f54601e54610c879190614122565b610c919190614122565b81610c9c9190613f3f565b9050600083905060005b602354811015610e4757600d60008373ffffffffffffffffffffffffffffffffffffffff1673ffffffffffffffffffffffffffffffffffffffff16815260200190815260200160002060009054906101000a900473ffffffffffffffffffffffffffffffffffffffff169150600073ffffffffffffffffffffffffffffffffffffffff168273ffffffffffffffffffffffffffffffffffffffff160315610e4757600360009054906101000a900473ffffffffffffffffffffffffffffffffffffffff1673ffffffffffffffffffffffffffffffffffffffff1663a9059cbb83612710602460008681526020019081526020016000205434610da89190613cbb565b610db291906140f1565b6040518363ffffffff1660e01b8152600401610dcf929190613ebd565b6020604051808303816000875af1158015610dee573d6000803e3d6000fd5b505050506040513d601f19601f82011682018060405250810190610e129190613f12565b50602460008281526020019081526020016000205483610e329190613f3f565b92508080610e3f90614156565b915050610ca6565b50600360009054906101000a900473ffffffffffffffffffffffffffffffffffffffff1673ffffffffffffffffffffffffffffffffffffffff1663a9059cbb601160009054906101000a900473ffffffffffffffffffffffffffffffffffffffff1661271060225434610eba9190613cbb565b610ec491906140f1565b6040518363ffffffff1660e01b8152600401610ee1929190613ebd565b6020604051808303816000875af1158015610f00573d6000803e3d6000fd5b505050506040513d601f19601f82011682018060405250810190610f249190613f12565b50602254602154610f359190614122565b82610f409190613f3f565b9150600080610f4e42613618565b509150915085925081600854148015610f68575080600954145b1561113d5760005b60235481101561113757600d60008573ffffffffffffffffffffffffffffffffffffffff1673ffffffffffffffffffffffffffffffffffffffff16815260200190815260200160002060009054906101000a900473ffffffffffffffffffffffffffffffffffffffff169350600073ffffffffffffffffffffffffffffffffffffffff168473ffffffffffffffffffffffffffffffffffffffff16031561113757600e600089815260200190815260200160002054600c60008673ffffffffffffffffffffffffffffffffffffffff1673ffffffffffffffffffffffffffffffffffffffff16815260200190815260200160002060040160008282546110769190614122565b92505081905550601754600c60008673ffffffffffffffffffffffffffffffffffffffff1673ffffffffffffffffffffffffffffffffffffffff1681526020019081526020016000206004015410611124576001600c60008673ffffffffffffffffffffffffffffffffffffffff1673ffffffffffffffffffffffffffffffffffffffff16815260200190815260200160002060050160006101000a81548160ff0219169083151502179055505b808061112f90614156565b915050610f70565b5061159d565b816008819055508060098190555060006001905060005b600a5481101561159a578180156111e25750601754600c6000600b600085815260200190815260200160002060009054906101000a900473ffffffffffffffffffffffffffffffffffffffff1673ffffffffffffffffffffffffffffffffffffffff1673ffffffffffffffffffffffffffffffffffffffff1681526020019081526020016000206004015410155b1561150c576000805b600a5481101561129557601754600c6000600b600085815260200190815260200160002060009054906101000a900473ffffffffffffffffffffffffffffffffffffffff1673ffffffffffffffffffffffffffffffffffffffff1673ffffffffffffffffffffffffffffffffffffffff168152602001908152602001600020600401541061128257818061127e90614156565b9250505b808061128d90614156565b9150506111eb565b506000811115611506576000600360009054906101000a900473ffffffffffffffffffffffffffffffffffffffff1673ffffffffffffffffffffffffffffffffffffffff166370a08231601060009054906101000a900473ffffffffffffffffffffffffffffffffffffffff166040518263ffffffff1660e01b815260040161131e9190613c71565b602060405180830381865afa15801561133b573d6000803e3d6000fd5b505050506040513d601f19601f8201168201806040525081019061135f9190613e90565b905060005b600a5481101561150357601754600c6000600b600085815260200190815260200160002060009054906101000a900473ffffffffffffffffffffffffffffffffffffffff1673ffffffffffffffffffffffffffffffffffffffff1673ffffffffffffffffffffffffffffffffffffffff16815260200190815260200160002060040154106114f057600360009054906101000a900473ffffffffffffffffffffffffffffffffffffffff1673ffffffffffffffffffffffffffffffffffffffff166323b872dd601060009054906101000a900473ffffffffffffffffffffffffffffffffffffffff16600b600085815260200190815260200160002060009054906101000a900473ffffffffffffffffffffffffffffffffffffffff16868661148d91906140f1565b6040518463ffffffff1660e01b81526004016114ab9392919061408b565b6020604051808303816000875af11580156114ca573d6000803e3d6000fd5b505050506040513d601f19601f820116820180604052508101906114ee9190613f12565b505b80806114fb90614156565b915050611364565b50505b60009250505b6000600c6000600b600085815260200190815260200160002060009054906101000a900473ffffffffffffffffffffffffffffffffffffffff1673ffffffffffffffffffffffffffffffffffffffff1673ffffffffffffffffffffffffffffffffffffffff16815260200190815260200160002060040181905550808061159290614156565b915050611154565b50505b600360009054906101000a900473ffffffffffffffffffffffffffffffffffffffff1673ffffffffffffffffffffffffffffffffffffffff1663a9059cbb601060009054906101000a900473ffffffffffffffffffffffffffffffffffffffff166127106021543461160f9190613cbb565b61161991906140f1565b6040518363ffffffff1660e01b8152600401611636929190613ebd565b6020604051808303816000875af1158015611655573d6000803e3d6000fd5b505050506040513d601f19601f820116820180604052508101906116799190613f12565b5060008060005b600a548110156119e5576001600c6000600b600085815260200190815260200160002060009054906101000a900473ffffffffffffffffffffffffffffffffffffffff1673ffffffffffffffffffffffffffffffffffffffff1673ffffffffffffffffffffffffffffffffffffffff168152602001908152602001600020600601540361182e576224ea00601a546117189190613cbb565b600c6000600b600085815260200190815260200160002060009054906101000a900473ffffffffffffffffffffffffffffffffffffffff1673ffffffffffffffffffffffffffffffffffffffff1673ffffffffffffffffffffffffffffffffffffffff16815260200190815260200160002060070154426117999190613f3f565b116117b15782806117a990614156565b93505061182d565b6000600c6000600b600085815260200190815260200160002060009054906101000a900473ffffffffffffffffffffffffffffffffffffffff1673ffffffffffffffffffffffffffffffffffffffff1673ffffffffffffffffffffffffffffffffffffffff168152602001908152602001600020600601819055505b5b6002600c6000600b600085815260200190815260200160002060009054906101000a900473ffffffffffffffffffffffffffffffffffffffff1673ffffffffffffffffffffffffffffffffffffffff1673ffffffffffffffffffffffffffffffffffffffff16815260200190815260200160002060060154036119d2576224ea00601b546118bc9190613cbb565b600c6000600b600085815260200190815260200160002060009054906101000a900473ffffffffffffffffffffffffffffffffffffffff1673ffffffffffffffffffffffffffffffffffffffff1673ffffffffffffffffffffffffffffffffffffffff168152602001908152602001600020600701544261193d9190613f3f565b1161195557818061194d90614156565b9250506119d1565b6000600c6000600b600085815260200190815260200160002060009054906101000a900473ffffffffffffffffffffffffffffffffffffffff1673ffffffffffffffffffffffffffffffffffffffff1673ffffffffffffffffffffffffffffffffffffffff168152602001908152602001600020600601819055505b5b80806119dd90614156565b915050611680565b506000821115611b885760005b600a54811015611b86576001600c6000600b600085815260200190815260200160002060009054906101000a900473ffffffffffffffffffffffffffffffffffffffff1673ffffffffffffffffffffffffffffffffffffffff1673ffffffffffffffffffffffffffffffffffffffff1681526020019081526020016000206006015403611b7357600360009054906101000a900473ffffffffffffffffffffffffffffffffffffffff1673ffffffffffffffffffffffffffffffffffffffff1663a9059cbb600b600084815260200190815260200160002060009054906101000a900473ffffffffffffffffffffffffffffffffffffffff166127108660185434611afd9190613cbb565b611b0791906140f1565b611b1191906140f1565b6040518363ffffffff1660e01b8152600401611b2e929190613ebd565b6020604051808303816000875af1158015611b4d573d6000803e3d6000fd5b505050506040513d601f19601f82011682018060405250810190611b719190613f12565b505b8080611b7e90614156565b9150506119f2565b505b6000811115611d2a5760005b600a54811015611d28576002600c6000600b600085815260200190815260200160002060009054906101000a900473ffffffffffffffffffffffffffffffffffffffff1673ffffffffffffffffffffffffffffffffffffffff1673ffffffffffffffffffffffffffffffffffffffff1681526020019081526020016000206006015403611d1557600360009054906101000a900473ffffffffffffffffffffffffffffffffffffffff1673ffffffffffffffffffffffffffffffffffffffff1663a9059cbb600b600084815260200190815260200160002060009054906101000a900473ffffffffffffffffffffffffffffffffffffffff166127108560195434611c9f9190613cbb565b611ca991906140f1565b611cb391906140f1565b6040518363ffffffff1660e01b8152600401611cd0929190613ebd565b6020604051808303816000875af1158015611cef573d6000803e3d6000fd5b505050506040513d601f19601f82011682018060405250810190611d139190613f12565b505b8080611d2090614156565b915050611b94565b505b87945060005b60235481101561230557600d60008773ffffffffffffffffffffffffffffffffffffffff1673ffffffffffffffffffffffffffffffffffffffff16815260200190815260200160002060009054906101000a900473ffffffffffffffffffffffffffffffffffffffff169550600073ffffffffffffffffffffffffffffffffffffffff168673ffffffffffffffffffffffffffffffffffffffff16031561230557600e60008b815260200190815260200160002054600c60008873ffffffffffffffffffffffffffffffffffffffff1673ffffffffffffffffffffffffffffffffffffffff1681526020019081526020016000206008016000828254611e369190614122565b925050819055506000600c60008873ffffffffffffffffffffffffffffffffffffffff1673ffffffffffffffffffffffffffffffffffffffff16815260200190815260200160002060060154148015611edb5750600c60008773ffffffffffffffffffffffffffffffffffffffff1673ffffffffffffffffffffffffffffffffffffffff16815260200190815260200160002060050160009054906101000a900460ff165b1561215657601d54600c60008873ffffffffffffffffffffffffffffffffffffffff1673ffffffffffffffffffffffffffffffffffffffff168152602001908152602001600020600801541061201a57601d54600c60008873ffffffffffffffffffffffffffffffffffffffff1673ffffffffffffffffffffffffffffffffffffffff1681526020019081526020016000206008016000828254611f7f9190613f3f565b925050819055506002600c60008873ffffffffffffffffffffffffffffffffffffffff1673ffffffffffffffffffffffffffffffffffffffff1681526020019081526020016000206006018190555042600c60008873ffffffffffffffffffffffffffffffffffffffff1673ffffffffffffffffffffffffffffffffffffffff16815260200190815260200160002060070181905550612151565b601c54600c60008873ffffffffffffffffffffffffffffffffffffffff1673ffffffffffffffffffffffffffffffffffffffff168152602001908152602001600020600801541061215057601c54600c60008873ffffffffffffffffffffffffffffffffffffffff1673ffffffffffffffffffffffffffffffffffffffff16815260200190815260200160002060080160008282546120b99190613f3f565b925050819055506001600c60008873ffffffffffffffffffffffffffffffffffffffff1673ffffffffffffffffffffffffffffffffffffffff1681526020019081526020016000206006018190555042600c60008873ffffffffffffffffffffffffffffffffffffffff1673ffffffffffffffffffffffffffffffffffffffff168152602001908152602001600020600701819055505b5b6122f2565b6001600c60008873ffffffffffffffffffffffffffffffffffffffff1673ffffffffffffffffffffffffffffffffffffffff16815260200190815260200160002060060154036122f157601c54601d546121b09190613f3f565b600c60008873ffffffffffffffffffffffffffffffffffffffff1673ffffffffffffffffffffffffffffffffffffffff16815260200190815260200160002060080154106122f057601c54601d546122089190613f3f565b600c60008873ffffffffffffffffffffffffffffffffffffffff1673ffffffffffffffffffffffffffffffffffffffff16815260200190815260200160002060080160008282546122599190613f3f565b925050819055506002600c60008873ffffffffffffffffffffffffffffffffffffffff1673ffffffffffffffffffffffffffffffffffffffff1681526020019081526020016000206006018190555042600c60008873ffffffffffffffffffffffffffffffffffffffff1673ffffffffffffffffffffffffffffffffffffffff168152602001908152602001600020600701819055505b5b5b80806122fd90614156565b915050611d30565b506019546018546123169190614122565b866123219190613f3f565b9550600360009054906101000a900473ffffffffffffffffffffffffffffffffffffffff1673ffffffffffffffffffffffffffffffffffffffff1663a9059cbb60008054906101000a900473ffffffffffffffffffffffffffffffffffffffff1661271089346123919190613cbb565b61239b91906140f1565b6040518363ffffffff1660e01b81526004016123b8929190613ebd565b6020604051808303816000875af11580156123d7573d6000803e3d6000fd5b505050506040513d601f19601f820116820180604052508101906123fb9190613f12565b50505050505050505050565b60008054906101000a900473ffffffffffffffffffffffffffffffffffffffff1673ffffffffffffffffffffffffffffffffffffffff163373ffffffffffffffffffffffffffffffffffffffff161461245f57600080fd5b60648261246c9190613cbb565b600f6000838152602001908152602001600020819055505050565b60015481565b600c6020528060005260406000206000915090508060000154908060040154908060050160009054906101000a900460ff169080600601549080600701549080600801549080600901549080600a01549080600b01549080600c015490508a565b6000600c60003373ffffffffffffffffffffffffffffffffffffffff1673ffffffffffffffffffffffffffffffffffffffff1681526020019081526020016000209050600062093a8082600c0154426125479190613f3f565b61255191906140f1565b90506000600190505b82600001548111612c565760155462093a808460010183815481106125825761258161405c565b5b9060005260206000200154426125989190613f3f565b6125a291906140f1565b116128b857600460009054906101000a900473ffffffffffffffffffffffffffffffffffffffff1673ffffffffffffffffffffffffffffffffffffffff166323b872dd600560009054906101000a900473ffffffffffffffffffffffffffffffffffffffff1633601554612710600f600088815260200190815260200160002054601354896126319190613cbb565b61263b9190613cbb565b61264591906140f1565b61264f91906140f1565b6040518463ffffffff1660e01b815260040161266d9392919061408b565b6020604051808303816000875af115801561268c573d6000803e3d6000fd5b505050506040513d601f19601f820116820180604052508101906126b09190613f12565b50600660009054906101000a900473ffffffffffffffffffffffffffffffffffffffff1673ffffffffffffffffffffffffffffffffffffffff166323b872dd600760009054906101000a900473ffffffffffffffffffffffffffffffffffffffff1633601554612710600f6000888152602001908152602001600020546014548961273b9190613cbb565b6127459190613cbb565b61274f91906140f1565b61275991906140f1565b6040518463ffffffff1660e01b81526004016127779392919061408b565b6020604051808303816000875af1158015612796573d6000803e3d6000fd5b505050506040513d601f19601f820116820180604052508101906127ba9190613f12565b50601554612710600f600084815260200190815260200160002054601354856127e39190613cbb565b6127ed9190613cbb565b6127f791906140f1565b61280191906140f1565b8360020182815481106128175761281661405c565b5b9060005260206000200160008282546128309190614122565b92505081905550601554612710600f6000848152602001908152602001600020546014548561285f9190613cbb565b6128699190613cbb565b61287391906140f1565b61287d91906140f1565b8360030182815481106128935761289261405c565b5b9060005260206000200160008282546128ac9190614122565b92505081905550612c43565b612710600f6000838152602001908152602001600020546013546128dc9190613cbb565b6128e691906140f1565b8360020182815481106128fc576128fb61405c565b5b90600052602060002001541015612a7d57600460009054906101000a900473ffffffffffffffffffffffffffffffffffffffff1673ffffffffffffffffffffffffffffffffffffffff166323b872dd600560009054906101000a900473ffffffffffffffffffffffffffffffffffffffff16338660020185815481106129855761298461405c565b5b9060005260206000200154612710600f6000888152602001908152602001600020546013546129b49190613cbb565b6129be91906140f1565b6129c89190613f3f565b6040518463ffffffff1660e01b81526004016129e69392919061408b565b6020604051808303816000875af1158015612a05573d6000803e3d6000fd5b505050506040513d601f19601f82011682018060405250810190612a299190613f12565b50612710600f600083815260200190815260200160002054601354612a4e9190613cbb565b612a5891906140f1565b836002018281548110612a6e57612a6d61405c565b5b90600052602060002001819055505b612710600f600083815260200190815260200160002054601454612aa19190613cbb565b612aab91906140f1565b836003018281548110612ac157612ac061405c565b5b90600052602060002001541015612c4257600660009054906101000a900473ffffffffffffffffffffffffffffffffffffffff1673ffffffffffffffffffffffffffffffffffffffff166323b872dd600760009054906101000a900473ffffffffffffffffffffffffffffffffffffffff1633866003018581548110612b4a57612b4961405c565b5b9060005260206000200154612710600f600088815260200190815260200160002054601454612b799190613cbb565b612b8391906140f1565b612b8d9190613f3f565b6040518463ffffffff1660e01b8152600401612bab9392919061408b565b6020604051808303816000875af1158015612bca573d6000803e3d6000fd5b505050506040513d601f19601f82011682018060405250810190612bee9190613f12565b50612710600f600083815260200190815260200160002054601454612c139190613cbb565b612c1d91906140f1565b836003018281548110612c3357612c3261405c565b5b90600052602060002001819055505b5b8080612c4e90614156565b91505061255a565b5062093a8081612c669190613cbb565b82600c0154612c759190614122565b82600c01819055505050565b60008054906101000a900473ffffffffffffffffffffffffffffffffffffffff1673ffffffffffffffffffffffffffffffffffffffff163373ffffffffffffffffffffffffffffffffffffffff1614612cd957600080fd5b600254600a612ce89190613e30565b82612cf39190613cbb565b600e6000838152602001908152602001600020819055505050565b3373ffffffffffffffffffffffffffffffffffffffff16600d60008373ffffffffffffffffffffffffffffffffffffffff1673ffffffffffffffffffffffffffffffffffffffff16815260200190815260200160002060009054906101000a900473ffffffffffffffffffffffffffffffffffffffff1673ffffffffffffffffffffffffffffffffffffffff1603612ddb576040517f08c379a0000000000000000000000000000000000000000000000000000000008152600401612dd2906141ea565b60405180910390fd5b6000600c60008373ffffffffffffffffffffffffffffffffffffffff1673ffffffffffffffffffffffffffffffffffffffff168152602001908152602001600020600001541180612e77575060008054906101000a900473ffffffffffffffffffffffffffffffffffffffff1673ffffffffffffffffffffffffffffffffffffffff168173ffffffffffffffffffffffffffffffffffffffff16145b612eb6576040517f08c379a0000000000000000000000000000000000000000000000000000000008152600401612ead9061427c565b60405180910390fd5b33600b6000600a6000815480929190612ece90614156565b91905055815260200190815260200160002060006101000a81548173ffffffffffffffffffffffffffffffffffffffff021916908373ffffffffffffffffffffffffffffffffffffffff160217905550600060018054612f2e9190614122565b67ffffffffffffffff811115612f4757612f4661429c565b5b604051908082528060200260200182016040528015612f755781602001602082028036833780820191505090505b509050600060018054612f889190614122565b67ffffffffffffffff811115612fa157612fa061429c565b5b604051908082528060200260200182016040528015612fcf5781602001602082028036833780820191505090505b509050600060018054612fe29190614122565b67ffffffffffffffff811115612ffb57612ffa61429c565b5b6040519080825280602002602001820160405280156130295781602001602082028036833780820191505090505b509050604051806101a001604052806000815260200184815260200183815260200182815260200160008152602001600015158152602001600081526020014281526020016000815260200160008152602001600081526020016000815260200142815250600c60003373ffffffffffffffffffffffffffffffffffffffff1673ffffffffffffffffffffffffffffffffffffffff1681526020019081526020016000206000820151816000015560208201518160010190805190602001906130f39291906137e6565b5060408201518160020190805190602001906131109291906137e6565b50606082015181600301908051906020019061312d9291906137e6565b506080820151816004015560a08201518160050160006101000a81548160ff02191690831515021790555060c0820151816006015560e082015181600701556101008201518160080155610120820151816009015561014082015181600a015561016082015181600b015561018082015181600c015590505083600d60003373ffffffffffffffffffffffffffffffffffffffff1673ffffffffffffffffffffffffffffffffffffffff16815260200190815260200160002060006101000a81548173ffffffffffffffffffffffffffffffffffffffff021916908373ffffffffffffffffffffffffffffffffffffffff16021790555050505050565b60008054906101000a900473ffffffffffffffffffffffffffffffffffffffff1673ffffffffffffffffffffffffffffffffffffffff163373ffffffffffffffffffffffffffffffffffffffff161461328257600080fd5b84601e8190555083601f819055508260208190555081602181905550806022819055505050505050565b60008054906101000a900473ffffffffffffffffffffffffffffffffffffffff1673ffffffffffffffffffffffffffffffffffffffff163373ffffffffffffffffffffffffffffffffffffffff161461330457600080fd5b87600360006101000a81548173ffffffffffffffffffffffffffffffffffffffff021916908373ffffffffffffffffffffffffffffffffffffffff16021790555086600460006101000a81548173ffffffffffffffffffffffffffffffffffffffff021916908373ffffffffffffffffffffffffffffffffffffffff16021790555085600560006101000a81548173ffffffffffffffffffffffffffffffffffffffff021916908373ffffffffffffffffffffffffffffffffffffffff16021790555084600660006101000a81548173ffffffffffffffffffffffffffffffffffffffff021916908373ffffffffffffffffffffffffffffffffffffffff16021790555083600760006101000a81548173ffffffffffffffffffffffffffffffffffffffff021916908373ffffffffffffffffffffffffffffffffffffffff16021790555082601060006101000a81548173ffffffffffffffffffffffffffffffffffffffff021916908373ffffffffffffffffffffffffffffffffffffffff16021790555081601260006101000a81548173ffffffffffffffffffffffffffffffffffffffff021916908373ffffffffffffffffffffffffffffffffffffffff16021790555080601160006101000a81548173ffffffffffffffffffffffffffffffffffffffff021916908373ffffffffffffffffffffffffffffffffffffffff1602179055505050505050505050565b600b6020528060005260406000206000915054906101000a900473ffffffffffffffffffffffffffffffffffffffff1681565b600d6020528060005260406000206000915054906101000a900473ffffffffffffffffffffffffffffffffffffffff1681565b60008054906101000a900473ffffffffffffffffffffffffffffffffffffffff1673ffffffffffffffffffffffffffffffffffffffff163373ffffffffffffffffffffffffffffffffffffffff16146135d457600080fd5b600254600a6135e39190613e30565b826135ee9190613cbb565b601381905550600254600a6136039190613e30565b8161360e9190613cbb565b6014819055505050565b6000806000613634620151808561362f91906140f1565b613647565b8093508194508295505050509193909250565b600080600080849050600062253d8c62010bd98361366591906142d5565b61366f91906142d5565b9050600062023ab18260046136849190614319565b61368e9190614391565b9050600460038262023ab16136a39190614319565b6136ad91906142d5565b6136b79190614391565b826136c291906143fb565b9150600062164b096001846136d791906142d5565b610fa06136e49190614319565b6136ee9190614391565b9050601f6004826105b56137029190614319565b61370c9190614391565b8461371791906143fb565b61372191906142d5565b9250600061098f8460506137359190614319565b61373f9190614391565b9050600060508261098f6137539190614319565b61375d9190614391565b8561376891906143fb565b9050600b826137779190614391565b945084600c6137869190614319565b60028361379391906142d5565b61379d91906143fb565b915084836031866137ae91906143fb565b60646137ba9190614319565b6137c491906142d5565b6137ce91906142d5565b92508298508197508096505050505050509193909250565b828054828255906000526020600020908101928215613822579160200282015b82811115613821578251825591602001919060010190613806565b5b50905061382f9190613833565b5090565b5b8082111561384c576000816000905550600101613834565b5090565b6000819050919050565b61386381613850565b82525050565b600060208201905061387e600083018461385a565b92915050565b600080fd5b61389281613850565b811461389d57600080fd5b50565b6000813590506138af81613889565b92915050565b6000602082840312156138cb576138ca613884565b5b60006138d9848285016138a0565b91505092915050565b600080604083850312156138f9576138f8613884565b5b6000613907858286016138a0565b9250506020613918858286016138a0565b9150509250929050565b60008060008060008060c0878903121561393f5761393e613884565b5b600061394d89828a016138a0565b965050602061395e89828a016138a0565b955050604061396f89828a016138a0565b945050606061398089828a016138a0565b935050608061399189828a016138a0565b92505060a06139a289828a016138a0565b9150509295509295509295565b600073ffffffffffffffffffffffffffffffffffffffff82169050919050565b60006139da826139af565b9050919050565b6139ea816139cf565b81146139f557600080fd5b50565b600081359050613a07816139e1565b92915050565b60008060408385031215613a2457613a23613884565b5b6000613a32858286016138a0565b9250506020613a43858286016139f8565b9150509250929050565b600060208284031215613a6357613a62613884565b5b6000613a71848285016139f8565b91505092915050565b60008115159050919050565b613a8f81613a7a565b82525050565b600061014082019050613aab600083018d61385a565b613ab8602083018c61385a565b613ac5604083018b613a86565b613ad2606083018a61385a565b613adf608083018961385a565b613aec60a083018861385a565b613af960c083018761385a565b613b0660e083018661385a565b613b1461010083018561385a565b613b2261012083018461385a565b9b9a5050505050505050505050565b600080600080600060a08688031215613b4d57613b4c613884565b5b6000613b5b888289016138a0565b9550506020613b6c888289016138a0565b9450506040613b7d888289016138a0565b9350506060613b8e888289016138a0565b9250506080613b9f888289016138a0565b9150509295509295909350565b600080600080600080600080610100898b031215613bcd57613bcc613884565b5b6000613bdb8b828c016139f8565b9850506020613bec8b828c016139f8565b9750506040613bfd8b828c016139f8565b9650506060613c0e8b828c016139f8565b9550506080613c1f8b828c016139f8565b94505060a0613c308b828c016139f8565b93505060c0613c418b828c016139f8565b92505060e0613c528b828c016139f8565b9150509295985092959890939650565b613c6b816139cf565b82525050565b6000602082019050613c866000830184613c62565b92915050565b7f4e487b7100000000000000000000000000000000000000000000000000000000600052601160045260246000fd5b6000613cc682613850565b9150613cd183613850565b9250828202613cdf81613850565b91508282048414831517613cf657613cf5613c8c565b5b5092915050565b60008160011c9050919050565b6000808291508390505b6001851115613d5457808604811115613d3057613d2f613c8c565b5b6001851615613d3f5780820291505b8081029050613d4d85613cfd565b9450613d14565b94509492505050565b600082613d6d5760019050613e29565b81613d7b5760009050613e29565b8160018114613d915760028114613d9b57613dca565b6001915050613e29565b60ff841115613dad57613dac613c8c565b5b8360020a915084821115613dc457613dc3613c8c565b5b50613e29565b5060208310610133831016604e8410600b8410161715613dff5782820a905083811115613dfa57613df9613c8c565b5b613e29565b613e0c8484846001613d0a565b92509050818404811115613e2357613e22613c8c565b5b81810290505b9392505050565b6000613e3b82613850565b9150613e4683613850565b9250613e737fffffffffffffffffffffffffffffffffffffffffffffffffffffffffffffffff8484613d5d565b905092915050565b600081519050613e8a81613889565b92915050565b600060208284031215613ea657613ea5613884565b5b6000613eb484828501613e7b565b91505092915050565b6000604082019050613ed26000830185613c62565b613edf602083018461385a565b9392505050565b613eef81613a7a565b8114613efa57600080fd5b50565b600081519050613f0c81613ee6565b92915050565b600060208284031215613f2857613f27613884565b5b6000613f3684828501613efd565b91505092915050565b6000613f4a82613850565b9150613f5583613850565b9250828203905081811115613f6d57613f6c613c8c565b5b92915050565b600082825260208201905092915050565b7f62616c616e6365206e6f7420656e6f75676820746f2062757900000000000000600082015250565b6000613fba601983613f73565b9150613fc582613f84565b602082019050919050565b60006020820190508181036000830152613fe981613fad565b9050919050565b7f796f752063616e206e6f74207075726368617365207468697320426f78000000600082015250565b6000614026601d83613f73565b915061403182613ff0565b602082019050919050565b6000602082019050818103600083015261405581614019565b9050919050565b7f4e487b7100000000000000000000000000000000000000000000000000000000600052603260045260246000fd5b60006060820190506140a06000830186613c62565b6140ad6020830185613c62565b6140ba604083018461385a565b949350505050565b7f4e487b7100000000000000000000000000000000000000000000000000000000600052601260045260246000fd5b60006140fc82613850565b915061410783613850565b925082614117576141166140c2565b5b828204905092915050565b600061412d82613850565b915061413883613850565b92508282019050808211156141505761414f613c8c565b5b92915050565b600061416182613850565b91507fffffffffffffffffffffffffffffffffffffffffffffffffffffffffffffffff820361419357614192613c8c565b5b600182019050919050565b7f63616e2774207365742068696d20617320696e766974656420506572736f6e00600082015250565b60006141d4601f83613f73565b91506141df8261419e565b602082019050919050565b60006020820190508181036000830152614203816141c7565b9050919050565b7f6f6e6c79206f776e6564206174206c65617374206f6e6520636f6c6c6563746960008201527f6f6e2063616e20696e7669746520796f75000000000000000000000000000000602082015250565b6000614266603183613f73565b91506142718261420a565b604082019050919050565b6000602082019050818103600083015261429581614259565b9050919050565b7f4e487b7100000000000000000000000000000000000000000000000000000000600052604160045260246000fd5b6000819050919050565b60006142e0826142cb565b91506142eb836142cb565b92508282019050828112156000831216838212600084121516171561431357614312613c8c565b5b92915050565b6000614324826142cb565b915061432f836142cb565b925082820261433d816142cb565b91507f8000000000000000000000000000000000000000000000000000000000000000841460008412161561437557614374613c8c565b5b828205841483151761438a57614389613c8c565b5b5092915050565b600061439c826142cb565b91506143a7836142cb565b9250826143b7576143b66140c2565b5b600160000383147f8000000000000000000000000000000000000000000000000000000000000000831416156143f0576143ef613c8c565b5b828205905092915050565b6000614406826142cb565b9150614411836142cb565b925082820390508181126000841216828213600085121516171561443857614437613c8c565b5b9291505056fea26469706673582212206db109cb8c30553aadb5316de6b94819def7bf39f54ea0a35ae8b06b1a08190764736f6c63430008110033",
  "linkReferences": {},
  "deployedLinkReferences": {}
}