{
  "_format": "hh-sol-artifact-1",
  "contractName": "DefincubatorReward",
  "sourceName": "contracts/DefincubatorReward.sol",
  "abi": [
    {
      "inputs": [],
      "stateMutability": "nonpayable",
      "type": "constructor"
    },
    {
      "inputs": [
        {
          "internalType": "address",
          "name": "invitedPerson",
          "type": "address"
        }
      ],
      "name": "addPerson",
      "outputs": [],
      "stateMutability": "nonpayable",
      "type": "function"
    },
    {
      "inputs": [
        {
          "internalType": "uint256",
          "name": "",
          "type": "uint256"
        }
      ],
      "name": "addresses",
      "outputs": [
        {
          "internalType": "address",
          "name": "",
          "type": "address"
        }
      ],
      "stateMutability": "view",
      "type": "function"
    },
    {
      "inputs": [],
      "name": "claimClapAndTribalToken",
      "outputs": [],
      "stateMutability": "nonpayable",
      "type": "function"
    },
    {
      "inputs": [],
      "name": "decimals",
      "outputs": [
        {
          "internalType": "uint256",
          "name": "",
          "type": "uint256"
        }
      ],
      "stateMutability": "view",
      "type": "function"
    },
    {
      "inputs": [
        {
          "internalType": "address",
          "name": "",
          "type": "address"
        }
      ],
      "name": "invitedBy",
      "outputs": [
        {
          "internalType": "address",
          "name": "",
          "type": "address"
        }
      ],
      "stateMutability": "view",
      "type": "function"
    },
    {
      "inputs": [],
      "name": "nCollection",
      "outputs": [
        {
          "internalType": "uint256",
          "name": "",
          "type": "uint256"
        }
      ],
      "stateMutability": "view",
      "type": "function"
    },
    {
      "inputs": [
        {
          "internalType": "address",
          "name": "",
          "type": "address"
        }
      ],
      "name": "persons",
      "outputs": [
        {
          "internalType": "uint256",
          "name": "ownedBoxLastIndex",
          "type": "uint256"
        },
        {
          "internalType": "uint256",
          "name": "poolRewardAccumulated",
          "type": "uint256"
        },
        {
          "internalType": "bool",
          "name": "hasPoolQualification",
          "type": "bool"
        },
        {
          "internalType": "uint256",
          "name": "superPromoterLevel",
          "type": "uint256"
        },
        {
          "internalType": "uint256",
          "name": "getQAt",
          "type": "uint256"
        },
        {
          "internalType": "uint256",
          "name": "getQAmount",
          "type": "uint256"
        },
        {
          "internalType": "uint256",
          "name": "clapBalance",
          "type": "uint256"
        },
        {
          "internalType": "uint256",
          "name": "tribalBalance",
          "type": "uint256"
        },
        {
          "internalType": "uint256",
          "name": "busdBalance",
          "type": "uint256"
        },
        {
          "internalType": "uint256",
          "name": "lastClaimedAt",
          "type": "uint256"
        }
      ],
      "stateMutability": "view",
      "type": "function"
    },
    {
      "inputs": [
        {
          "internalType": "uint256",
          "name": "collectionIndex",
          "type": "uint256"
        },
        {
          "internalType": "address",
          "name": "owner",
          "type": "address"
        }
      ],
      "name": "purchaseNFT",
      "outputs": [],
      "stateMutability": "payable",
      "type": "function"
    },
    {
      "inputs": [
        {
          "internalType": "address",
          "name": "newBusdContractAddress",
          "type": "address"
        },
        {
          "internalType": "address",
          "name": "newClapContractAddress",
          "type": "address"
        },
        {
          "internalType": "address",
          "name": "newClapTokenAddress",
          "type": "address"
        },
        {
          "internalType": "address",
          "name": "newTribalContractAddress",
          "type": "address"
        },
        {
          "internalType": "address",
          "name": "newTribalTokenAddress",
          "type": "address"
        },
        {
          "internalType": "address",
          "name": "newPerformancePoolAddress",
          "type": "address"
        },
        {
          "internalType": "address",
          "name": "newDaoTreasureAddress",
          "type": "address"
        },
        {
          "internalType": "address",
          "name": "newInfluenceAddress",
          "type": "address"
        }
      ],
      "name": "setAddresses",
      "outputs": [],
      "stateMutability": "nonpayable",
      "type": "function"
    },
    {
      "inputs": [
        {
          "internalType": "uint256",
          "name": "newBoxReward",
          "type": "uint256"
        },
        {
          "internalType": "uint256",
          "name": "index",
          "type": "uint256"
        }
      ],
      "name": "setBoxReward",
      "outputs": [],
      "stateMutability": "nonpayable",
      "type": "function"
    },
    {
      "inputs": [
        {
          "internalType": "uint256",
          "name": "newFriendChainRewardRate",
          "type": "uint256"
        },
        {
          "internalType": "uint256",
          "name": "index",
          "type": "uint256"
        }
      ],
      "name": "setFriendChainRewardRate",
      "outputs": [],
      "stateMutability": "nonpayable",
      "type": "function"
    },
    {
      "inputs": [
        {
          "internalType": "uint256",
          "name": "newClapTokenRewardRate",
          "type": "uint256"
        },
        {
          "internalType": "uint256",
          "name": "newTribalTokenRewardRate",
          "type": "uint256"
        },
        {
          "internalType": "uint256",
          "name": "newDaoTreasureRewardRate",
          "type": "uint256"
        },
        {
          "internalType": "uint256",
          "name": "newPerformancePoolRewardRate",
          "type": "uint256"
        },
        {
          "internalType": "uint256",
          "name": "newInfluenceRewardRate",
          "type": "uint256"
        }
      ],
      "name": "setOtherRewardRates",
      "outputs": [],
      "stateMutability": "nonpayable",
      "type": "function"
    },
    {
      "inputs": [
        {
          "internalType": "uint256",
          "name": "newPoolRewardRate",
          "type": "uint256"
        },
        {
          "internalType": "uint256",
          "name": "newPoolQ_price",
          "type": "uint256"
        }
      ],
      "name": "setPoolValue",
      "outputs": [],
      "stateMutability": "nonpayable",
      "type": "function"
    },
    {
      "inputs": [
        {
          "internalType": "uint256",
          "name": "newPromoter1Rate",
          "type": "uint256"
        },
        {
          "internalType": "uint256",
          "name": "newPromoter2Rate",
          "type": "uint256"
        },
        {
          "internalType": "uint256",
          "name": "newPromoter1Q_time",
          "type": "uint256"
        },
        {
          "internalType": "uint256",
          "name": "newPromoter2Q_time",
          "type": "uint256"
        },
        {
          "internalType": "uint256",
          "name": "newPromoter1Q_price",
          "type": "uint256"
        },
        {
          "internalType": "uint256",
          "name": "newPromoter2Q_price",
          "type": "uint256"
        }
      ],
      "name": "setPromoterValue",
      "outputs": [],
      "stateMutability": "nonpayable",
      "type": "function"
    },
    {
      "inputs": [
        {
          "internalType": "uint256",
          "name": "newRewardBoxPrice",
          "type": "uint256"
        },
        {
          "internalType": "uint256",
          "name": "index",
          "type": "uint256"
        }
      ],
      "name": "setRewardBoxPrice",
      "outputs": [],
      "stateMutability": "nonpayable",
      "type": "function"
    },
    {
      "inputs": [
        {
          "internalType": "uint256",
          "name": "newRewardPeriod",
          "type": "uint256"
        }
      ],
      "name": "setRewardPeriodWeeks",
      "outputs": [],
      "stateMutability": "nonpayable",
      "type": "function"
    },
    {
      "inputs": [
        {
          "internalType": "uint256",
          "name": "newClapTokenMaxReward",
          "type": "uint256"
        },
        {
          "internalType": "uint256",
          "name": "newTribalTokenMaxReward",
          "type": "uint256"
        }
      ],
      "name": "setTokenMaxReward",
      "outputs": [],
      "stateMutability": "nonpayable",
      "type": "function"
    },
    {
      "inputs": [],
      "name": "withdraw",
      "outputs": [],
      "stateMutability": "nonpayable",
      "type": "function"
    }
  ],
  "bytecode": "0x60806040523480156200001157600080fd5b50336000806101000a81548173ffffffffffffffffffffffffffffffffffffffff021916908373ffffffffffffffffffffffffffffffffffffffff16021790555060086001819055506005600281905550600560238190555060008062000083426200009e60201b620033991760201c565b509150915081600881905550806009819055505050620004e5565b6000806000620000c46201518085620000b8919062000316565b620000d760201b60201c565b8093508194508295505050509193909250565b600080600080849050600062253d8c62010bd983620000f7919062000358565b62000103919062000358565b9050600062023ab18260046200011a9190620003a3565b62000126919062000427565b9050600460038262023ab16200013d9190620003a3565b62000149919062000358565b62000155919062000427565b826200016291906200049b565b9150600062164b0960018462000179919062000358565b610fa0620001889190620003a3565b62000194919062000427565b9050601f6004826105b5620001aa9190620003a3565b620001b6919062000427565b84620001c391906200049b565b620001cf919062000358565b9250600061098f846050620001e59190620003a3565b620001f1919062000427565b9050600060508261098f620002079190620003a3565b62000213919062000427565b856200022091906200049b565b9050600b8262000231919062000427565b945084600c620002429190620003a3565b60028362000251919062000358565b6200025d91906200049b565b915084836031866200027091906200049b565b60646200027e9190620003a3565b6200028a919062000358565b62000296919062000358565b92508298508197508096505050505050509193909250565b6000819050919050565b7f4e487b7100000000000000000000000000000000000000000000000000000000600052601260045260246000fd5b7f4e487b7100000000000000000000000000000000000000000000000000000000600052601160045260246000fd5b60006200032382620002ae565b91506200033083620002ae565b925082620003435762000342620002b8565b5b828204905092915050565b6000819050919050565b600062000365826200034e565b915062000372836200034e565b9250828201905082811215600083121683821260008412151617156200039d576200039c620002e7565b5b92915050565b6000620003b0826200034e565b9150620003bd836200034e565b9250828202620003cd816200034e565b91507f80000000000000000000000000000000000000000000000000000000000000008414600084121615620004085762000407620002e7565b5b828205841483151762000420576200041f620002e7565b5b5092915050565b600062000434826200034e565b915062000441836200034e565b925082620004545762000453620002b8565b5b600160000383147f80000000000000000000000000000000000000000000000000000000000000008314161562000490576200048f620002e7565b5b828205905092915050565b6000620004a8826200034e565b9150620004b5836200034e565b9250828203905081811260008412168282136000851215161715620004df57620004de620002e7565b5b92915050565b6141f580620004f56000396000f3fe6080604052600436106101095760003560e01c80638ada2cf611610095578063d2af124611610064578063d2af124614610313578063d733cfd01461033c578063edf26d9b14610365578063f1f8d7da146103a2578063fe679963146103df57610109565b80638ada2cf614610264578063978653ff146102aa578063b8edf3d7146102c1578063bc672a38146102ea57610109565b806358fabed5116100dc57806358fabed5146101a25780635a8509c6146101cb57806379800836146101f4578063849a74421461021057806384ec2ed41461023957610109565b8063313ce5671461010e5780633853d691146101395780633aa60377146101625780633ccfd60b1461018b575b600080fd5b34801561011a57600080fd5b50610123610408565b60405161013091906135ea565b60405180910390f35b34801561014557600080fd5b50610160600480360381019061015b9190613636565b61040e565b005b34801561016e57600080fd5b5061018960048036038101906101849190613663565b610470565b005b34801561019757600080fd5b506101a06104ff565b005b3480156101ae57600080fd5b506101c960048036038101906101c49190613663565b6106bb565b005b3480156101d757600080fd5b506101f260048036038101906101ed91906136a3565b610747565b005b61020e6004803603810190610209919061378e565b61081b565b005b34801561021c57600080fd5b5061023760048036038101906102329190613663565b612188565b005b34801561024557600080fd5b5061024e612208565b60405161025b91906135ea565b60405180910390f35b34801561027057600080fd5b5061028b600480360381019061028691906137ce565b61220e565b6040516102a19a99989796959493929190613816565b60405180910390f35b3480156102b657600080fd5b506102bf61226f565b005b3480156102cd57600080fd5b506102e860048036038101906102e39190613663565b612a02565b005b3480156102f657600080fd5b50610311600480360381019061030c91906137ce565b612a8f565b005b34801561031f57600080fd5b5061033a600480360381019061033591906138b2565b612fab565b005b34801561034857600080fd5b50610363600480360381019061035e919061392d565b61302d565b005b34801561037157600080fd5b5061038c60048036038101906103879190613636565b613297565b60405161039991906139f2565b60405180910390f35b3480156103ae57600080fd5b506103c960048036038101906103c491906137ce565b6132ca565b6040516103d691906139f2565b60405180910390f35b3480156103eb57600080fd5b5061040660048036038101906104019190613663565b6132fd565b005b60025481565b60008054906101000a900473ffffffffffffffffffffffffffffffffffffffff1673ffffffffffffffffffffffffffffffffffffffff163373ffffffffffffffffffffffffffffffffffffffff161461046657600080fd5b8060158190555050565b60008054906101000a900473ffffffffffffffffffffffffffffffffffffffff1673ffffffffffffffffffffffffffffffffffffffff163373ffffffffffffffffffffffffffffffffffffffff16146104c857600080fd5b6064826104d59190613a3c565b601681905550600254600a6104ea9190613bb1565b816104f59190613a3c565b6017819055505050565b60008054906101000a900473ffffffffffffffffffffffffffffffffffffffff1673ffffffffffffffffffffffffffffffffffffffff163373ffffffffffffffffffffffffffffffffffffffff161461055757600080fd5b6000600360009054906101000a900473ffffffffffffffffffffffffffffffffffffffff1673ffffffffffffffffffffffffffffffffffffffff166370a08231306040518263ffffffff1660e01b81526004016105b491906139f2565b602060405180830381865afa1580156105d1573d6000803e3d6000fd5b505050506040513d601f19601f820116820180604052508101906105f59190613c11565b9050600360009054906101000a900473ffffffffffffffffffffffffffffffffffffffff1673ffffffffffffffffffffffffffffffffffffffff1663a9059cbb60008054906101000a900473ffffffffffffffffffffffffffffffffffffffff16836040518363ffffffff1660e01b8152600401610674929190613c3e565b6020604051808303816000875af1158015610693573d6000803e3d6000fd5b505050506040513d601f19601f820116820180604052508101906106b79190613c93565b5050565b60008054906101000a900473ffffffffffffffffffffffffffffffffffffffff1673ffffffffffffffffffffffffffffffffffffffff163373ffffffffffffffffffffffffffffffffffffffff161461071357600080fd5b6064826107209190613a3c565b602460006001846107319190613cc0565b8152602001908152602001600020819055505050565b60008054906101000a900473ffffffffffffffffffffffffffffffffffffffff1673ffffffffffffffffffffffffffffffffffffffff163373ffffffffffffffffffffffffffffffffffffffff161461079f57600080fd5b6064866107ac9190613a3c565b6018819055506064856107bf9190613a3c565b60198190555083601a8190555082601b81905550600254600a6107e29190613bb1565b826107ed9190613a3c565b601c81905550600254600a6108029190613bb1565b8161080d9190613a3c565b601d81905550505050505050565b600e6000838152602001908152602001600020543414610870576040517f08c379a000000000000000000000000000000000000000000000000000000000815260040161086790613d51565b60405180910390fd5b6000600c60008373ffffffffffffffffffffffffffffffffffffffff1673ffffffffffffffffffffffffffffffffffffffff16815260200190815260200160002090506001836108c09190613cc0565b816000015414610905576040517f08c379a00000000000000000000000000000000000000000000000000000000081526004016108fc90613dbd565b60405180910390fd5b8281600001819055504281600101848154811061092557610924613ddd565b5b906000526020600020018190555060006127109050600360009054906101000a900473ffffffffffffffffffffffffffffffffffffffff1673ffffffffffffffffffffffffffffffffffffffff166323b872dd8430346040518463ffffffff1660e01b815260040161099993929190613e0c565b6020604051808303816000875af11580156109b8573d6000803e3d6000fd5b505050506040513d601f19601f820116820180604052508101906109dc9190613c93565b50600360009054906101000a900473ffffffffffffffffffffffffffffffffffffffff1673ffffffffffffffffffffffffffffffffffffffff1663a9059cbb600560009054906101000a900473ffffffffffffffffffffffffffffffffffffffff16612710601e5434610a4f9190613a3c565b610a599190613e72565b6040518363ffffffff1660e01b8152600401610a76929190613c3e565b6020604051808303816000875af1158015610a95573d6000803e3d6000fd5b505050506040513d601f19601f82011682018060405250810190610ab99190613c93565b50600360009054906101000a900473ffffffffffffffffffffffffffffffffffffffff1673ffffffffffffffffffffffffffffffffffffffff1663a9059cbb600760009054906101000a900473ffffffffffffffffffffffffffffffffffffffff16612710601f5434610b2c9190613a3c565b610b369190613e72565b6040518363ffffffff1660e01b8152600401610b53929190613c3e565b6020604051808303816000875af1158015610b72573d6000803e3d6000fd5b505050506040513d601f19601f82011682018060405250810190610b969190613c93565b50600360009054906101000a900473ffffffffffffffffffffffffffffffffffffffff1673ffffffffffffffffffffffffffffffffffffffff1663a9059cbb601260009054906101000a900473ffffffffffffffffffffffffffffffffffffffff1661271060205434610c099190613a3c565b610c139190613e72565b6040518363ffffffff1660e01b8152600401610c30929190613c3e565b6020604051808303816000875af1158015610c4f573d6000803e3d6000fd5b505050506040513d601f19601f82011682018060405250810190610c739190613c93565b50602054601f54601e54610c879190613ea3565b610c919190613ea3565b81610c9c9190613cc0565b9050600083905060005b602354811015610e4757600d60008373ffffffffffffffffffffffffffffffffffffffff1673ffffffffffffffffffffffffffffffffffffffff16815260200190815260200160002060009054906101000a900473ffffffffffffffffffffffffffffffffffffffff169150600073ffffffffffffffffffffffffffffffffffffffff168273ffffffffffffffffffffffffffffffffffffffff160315610e4757600360009054906101000a900473ffffffffffffffffffffffffffffffffffffffff1673ffffffffffffffffffffffffffffffffffffffff1663a9059cbb83612710602460008681526020019081526020016000205434610da89190613a3c565b610db29190613e72565b6040518363ffffffff1660e01b8152600401610dcf929190613c3e565b6020604051808303816000875af1158015610dee573d6000803e3d6000fd5b505050506040513d601f19601f82011682018060405250810190610e129190613c93565b50602460008281526020019081526020016000205483610e329190613cc0565b92508080610e3f90613ed7565b915050610ca6565b50600360009054906101000a900473ffffffffffffffffffffffffffffffffffffffff1673ffffffffffffffffffffffffffffffffffffffff1663a9059cbb601160009054906101000a900473ffffffffffffffffffffffffffffffffffffffff1661271060225434610eba9190613a3c565b610ec49190613e72565b6040518363ffffffff1660e01b8152600401610ee1929190613c3e565b6020604051808303816000875af1158015610f00573d6000803e3d6000fd5b505050506040513d601f19601f82011682018060405250810190610f249190613c93565b50602254602154610f359190613ea3565b82610f409190613cc0565b9150600080610f4e42613399565b509150915085925081600854148015610f68575080600954145b1561113d5760005b60235481101561113757600d60008573ffffffffffffffffffffffffffffffffffffffff1673ffffffffffffffffffffffffffffffffffffffff16815260200190815260200160002060009054906101000a900473ffffffffffffffffffffffffffffffffffffffff169350600073ffffffffffffffffffffffffffffffffffffffff168473ffffffffffffffffffffffffffffffffffffffff16031561113757600e600089815260200190815260200160002054600c60008673ffffffffffffffffffffffffffffffffffffffff1673ffffffffffffffffffffffffffffffffffffffff16815260200190815260200160002060040160008282546110769190613ea3565b92505081905550601754600c60008673ffffffffffffffffffffffffffffffffffffffff1673ffffffffffffffffffffffffffffffffffffffff1681526020019081526020016000206004015410611124576001600c60008673ffffffffffffffffffffffffffffffffffffffff1673ffffffffffffffffffffffffffffffffffffffff16815260200190815260200160002060050160006101000a81548160ff0219169083151502179055505b808061112f90613ed7565b915050610f70565b5061159d565b816008819055508060098190555060006001905060005b600a5481101561159a578180156111e25750601754600c6000600b600085815260200190815260200160002060009054906101000a900473ffffffffffffffffffffffffffffffffffffffff1673ffffffffffffffffffffffffffffffffffffffff1673ffffffffffffffffffffffffffffffffffffffff1681526020019081526020016000206004015410155b1561150c576000805b600a5481101561129557601754600c6000600b600085815260200190815260200160002060009054906101000a900473ffffffffffffffffffffffffffffffffffffffff1673ffffffffffffffffffffffffffffffffffffffff1673ffffffffffffffffffffffffffffffffffffffff168152602001908152602001600020600401541061128257818061127e90613ed7565b9250505b808061128d90613ed7565b9150506111eb565b506000811115611506576000600360009054906101000a900473ffffffffffffffffffffffffffffffffffffffff1673ffffffffffffffffffffffffffffffffffffffff166370a08231601060009054906101000a900473ffffffffffffffffffffffffffffffffffffffff166040518263ffffffff1660e01b815260040161131e91906139f2565b602060405180830381865afa15801561133b573d6000803e3d6000fd5b505050506040513d601f19601f8201168201806040525081019061135f9190613c11565b905060005b600a5481101561150357601754600c6000600b600085815260200190815260200160002060009054906101000a900473ffffffffffffffffffffffffffffffffffffffff1673ffffffffffffffffffffffffffffffffffffffff1673ffffffffffffffffffffffffffffffffffffffff16815260200190815260200160002060040154106114f057600360009054906101000a900473ffffffffffffffffffffffffffffffffffffffff1673ffffffffffffffffffffffffffffffffffffffff166323b872dd601060009054906101000a900473ffffffffffffffffffffffffffffffffffffffff16600b600085815260200190815260200160002060009054906101000a900473ffffffffffffffffffffffffffffffffffffffff16868661148d9190613e72565b6040518463ffffffff1660e01b81526004016114ab93929190613e0c565b6020604051808303816000875af11580156114ca573d6000803e3d6000fd5b505050506040513d601f19601f820116820180604052508101906114ee9190613c93565b505b80806114fb90613ed7565b915050611364565b50505b60009250505b6000600c6000600b600085815260200190815260200160002060009054906101000a900473ffffffffffffffffffffffffffffffffffffffff1673ffffffffffffffffffffffffffffffffffffffff1673ffffffffffffffffffffffffffffffffffffffff16815260200190815260200160002060040181905550808061159290613ed7565b915050611154565b50505b600360009054906101000a900473ffffffffffffffffffffffffffffffffffffffff1673ffffffffffffffffffffffffffffffffffffffff1663a9059cbb601060009054906101000a900473ffffffffffffffffffffffffffffffffffffffff166127106021543461160f9190613a3c565b6116199190613e72565b6040518363ffffffff1660e01b8152600401611636929190613c3e565b6020604051808303816000875af1158015611655573d6000803e3d6000fd5b505050506040513d601f19601f820116820180604052508101906116799190613c93565b508592506000805b600115611ac857600d60008673ffffffffffffffffffffffffffffffffffffffff1673ffffffffffffffffffffffffffffffffffffffff16815260200190815260200160002060009054906101000a900473ffffffffffffffffffffffffffffffffffffffff169450600073ffffffffffffffffffffffffffffffffffffffff168573ffffffffffffffffffffffffffffffffffffffff160315611ac8576001600c60008773ffffffffffffffffffffffffffffffffffffffff1673ffffffffffffffffffffffffffffffffffffffff16815260200190815260200160002060060154036118f1576224ea00601a5461177a9190613a3c565b600c60008773ffffffffffffffffffffffffffffffffffffffff1673ffffffffffffffffffffffffffffffffffffffff16815260200190815260200160002060070154426117c89190613cc0565b116118a757816118a257600360009054906101000a900473ffffffffffffffffffffffffffffffffffffffff1673ffffffffffffffffffffffffffffffffffffffff1663a9059cbb86612710601854346118229190613a3c565b61182c9190613e72565b6040518363ffffffff1660e01b8152600401611849929190613c3e565b6020604051808303816000875af1158015611868573d6000803e3d6000fd5b505050506040513d601f19601f8201168201806040525081019061188c9190613c93565b50600191506018548661189f9190613cc0565b95505b6118f0565b6000600c60008773ffffffffffffffffffffffffffffffffffffffff1673ffffffffffffffffffffffffffffffffffffffff168152602001908152602001600020600601819055505b5b6002600c60008773ffffffffffffffffffffffffffffffffffffffff1673ffffffffffffffffffffffffffffffffffffffff1681526020019081526020016000206006015403611ac3576224ea00601b5461194c9190613a3c565b600c60008773ffffffffffffffffffffffffffffffffffffffff1673ffffffffffffffffffffffffffffffffffffffff168152602001908152602001600020600701544261199a9190613cc0565b11611a795780611a7457600360009054906101000a900473ffffffffffffffffffffffffffffffffffffffff1673ffffffffffffffffffffffffffffffffffffffff1663a9059cbb86612710601954346119f49190613a3c565b6119fe9190613e72565b6040518363ffffffff1660e01b8152600401611a1b929190613c3e565b6020604051808303816000875af1158015611a3a573d6000803e3d6000fd5b505050506040513d601f19601f82011682018060405250810190611a5e9190613c93565b506001905060195486611a719190613cc0565b95505b611ac2565b6000600c60008773ffffffffffffffffffffffffffffffffffffffff1673ffffffffffffffffffffffffffffffffffffffff168152602001908152602001600020600601819055505b5b611681565b87945060005b6023548110156120a357600d60008773ffffffffffffffffffffffffffffffffffffffff1673ffffffffffffffffffffffffffffffffffffffff16815260200190815260200160002060009054906101000a900473ffffffffffffffffffffffffffffffffffffffff169550600073ffffffffffffffffffffffffffffffffffffffff168673ffffffffffffffffffffffffffffffffffffffff1603156120a357600e60008b815260200190815260200160002054600c60008873ffffffffffffffffffffffffffffffffffffffff1673ffffffffffffffffffffffffffffffffffffffff1681526020019081526020016000206008016000828254611bd49190613ea3565b925050819055506000600c60008873ffffffffffffffffffffffffffffffffffffffff1673ffffffffffffffffffffffffffffffffffffffff16815260200190815260200160002060060154148015611c795750600c60008773ffffffffffffffffffffffffffffffffffffffff1673ffffffffffffffffffffffffffffffffffffffff16815260200190815260200160002060050160009054906101000a900460ff165b15611ef457601d54600c60008873ffffffffffffffffffffffffffffffffffffffff1673ffffffffffffffffffffffffffffffffffffffff1681526020019081526020016000206008015410611db857601d54600c60008873ffffffffffffffffffffffffffffffffffffffff1673ffffffffffffffffffffffffffffffffffffffff1681526020019081526020016000206008016000828254611d1d9190613cc0565b925050819055506002600c60008873ffffffffffffffffffffffffffffffffffffffff1673ffffffffffffffffffffffffffffffffffffffff1681526020019081526020016000206006018190555042600c60008873ffffffffffffffffffffffffffffffffffffffff1673ffffffffffffffffffffffffffffffffffffffff16815260200190815260200160002060070181905550611eef565b601c54600c60008873ffffffffffffffffffffffffffffffffffffffff1673ffffffffffffffffffffffffffffffffffffffff1681526020019081526020016000206008015410611eee57601c54600c60008873ffffffffffffffffffffffffffffffffffffffff1673ffffffffffffffffffffffffffffffffffffffff1681526020019081526020016000206008016000828254611e579190613cc0565b925050819055506001600c60008873ffffffffffffffffffffffffffffffffffffffff1673ffffffffffffffffffffffffffffffffffffffff1681526020019081526020016000206006018190555042600c60008873ffffffffffffffffffffffffffffffffffffffff1673ffffffffffffffffffffffffffffffffffffffff168152602001908152602001600020600701819055505b5b612090565b6001600c60008873ffffffffffffffffffffffffffffffffffffffff1673ffffffffffffffffffffffffffffffffffffffff168152602001908152602001600020600601540361208f57601c54601d54611f4e9190613cc0565b600c60008873ffffffffffffffffffffffffffffffffffffffff1673ffffffffffffffffffffffffffffffffffffffff168152602001908152602001600020600801541061208e57601c54601d54611fa69190613cc0565b600c60008873ffffffffffffffffffffffffffffffffffffffff1673ffffffffffffffffffffffffffffffffffffffff1681526020019081526020016000206008016000828254611ff79190613cc0565b925050819055506002600c60008873ffffffffffffffffffffffffffffffffffffffff1673ffffffffffffffffffffffffffffffffffffffff1681526020019081526020016000206006018190555042600c60008873ffffffffffffffffffffffffffffffffffffffff1673ffffffffffffffffffffffffffffffffffffffff168152602001908152602001600020600701819055505b5b5b808061209b90613ed7565b915050611ace565b50600360009054906101000a900473ffffffffffffffffffffffffffffffffffffffff1673ffffffffffffffffffffffffffffffffffffffff1663a9059cbb60008054906101000a900473ffffffffffffffffffffffffffffffffffffffff1661271089346121129190613a3c565b61211c9190613e72565b6040518363ffffffff1660e01b8152600401612139929190613c3e565b6020604051808303816000875af1158015612158573d6000803e3d6000fd5b505050506040513d601f19601f8201168201806040525081019061217c9190613c93565b50505050505050505050565b60008054906101000a900473ffffffffffffffffffffffffffffffffffffffff1673ffffffffffffffffffffffffffffffffffffffff163373ffffffffffffffffffffffffffffffffffffffff16146121e057600080fd5b6064826121ed9190613a3c565b600f6000838152602001908152602001600020819055505050565b60015481565b600c6020528060005260406000206000915090508060000154908060040154908060050160009054906101000a900460ff169080600601549080600701549080600801549080600901549080600a01549080600b01549080600c015490508a565b6000600c60003373ffffffffffffffffffffffffffffffffffffffff1673ffffffffffffffffffffffffffffffffffffffff1681526020019081526020016000209050600062093a8082600c0154426122c89190613cc0565b6122d29190613e72565b90506000600190505b826000015481116129d75760155462093a8084600101838154811061230357612302613ddd565b5b9060005260206000200154426123199190613cc0565b6123239190613e72565b1161263957600460009054906101000a900473ffffffffffffffffffffffffffffffffffffffff1673ffffffffffffffffffffffffffffffffffffffff166323b872dd600560009054906101000a900473ffffffffffffffffffffffffffffffffffffffff1633601554612710600f600088815260200190815260200160002054601354896123b29190613a3c565b6123bc9190613a3c565b6123c69190613e72565b6123d09190613e72565b6040518463ffffffff1660e01b81526004016123ee93929190613e0c565b6020604051808303816000875af115801561240d573d6000803e3d6000fd5b505050506040513d601f19601f820116820180604052508101906124319190613c93565b50600660009054906101000a900473ffffffffffffffffffffffffffffffffffffffff1673ffffffffffffffffffffffffffffffffffffffff166323b872dd600760009054906101000a900473ffffffffffffffffffffffffffffffffffffffff1633601554612710600f600088815260200190815260200160002054601454896124bc9190613a3c565b6124c69190613a3c565b6124d09190613e72565b6124da9190613e72565b6040518463ffffffff1660e01b81526004016124f893929190613e0c565b6020604051808303816000875af1158015612517573d6000803e3d6000fd5b505050506040513d601f19601f8201168201806040525081019061253b9190613c93565b50601554612710600f600084815260200190815260200160002054601354856125649190613a3c565b61256e9190613a3c565b6125789190613e72565b6125829190613e72565b83600201828154811061259857612597613ddd565b5b9060005260206000200160008282546125b19190613ea3565b92505081905550601554612710600f600084815260200190815260200160002054601454856125e09190613a3c565b6125ea9190613a3c565b6125f49190613e72565b6125fe9190613e72565b83600301828154811061261457612613613ddd565b5b90600052602060002001600082825461262d9190613ea3565b925050819055506129c4565b612710600f60008381526020019081526020016000205460135461265d9190613a3c565b6126679190613e72565b83600201828154811061267d5761267c613ddd565b5b906000526020600020015410156127fe57600460009054906101000a900473ffffffffffffffffffffffffffffffffffffffff1673ffffffffffffffffffffffffffffffffffffffff166323b872dd600560009054906101000a900473ffffffffffffffffffffffffffffffffffffffff163386600201858154811061270657612705613ddd565b5b9060005260206000200154612710600f6000888152602001908152602001600020546013546127359190613a3c565b61273f9190613e72565b6127499190613cc0565b6040518463ffffffff1660e01b815260040161276793929190613e0c565b6020604051808303816000875af1158015612786573d6000803e3d6000fd5b505050506040513d601f19601f820116820180604052508101906127aa9190613c93565b50612710600f6000838152602001908152602001600020546013546127cf9190613a3c565b6127d99190613e72565b8360020182815481106127ef576127ee613ddd565b5b90600052602060002001819055505b612710600f6000838152602001908152602001600020546014546128229190613a3c565b61282c9190613e72565b83600301828154811061284257612841613ddd565b5b906000526020600020015410156129c357600660009054906101000a900473ffffffffffffffffffffffffffffffffffffffff1673ffffffffffffffffffffffffffffffffffffffff166323b872dd600760009054906101000a900473ffffffffffffffffffffffffffffffffffffffff16338660030185815481106128cb576128ca613ddd565b5b9060005260206000200154612710600f6000888152602001908152602001600020546014546128fa9190613a3c565b6129049190613e72565b61290e9190613cc0565b6040518463ffffffff1660e01b815260040161292c93929190613e0c565b6020604051808303816000875af115801561294b573d6000803e3d6000fd5b505050506040513d601f19601f8201168201806040525081019061296f9190613c93565b50612710600f6000838152602001908152602001600020546014546129949190613a3c565b61299e9190613e72565b8360030182815481106129b4576129b3613ddd565b5b90600052602060002001819055505b5b80806129cf90613ed7565b9150506122db565b5062093a80816129e79190613a3c565b82600c01546129f69190613ea3565b82600c01819055505050565b60008054906101000a900473ffffffffffffffffffffffffffffffffffffffff1673ffffffffffffffffffffffffffffffffffffffff163373ffffffffffffffffffffffffffffffffffffffff1614612a5a57600080fd5b600254600a612a699190613bb1565b82612a749190613a3c565b600e6000838152602001908152602001600020819055505050565b3373ffffffffffffffffffffffffffffffffffffffff16600d60008373ffffffffffffffffffffffffffffffffffffffff1673ffffffffffffffffffffffffffffffffffffffff16815260200190815260200160002060009054906101000a900473ffffffffffffffffffffffffffffffffffffffff1673ffffffffffffffffffffffffffffffffffffffff1603612b5c576040517f08c379a0000000000000000000000000000000000000000000000000000000008152600401612b5390613f6b565b60405180910390fd5b6000600c60008373ffffffffffffffffffffffffffffffffffffffff1673ffffffffffffffffffffffffffffffffffffffff168152602001908152602001600020600001541180612bf8575060008054906101000a900473ffffffffffffffffffffffffffffffffffffffff1673ffffffffffffffffffffffffffffffffffffffff168173ffffffffffffffffffffffffffffffffffffffff16145b612c37576040517f08c379a0000000000000000000000000000000000000000000000000000000008152600401612c2e90613ffd565b60405180910390fd5b33600b6000600a6000815480929190612c4f90613ed7565b91905055815260200190815260200160002060006101000a81548173ffffffffffffffffffffffffffffffffffffffff021916908373ffffffffffffffffffffffffffffffffffffffff160217905550600060018054612caf9190613ea3565b67ffffffffffffffff811115612cc857612cc761401d565b5b604051908082528060200260200182016040528015612cf65781602001602082028036833780820191505090505b509050600060018054612d099190613ea3565b67ffffffffffffffff811115612d2257612d2161401d565b5b604051908082528060200260200182016040528015612d505781602001602082028036833780820191505090505b509050600060018054612d639190613ea3565b67ffffffffffffffff811115612d7c57612d7b61401d565b5b604051908082528060200260200182016040528015612daa5781602001602082028036833780820191505090505b509050604051806101a001604052806000815260200184815260200183815260200182815260200160008152602001600015158152602001600081526020014281526020016000815260200160008152602001600081526020016000815260200142815250600c60003373ffffffffffffffffffffffffffffffffffffffff1673ffffffffffffffffffffffffffffffffffffffff168152602001908152602001600020600082015181600001556020820151816001019080519060200190612e74929190613567565b506040820151816002019080519060200190612e91929190613567565b506060820151816003019080519060200190612eae929190613567565b506080820151816004015560a08201518160050160006101000a81548160ff02191690831515021790555060c0820151816006015560e082015181600701556101008201518160080155610120820151816009015561014082015181600a015561016082015181600b015561018082015181600c015590505083600d60003373ffffffffffffffffffffffffffffffffffffffff1673ffffffffffffffffffffffffffffffffffffffff16815260200190815260200160002060006101000a81548173ffffffffffffffffffffffffffffffffffffffff021916908373ffffffffffffffffffffffffffffffffffffffff16021790555050505050565b60008054906101000a900473ffffffffffffffffffffffffffffffffffffffff1673ffffffffffffffffffffffffffffffffffffffff163373ffffffffffffffffffffffffffffffffffffffff161461300357600080fd5b84601e8190555083601f819055508260208190555081602181905550806022819055505050505050565b60008054906101000a900473ffffffffffffffffffffffffffffffffffffffff1673ffffffffffffffffffffffffffffffffffffffff163373ffffffffffffffffffffffffffffffffffffffff161461308557600080fd5b87600360006101000a81548173ffffffffffffffffffffffffffffffffffffffff021916908373ffffffffffffffffffffffffffffffffffffffff16021790555086600460006101000a81548173ffffffffffffffffffffffffffffffffffffffff021916908373ffffffffffffffffffffffffffffffffffffffff16021790555085600560006101000a81548173ffffffffffffffffffffffffffffffffffffffff021916908373ffffffffffffffffffffffffffffffffffffffff16021790555084600660006101000a81548173ffffffffffffffffffffffffffffffffffffffff021916908373ffffffffffffffffffffffffffffffffffffffff16021790555083600760006101000a81548173ffffffffffffffffffffffffffffffffffffffff021916908373ffffffffffffffffffffffffffffffffffffffff16021790555082601060006101000a81548173ffffffffffffffffffffffffffffffffffffffff021916908373ffffffffffffffffffffffffffffffffffffffff16021790555081601260006101000a81548173ffffffffffffffffffffffffffffffffffffffff021916908373ffffffffffffffffffffffffffffffffffffffff16021790555080601160006101000a81548173ffffffffffffffffffffffffffffffffffffffff021916908373ffffffffffffffffffffffffffffffffffffffff1602179055505050505050505050565b600b6020528060005260406000206000915054906101000a900473ffffffffffffffffffffffffffffffffffffffff1681565b600d6020528060005260406000206000915054906101000a900473ffffffffffffffffffffffffffffffffffffffff1681565b60008054906101000a900473ffffffffffffffffffffffffffffffffffffffff1673ffffffffffffffffffffffffffffffffffffffff163373ffffffffffffffffffffffffffffffffffffffff161461335557600080fd5b600254600a6133649190613bb1565b8261336f9190613a3c565b601381905550600254600a6133849190613bb1565b8161338f9190613a3c565b6014819055505050565b60008060006133b562015180856133b09190613e72565b6133c8565b8093508194508295505050509193909250565b600080600080849050600062253d8c62010bd9836133e69190614056565b6133f09190614056565b9050600062023ab1826004613405919061409a565b61340f9190614112565b9050600460038262023ab1613424919061409a565b61342e9190614056565b6134389190614112565b82613443919061417c565b9150600062164b096001846134589190614056565b610fa0613465919061409a565b61346f9190614112565b9050601f6004826105b5613483919061409a565b61348d9190614112565b84613498919061417c565b6134a29190614056565b9250600061098f8460506134b6919061409a565b6134c09190614112565b9050600060508261098f6134d4919061409a565b6134de9190614112565b856134e9919061417c565b9050600b826134f89190614112565b945084600c613507919061409a565b6002836135149190614056565b61351e919061417c565b9150848360318661352f919061417c565b606461353b919061409a565b6135459190614056565b61354f9190614056565b92508298508197508096505050505050509193909250565b8280548282559060005260206000209081019282156135a3579160200282015b828111156135a2578251825591602001919060010190613587565b5b5090506135b091906135b4565b5090565b5b808211156135cd5760008160009055506001016135b5565b5090565b6000819050919050565b6135e4816135d1565b82525050565b60006020820190506135ff60008301846135db565b92915050565b600080fd5b613613816135d1565b811461361e57600080fd5b50565b6000813590506136308161360a565b92915050565b60006020828403121561364c5761364b613605565b5b600061365a84828501613621565b91505092915050565b6000806040838503121561367a57613679613605565b5b600061368885828601613621565b925050602061369985828601613621565b9150509250929050565b60008060008060008060c087890312156136c0576136bf613605565b5b60006136ce89828a01613621565b96505060206136df89828a01613621565b95505060406136f089828a01613621565b945050606061370189828a01613621565b935050608061371289828a01613621565b92505060a061372389828a01613621565b9150509295509295509295565b600073ffffffffffffffffffffffffffffffffffffffff82169050919050565b600061375b82613730565b9050919050565b61376b81613750565b811461377657600080fd5b50565b60008135905061378881613762565b92915050565b600080604083850312156137a5576137a4613605565b5b60006137b385828601613621565b92505060206137c485828601613779565b9150509250929050565b6000602082840312156137e4576137e3613605565b5b60006137f284828501613779565b91505092915050565b60008115159050919050565b613810816137fb565b82525050565b60006101408201905061382c600083018d6135db565b613839602083018c6135db565b613846604083018b613807565b613853606083018a6135db565b61386060808301896135db565b61386d60a08301886135db565b61387a60c08301876135db565b61388760e08301866135db565b6138956101008301856135db565b6138a36101208301846135db565b9b9a5050505050505050505050565b600080600080600060a086880312156138ce576138cd613605565b5b60006138dc88828901613621565b95505060206138ed88828901613621565b94505060406138fe88828901613621565b935050606061390f88828901613621565b925050608061392088828901613621565b9150509295509295909350565b600080600080600080600080610100898b03121561394e5761394d613605565b5b600061395c8b828c01613779565b985050602061396d8b828c01613779565b975050604061397e8b828c01613779565b965050606061398f8b828c01613779565b95505060806139a08b828c01613779565b94505060a06139b18b828c01613779565b93505060c06139c28b828c01613779565b92505060e06139d38b828c01613779565b9150509295985092959890939650565b6139ec81613750565b82525050565b6000602082019050613a0760008301846139e3565b92915050565b7f4e487b7100000000000000000000000000000000000000000000000000000000600052601160045260246000fd5b6000613a47826135d1565b9150613a52836135d1565b9250828202613a60816135d1565b91508282048414831517613a7757613a76613a0d565b5b5092915050565b60008160011c9050919050565b6000808291508390505b6001851115613ad557808604811115613ab157613ab0613a0d565b5b6001851615613ac05780820291505b8081029050613ace85613a7e565b9450613a95565b94509492505050565b600082613aee5760019050613baa565b81613afc5760009050613baa565b8160018114613b125760028114613b1c57613b4b565b6001915050613baa565b60ff841115613b2e57613b2d613a0d565b5b8360020a915084821115613b4557613b44613a0d565b5b50613baa565b5060208310610133831016604e8410600b8410161715613b805782820a905083811115613b7b57613b7a613a0d565b5b613baa565b613b8d8484846001613a8b565b92509050818404811115613ba457613ba3613a0d565b5b81810290505b9392505050565b6000613bbc826135d1565b9150613bc7836135d1565b9250613bf47fffffffffffffffffffffffffffffffffffffffffffffffffffffffffffffffff8484613ade565b905092915050565b600081519050613c0b8161360a565b92915050565b600060208284031215613c2757613c26613605565b5b6000613c3584828501613bfc565b91505092915050565b6000604082019050613c5360008301856139e3565b613c6060208301846135db565b9392505050565b613c70816137fb565b8114613c7b57600080fd5b50565b600081519050613c8d81613c67565b92915050565b600060208284031215613ca957613ca8613605565b5b6000613cb784828501613c7e565b91505092915050565b6000613ccb826135d1565b9150613cd6836135d1565b9250828203905081811115613cee57613ced613a0d565b5b92915050565b600082825260208201905092915050565b7f62616c616e6365206e6f7420656e6f75676820746f2062757900000000000000600082015250565b6000613d3b601983613cf4565b9150613d4682613d05565b602082019050919050565b60006020820190508181036000830152613d6a81613d2e565b9050919050565b7f796f752063616e206e6f74207075726368617365207468697320426f78000000600082015250565b6000613da7601d83613cf4565b9150613db282613d71565b602082019050919050565b60006020820190508181036000830152613dd681613d9a565b9050919050565b7f4e487b7100000000000000000000000000000000000000000000000000000000600052603260045260246000fd5b6000606082019050613e2160008301866139e3565b613e2e60208301856139e3565b613e3b60408301846135db565b949350505050565b7f4e487b7100000000000000000000000000000000000000000000000000000000600052601260045260246000fd5b6000613e7d826135d1565b9150613e88836135d1565b925082613e9857613e97613e43565b5b828204905092915050565b6000613eae826135d1565b9150613eb9836135d1565b9250828201905080821115613ed157613ed0613a0d565b5b92915050565b6000613ee2826135d1565b91507fffffffffffffffffffffffffffffffffffffffffffffffffffffffffffffffff8203613f1457613f13613a0d565b5b600182019050919050565b7f63616e2774207365742068696d20617320696e766974656420506572736f6e00600082015250565b6000613f55601f83613cf4565b9150613f6082613f1f565b602082019050919050565b60006020820190508181036000830152613f8481613f48565b9050919050565b7f6f6e6c79206f776e6564206174206c65617374206f6e6520636f6c6c6563746960008201527f6f6e2063616e20696e7669746520796f75000000000000000000000000000000602082015250565b6000613fe7603183613cf4565b9150613ff282613f8b565b604082019050919050565b6000602082019050818103600083015261401681613fda565b9050919050565b7f4e487b7100000000000000000000000000000000000000000000000000000000600052604160045260246000fd5b6000819050919050565b60006140618261404c565b915061406c8361404c565b92508282019050828112156000831216838212600084121516171561409457614093613a0d565b5b92915050565b60006140a58261404c565b91506140b08361404c565b92508282026140be8161404c565b91507f800000000000000000000000000000000000000000000000000000000000000084146000841216156140f6576140f5613a0d565b5b828205841483151761410b5761410a613a0d565b5b5092915050565b600061411d8261404c565b91506141288361404c565b92508261413857614137613e43565b5b600160000383147f80000000000000000000000000000000000000000000000000000000000000008314161561417157614170613a0d565b5b828205905092915050565b60006141878261404c565b91506141928361404c565b92508282039050818112600084121682821360008512151617156141b9576141b8613a0d565b5b9291505056fea264697066735822122099b55bf37a206bff7938a95af686c345f75b801565f0f4056a0cb2b489a87ed664736f6c63430008110033",
  "linkReferences": {},
  "deployedLinkReferences": {}
}