{
  "_format": "hh-sol-artifact-1",
  "contractName": "DefincubatorReward",
  "sourceName": "contracts/DefincubatorReward.sol",
  "abi": [
    {
      "inputs": [],
      "stateMutability": "nonpayable",
      "type": "constructor"
    },
    {
      "inputs": [
        {
          "internalType": "uint256",
          "name": "collectionID",
          "type": "uint256"
        }
      ],
      "name": "addNewCollection",
      "outputs": [],
      "stateMutability": "nonpayable",
      "type": "function"
    },
    {
      "inputs": [
        {
          "internalType": "uint256",
          "name": "",
          "type": "uint256"
        }
      ],
      "name": "addresses",
      "outputs": [
        {
          "internalType": "address",
          "name": "",
          "type": "address"
        }
      ],
      "stateMutability": "view",
      "type": "function"
    },
    {
      "inputs": [
        {
          "internalType": "address",
          "name": "to",
          "type": "address"
        }
      ],
      "name": "approve",
      "outputs": [],
      "stateMutability": "nonpayable",
      "type": "function"
    },
    {
      "inputs": [
        {
          "internalType": "address",
          "name": "",
          "type": "address"
        },
        {
          "internalType": "address",
          "name": "",
          "type": "address"
        }
      ],
      "name": "approveToMoveTokens",
      "outputs": [
        {
          "internalType": "bool",
          "name": "",
          "type": "bool"
        }
      ],
      "stateMutability": "view",
      "type": "function"
    },
    {
      "inputs": [
        {
          "internalType": "address",
          "name": "",
          "type": "address"
        },
        {
          "internalType": "uint256",
          "name": "",
          "type": "uint256"
        }
      ],
      "name": "childs",
      "outputs": [
        {
          "internalType": "address",
          "name": "",
          "type": "address"
        }
      ],
      "stateMutability": "view",
      "type": "function"
    },
    {
      "inputs": [],
      "name": "claimToken",
      "outputs": [],
      "stateMutability": "nonpayable",
      "type": "function"
    },
    {
      "inputs": [
        {
          "internalType": "uint256",
          "name": "",
          "type": "uint256"
        }
      ],
      "name": "collectionAddresses",
      "outputs": [
        {
          "internalType": "address",
          "name": "",
          "type": "address"
        }
      ],
      "stateMutability": "view",
      "type": "function"
    },
    {
      "inputs": [],
      "name": "decimals",
      "outputs": [
        {
          "internalType": "uint256",
          "name": "",
          "type": "uint256"
        }
      ],
      "stateMutability": "view",
      "type": "function"
    },
    {
      "inputs": [
        {
          "internalType": "address",
          "name": "",
          "type": "address"
        }
      ],
      "name": "invitedBy",
      "outputs": [
        {
          "internalType": "address",
          "name": "",
          "type": "address"
        }
      ],
      "stateMutability": "view",
      "type": "function"
    },
    {
      "inputs": [],
      "name": "nBoxesOfCollection",
      "outputs": [
        {
          "internalType": "uint256",
          "name": "",
          "type": "uint256"
        }
      ],
      "stateMutability": "view",
      "type": "function"
    },
    {
      "inputs": [],
      "name": "nCollections",
      "outputs": [
        {
          "internalType": "uint256",
          "name": "",
          "type": "uint256"
        }
      ],
      "stateMutability": "view",
      "type": "function"
    },
    {
      "inputs": [
        {
          "internalType": "uint256",
          "name": "",
          "type": "uint256"
        },
        {
          "internalType": "uint256",
          "name": "",
          "type": "uint256"
        }
      ],
      "name": "payPlan",
      "outputs": [
        {
          "internalType": "uint256",
          "name": "boxPrice",
          "type": "uint256"
        },
        {
          "internalType": "uint256",
          "name": "rewardTokenTotalAmount",
          "type": "uint256"
        },
        {
          "internalType": "address",
          "name": "payTokenContractAddress",
          "type": "address"
        },
        {
          "internalType": "address",
          "name": "payTokenSourceAddress",
          "type": "address"
        },
        {
          "internalType": "address",
          "name": "payTokenDestinationAddress",
          "type": "address"
        },
        {
          "internalType": "uint256",
          "name": "payRate",
          "type": "uint256"
        },
        {
          "internalType": "uint256",
          "name": "performancePoolRate",
          "type": "uint256"
        },
        {
          "internalType": "uint256",
          "name": "infinity1Rate",
          "type": "uint256"
        },
        {
          "internalType": "uint256",
          "name": "infinity2Rate",
          "type": "uint256"
        },
        {
          "internalType": "uint256",
          "name": "influencerRate",
          "type": "uint256"
        },
        {
          "internalType": "uint256",
          "name": "treasureRate",
          "type": "uint256"
        }
      ],
      "stateMutability": "view",
      "type": "function"
    },
    {
      "inputs": [
        {
          "internalType": "address",
          "name": "",
          "type": "address"
        }
      ],
      "name": "persons",
      "outputs": [
        {
          "internalType": "uint256",
          "name": "poolRewardAccumulated",
          "type": "uint256"
        },
        {
          "internalType": "bool",
          "name": "hasPoolQualification",
          "type": "bool"
        },
        {
          "internalType": "uint256",
          "name": "superPromoterLevel",
          "type": "uint256"
        },
        {
          "internalType": "uint256",
          "name": "getQAt",
          "type": "uint256"
        },
        {
          "internalType": "uint256",
          "name": "getQAmount",
          "type": "uint256"
        },
        {
          "internalType": "uint256",
          "name": "nChild",
          "type": "uint256"
        },
        {
          "internalType": "uint256",
          "name": "lastClaimedAt",
          "type": "uint256"
        },
        {
          "internalType": "uint256",
          "name": "ownedBoxLastIndex",
          "type": "uint256"
        }
      ],
      "stateMutability": "view",
      "type": "function"
    },
    {
      "inputs": [
        {
          "internalType": "uint256",
          "name": "collectionID",
          "type": "uint256"
        },
        {
          "internalType": "uint256",
          "name": "rewardBoxIndex",
          "type": "uint256"
        },
        {
          "internalType": "address",
          "name": "owner",
          "type": "address"
        },
        {
          "internalType": "address",
          "name": "inviter",
          "type": "address"
        }
      ],
      "name": "purchaseNFT",
      "outputs": [],
      "stateMutability": "nonpayable",
      "type": "function"
    },
    {
      "inputs": [],
      "name": "sendPoolReward",
      "outputs": [],
      "stateMutability": "nonpayable",
      "type": "function"
    },
    {
      "inputs": [
        {
          "internalType": "address",
          "name": "newBusdContractAddress",
          "type": "address"
        },
        {
          "internalType": "address",
          "name": "newPerformancePoolAddress",
          "type": "address"
        },
        {
          "internalType": "address",
          "name": "newTreasureAddress",
          "type": "address"
        },
        {
          "internalType": "address",
          "name": "newInfluenceAddress",
          "type": "address"
        }
      ],
      "name": "setAddresses",
      "outputs": [],
      "stateMutability": "nonpayable",
      "type": "function"
    },
    {
      "inputs": [
        {
          "internalType": "address",
          "name": "to",
          "type": "address"
        },
        {
          "internalType": "bool",
          "name": "_approve",
          "type": "bool"
        }
      ],
      "name": "setApprovalForAll",
      "outputs": [],
      "stateMutability": "nonpayable",
      "type": "function"
    },
    {
      "inputs": [
        {
          "internalType": "uint256",
          "name": "_decimals",
          "type": "uint256"
        }
      ],
      "name": "setDecimals",
      "outputs": [],
      "stateMutability": "nonpayable",
      "type": "function"
    },
    {
      "inputs": [
        {
          "internalType": "uint256",
          "name": "newFriendChainRewardRate",
          "type": "uint256"
        },
        {
          "internalType": "uint256",
          "name": "index",
          "type": "uint256"
        }
      ],
      "name": "setFriendChainRewardRate",
      "outputs": [],
      "stateMutability": "nonpayable",
      "type": "function"
    },
    {
      "inputs": [
        {
          "internalType": "uint256",
          "name": "collectionID",
          "type": "uint256"
        },
        {
          "internalType": "uint256",
          "name": "rewardBoxIndex",
          "type": "uint256"
        },
        {
          "internalType": "uint256",
          "name": "boxPrice",
          "type": "uint256"
        },
        {
          "internalType": "uint256",
          "name": "rewardTokenTotalAmount",
          "type": "uint256"
        },
        {
          "internalType": "address",
          "name": "contractAddr",
          "type": "address"
        },
        {
          "internalType": "address",
          "name": "sourceAddr",
          "type": "address"
        },
        {
          "internalType": "address",
          "name": "destinationAddr",
          "type": "address"
        }
      ],
      "name": "setPayPlan1",
      "outputs": [],
      "stateMutability": "nonpayable",
      "type": "function"
    },
    {
      "inputs": [
        {
          "internalType": "uint256",
          "name": "collectionID",
          "type": "uint256"
        },
        {
          "internalType": "uint256",
          "name": "rewardBoxIndex",
          "type": "uint256"
        },
        {
          "internalType": "uint256",
          "name": "payRate",
          "type": "uint256"
        },
        {
          "internalType": "uint256",
          "name": "performancePoolRate",
          "type": "uint256"
        },
        {
          "internalType": "uint256",
          "name": "infinity1Rate",
          "type": "uint256"
        },
        {
          "internalType": "uint256",
          "name": "infinity2Rate",
          "type": "uint256"
        },
        {
          "internalType": "uint256",
          "name": "influencerRate",
          "type": "uint256"
        },
        {
          "internalType": "uint256",
          "name": "treasureRate",
          "type": "uint256"
        }
      ],
      "name": "setPayPlan2",
      "outputs": [],
      "stateMutability": "nonpayable",
      "type": "function"
    },
    {
      "inputs": [
        {
          "internalType": "uint256",
          "name": "newPoolQ_price",
          "type": "uint256"
        }
      ],
      "name": "setPoolValue",
      "outputs": [],
      "stateMutability": "nonpayable",
      "type": "function"
    },
    {
      "inputs": [
        {
          "internalType": "uint256",
          "name": "newPromoter1Q_time",
          "type": "uint256"
        },
        {
          "internalType": "uint256",
          "name": "newPromoter2Q_time",
          "type": "uint256"
        },
        {
          "internalType": "uint256",
          "name": "newPromoter1Q_price",
          "type": "uint256"
        },
        {
          "internalType": "uint256",
          "name": "newPromoter2Q_price",
          "type": "uint256"
        }
      ],
      "name": "setPromoterValue",
      "outputs": [],
      "stateMutability": "nonpayable",
      "type": "function"
    },
    {
      "inputs": [
        {
          "internalType": "uint256",
          "name": "newRewardPeriod",
          "type": "uint256"
        }
      ],
      "name": "setRewardPeriodWeeks",
      "outputs": [],
      "stateMutability": "nonpayable",
      "type": "function"
    },
    {
      "inputs": [
        {
          "internalType": "address",
          "name": "to",
          "type": "address"
        }
      ],
      "name": "tokenTransfer",
      "outputs": [],
      "stateMutability": "nonpayable",
      "type": "function"
    },
    {
      "inputs": [],
      "name": "withdraw",
      "outputs": [],
      "stateMutability": "nonpayable",
      "type": "function"
    }
  ],
  "bytecode": "0x608060405234801561001057600080fd5b50336000806101000a81548173ffffffffffffffffffffffffffffffffffffffff021916908373ffffffffffffffffffffffffffffffffffffffff16021790555060086003819055506012600481905550600560158190555061505d806100786000396000f3fe608060405234801561001057600080fd5b506004361061018e5760003560e01c80638c8885c8116100de578063b0456c0a11610097578063f1f8d7da11610071578063f1f8d7da14610450578063f38c9fdd14610480578063f839d4621461048a578063fbe6e1d1146104a85761018e565b8063b0456c0a146103e8578063daea85c514610404578063edf26d9b146104205761018e565b80638c8885c81461032c5780638d956f1e14610348578063a22cb46514610364578063a25f6bad14610380578063a5e5b7621461039c578063abae977f146103b85761018e565b80634a945f8d1161014b57806361936ccc1161012557806361936ccc146102815780636a4e96e8146102bb578063760917af146102d95780638ada2cf6146102f55761018e565b80634a945f8d1461021957806358fabed5146102355780635bbd1048146102515761018e565b8063060cb72d14610193578063313ce567146101af578063346282ef146101cd5780633853d691146101e95780633ccfd60b146102055780634451d89f1461020f575b600080fd5b6101ad60048036038101906101a891906142e9565b6104d8565b005b6101b7610584565b6040516101c4919061435f565b60405180910390f35b6101e760048036038101906101e291906143d8565b61058a565b005b61020360048036038101906101fe919061447a565b61074d565b005b61020d6107af565b005b61021761096b565b005b610233600480360381019061022e91906144a7565b610e5b565b005b61024f600480360381019061024a919061450e565b610fbd565b005b61026b6004803603810190610266919061454e565b611049565b60405161027891906145a9565b60405180910390f35b61029b6004803603810190610296919061450e565b611078565b6040516102b29b9a999897969594939291906145d3565b60405180910390f35b6102c361113f565b6040516102d0919061435f565b60405180910390f35b6102f360048036038101906102ee919061447a565b611145565b005b61030f600480360381019061030a919061467e565b611201565b6040516103239897969594939291906146ab565b60405180910390f35b6103466004803603810190610341919061447a565b611256565b005b610362600480360381019061035d919061467e565b6112b8565b005b61037e60048036038101906103799190614755565b611ce4565b005b61039a6004803603810190610395919061447a565b611d7c565b005b6103b660048036038101906103b19190614795565b611df7565b005b6103d260048036038101906103cd919061447a565b611efd565b6040516103df919061484b565b60405180910390f35b61040260048036038101906103fd9190614866565b611f30565b005b61041e6004803603810190610419919061467e565b61372a565b005b61043a6004803603810190610435919061447a565b613823565b604051610447919061484b565b60405180910390f35b61046a6004803603810190610465919061467e565b613856565b604051610477919061484b565b60405180910390f35b610488613889565b005b610492613d34565b60405161049f919061435f565b60405180910390f35b6104c260048036038101906104bd91906148cd565b613d3a565b6040516104cf919061484b565b60405180910390f35b60008054906101000a900473ffffffffffffffffffffffffffffffffffffffff1673ffffffffffffffffffffffffffffffffffffffff163373ffffffffffffffffffffffffffffffffffffffff161461053057600080fd5b8360118190555082601281905550600454600a61054d9190614a6f565b826105589190614aba565b601381905550600454600a61056d9190614a6f565b816105789190614aba565b60148190555050505050565b60045481565b60008054906101000a900473ffffffffffffffffffffffffffffffffffffffff1673ffffffffffffffffffffffffffffffffffffffff163373ffffffffffffffffffffffffffffffffffffffff16146105e257600080fd5b600154871115610627576040517f08c379a000000000000000000000000000000000000000000000000000000000815260040161061e90614b7f565b60405180910390fd5b60006006600089815260200190815260200160002060008881526020019081526020016000209050600454600a61065e9190614a6f565b866106699190614aba565b8160000181905550848160010181905550838160020160006101000a81548173ffffffffffffffffffffffffffffffffffffffff021916908373ffffffffffffffffffffffffffffffffffffffff160217905550828160030160006101000a81548173ffffffffffffffffffffffffffffffffffffffff021916908373ffffffffffffffffffffffffffffffffffffffff160217905550818160040160006101000a81548173ffffffffffffffffffffffffffffffffffffffff021916908373ffffffffffffffffffffffffffffffffffffffff1602179055505050505050505050565b60008054906101000a900473ffffffffffffffffffffffffffffffffffffffff1673ffffffffffffffffffffffffffffffffffffffff163373ffffffffffffffffffffffffffffffffffffffff16146107a557600080fd5b80600f8190555050565b60008054906101000a900473ffffffffffffffffffffffffffffffffffffffff1673ffffffffffffffffffffffffffffffffffffffff163373ffffffffffffffffffffffffffffffffffffffff161461080757600080fd5b6000600560009054906101000a900473ffffffffffffffffffffffffffffffffffffffff1673ffffffffffffffffffffffffffffffffffffffff166370a08231306040518263ffffffff1660e01b8152600401610864919061484b565b602060405180830381865afa158015610881573d6000803e3d6000fd5b505050506040513d601f19601f820116820180604052508101906108a59190614bb4565b9050600560009054906101000a900473ffffffffffffffffffffffffffffffffffffffff1673ffffffffffffffffffffffffffffffffffffffff1663a9059cbb60008054906101000a900473ffffffffffffffffffffffffffffffffffffffff16836040518363ffffffff1660e01b8152600401610924929190614be1565b6020604051808303816000875af1158015610943573d6000803e3d6000fd5b505050506040513d601f19601f820116820180604052508101906109679190614c1f565b5050565b6000600960003373ffffffffffffffffffffffffffffffffffffffff1673ffffffffffffffffffffffffffffffffffffffff1681526020019081526020016000209050600062093a808260060154426109c49190614c4c565b6109ce9190614caf565b90506000600190505b82600701548111610e30576000600660008560090160008581526020019081526020016000206000015481526020019081526020016000206000856009016000858152602001908152602001600020600101548152602001908152602001600020600101549050600f5462093a808560090160008581526020019081526020016000206002015442610a699190614c4c565b610a739190614caf565b11610c4b5760066000856009016000858152602001908152602001600020600001548152602001908152602001600020600085600901600085815260200190815260200160002060010154815260200190815260200160002060020160009054906101000a900473ffffffffffffffffffffffffffffffffffffffff1673ffffffffffffffffffffffffffffffffffffffff166323b872dd60066000876009016000878152602001908152602001600020600001548152602001908152602001600020600087600901600087815260200190815260200160002060010154815260200190815260200160002060030160009054906101000a900473ffffffffffffffffffffffffffffffffffffffff1633600f548588610b939190614aba565b610b9d9190614caf565b6040518463ffffffff1660e01b8152600401610bbb93929190614ce0565b6020604051808303816000875af1158015610bda573d6000803e3d6000fd5b505050506040513d601f19601f82011682018060405250810190610bfe9190614c1f565b50600f548184610c0e9190614aba565b610c189190614caf565b8460090160008481526020019081526020016000206003016000828254610c3f9190614d17565b92505081905550610e1c565b80846009016000848152602001908152602001600020600301541015610e1b5760066000856009016000858152602001908152602001600020600001548152602001908152602001600020600085600901600085815260200190815260200160002060010154815260200190815260200160002060020160009054906101000a900473ffffffffffffffffffffffffffffffffffffffff1673ffffffffffffffffffffffffffffffffffffffff166323b872dd60066000876009016000878152602001908152602001600020600001548152602001908152602001600020600087600901600087815260200190815260200160002060010154815260200190815260200160002060030160009054906101000a900473ffffffffffffffffffffffffffffffffffffffff16338760090160008781526020019081526020016000206003015485610d9b9190614c4c565b6040518463ffffffff1660e01b8152600401610db993929190614ce0565b6020604051808303816000875af1158015610dd8573d6000803e3d6000fd5b505050506040513d601f19601f82011682018060405250810190610dfc9190614c1f565b5080846009016000848152602001908152602001600020600301819055505b5b508080610e2890614d4b565b9150506109d7565b5062093a8081610e409190614aba565b8260060154610e4f9190614d17565b82600601819055505050565b60008054906101000a900473ffffffffffffffffffffffffffffffffffffffff1673ffffffffffffffffffffffffffffffffffffffff163373ffffffffffffffffffffffffffffffffffffffff1614610eb357600080fd5b83600560006101000a81548173ffffffffffffffffffffffffffffffffffffffff021916908373ffffffffffffffffffffffffffffffffffffffff16021790555082600c60006101000a81548173ffffffffffffffffffffffffffffffffffffffff021916908373ffffffffffffffffffffffffffffffffffffffff16021790555081600e60006101000a81548173ffffffffffffffffffffffffffffffffffffffff021916908373ffffffffffffffffffffffffffffffffffffffff16021790555080600d60006101000a81548173ffffffffffffffffffffffffffffffffffffffff021916908373ffffffffffffffffffffffffffffffffffffffff16021790555050505050565b60008054906101000a900473ffffffffffffffffffffffffffffffffffffffff1673ffffffffffffffffffffffffffffffffffffffff163373ffffffffffffffffffffffffffffffffffffffff161461101557600080fd5b6064826110229190614aba565b601660006001846110339190614c4c565b8152602001908152602001600020819055505050565b60176020528160005260406000206020528060005260406000206000915091509054906101000a900460ff1681565b6006602052816000526040600020602052806000526040600020600091509150508060000154908060010154908060020160009054906101000a900473ffffffffffffffffffffffffffffffffffffffff16908060030160009054906101000a900473ffffffffffffffffffffffffffffffffffffffff16908060040160009054906101000a900473ffffffffffffffffffffffffffffffffffffffff169080600501549080600601549080600701549080600801549080600901549080600a015490508b565b60015481565b600180546111539190614d17565b8114611194576040517f08c379a000000000000000000000000000000000000000000000000000000000815260040161118b90614b7f565b60405180910390fd5b600160008154809291906111a790614d4b565b9190505550336002600083815260200190815260200160002060006101000a81548173ffffffffffffffffffffffffffffffffffffffff021916908373ffffffffffffffffffffffffffffffffffffffff16021790555050565b60096020528060005260406000206000915090508060000154908060010160009054906101000a900460ff16908060020154908060030154908060040154908060050154908060060154908060070154905088565b60008054906101000a900473ffffffffffffffffffffffffffffffffffffffff1673ffffffffffffffffffffffffffffffffffffffff163373ffffffffffffffffffffffffffffffffffffffff16146112ae57600080fd5b8060048190555050565b6000600960003373ffffffffffffffffffffffffffffffffffffffff1673ffffffffffffffffffffffffffffffffffffffff168152602001908152602001600020600701541161133d576040517f08c379a000000000000000000000000000000000000000000000000000000000815260040161133490614ddf565b60405180910390fd5b6113478133613d7c565b60008054906101000a900473ffffffffffffffffffffffffffffffffffffffff1673ffffffffffffffffffffffffffffffffffffffff163373ffffffffffffffffffffffffffffffffffffffff16146114c557600960003373ffffffffffffffffffffffffffffffffffffffff1673ffffffffffffffffffffffffffffffffffffffff16815260200190815260200160002060050160008154809291906113ed90614dff565b91905055506000600b60003373ffffffffffffffffffffffffffffffffffffffff1673ffffffffffffffffffffffffffffffffffffffff1681526020019081526020016000206000600960003373ffffffffffffffffffffffffffffffffffffffff1673ffffffffffffffffffffffffffffffffffffffff16815260200190815260200160002060050154815260200190815260200160002060006101000a81548173ffffffffffffffffffffffffffffffffffffffff021916908373ffffffffffffffffffffffffffffffffffffffff1602179055505b6000600960003373ffffffffffffffffffffffffffffffffffffffff1673ffffffffffffffffffffffffffffffffffffffff16815260200190815260200160002090506000600960008473ffffffffffffffffffffffffffffffffffffffff1673ffffffffffffffffffffffffffffffffffffffff16815260200190815260200160002090506000600190505b60015481116116765760008360080160008381526020019081526020016000205403156116765782600801600082815260200190815260200160002054826008016000838152602001908152602001600020819055506000836008016000838152602001908152602001600020819055506002600082815260200190815260200160002060009054906101000a900473ffffffffffffffffffffffffffffffffffffffff1673ffffffffffffffffffffffffffffffffffffffff1663e11a328e33866040518363ffffffff1660e01b8152600401611631929190614e28565b600060405180830381600087803b15801561164b57600080fd5b505af115801561165f573d6000803e3d6000fd5b50505050808061166e90614d4b565b915050611552565b506000600190505b60035481116117c05760405180608001604052808460090160008481526020019081526020016000206000015481526020018460090160008481526020019081526020016000206001015481526020018460090160008481526020019081526020016000206002015481526020018460090160008481526020019081526020016000206003015481525082600901600083815260200190815260200160002060008201518160000155602082015181600101556040820151816002015560608201518160030155905050604051806080016040528060008152602001600081526020016000815260200160008152508360090160008381526020019081526020016000206000820151816000015560208201518160010155604082015181600201556060820151816003015590505080806117b890614d4b565b91505061167e565b50816007015481600701819055506000826007018190555081600001548160000181905550600082600001819055508160010160009054906101000a900460ff168160010160006101000a81548160ff02191690831515021790555060008260010160006101000a81548160ff0219169083151502179055508160020154816002018190555060008260020181905550816003015481600301819055506000826003018190555081600401548160040181905550600082600401819055508160060154816006018190555060008260060181905550600a60003373ffffffffffffffffffffffffffffffffffffffff1673ffffffffffffffffffffffffffffffffffffffff16815260200190815260200160002060009054906101000a900473ffffffffffffffffffffffffffffffffffffffff16600a60008573ffffffffffffffffffffffffffffffffffffffff1673ffffffffffffffffffffffffffffffffffffffff16815260200190815260200160002060006101000a81548173ffffffffffffffffffffffffffffffffffffffff021916908373ffffffffffffffffffffffffffffffffffffffff16021790555060005b8260050154811015611c2057600b60003373ffffffffffffffffffffffffffffffffffffffff1673ffffffffffffffffffffffffffffffffffffffff168152602001908152602001600020600082815260200190815260200160002060009054906101000a900473ffffffffffffffffffffffffffffffffffffffff16600b60008673ffffffffffffffffffffffffffffffffffffffff1673ffffffffffffffffffffffffffffffffffffffff1681526020019081526020016000206000838560050154611a439190614d17565b815260200190815260200160002060006101000a81548173ffffffffffffffffffffffffffffffffffffffff021916908373ffffffffffffffffffffffffffffffffffffffff16021790555083600a6000600b60003373ffffffffffffffffffffffffffffffffffffffff1673ffffffffffffffffffffffffffffffffffffffff168152602001908152602001600020600085815260200190815260200160002060009054906101000a900473ffffffffffffffffffffffffffffffffffffffff1673ffffffffffffffffffffffffffffffffffffffff1673ffffffffffffffffffffffffffffffffffffffff16815260200190815260200160002060006101000a81548173ffffffffffffffffffffffffffffffffffffffff021916908373ffffffffffffffffffffffffffffffffffffffff1602179055506000600b60003373ffffffffffffffffffffffffffffffffffffffff1673ffffffffffffffffffffffffffffffffffffffff168152602001908152602001600020600083815260200190815260200160002060006101000a81548173ffffffffffffffffffffffffffffffffffffffff021916908373ffffffffffffffffffffffffffffffffffffffff1602179055508080611c1890614d4b565b915050611975565b508160050154816005016000828254611c399190614d17565b92505081905550600082600501819055506000601760003373ffffffffffffffffffffffffffffffffffffffff1673ffffffffffffffffffffffffffffffffffffffff16815260200190815260200160002060008573ffffffffffffffffffffffffffffffffffffffff1673ffffffffffffffffffffffffffffffffffffffff16815260200190815260200160002060006101000a81548160ff021916908315150217905550505050565b80601760003373ffffffffffffffffffffffffffffffffffffffff1673ffffffffffffffffffffffffffffffffffffffff16815260200190815260200160002060008473ffffffffffffffffffffffffffffffffffffffff1673ffffffffffffffffffffffffffffffffffffffff16815260200190815260200160002060006101000a81548160ff0219169083151502179055505050565b60008054906101000a900473ffffffffffffffffffffffffffffffffffffffff1673ffffffffffffffffffffffffffffffffffffffff163373ffffffffffffffffffffffffffffffffffffffff1614611dd457600080fd5b600454600a611de39190614a6f565b81611dee9190614aba565b60108190555050565b60008054906101000a900473ffffffffffffffffffffffffffffffffffffffff1673ffffffffffffffffffffffffffffffffffffffff163373ffffffffffffffffffffffffffffffffffffffff1614611e4f57600080fd5b600154881115611e94576040517f08c379a0000000000000000000000000000000000000000000000000000000008152600401611e8b90614b7f565b60405180910390fd5b6000600660008a8152602001908152602001600020600089815260200190815260200160002090508681600501819055508581600601819055508481600701819055508381600801819055508281600901819055508181600a0181905550505050505050505050565b60026020528060005260406000206000915054906101000a900473ffffffffffffffffffffffffffffffffffffffff1681565b60066000858152602001908152602001600020600084815260200190815260200160002060000154600560009054906101000a900473ffffffffffffffffffffffffffffffffffffffff1673ffffffffffffffffffffffffffffffffffffffff166370a08231846040518263ffffffff1660e01b8152600401611fb3919061484b565b602060405180830381865afa158015611fd0573d6000803e3d6000fd5b505050506040513d601f19601f82011682018060405250810190611ff49190614bb4565b1015612035576040517f08c379a000000000000000000000000000000000000000000000000000000000815260040161202c90614e9d565b60405180910390fd5b6000600960008473ffffffffffffffffffffffffffffffffffffffff1673ffffffffffffffffffffffffffffffffffffffff16815260200190815260200160002090506001846120859190614c4c565b81600801600087815260200190815260200160002054146120db576040517f08c379a00000000000000000000000000000000000000000000000000000000081526004016120d290614f09565b60405180910390fd5b8381600801600087815260200190815260200160002081905550600081600701540361210c5761210b8383613d7c565b5b80600701600081548092919061212190614d4b565b9190505550604051806080016040528086815260200185815260200142815260200160008152508160090160008360070154815260200190815260200160002060008201518160000155602082015181600101556040820151816002015560608201518160030155905050600061271090506000600660008881526020019081526020016000206000878152602001908152602001600020600001549050600560009054906101000a900473ffffffffffffffffffffffffffffffffffffffff1673ffffffffffffffffffffffffffffffffffffffff166323b872dd8630846040518463ffffffff1660e01b815260040161221e93929190614ce0565b6020604051808303816000875af115801561223d573d6000803e3d6000fd5b505050506040513d601f19601f820116820180604052508101906122619190614c1f565b50600560009054906101000a900473ffffffffffffffffffffffffffffffffffffffff1673ffffffffffffffffffffffffffffffffffffffff1663a9059cbb600660008a8152602001908152602001600020600089815260200190815260200160002060040160009054906101000a900473ffffffffffffffffffffffffffffffffffffffff16612710600660008c815260200190815260200160002060008b8152602001908152602001600020600501548561231e9190614aba565b6123289190614caf565b6040518363ffffffff1660e01b8152600401612345929190614be1565b6020604051808303816000875af1158015612364573d6000803e3d6000fd5b505050506040513d601f19601f820116820180604052508101906123889190614c1f565b50600560009054906101000a900473ffffffffffffffffffffffffffffffffffffffff1673ffffffffffffffffffffffffffffffffffffffff1663a9059cbb600e60009054906101000a900473ffffffffffffffffffffffffffffffffffffffff16612710600660008c815260200190815260200160002060008b8152602001908152602001600020600a0154856124209190614aba565b61242a9190614caf565b6040518363ffffffff1660e01b8152600401612447929190614be1565b6020604051808303816000875af1158015612466573d6000803e3d6000fd5b505050506040513d601f19601f8201168201806040525081019061248a9190614c1f565b50600660008881526020019081526020016000206000878152602001908152602001600020600a0154600660008981526020019081526020016000206000888152602001908152602001600020600501546124e59190614d17565b826124f09190614c4c565b9150600085905060005b6015548110156126ba57600a60008373ffffffffffffffffffffffffffffffffffffffff1673ffffffffffffffffffffffffffffffffffffffff16815260200190815260200160002060009054906101000a900473ffffffffffffffffffffffffffffffffffffffff16915060008054906101000a900473ffffffffffffffffffffffffffffffffffffffff1673ffffffffffffffffffffffffffffffffffffffff168273ffffffffffffffffffffffffffffffffffffffff1603156126ba57600560009054906101000a900473ffffffffffffffffffffffffffffffffffffffff1673ffffffffffffffffffffffffffffffffffffffff1663a9059cbb8361271060166000868152602001908152602001600020548761261b9190614aba565b6126259190614caf565b6040518363ffffffff1660e01b8152600401612642929190614be1565b6020604051808303816000875af1158015612661573d6000803e3d6000fd5b505050506040513d601f19601f820116820180604052508101906126859190614c1f565b506016600082815260200190815260200160002054846126a59190614c4c565b935080806126b290614d4b565b9150506124fa565b50600560009054906101000a900473ffffffffffffffffffffffffffffffffffffffff1673ffffffffffffffffffffffffffffffffffffffff1663a9059cbb600d60009054906101000a900473ffffffffffffffffffffffffffffffffffffffff16612710600660008d815260200190815260200160002060008c815260200190815260200160002060090154866127529190614aba565b61275c9190614caf565b6040518363ffffffff1660e01b8152600401612779929190614be1565b6020604051808303816000875af1158015612798573d6000803e3d6000fd5b505050506040513d601f19601f820116820180604052508101906127bc9190614c1f565b5060066000898152602001908152602001600020600088815260200190815260200160002060090154600660008a81526020019081526020016000206000898152602001908152602001600020600601546128179190614d17565b836128229190614c4c565b925085905060005b601554811015612a2457600a60008373ffffffffffffffffffffffffffffffffffffffff1673ffffffffffffffffffffffffffffffffffffffff16815260200190815260200160002060009054906101000a900473ffffffffffffffffffffffffffffffffffffffff16915060008054906101000a900473ffffffffffffffffffffffffffffffffffffffff1673ffffffffffffffffffffffffffffffffffffffff168273ffffffffffffffffffffffffffffffffffffffff160315612a2457600660008a8152602001908152602001600020600089815260200190815260200160002060000154600960008473ffffffffffffffffffffffffffffffffffffffff1673ffffffffffffffffffffffffffffffffffffffff16815260200190815260200160002060000160008282546129639190614d17565b92505081905550601054600960008473ffffffffffffffffffffffffffffffffffffffff1673ffffffffffffffffffffffffffffffffffffffff1681526020019081526020016000206000015410612a11576001600960008473ffffffffffffffffffffffffffffffffffffffff1673ffffffffffffffffffffffffffffffffffffffff16815260200190815260200160002060010160006101000a81548160ff0219169083151502179055505b8080612a1c90614d4b565b91505061282a565b50600560009054906101000a900473ffffffffffffffffffffffffffffffffffffffff1673ffffffffffffffffffffffffffffffffffffffff1663a9059cbb600c60009054906101000a900473ffffffffffffffffffffffffffffffffffffffff16612710600660008d815260200190815260200160002060008c81526020019081526020016000206006015486612abc9190614aba565b612ac69190614caf565b6040518363ffffffff1660e01b8152600401612ae3929190614be1565b6020604051808303816000875af1158015612b02573d6000803e3d6000fd5b505050506040513d601f19601f82011682018060405250810190612b269190614c1f565b508590506000805b60011561303657600a60008473ffffffffffffffffffffffffffffffffffffffff1673ffffffffffffffffffffffffffffffffffffffff16815260200190815260200160002060009054906101000a900473ffffffffffffffffffffffffffffffffffffffff16925060008054906101000a900473ffffffffffffffffffffffffffffffffffffffff1673ffffffffffffffffffffffffffffffffffffffff168373ffffffffffffffffffffffffffffffffffffffff16031561303657818015612bf55750805b613036576001600960008573ffffffffffffffffffffffffffffffffffffffff1673ffffffffffffffffffffffffffffffffffffffff1681526020019081526020016000206002015403612e15576224ea00601154612c549190614aba565b600960008573ffffffffffffffffffffffffffffffffffffffff1673ffffffffffffffffffffffffffffffffffffffff1681526020019081526020016000206003015442612ca29190614c4c565b11612dcb5781612dc657600560009054906101000a900473ffffffffffffffffffffffffffffffffffffffff1673ffffffffffffffffffffffffffffffffffffffff1663a9059cbb84612710600660008f815260200190815260200160002060008e81526020019081526020016000206007015488612d219190614aba565b612d2b9190614caf565b6040518363ffffffff1660e01b8152600401612d48929190614be1565b6020604051808303816000875af1158015612d67573d6000803e3d6000fd5b505050506040513d601f19601f82011682018060405250810190612d8b9190614c1f565b5060019150600660008b815260200190815260200160002060008a81526020019081526020016000206007015485612dc39190614c4c565b94505b612e14565b6000600960008573ffffffffffffffffffffffffffffffffffffffff1673ffffffffffffffffffffffffffffffffffffffff168152602001908152602001600020600201819055505b5b6002600960008573ffffffffffffffffffffffffffffffffffffffff1673ffffffffffffffffffffffffffffffffffffffff1681526020019081526020016000206002015403613031576224ea00601254612e709190614aba565b600960008573ffffffffffffffffffffffffffffffffffffffff1673ffffffffffffffffffffffffffffffffffffffff1681526020019081526020016000206003015442612ebe9190614c4c565b11612fe75780612fe257600560009054906101000a900473ffffffffffffffffffffffffffffffffffffffff1673ffffffffffffffffffffffffffffffffffffffff1663a9059cbb84612710600660008f815260200190815260200160002060008e81526020019081526020016000206008015488612f3d9190614aba565b612f479190614caf565b6040518363ffffffff1660e01b8152600401612f64929190614be1565b6020604051808303816000875af1158015612f83573d6000803e3d6000fd5b505050506040513d601f19601f82011682018060405250810190612fa79190614c1f565b5060019050600660008b815260200190815260200160002060008a81526020019081526020016000206008015485612fdf9190614c4c565b94505b613030565b6000600960008573ffffffffffffffffffffffffffffffffffffffff1673ffffffffffffffffffffffffffffffffffffffff168152602001908152602001600020600201819055505b5b612b2e565b87925060005b60155481101561364457600a60008573ffffffffffffffffffffffffffffffffffffffff1673ffffffffffffffffffffffffffffffffffffffff16815260200190815260200160002060009054906101000a900473ffffffffffffffffffffffffffffffffffffffff16935060008054906101000a900473ffffffffffffffffffffffffffffffffffffffff1673ffffffffffffffffffffffffffffffffffffffff168473ffffffffffffffffffffffffffffffffffffffff16031561364457600660008c815260200190815260200160002060008b815260200190815260200160002060000154600960008673ffffffffffffffffffffffffffffffffffffffff1673ffffffffffffffffffffffffffffffffffffffff16815260200190815260200160002060040160008282546131759190614d17565b925050819055506000600960008673ffffffffffffffffffffffffffffffffffffffff1673ffffffffffffffffffffffffffffffffffffffff1681526020019081526020016000206002015414801561321a5750600960008573ffffffffffffffffffffffffffffffffffffffff1673ffffffffffffffffffffffffffffffffffffffff16815260200190815260200160002060010160009054906101000a900460ff165b1561349557601454600960008673ffffffffffffffffffffffffffffffffffffffff1673ffffffffffffffffffffffffffffffffffffffff168152602001908152602001600020600401541061335957601454600960008673ffffffffffffffffffffffffffffffffffffffff1673ffffffffffffffffffffffffffffffffffffffff16815260200190815260200160002060040160008282546132be9190614c4c565b925050819055506002600960008673ffffffffffffffffffffffffffffffffffffffff1673ffffffffffffffffffffffffffffffffffffffff1681526020019081526020016000206002018190555042600960008673ffffffffffffffffffffffffffffffffffffffff1673ffffffffffffffffffffffffffffffffffffffff16815260200190815260200160002060030181905550613490565b601354600960008673ffffffffffffffffffffffffffffffffffffffff1673ffffffffffffffffffffffffffffffffffffffff168152602001908152602001600020600401541061348f57601354600960008673ffffffffffffffffffffffffffffffffffffffff1673ffffffffffffffffffffffffffffffffffffffff16815260200190815260200160002060040160008282546133f89190614c4c565b925050819055506001600960008673ffffffffffffffffffffffffffffffffffffffff1673ffffffffffffffffffffffffffffffffffffffff1681526020019081526020016000206002018190555042600960008673ffffffffffffffffffffffffffffffffffffffff1673ffffffffffffffffffffffffffffffffffffffff168152602001908152602001600020600301819055505b5b613631565b6001600960008673ffffffffffffffffffffffffffffffffffffffff1673ffffffffffffffffffffffffffffffffffffffff1681526020019081526020016000206002015403613630576013546014546134ef9190614c4c565b600960008673ffffffffffffffffffffffffffffffffffffffff1673ffffffffffffffffffffffffffffffffffffffff168152602001908152602001600020600401541061362f576013546014546135479190614c4c565b600960008673ffffffffffffffffffffffffffffffffffffffff1673ffffffffffffffffffffffffffffffffffffffff16815260200190815260200160002060040160008282546135989190614c4c565b925050819055506002600960008673ffffffffffffffffffffffffffffffffffffffff1673ffffffffffffffffffffffffffffffffffffffff1681526020019081526020016000206002018190555042600960008673ffffffffffffffffffffffffffffffffffffffff1673ffffffffffffffffffffffffffffffffffffffff168152602001908152602001600020600301819055505b5b5b808061363c90614d4b565b91505061303c565b50600560009054906101000a900473ffffffffffffffffffffffffffffffffffffffff1673ffffffffffffffffffffffffffffffffffffffff1663a9059cbb60008054906101000a900473ffffffffffffffffffffffffffffffffffffffff1661271088886136b39190614aba565b6136bd9190614caf565b6040518363ffffffff1660e01b81526004016136da929190614be1565b6020604051808303816000875af11580156136f9573d6000803e3d6000fd5b505050506040513d601f19601f8201168201806040525081019061371d9190614c1f565b5050505050505050505050565b60008054906101000a900473ffffffffffffffffffffffffffffffffffffffff1673ffffffffffffffffffffffffffffffffffffffff163373ffffffffffffffffffffffffffffffffffffffff161461378257600080fd5b60008054906101000a900473ffffffffffffffffffffffffffffffffffffffff16600a60008373ffffffffffffffffffffffffffffffffffffffff1673ffffffffffffffffffffffffffffffffffffffff16815260200190815260200160002060006101000a81548173ffffffffffffffffffffffffffffffffffffffff021916908373ffffffffffffffffffffffffffffffffffffffff16021790555050565b60086020528060005260406000206000915054906101000a900473ffffffffffffffffffffffffffffffffffffffff1681565b600a6020528060005260406000206000915054906101000a900473ffffffffffffffffffffffffffffffffffffffff1681565b60008054906101000a900473ffffffffffffffffffffffffffffffffffffffff1673ffffffffffffffffffffffffffffffffffffffff163373ffffffffffffffffffffffffffffffffffffffff16146138e157600080fd5b60006001905060005b600754811015613d30578180156139785750601054600960006008600085815260200190815260200160002060009054906101000a900473ffffffffffffffffffffffffffffffffffffffff1673ffffffffffffffffffffffffffffffffffffffff1673ffffffffffffffffffffffffffffffffffffffff1681526020019081526020016000206000015410155b15613ca2576000805b600754811015613a2b57601054600960006008600085815260200190815260200160002060009054906101000a900473ffffffffffffffffffffffffffffffffffffffff1673ffffffffffffffffffffffffffffffffffffffff1673ffffffffffffffffffffffffffffffffffffffff1681526020019081526020016000206000015410613a18578180613a1490614d4b565b9250505b8080613a2390614d4b565b915050613981565b506000811115613c9c576000600560009054906101000a900473ffffffffffffffffffffffffffffffffffffffff1673ffffffffffffffffffffffffffffffffffffffff166370a08231600c60009054906101000a900473ffffffffffffffffffffffffffffffffffffffff166040518263ffffffff1660e01b8152600401613ab4919061484b565b602060405180830381865afa158015613ad1573d6000803e3d6000fd5b505050506040513d601f19601f82011682018060405250810190613af59190614bb4565b905060005b600754811015613c9957601054600960006008600085815260200190815260200160002060009054906101000a900473ffffffffffffffffffffffffffffffffffffffff1673ffffffffffffffffffffffffffffffffffffffff1673ffffffffffffffffffffffffffffffffffffffff1681526020019081526020016000206000015410613c8657600560009054906101000a900473ffffffffffffffffffffffffffffffffffffffff1673ffffffffffffffffffffffffffffffffffffffff166323b872dd600c60009054906101000a900473ffffffffffffffffffffffffffffffffffffffff166008600085815260200190815260200160002060009054906101000a900473ffffffffffffffffffffffffffffffffffffffff168686613c239190614caf565b6040518463ffffffff1660e01b8152600401613c4193929190614ce0565b6020604051808303816000875af1158015613c60573d6000803e3d6000fd5b505050506040513d601f19601f82011682018060405250810190613c849190614c1f565b505b8080613c9190614d4b565b915050613afa565b50505b60009250505b6000600960006008600085815260200190815260200160002060009054906101000a900473ffffffffffffffffffffffffffffffffffffffff1673ffffffffffffffffffffffffffffffffffffffff1673ffffffffffffffffffffffffffffffffffffffff168152602001908152602001600020600001819055508080613d2890614d4b565b9150506138ea565b5050565b60035481565b600b6020528160005260406000206020528060005260406000206000915091509054906101000a900473ffffffffffffffffffffffffffffffffffffffff1681565b8173ffffffffffffffffffffffffffffffffffffffff16600a60008373ffffffffffffffffffffffffffffffffffffffff1673ffffffffffffffffffffffffffffffffffffffff16815260200190815260200160002060009054906101000a900473ffffffffffffffffffffffffffffffffffffffff1673ffffffffffffffffffffffffffffffffffffffff1603613e49576040517f08c379a0000000000000000000000000000000000000000000000000000000008152600401613e4090614f75565b60405180910390fd5b6000600960008373ffffffffffffffffffffffffffffffffffffffff1673ffffffffffffffffffffffffffffffffffffffff168152602001908152602001600020600701541180613f9b575060008054906101000a900473ffffffffffffffffffffffffffffffffffffffff1673ffffffffffffffffffffffffffffffffffffffff168173ffffffffffffffffffffffffffffffffffffffff16148015613f9a575060008054906101000a900473ffffffffffffffffffffffffffffffffffffffff1673ffffffffffffffffffffffffffffffffffffffff16600a60008473ffffffffffffffffffffffffffffffffffffffff1673ffffffffffffffffffffffffffffffffffffffff16815260200190815260200160002060009054906101000a900473ffffffffffffffffffffffffffffffffffffffff1673ffffffffffffffffffffffffffffffffffffffff16145b5b613fda576040517f08c379a0000000000000000000000000000000000000000000000000000000008152600401613fd190615007565b60405180910390fd5b816008600060076000815480929190613ff290614d4b565b91905055815260200190815260200160002060006101000a81548173ffffffffffffffffffffffffffffffffffffffff021916908373ffffffffffffffffffffffffffffffffffffffff1602179055506000600960008473ffffffffffffffffffffffffffffffffffffffff1673ffffffffffffffffffffffffffffffffffffffff16815260200190815260200160002090506000816000018190555060008160010160006101000a81548160ff0219169083151502179055506000816002018190555042816003018190555060008160040181905550600081600501819055504281600601819055506000816007018190555081600a60008573ffffffffffffffffffffffffffffffffffffffff1673ffffffffffffffffffffffffffffffffffffffff16815260200190815260200160002060006101000a81548173ffffffffffffffffffffffffffffffffffffffff021916908373ffffffffffffffffffffffffffffffffffffffff16021790555060008054906101000a900473ffffffffffffffffffffffffffffffffffffffff1673ffffffffffffffffffffffffffffffffffffffff168273ffffffffffffffffffffffffffffffffffffffff16146142a9576000600960008473ffffffffffffffffffffffffffffffffffffffff1673ffffffffffffffffffffffffffffffffffffffff168152602001908152602001600020905083600b60008573ffffffffffffffffffffffffffffffffffffffff1673ffffffffffffffffffffffffffffffffffffffff16815260200190815260200160002060008360050154815260200190815260200160002060006101000a81548173ffffffffffffffffffffffffffffffffffffffff021916908373ffffffffffffffffffffffffffffffffffffffff1602179055508060050160008154809291906142a290614d4b565b9190505550505b505050565b600080fd5b6000819050919050565b6142c6816142b3565b81146142d157600080fd5b50565b6000813590506142e3816142bd565b92915050565b60008060008060808587031215614303576143026142ae565b5b6000614311878288016142d4565b9450506020614322878288016142d4565b9350506040614333878288016142d4565b9250506060614344878288016142d4565b91505092959194509250565b614359816142b3565b82525050565b60006020820190506143746000830184614350565b92915050565b600073ffffffffffffffffffffffffffffffffffffffff82169050919050565b60006143a58261437a565b9050919050565b6143b58161439a565b81146143c057600080fd5b50565b6000813590506143d2816143ac565b92915050565b600080600080600080600060e0888a0312156143f7576143f66142ae565b5b60006144058a828b016142d4565b97505060206144168a828b016142d4565b96505060406144278a828b016142d4565b95505060606144388a828b016142d4565b94505060806144498a828b016143c3565b93505060a061445a8a828b016143c3565b92505060c061446b8a828b016143c3565b91505092959891949750929550565b6000602082840312156144905761448f6142ae565b5b600061449e848285016142d4565b91505092915050565b600080600080608085870312156144c1576144c06142ae565b5b60006144cf878288016143c3565b94505060206144e0878288016143c3565b93505060406144f1878288016143c3565b9250506060614502878288016143c3565b91505092959194509250565b60008060408385031215614525576145246142ae565b5b6000614533858286016142d4565b9250506020614544858286016142d4565b9150509250929050565b60008060408385031215614565576145646142ae565b5b6000614573858286016143c3565b9250506020614584858286016143c3565b9150509250929050565b60008115159050919050565b6145a38161458e565b82525050565b60006020820190506145be600083018461459a565b92915050565b6145cd8161439a565b82525050565b6000610160820190506145e9600083018e614350565b6145f6602083018d614350565b614603604083018c6145c4565b614610606083018b6145c4565b61461d608083018a6145c4565b61462a60a0830189614350565b61463760c0830188614350565b61464460e0830187614350565b614652610100830186614350565b614660610120830185614350565b61466e610140830184614350565b9c9b505050505050505050505050565b600060208284031215614694576146936142ae565b5b60006146a2848285016143c3565b91505092915050565b6000610100820190506146c1600083018b614350565b6146ce602083018a61459a565b6146db6040830189614350565b6146e86060830188614350565b6146f56080830187614350565b61470260a0830186614350565b61470f60c0830185614350565b61471c60e0830184614350565b9998505050505050505050565b6147328161458e565b811461473d57600080fd5b50565b60008135905061474f81614729565b92915050565b6000806040838503121561476c5761476b6142ae565b5b600061477a858286016143c3565b925050602061478b85828601614740565b9150509250929050565b600080600080600080600080610100898b0312156147b6576147b56142ae565b5b60006147c48b828c016142d4565b98505060206147d58b828c016142d4565b97505060406147e68b828c016142d4565b96505060606147f78b828c016142d4565b95505060806148088b828c016142d4565b94505060a06148198b828c016142d4565b93505060c061482a8b828c016142d4565b92505060e061483b8b828c016142d4565b9150509295985092959890939650565b600060208201905061486060008301846145c4565b92915050565b600080600080608085870312156148805761487f6142ae565b5b600061488e878288016142d4565b945050602061489f878288016142d4565b93505060406148b0878288016143c3565b92505060606148c1878288016143c3565b91505092959194509250565b600080604083850312156148e4576148e36142ae565b5b60006148f2858286016143c3565b9250506020614903858286016142d4565b9150509250929050565b7f4e487b7100000000000000000000000000000000000000000000000000000000600052601160045260246000fd5b60008160011c9050919050565b6000808291508390505b60018511156149935780860481111561496f5761496e61490d565b5b600185161561497e5780820291505b808102905061498c8561493c565b9450614953565b94509492505050565b6000826149ac5760019050614a68565b816149ba5760009050614a68565b81600181146149d057600281146149da57614a09565b6001915050614a68565b60ff8411156149ec576149eb61490d565b5b8360020a915084821115614a0357614a0261490d565b5b50614a68565b5060208310610133831016604e8410600b8410161715614a3e5782820a905083811115614a3957614a3861490d565b5b614a68565b614a4b8484846001614949565b92509050818404811115614a6257614a6161490d565b5b81810290505b9392505050565b6000614a7a826142b3565b9150614a85836142b3565b9250614ab27fffffffffffffffffffffffffffffffffffffffffffffffffffffffffffffffff848461499c565b905092915050565b6000614ac5826142b3565b9150614ad0836142b3565b9250828202614ade816142b3565b91508282048414831517614af557614af461490d565b5b5092915050565b600082825260208201905092915050565b7f736f6d657468696e672077726f6e6720696e206164642d636f6c6c656374696f60008201527f6e00000000000000000000000000000000000000000000000000000000000000602082015250565b6000614b69602183614afc565b9150614b7482614b0d565b604082019050919050565b60006020820190508181036000830152614b9881614b5c565b9050919050565b600081519050614bae816142bd565b92915050565b600060208284031215614bca57614bc96142ae565b5b6000614bd884828501614b9f565b91505092915050565b6000604082019050614bf660008301856145c4565b614c036020830184614350565b9392505050565b600081519050614c1981614729565b92915050565b600060208284031215614c3557614c346142ae565b5b6000614c4384828501614c0a565b91505092915050565b6000614c57826142b3565b9150614c62836142b3565b9250828203905081811115614c7a57614c7961490d565b5b92915050565b7f4e487b7100000000000000000000000000000000000000000000000000000000600052601260045260246000fd5b6000614cba826142b3565b9150614cc5836142b3565b925082614cd557614cd4614c80565b5b828204905092915050565b6000606082019050614cf560008301866145c4565b614d0260208301856145c4565b614d0f6040830184614350565b949350505050565b6000614d22826142b3565b9150614d2d836142b3565b9250828201905080821115614d4557614d4461490d565b5b92915050565b6000614d56826142b3565b91507fffffffffffffffffffffffffffffffffffffffffffffffffffffffffffffffff8203614d8857614d8761490d565b5b600182019050919050565b7f796f7520646f6e2774206861766520616e7920746f6b656e0000000000000000600082015250565b6000614dc9601883614afc565b9150614dd482614d93565b602082019050919050565b60006020820190508181036000830152614df881614dbc565b9050919050565b6000614e0a826142b3565b915060008203614e1d57614e1c61490d565b5b600182039050919050565b6000604082019050614e3d60008301856145c4565b614e4a60208301846145c4565b9392505050565b7f62616c616e6365206e6f7420656e6f75676820746f2062757900000000000000600082015250565b6000614e87601983614afc565b9150614e9282614e51565b602082019050919050565b60006020820190508181036000830152614eb681614e7a565b9050919050565b7f796f752063616e206e6f74207075726368617365207468697320426f78000000600082015250565b6000614ef3601d83614afc565b9150614efe82614ebd565b602082019050919050565b60006020820190508181036000830152614f2281614ee6565b9050919050565b7f63616e2774207365742068696d20617320696e766974656420506572736f6e00600082015250565b6000614f5f601f83614afc565b9150614f6a82614f29565b602082019050919050565b60006020820190508181036000830152614f8e81614f52565b9050919050565b7f6f6e6c79206f776e6564206174206c65617374206f6e6520636f6c6c6563746960008201527f6f6e2063616e20696e7669746520796f75000000000000000000000000000000602082015250565b6000614ff1603183614afc565b9150614ffc82614f95565b604082019050919050565b6000602082019050818103600083015261502081614fe4565b905091905056fea2646970667358221220191c1562868bdf6767771c265924686880f7a9cceea6d9e680625dfe7395d7b864736f6c63430008110033",
  "linkReferences": {},
  "deployedLinkReferences": {}
}