{"contracts/DefincubatorReward.sol":{"DefincubatorReward":{"abi":[{"inputs":[],"stateMutability":"nonpayable","type":"constructor"},{"inputs":[],"name":"_tokenId","outputs":[{"internalType":"uint256","name":"_value","type":"uint256"}],"stateMutability":"view","type":"function"},{"inputs":[{"internalType":"address","name":"invitedPerson","type":"address"}],"name":"addPerson","outputs":[],"stateMutability":"nonpayable","type":"function"},{"inputs":[],"name":"claim","outputs":[],"stateMutability":"nonpayable","type":"function"},{"inputs":[],"name":"nCollection","outputs":[{"internalType":"uint256","name":"","type":"uint256"}],"stateMutability":"view","type":"function"},{"inputs":[{"internalType":"uint256","name":"","type":"uint256"}],"name":"pinataURL","outputs":[{"internalType":"string","name":"","type":"string"}],"stateMutability":"view","type":"function"},{"inputs":[{"internalType":"uint256","name":"collectionIndex","type":"uint256"},{"internalType":"address","name":"owner","type":"address"}],"name":"purchaseNFT","outputs":[],"stateMutability":"payable","type":"function"},{"inputs":[{"internalType":"address","name":"newBusdContractAddress","type":"address"},{"internalType":"address","name":"newBusdTokenAddress","type":"address"},{"internalType":"address","name":"newClapContractAddress","type":"address"},{"internalType":"address","name":"newClapTokenAddress","type":"address"},{"internalType":"address","name":"newTribalContractAddress","type":"address"},{"internalType":"address","name":"newTribalTokenAddress","type":"address"},{"internalType":"address","name":"newPerformancePoolAddress","type":"address"},{"internalType":"address","name":"newDaoTreasureAddress","type":"address"}],"name":"setAddresses","outputs":[],"stateMutability":"nonpayable","type":"function"},{"inputs":[{"internalType":"uint256","name":"newBoxReward","type":"uint256"},{"internalType":"uint256","name":"index","type":"uint256"}],"name":"setBoxReward","outputs":[],"stateMutability":"nonpayable","type":"function"},{"inputs":[{"internalType":"uint256","name":"newFriendChainRewardRate","type":"uint256"},{"internalType":"uint256","name":"index","type":"uint256"}],"name":"setFriendChainRewardRate","outputs":[],"stateMutability":"nonpayable","type":"function"},{"inputs":[{"internalType":"uint256","name":"newClapTokenRewardRate","type":"uint256"},{"internalType":"uint256","name":"newTribalTokenRewardRate","type":"uint256"},{"internalType":"uint256","name":"newDaoTreasureRewardRate","type":"uint256"},{"internalType":"uint256","name":"newPerformancePoolRewardRate","type":"uint256"},{"internalType":"uint256","name":"newInfluenceRewardRate","type":"uint256"}],"name":"setOtherRewardRates","outputs":[],"stateMutability":"nonpayable","type":"function"},{"inputs":[{"internalType":"uint256","name":"collectionIndex","type":"uint256"},{"internalType":"string","name":"_pinataURL","type":"string"}],"name":"setPinataURL","outputs":[],"stateMutability":"nonpayable","type":"function"},{"inputs":[{"internalType":"uint256","name":"newPoolRewardRate","type":"uint256"},{"internalType":"uint256","name":"newPoolQ_price","type":"uint256"},{"internalType":"uint256","name":"newPoolQ_time","type":"uint256"}],"name":"setPoolValue","outputs":[],"stateMutability":"nonpayable","type":"function"},{"inputs":[{"internalType":"uint256","name":"newPromoter1Rate","type":"uint256"},{"internalType":"uint256","name":"newPromoter2Rate","type":"uint256"},{"internalType":"uint256","name":"newPromoter1Q_time","type":"uint256"},{"internalType":"uint256","name":"newPromoter2Q_time","type":"uint256"},{"internalType":"uint256","name":"newPromoter1Q_price","type":"uint256"},{"internalType":"uint256","name":"newPromoter2Q_price","type":"uint256"}],"name":"setPromoterValue","outputs":[],"stateMutability":"nonpayable","type":"function"},{"inputs":[{"internalType":"uint256","name":"newRewardBoxPrice","type":"uint256"},{"internalType":"uint256","name":"index","type":"uint256"}],"name":"setRewardBoxPrice","outputs":[],"stateMutability":"nonpayable","type":"function"},{"inputs":[{"internalType":"uint256","name":"newRewardPeriod","type":"uint256"}],"name":"setRewardPeroid","outputs":[],"stateMutability":"nonpayable","type":"function"},{"inputs":[{"internalType":"uint256","name":"newSuperPromoter1RewardRate","type":"uint256"},{"internalType":"uint256","name":"newSuperPromoter2RewardRate","type":"uint256"}],"name":"setSuperPromoterRewardRate","outputs":[],"stateMutability":"nonpayable","type":"function"},{"inputs":[{"internalType":"uint256","name":"newClapTokenMaxReward","type":"uint256"},{"internalType":"uint256","name":"newTribalTokenMaxReward","type":"uint256"}],"name":"setTokenMaxReward","outputs":[],"stateMutability":"nonpayable","type":"function"}],"evm":{"bytecode":{"linkReferences":{},"object":"60806040523480156200001157600080fd5b5033600460006101000a81548173ffffffffffffffffffffffffffffffffffffffff021916908373ffffffffffffffffffffffffffffffffffffffff160217905550600860068190555060405180608001604052806051815260200162003796605191396005600060018152602001908152602001600020908162000097919062000318565b50620003ff565b600081519050919050565b7f4e487b7100000000000000000000000000000000000000000000000000000000600052604160045260246000fd5b7f4e487b7100000000000000000000000000000000000000000000000000000000600052602260045260246000fd5b600060028204905060018216806200012057607f821691505b602082108103620001365762000135620000d8565b5b50919050565b60008190508160005260206000209050919050565b60006020601f8301049050919050565b600082821b905092915050565b600060088302620001a07fffffffffffffffffffffffffffffffffffffffffffffffffffffffffffffffff8262000161565b620001ac868362000161565b95508019841693508086168417925050509392505050565b6000819050919050565b6000819050919050565b6000620001f9620001f3620001ed84620001c4565b620001ce565b620001c4565b9050919050565b6000819050919050565b6200021583620001d8565b6200022d620002248262000200565b8484546200016e565b825550505050565b600090565b6200024462000235565b620002518184846200020a565b505050565b5b8181101562000279576200026d6000826200023a565b60018101905062000257565b5050565b601f821115620002c85762000292816200013c565b6200029d8462000151565b81016020851015620002ad578190505b620002c5620002bc8562000151565b83018262000256565b50505b505050565b600082821c905092915050565b6000620002ed60001984600802620002cd565b1980831691505092915050565b6000620003088383620002da565b9150826002028217905092915050565b62000323826200009e565b67ffffffffffffffff8111156200033f576200033e620000a9565b5b6200034b825462000107565b620003588282856200027d565b600060209050601f8311600181146200039057600084156200037b578287015190505b620003878582620002fa565b865550620003f7565b601f198416620003a0866200013c565b60005b82811015620003ca57848901518255600182019150602085019450602081019050620003a3565b86831015620003ea5784890151620003e6601f891682620002da565b8355505b6001600288020188555050505b505050505050565b613387806200040f6000396000f3fe6080604052600436106100fe5760003560e01c8063849a744211610095578063bc672a3811610064578063bc672a38146102d4578063d2af1246146102fd578063d581dd7114610326578063d733cfd014610363578063fe6799631461038c576100fe565b8063849a74421461022e57806384ec2ed414610257578063a68603fc14610282578063b8edf3d7146102ab576100fe565b80635a8509c6116100d15780635a8509c6146101975780635be1a055146101c05780637684fba3146101e95780637980083614610212576100fe565b806324822514146101035780634e71d92d1461012e578063559e4b261461014557806358fabed51461016e575b600080fd5b34801561010f57600080fd5b506101186103b5565b6040516101259190612759565b60405180910390f35b34801561013a57600080fd5b506101436103c1565b005b34801561015157600080fd5b5061016c600480360381019061016791906128fa565b610697565b005b34801561017a57600080fd5b5061019560048036038101906101909190612956565b610716565b005b3480156101a357600080fd5b506101be60048036038101906101b99190612996565b610798565b005b3480156101cc57600080fd5b506101e760048036038101906101e29190612956565b610824565b005b3480156101f557600080fd5b50610210600480360381019061020b9190612a23565b610890565b005b61022c60048036038101906102279190612ad4565b610904565b005b34801561023a57600080fd5b5061025560048036038101906102509190612956565b611f49565b005b34801561026357600080fd5b5061026c611fbf565b6040516102799190612759565b60405180910390f35b34801561028e57600080fd5b506102a960048036038101906102a49190612b14565b611fc5565b005b3480156102b757600080fd5b506102d260048036038101906102cd9190612956565b612029565b005b3480156102e057600080fd5b506102fb60048036038101906102f69190612b41565b61209f565b005b34801561030957600080fd5b50610324600480360381019061031f9190612b6e565b6122da565b005b34801561033257600080fd5b5061034d60048036038101906103489190612b14565b61235e565b60405161035a9190612c68565b60405180910390f35b34801561036f57600080fd5b5061038a60048036038101906103859190612c8a565b6123fe565b005b34801561039857600080fd5b506103b360048036038101906103ae9190612956565b61266a565b005b60008060000154905081565b6000600f60003373ffffffffffffffffffffffffffffffffffffffff1673ffffffffffffffffffffffffffffffffffffffff1681526020019081526020016000209050600062093a8082600801544261041a9190612d6f565b6104249190612dd2565b905060005b600881101561066c5760185462093a8084600101838154811061044f5761044e612e03565b5b9060005260206000200154426104659190612d6f565b61046f9190612dd2565b1161065957600960009054906101000a900473ffffffffffffffffffffffffffffffffffffffff1673ffffffffffffffffffffffffffffffffffffffff166323b872dd600a60009054906101000a900473ffffffffffffffffffffffffffffffffffffffff1633601854670de0b6b3a76400006016546104ef9190612e32565b876104fa9190612e32565b6105049190612dd2565b6040518463ffffffff1660e01b815260040161052293929190612e83565b6020604051808303816000875af1158015610541573d6000803e3d6000fd5b505050506040513d601f19601f820116820180604052508101906105659190612ef2565b50600b60009054906101000a900473ffffffffffffffffffffffffffffffffffffffff1673ffffffffffffffffffffffffffffffffffffffff166323b872dd600c60009054906101000a900473ffffffffffffffffffffffffffffffffffffffff1633601854670de0b6b3a76400006017546105e19190612e32565b876105ec9190612e32565b6105f69190612dd2565b6040518463ffffffff1660e01b815260040161061493929190612e83565b6020604051808303816000875af1158015610633573d6000803e3d6000fd5b505050506040513d601f19601f820116820180604052508101906106579190612ef2565b505b808061066490612f1f565b915050610429565b5062093a808161067c9190612e32565b826008015461068b9190612f67565b82600801819055505050565b600460009054906101000a900473ffffffffffffffffffffffffffffffffffffffff1673ffffffffffffffffffffffffffffffffffffffff163373ffffffffffffffffffffffffffffffffffffffff16146106f157600080fd5b8060056000848152602001908152602001600020908161071191906131a7565b505050565b600460009054906101000a900473ffffffffffffffffffffffffffffffffffffffff1673ffffffffffffffffffffffffffffffffffffffff163373ffffffffffffffffffffffffffffffffffffffff161461077057600080fd5b81602a60006001846107829190612d6f565b8152602001908152602001600020819055505050565b600460009054906101000a900473ffffffffffffffffffffffffffffffffffffffff1673ffffffffffffffffffffffffffffffffffffffff163373ffffffffffffffffffffffffffffffffffffffff16146107f257600080fd5b85601c8190555084601d8190555083601e8190555082601f819055508160208190555080602181905550505050505050565b600460009054906101000a900473ffffffffffffffffffffffffffffffffffffffff1673ffffffffffffffffffffffffffffffffffffffff163373ffffffffffffffffffffffffffffffffffffffff161461087e57600080fd5b81602781905550806028819055505050565b600460009054906101000a900473ffffffffffffffffffffffffffffffffffffffff1673ffffffffffffffffffffffffffffffffffffffff163373ffffffffffffffffffffffffffffffffffffffff16146108ea57600080fd5b8260198190555081601a8190555080601b81905550505050565b60116000838152602001908152602001600020543414610959576040517f08c379a0000000000000000000000000000000000000000000000000000000008152600401610950906132c5565b60405180910390fd5b6000600f60008373ffffffffffffffffffffffffffffffffffffffff1673ffffffffffffffffffffffffffffffffffffffff16815260200190815260200160002090506001836109a99190612d6f565b8160000154146109ee576040517f08c379a00000000000000000000000000000000000000000000000000000000081526004016109e590613331565b60405180910390fd5b82816000018190555042816001018481548110610a0e57610a0d612e03565b5b906000526020600020018190555060006127109050600760009054906101000a900473ffffffffffffffffffffffffffffffffffffffff1673ffffffffffffffffffffffffffffffffffffffff166323b872dd84600a60009054906101000a900473ffffffffffffffffffffffffffffffffffffffff1661271060225434610a969190612e32565b610aa09190612dd2565b6040518463ffffffff1660e01b8152600401610abe93929190612e83565b6020604051808303816000875af1158015610add573d6000803e3d6000fd5b505050506040513d601f19601f82011682018060405250810190610b019190612ef2565b50600760009054906101000a900473ffffffffffffffffffffffffffffffffffffffff1673ffffffffffffffffffffffffffffffffffffffff166323b872dd84600c60009054906101000a900473ffffffffffffffffffffffffffffffffffffffff1661271060235434610b759190612e32565b610b7f9190612dd2565b6040518463ffffffff1660e01b8152600401610b9d93929190612e83565b6020604051808303816000875af1158015610bbc573d6000803e3d6000fd5b505050506040513d601f19601f82011682018060405250810190610be09190612ef2565b50600760009054906101000a900473ffffffffffffffffffffffffffffffffffffffff1673ffffffffffffffffffffffffffffffffffffffff166323b872dd84601560009054906101000a900473ffffffffffffffffffffffffffffffffffffffff1661271060245434610c549190612e32565b610c5e9190612dd2565b6040518463ffffffff1660e01b8152600401610c7c93929190612e83565b6020604051808303816000875af1158015610c9b573d6000803e3d6000fd5b505050506040513d601f19601f82011682018060405250810190610cbf9190612ef2565b50602454602354602254610cd39190612f67565b610cdd9190612f67565b81610ce89190612d6f565b90506000601060008573ffffffffffffffffffffffffffffffffffffffff1673ffffffffffffffffffffffffffffffffffffffff16815260200190815260200160002060009054906101000a900473ffffffffffffffffffffffffffffffffffffffff169050600073ffffffffffffffffffffffffffffffffffffffff168173ffffffffffffffffffffffffffffffffffffffff1614610e7257600760009054906101000a900473ffffffffffffffffffffffffffffffffffffffff1673ffffffffffffffffffffffffffffffffffffffff166323b872dd8583612710602a60008081526020019081526020016000205434610de49190612e32565b610dee9190612dd2565b6040518463ffffffff1660e01b8152600401610e0c93929190612e83565b6020604051808303816000875af1158015610e2b573d6000803e3d6000fd5b505050506040513d601f19601f82011682018060405250810190610e4f9190612ef2565b50602a60008081526020019081526020016000205482610e6f9190612d6f565b91505b6000600190505b60295481101561101c57601060008373ffffffffffffffffffffffffffffffffffffffff1673ffffffffffffffffffffffffffffffffffffffff16815260200190815260200160002060009054906101000a900473ffffffffffffffffffffffffffffffffffffffff169150600073ffffffffffffffffffffffffffffffffffffffff168273ffffffffffffffffffffffffffffffffffffffff16031561101c57600760009054906101000a900473ffffffffffffffffffffffffffffffffffffffff1673ffffffffffffffffffffffffffffffffffffffff166323b872dd8684612710602a60008781526020019081526020016000205434610f7c9190612e32565b610f869190612dd2565b6040518463ffffffff1660e01b8152600401610fa493929190612e83565b6020604051808303816000875af1158015610fc3573d6000803e3d6000fd5b505050506040513d601f19601f82011682018060405250810190610fe79190612ef2565b50602a600082815260200190815260200160002054836110079190612d6f565b9250808061101490612f1f565b915050610e79565b50600760009054906101000a900473ffffffffffffffffffffffffffffffffffffffff1673ffffffffffffffffffffffffffffffffffffffff166323b872dd85601360009054906101000a900473ffffffffffffffffffffffffffffffffffffffff16612710602554346110909190612e32565b61109a9190612dd2565b6040518463ffffffff1660e01b81526004016110b893929190612e83565b6020604051808303816000875af11580156110d7573d6000803e3d6000fd5b505050506040513d601f19601f820116820180604052508101906110fb9190612ef2565b50600760009054906101000a900473ffffffffffffffffffffffffffffffffffffffff1673ffffffffffffffffffffffffffffffffffffffff166323b872dd85601460009054906101000a900473ffffffffffffffffffffffffffffffffffffffff166127106026543461116f9190612e32565b6111799190612dd2565b6040518463ffffffff1660e01b815260040161119793929190612e83565b6020604051808303816000875af11580156111b6573d6000803e3d6000fd5b505050506040513d601f19601f820116820180604052508101906111da9190612ef2565b506026546025546111eb9190612f67565b826111f69190612d6f565b915060008060005b600d54811015611563576001600f6000600e600085815260200190815260200160002060009054906101000a900473ffffffffffffffffffffffffffffffffffffffff1673ffffffffffffffffffffffffffffffffffffffff1673ffffffffffffffffffffffffffffffffffffffff16815260200190815260200160002060020154036113ac576224ea00601e546112969190612e32565b600f6000600e600085815260200190815260200160002060009054906101000a900473ffffffffffffffffffffffffffffffffffffffff1673ffffffffffffffffffffffffffffffffffffffff1673ffffffffffffffffffffffffffffffffffffffff16815260200190815260200160002060030154426113179190612d6f565b1161132f57828061132790612f1f565b9350506113ab565b6000600f6000600e600085815260200190815260200160002060009054906101000a900473ffffffffffffffffffffffffffffffffffffffff1673ffffffffffffffffffffffffffffffffffffffff1673ffffffffffffffffffffffffffffffffffffffff168152602001908152602001600020600201819055505b5b6002600f6000600e600085815260200190815260200160002060009054906101000a900473ffffffffffffffffffffffffffffffffffffffff1673ffffffffffffffffffffffffffffffffffffffff1673ffffffffffffffffffffffffffffffffffffffff1681526020019081526020016000206002015403611550576224ea00601f5461143a9190612e32565b600f6000600e600085815260200190815260200160002060009054906101000a900473ffffffffffffffffffffffffffffffffffffffff1673ffffffffffffffffffffffffffffffffffffffff1673ffffffffffffffffffffffffffffffffffffffff16815260200190815260200160002060030154426114bb9190612d6f565b116114d35781806114cb90612f1f565b92505061154f565b6000600f6000600e600085815260200190815260200160002060009054906101000a900473ffffffffffffffffffffffffffffffffffffffff1673ffffffffffffffffffffffffffffffffffffffff1673ffffffffffffffffffffffffffffffffffffffff168152602001908152602001600020600201819055505b5b808061155b90612f1f565b9150506111fe565b5060005b600d54811015611876576001600f6000600e600085815260200190815260200160002060009054906101000a900473ffffffffffffffffffffffffffffffffffffffff1673ffffffffffffffffffffffffffffffffffffffff1673ffffffffffffffffffffffffffffffffffffffff16815260200190815260200160002060020154036116ea57600760009054906101000a900473ffffffffffffffffffffffffffffffffffffffff1673ffffffffffffffffffffffffffffffffffffffff166323b872dd88600e600085815260200190815260200160002060009054906101000a900473ffffffffffffffffffffffffffffffffffffffff1661271087602754346116739190612e32565b61167d9190612dd2565b6116879190612dd2565b6040518463ffffffff1660e01b81526004016116a593929190612e83565b6020604051808303816000875af11580156116c4573d6000803e3d6000fd5b505050506040513d601f19601f820116820180604052508101906116e89190612ef2565b505b6002600f6000600e600085815260200190815260200160002060009054906101000a900473ffffffffffffffffffffffffffffffffffffffff1673ffffffffffffffffffffffffffffffffffffffff1673ffffffffffffffffffffffffffffffffffffffff168152602001908152602001600020600201540361186357600760009054906101000a900473ffffffffffffffffffffffffffffffffffffffff1673ffffffffffffffffffffffffffffffffffffffff166323b872dd88600e600085815260200190815260200160002060009054906101000a900473ffffffffffffffffffffffffffffffffffffffff1661271086602854346117ec9190612e32565b6117f69190612dd2565b6118009190612dd2565b6040518463ffffffff1660e01b815260040161181e93929190612e83565b6020604051808303816000875af115801561183d573d6000803e3d6000fd5b505050506040513d601f19601f820116820180604052508101906118619190612ef2565b505b808061186e90612f1f565b915050611567565b50601060008773ffffffffffffffffffffffffffffffffffffffff1673ffffffffffffffffffffffffffffffffffffffff16815260200190815260200160002060009054906101000a900473ffffffffffffffffffffffffffffffffffffffff16925060005b602954811015611e4557601060008573ffffffffffffffffffffffffffffffffffffffff1673ffffffffffffffffffffffffffffffffffffffff16815260200190815260200160002060009054906101000a900473ffffffffffffffffffffffffffffffffffffffff169350600073ffffffffffffffffffffffffffffffffffffffff168473ffffffffffffffffffffffffffffffffffffffff160315611e455734600f60008673ffffffffffffffffffffffffffffffffffffffff1673ffffffffffffffffffffffffffffffffffffffff16815260200190815260200160002060040160008282546119cf9190612f67565b925050819055506000600f60008673ffffffffffffffffffffffffffffffffffffffff1673ffffffffffffffffffffffffffffffffffffffff1681526020019081526020016000206002015403611c9657602154600f60008673ffffffffffffffffffffffffffffffffffffffff1673ffffffffffffffffffffffffffffffffffffffff1681526020019081526020016000206004015410611b5a57602154600f60008673ffffffffffffffffffffffffffffffffffffffff1673ffffffffffffffffffffffffffffffffffffffff1681526020019081526020016000206004016000828254611abf9190612d6f565b925050819055506002600f60008673ffffffffffffffffffffffffffffffffffffffff1673ffffffffffffffffffffffffffffffffffffffff1681526020019081526020016000206002018190555042600f60008673ffffffffffffffffffffffffffffffffffffffff1673ffffffffffffffffffffffffffffffffffffffff16815260200190815260200160002060030181905550611c91565b602054600f60008673ffffffffffffffffffffffffffffffffffffffff1673ffffffffffffffffffffffffffffffffffffffff1681526020019081526020016000206004015410611c9057602054600f60008673ffffffffffffffffffffffffffffffffffffffff1673ffffffffffffffffffffffffffffffffffffffff1681526020019081526020016000206004016000828254611bf99190612d6f565b925050819055506001600f60008673ffffffffffffffffffffffffffffffffffffffff1673ffffffffffffffffffffffffffffffffffffffff1681526020019081526020016000206002018190555042600f60008673ffffffffffffffffffffffffffffffffffffffff1673ffffffffffffffffffffffffffffffffffffffff168152602001908152602001600020600301819055505b5b611e32565b6001600f60008673ffffffffffffffffffffffffffffffffffffffff1673ffffffffffffffffffffffffffffffffffffffff1681526020019081526020016000206002015403611e3157602054602154611cf09190612d6f565b600f60008673ffffffffffffffffffffffffffffffffffffffff1673ffffffffffffffffffffffffffffffffffffffff1681526020019081526020016000206004015410611e3057602054602154611d489190612d6f565b600f60008673ffffffffffffffffffffffffffffffffffffffff1673ffffffffffffffffffffffffffffffffffffffff1681526020019081526020016000206004016000828254611d999190612d6f565b925050819055506002600f60008673ffffffffffffffffffffffffffffffffffffffff1673ffffffffffffffffffffffffffffffffffffffff1681526020019081526020016000206002018190555042600f60008673ffffffffffffffffffffffffffffffffffffffff1673ffffffffffffffffffffffffffffffffffffffff168152602001908152602001600020600301819055505b5b5b8080611e3d90612f1f565b9150506118dc565b50602854602754611e569190612f67565b84611e619190612d6f565b9350600760009054906101000a900473ffffffffffffffffffffffffffffffffffffffff1673ffffffffffffffffffffffffffffffffffffffff166323b872dd87600460009054906101000a900473ffffffffffffffffffffffffffffffffffffffff166127108834611ed49190612e32565b611ede9190612dd2565b6040518463ffffffff1660e01b8152600401611efc93929190612e83565b6020604051808303816000875af1158015611f1b573d6000803e3d6000fd5b505050506040513d601f19601f82011682018060405250810190611f3f9190612ef2565b5050505050505050565b600460009054906101000a900473ffffffffffffffffffffffffffffffffffffffff1673ffffffffffffffffffffffffffffffffffffffff163373ffffffffffffffffffffffffffffffffffffffff1614611fa357600080fd5b8160126000838152602001908152602001600020819055505050565b60065481565b600460009054906101000a900473ffffffffffffffffffffffffffffffffffffffff1673ffffffffffffffffffffffffffffffffffffffff163373ffffffffffffffffffffffffffffffffffffffff161461201f57600080fd5b8060188190555050565b600460009054906101000a900473ffffffffffffffffffffffffffffffffffffffff1673ffffffffffffffffffffffffffffffffffffffff163373ffffffffffffffffffffffffffffffffffffffff161461208357600080fd5b8160116000838152602001908152602001600020819055505050565b33600e6000600d60008154809291906120b790612f1f565b91905055815260200190815260200160002060006101000a81548173ffffffffffffffffffffffffffffffffffffffff021916908373ffffffffffffffffffffffffffffffffffffffff160217905550600060016006546121189190612f67565b67ffffffffffffffff811115612131576121306127cf565b5b60405190808252806020026020018201604052801561215f5781602001602082028036833780820191505090505b50905060405180610120016040528060008152602001828152602001600081526020014281526020016000815260200160008152602001600081526020016000815260200142815250600f60003373ffffffffffffffffffffffffffffffffffffffff1673ffffffffffffffffffffffffffffffffffffffff16815260200190815260200160002060008201518160000155602082015181600101908051906020019061220d9291906126d6565b5060408201518160020155606082015181600301556080820151816004015560a0820151816005015560c0820151816006015560e08201518160070155610100820151816008015590505081601060003373ffffffffffffffffffffffffffffffffffffffff1673ffffffffffffffffffffffffffffffffffffffff16815260200190815260200160002060006101000a81548173ffffffffffffffffffffffffffffffffffffffff021916908373ffffffffffffffffffffffffffffffffffffffff1602179055505050565b600460009054906101000a900473ffffffffffffffffffffffffffffffffffffffff1673ffffffffffffffffffffffffffffffffffffffff163373ffffffffffffffffffffffffffffffffffffffff161461233457600080fd5b84602281905550836023819055508260248190555081602581905550806026819055505050505050565b6005602052806000526040600020600091509050805461237d90612fca565b80601f01602080910402602001604051908101604052809291908181526020018280546123a990612fca565b80156123f65780601f106123cb576101008083540402835291602001916123f6565b820191906000526020600020905b8154815290600101906020018083116123d957829003601f168201915b505050505081565b600460009054906101000a900473ffffffffffffffffffffffffffffffffffffffff1673ffffffffffffffffffffffffffffffffffffffff163373ffffffffffffffffffffffffffffffffffffffff161461245857600080fd5b87600760006101000a81548173ffffffffffffffffffffffffffffffffffffffff021916908373ffffffffffffffffffffffffffffffffffffffff16021790555086600860006101000a81548173ffffffffffffffffffffffffffffffffffffffff021916908373ffffffffffffffffffffffffffffffffffffffff16021790555085600960006101000a81548173ffffffffffffffffffffffffffffffffffffffff021916908373ffffffffffffffffffffffffffffffffffffffff16021790555084600a60006101000a81548173ffffffffffffffffffffffffffffffffffffffff021916908373ffffffffffffffffffffffffffffffffffffffff16021790555083600b60006101000a81548173ffffffffffffffffffffffffffffffffffffffff021916908373ffffffffffffffffffffffffffffffffffffffff16021790555082600c60006101000a81548173ffffffffffffffffffffffffffffffffffffffff021916908373ffffffffffffffffffffffffffffffffffffffff16021790555081601360006101000a81548173ffffffffffffffffffffffffffffffffffffffff021916908373ffffffffffffffffffffffffffffffffffffffff16021790555080601560006101000a81548173ffffffffffffffffffffffffffffffffffffffff021916908373ffffffffffffffffffffffffffffffffffffffff1602179055505050505050505050565b600460009054906101000a900473ffffffffffffffffffffffffffffffffffffffff1673ffffffffffffffffffffffffffffffffffffffff163373ffffffffffffffffffffffffffffffffffffffff16146126c457600080fd5b81601681905550806017819055505050565b828054828255906000526020600020908101928215612712579160200282015b828111156127115782518255916020019190600101906126f6565b5b50905061271f9190612723565b5090565b5b8082111561273c576000816000905550600101612724565b5090565b6000819050919050565b61275381612740565b82525050565b600060208201905061276e600083018461274a565b92915050565b6000604051905090565b600080fd5b600080fd5b61279181612740565b811461279c57600080fd5b50565b6000813590506127ae81612788565b92915050565b600080fd5b600080fd5b6000601f19601f8301169050919050565b7f4e487b7100000000000000000000000000000000000000000000000000000000600052604160045260246000fd5b612807826127be565b810181811067ffffffffffffffff82111715612826576128256127cf565b5b80604052505050565b6000612839612774565b905061284582826127fe565b919050565b600067ffffffffffffffff821115612865576128646127cf565b5b61286e826127be565b9050602081019050919050565b82818337600083830152505050565b600061289d6128988461284a565b61282f565b9050828152602081018484840111156128b9576128b86127b9565b5b6128c484828561287b565b509392505050565b600082601f8301126128e1576128e06127b4565b5b81356128f184826020860161288a565b91505092915050565b600080604083850312156129115761291061277e565b5b600061291f8582860161279f565b925050602083013567ffffffffffffffff8111156129405761293f612783565b5b61294c858286016128cc565b9150509250929050565b6000806040838503121561296d5761296c61277e565b5b600061297b8582860161279f565b925050602061298c8582860161279f565b9150509250929050565b60008060008060008060c087890312156129b3576129b261277e565b5b60006129c189828a0161279f565b96505060206129d289828a0161279f565b95505060406129e389828a0161279f565b94505060606129f489828a0161279f565b9350506080612a0589828a0161279f565b92505060a0612a1689828a0161279f565b9150509295509295509295565b600080600060608486031215612a3c57612a3b61277e565b5b6000612a4a8682870161279f565b9350506020612a5b8682870161279f565b9250506040612a6c8682870161279f565b9150509250925092565b600073ffffffffffffffffffffffffffffffffffffffff82169050919050565b6000612aa182612a76565b9050919050565b612ab181612a96565b8114612abc57600080fd5b50565b600081359050612ace81612aa8565b92915050565b60008060408385031215612aeb57612aea61277e565b5b6000612af98582860161279f565b9250506020612b0a85828601612abf565b9150509250929050565b600060208284031215612b2a57612b2961277e565b5b6000612b388482850161279f565b91505092915050565b600060208284031215612b5757612b5661277e565b5b6000612b6584828501612abf565b91505092915050565b600080600080600060a08688031215612b8a57612b8961277e565b5b6000612b988882890161279f565b9550506020612ba98882890161279f565b9450506040612bba8882890161279f565b9350506060612bcb8882890161279f565b9250506080612bdc8882890161279f565b9150509295509295909350565b600081519050919050565b600082825260208201905092915050565b60005b83811015612c23578082015181840152602081019050612c08565b60008484015250505050565b6000612c3a82612be9565b612c448185612bf4565b9350612c54818560208601612c05565b612c5d816127be565b840191505092915050565b60006020820190508181036000830152612c828184612c2f565b905092915050565b600080600080600080600080610100898b031215612cab57612caa61277e565b5b6000612cb98b828c01612abf565b9850506020612cca8b828c01612abf565b9750506040612cdb8b828c01612abf565b9650506060612cec8b828c01612abf565b9550506080612cfd8b828c01612abf565b94505060a0612d0e8b828c01612abf565b93505060c0612d1f8b828c01612abf565b92505060e0612d308b828c01612abf565b9150509295985092959890939650565b7f4e487b7100000000000000000000000000000000000000000000000000000000600052601160045260246000fd5b6000612d7a82612740565b9150612d8583612740565b9250828203905081811115612d9d57612d9c612d40565b5b92915050565b7f4e487b7100000000000000000000000000000000000000000000000000000000600052601260045260246000fd5b6000612ddd82612740565b9150612de883612740565b925082612df857612df7612da3565b5b828204905092915050565b7f4e487b7100000000000000000000000000000000000000000000000000000000600052603260045260246000fd5b6000612e3d82612740565b9150612e4883612740565b9250828202612e5681612740565b91508282048414831517612e6d57612e6c612d40565b5b5092915050565b612e7d81612a96565b82525050565b6000606082019050612e986000830186612e74565b612ea56020830185612e74565b612eb2604083018461274a565b949350505050565b60008115159050919050565b612ecf81612eba565b8114612eda57600080fd5b50565b600081519050612eec81612ec6565b92915050565b600060208284031215612f0857612f0761277e565b5b6000612f1684828501612edd565b91505092915050565b6000612f2a82612740565b91507fffffffffffffffffffffffffffffffffffffffffffffffffffffffffffffffff8203612f5c57612f5b612d40565b5b600182019050919050565b6000612f7282612740565b9150612f7d83612740565b9250828201905080821115612f9557612f94612d40565b5b92915050565b7f4e487b7100000000000000000000000000000000000000000000000000000000600052602260045260246000fd5b60006002820490506001821680612fe257607f821691505b602082108103612ff557612ff4612f9b565b5b50919050565b60008190508160005260206000209050919050565b60006020601f8301049050919050565b600082821b905092915050565b60006008830261305d7fffffffffffffffffffffffffffffffffffffffffffffffffffffffffffffffff82613020565b6130678683613020565b95508019841693508086168417925050509392505050565b6000819050919050565b60006130a461309f61309a84612740565b61307f565b612740565b9050919050565b6000819050919050565b6130be83613089565b6130d26130ca826130ab565b84845461302d565b825550505050565b600090565b6130e76130da565b6130f28184846130b5565b505050565b5b818110156131165761310b6000826130df565b6001810190506130f8565b5050565b601f82111561315b5761312c81612ffb565b61313584613010565b81016020851015613144578190505b61315861315085613010565b8301826130f7565b50505b505050565b600082821c905092915050565b600061317e60001984600802613160565b1980831691505092915050565b6000613197838361316d565b9150826002028217905092915050565b6131b082612be9565b67ffffffffffffffff8111156131c9576131c86127cf565b5b6131d38254612fca565b6131de82828561311a565b600060209050601f83116001811461321157600084156131ff578287015190505b613209858261318b565b865550613271565b601f19841661321f86612ffb565b60005b8281101561324757848901518255600182019150602085019450602081019050613222565b868310156132645784890151613260601f89168261316d565b8355505b6001600288020188555050505b505050505050565b7f62616c616e6365206e6f7420656e6f75676820746f2062757900000000000000600082015250565b60006132af601983612bf4565b91506132ba82613279565b602082019050919050565b600060208201905081810360008301526132de816132a2565b9050919050565b7f796f752063616e206e6f74207075726368617365207468697320426f78000000600082015250565b600061331b601d83612bf4565b9150613326826132e5565b602082019050919050565b6000602082019050818103600083015261334a8161330e565b905091905056fea26469706673582212202fd15c44790cab2f7d6b6811b0b1bb7768be11481a55b18b09f0dda99aa7fe5164736f6c6343000811003368747470733a2f2f676174657761792e70696e6174612e636c6f75642f697066732f516d5644517a6256466b3236646656665a55574b647967734b554a7a75484a526a3548623472664454553368674b2f","opcodes":"PUSH1 0x80 PUSH1 0x40 MSTORE CALLVALUE DUP1 ISZERO PUSH3 0x11 JUMPI PUSH1 0x0 DUP1 REVERT JUMPDEST POP CALLER PUSH1 0x4 PUSH1 0x0 PUSH2 0x100 EXP DUP2 SLOAD DUP2 PUSH20 0xFFFFFFFFFFFFFFFFFFFFFFFFFFFFFFFFFFFFFFFF MUL NOT AND SWAP1 DUP4 PUSH20 0xFFFFFFFFFFFFFFFFFFFFFFFFFFFFFFFFFFFFFFFF AND MUL OR SWAP1 SSTORE POP PUSH1 0x8 PUSH1 0x6 DUP2 SWAP1 SSTORE POP PUSH1 0x40 MLOAD DUP1 PUSH1 0x80 ADD PUSH1 0x40 MSTORE DUP1 PUSH1 0x51 DUP2 MSTORE PUSH1 0x20 ADD PUSH3 0x3796 PUSH1 0x51 SWAP2 CODECOPY PUSH1 0x5 PUSH1 0x0 PUSH1 0x1 DUP2 MSTORE PUSH1 0x20 ADD SWAP1 DUP2 MSTORE PUSH1 0x20 ADD PUSH1 0x0 KECCAK256 SWAP1 DUP2 PUSH3 0x97 SWAP2 SWAP1 PUSH3 0x318 JUMP JUMPDEST POP PUSH3 0x3FF JUMP JUMPDEST PUSH1 0x0 DUP2 MLOAD SWAP1 POP SWAP2 SWAP1 POP JUMP JUMPDEST PUSH32 0x4E487B7100000000000000000000000000000000000000000000000000000000 PUSH1 0x0 MSTORE PUSH1 0x41 PUSH1 0x4 MSTORE PUSH1 0x24 PUSH1 0x0 REVERT JUMPDEST PUSH32 0x4E487B7100000000000000000000000000000000000000000000000000000000 PUSH1 0x0 MSTORE PUSH1 0x22 PUSH1 0x4 MSTORE PUSH1 0x24 PUSH1 0x0 REVERT JUMPDEST PUSH1 0x0 PUSH1 0x2 DUP3 DIV SWAP1 POP PUSH1 0x1 DUP3 AND DUP1 PUSH3 0x120 JUMPI PUSH1 0x7F DUP3 AND SWAP2 POP JUMPDEST PUSH1 0x20 DUP3 LT DUP2 SUB PUSH3 0x136 JUMPI PUSH3 0x135 PUSH3 0xD8 JUMP JUMPDEST JUMPDEST POP SWAP2 SWAP1 POP JUMP JUMPDEST PUSH1 0x0 DUP2 SWAP1 POP DUP2 PUSH1 0x0 MSTORE PUSH1 0x20 PUSH1 0x0 KECCAK256 SWAP1 POP SWAP2 SWAP1 POP JUMP JUMPDEST PUSH1 0x0 PUSH1 0x20 PUSH1 0x1F DUP4 ADD DIV SWAP1 POP SWAP2 SWAP1 POP JUMP JUMPDEST PUSH1 0x0 DUP3 DUP3 SHL SWAP1 POP SWAP3 SWAP2 POP POP JUMP JUMPDEST PUSH1 0x0 PUSH1 0x8 DUP4 MUL PUSH3 0x1A0 PUSH32 0xFFFFFFFFFFFFFFFFFFFFFFFFFFFFFFFFFFFFFFFFFFFFFFFFFFFFFFFFFFFFFFFF DUP3 PUSH3 0x161 JUMP JUMPDEST PUSH3 0x1AC DUP7 DUP4 PUSH3 0x161 JUMP JUMPDEST SWAP6 POP DUP1 NOT DUP5 AND SWAP4 POP DUP1 DUP7 AND DUP5 OR SWAP3 POP POP POP SWAP4 SWAP3 POP POP POP JUMP JUMPDEST PUSH1 0x0 DUP2 SWAP1 POP SWAP2 SWAP1 POP JUMP JUMPDEST PUSH1 0x0 DUP2 SWAP1 POP SWAP2 SWAP1 POP JUMP JUMPDEST PUSH1 0x0 PUSH3 0x1F9 PUSH3 0x1F3 PUSH3 0x1ED DUP5 PUSH3 0x1C4 JUMP JUMPDEST PUSH3 0x1CE JUMP JUMPDEST PUSH3 0x1C4 JUMP JUMPDEST SWAP1 POP SWAP2 SWAP1 POP JUMP JUMPDEST PUSH1 0x0 DUP2 SWAP1 POP SWAP2 SWAP1 POP JUMP JUMPDEST PUSH3 0x215 DUP4 PUSH3 0x1D8 JUMP JUMPDEST PUSH3 0x22D PUSH3 0x224 DUP3 PUSH3 0x200 JUMP JUMPDEST DUP5 DUP5 SLOAD PUSH3 0x16E JUMP JUMPDEST DUP3 SSTORE POP POP POP POP JUMP JUMPDEST PUSH1 0x0 SWAP1 JUMP JUMPDEST PUSH3 0x244 PUSH3 0x235 JUMP JUMPDEST PUSH3 0x251 DUP2 DUP5 DUP5 PUSH3 0x20A JUMP JUMPDEST POP POP POP JUMP JUMPDEST JUMPDEST DUP2 DUP2 LT ISZERO PUSH3 0x279 JUMPI PUSH3 0x26D PUSH1 0x0 DUP3 PUSH3 0x23A JUMP JUMPDEST PUSH1 0x1 DUP2 ADD SWAP1 POP PUSH3 0x257 JUMP JUMPDEST POP POP JUMP JUMPDEST PUSH1 0x1F DUP3 GT ISZERO PUSH3 0x2C8 JUMPI PUSH3 0x292 DUP2 PUSH3 0x13C JUMP JUMPDEST PUSH3 0x29D DUP5 PUSH3 0x151 JUMP JUMPDEST DUP2 ADD PUSH1 0x20 DUP6 LT ISZERO PUSH3 0x2AD JUMPI DUP2 SWAP1 POP JUMPDEST PUSH3 0x2C5 PUSH3 0x2BC DUP6 PUSH3 0x151 JUMP JUMPDEST DUP4 ADD DUP3 PUSH3 0x256 JUMP JUMPDEST POP POP JUMPDEST POP POP POP JUMP JUMPDEST PUSH1 0x0 DUP3 DUP3 SHR SWAP1 POP SWAP3 SWAP2 POP POP JUMP JUMPDEST PUSH1 0x0 PUSH3 0x2ED PUSH1 0x0 NOT DUP5 PUSH1 0x8 MUL PUSH3 0x2CD JUMP JUMPDEST NOT DUP1 DUP4 AND SWAP2 POP POP SWAP3 SWAP2 POP POP JUMP JUMPDEST PUSH1 0x0 PUSH3 0x308 DUP4 DUP4 PUSH3 0x2DA JUMP JUMPDEST SWAP2 POP DUP3 PUSH1 0x2 MUL DUP3 OR SWAP1 POP SWAP3 SWAP2 POP POP JUMP JUMPDEST PUSH3 0x323 DUP3 PUSH3 0x9E JUMP JUMPDEST PUSH8 0xFFFFFFFFFFFFFFFF DUP2 GT ISZERO PUSH3 0x33F JUMPI PUSH3 0x33E PUSH3 0xA9 JUMP JUMPDEST JUMPDEST PUSH3 0x34B DUP3 SLOAD PUSH3 0x107 JUMP JUMPDEST PUSH3 0x358 DUP3 DUP3 DUP6 PUSH3 0x27D JUMP JUMPDEST PUSH1 0x0 PUSH1 0x20 SWAP1 POP PUSH1 0x1F DUP4 GT PUSH1 0x1 DUP2 EQ PUSH3 0x390 JUMPI PUSH1 0x0 DUP5 ISZERO PUSH3 0x37B JUMPI DUP3 DUP8 ADD MLOAD SWAP1 POP JUMPDEST PUSH3 0x387 DUP6 DUP3 PUSH3 0x2FA JUMP JUMPDEST DUP7 SSTORE POP PUSH3 0x3F7 JUMP JUMPDEST PUSH1 0x1F NOT DUP5 AND PUSH3 0x3A0 DUP7 PUSH3 0x13C JUMP JUMPDEST PUSH1 0x0 JUMPDEST DUP3 DUP2 LT ISZERO PUSH3 0x3CA JUMPI DUP5 DUP10 ADD MLOAD DUP3 SSTORE PUSH1 0x1 DUP3 ADD SWAP2 POP PUSH1 0x20 DUP6 ADD SWAP5 POP PUSH1 0x20 DUP2 ADD SWAP1 POP PUSH3 0x3A3 JUMP JUMPDEST DUP7 DUP4 LT ISZERO PUSH3 0x3EA JUMPI DUP5 DUP10 ADD MLOAD PUSH3 0x3E6 PUSH1 0x1F DUP10 AND DUP3 PUSH3 0x2DA JUMP JUMPDEST DUP4 SSTORE POP JUMPDEST PUSH1 0x1 PUSH1 0x2 DUP9 MUL ADD DUP9 SSTORE POP POP POP JUMPDEST POP POP POP POP POP POP JUMP JUMPDEST PUSH2 0x3387 DUP1 PUSH3 0x40F PUSH1 0x0 CODECOPY PUSH1 0x0 RETURN INVALID PUSH1 0x80 PUSH1 0x40 MSTORE PUSH1 0x4 CALLDATASIZE LT PUSH2 0xFE JUMPI PUSH1 0x0 CALLDATALOAD PUSH1 0xE0 SHR DUP1 PUSH4 0x849A7442 GT PUSH2 0x95 JUMPI DUP1 PUSH4 0xBC672A38 GT PUSH2 0x64 JUMPI DUP1 PUSH4 0xBC672A38 EQ PUSH2 0x2D4 JUMPI DUP1 PUSH4 0xD2AF1246 EQ PUSH2 0x2FD JUMPI DUP1 PUSH4 0xD581DD71 EQ PUSH2 0x326 JUMPI DUP1 PUSH4 0xD733CFD0 EQ PUSH2 0x363 JUMPI DUP1 PUSH4 0xFE679963 EQ PUSH2 0x38C JUMPI PUSH2 0xFE JUMP JUMPDEST DUP1 PUSH4 0x849A7442 EQ PUSH2 0x22E JUMPI DUP1 PUSH4 0x84EC2ED4 EQ PUSH2 0x257 JUMPI DUP1 PUSH4 0xA68603FC EQ PUSH2 0x282 JUMPI DUP1 PUSH4 0xB8EDF3D7 EQ PUSH2 0x2AB JUMPI PUSH2 0xFE JUMP JUMPDEST DUP1 PUSH4 0x5A8509C6 GT PUSH2 0xD1 JUMPI DUP1 PUSH4 0x5A8509C6 EQ PUSH2 0x197 JUMPI DUP1 PUSH4 0x5BE1A055 EQ PUSH2 0x1C0 JUMPI DUP1 PUSH4 0x7684FBA3 EQ PUSH2 0x1E9 JUMPI DUP1 PUSH4 0x79800836 EQ PUSH2 0x212 JUMPI PUSH2 0xFE JUMP JUMPDEST DUP1 PUSH4 0x24822514 EQ PUSH2 0x103 JUMPI DUP1 PUSH4 0x4E71D92D EQ PUSH2 0x12E JUMPI DUP1 PUSH4 0x559E4B26 EQ PUSH2 0x145 JUMPI DUP1 PUSH4 0x58FABED5 EQ PUSH2 0x16E JUMPI JUMPDEST PUSH1 0x0 DUP1 REVERT JUMPDEST CALLVALUE DUP1 ISZERO PUSH2 0x10F JUMPI PUSH1 0x0 DUP1 REVERT JUMPDEST POP PUSH2 0x118 PUSH2 0x3B5 JUMP JUMPDEST PUSH1 0x40 MLOAD PUSH2 0x125 SWAP2 SWAP1 PUSH2 0x2759 JUMP JUMPDEST PUSH1 0x40 MLOAD DUP1 SWAP2 SUB SWAP1 RETURN JUMPDEST CALLVALUE DUP1 ISZERO PUSH2 0x13A JUMPI PUSH1 0x0 DUP1 REVERT JUMPDEST POP PUSH2 0x143 PUSH2 0x3C1 JUMP JUMPDEST STOP JUMPDEST CALLVALUE DUP1 ISZERO PUSH2 0x151 JUMPI PUSH1 0x0 DUP1 REVERT JUMPDEST POP PUSH2 0x16C PUSH1 0x4 DUP1 CALLDATASIZE SUB DUP2 ADD SWAP1 PUSH2 0x167 SWAP2 SWAP1 PUSH2 0x28FA JUMP JUMPDEST PUSH2 0x697 JUMP JUMPDEST STOP JUMPDEST CALLVALUE DUP1 ISZERO PUSH2 0x17A JUMPI PUSH1 0x0 DUP1 REVERT JUMPDEST POP PUSH2 0x195 PUSH1 0x4 DUP1 CALLDATASIZE SUB DUP2 ADD SWAP1 PUSH2 0x190 SWAP2 SWAP1 PUSH2 0x2956 JUMP JUMPDEST PUSH2 0x716 JUMP JUMPDEST STOP JUMPDEST CALLVALUE DUP1 ISZERO PUSH2 0x1A3 JUMPI PUSH1 0x0 DUP1 REVERT JUMPDEST POP PUSH2 0x1BE PUSH1 0x4 DUP1 CALLDATASIZE SUB DUP2 ADD SWAP1 PUSH2 0x1B9 SWAP2 SWAP1 PUSH2 0x2996 JUMP JUMPDEST PUSH2 0x798 JUMP JUMPDEST STOP JUMPDEST CALLVALUE DUP1 ISZERO PUSH2 0x1CC JUMPI PUSH1 0x0 DUP1 REVERT JUMPDEST POP PUSH2 0x1E7 PUSH1 0x4 DUP1 CALLDATASIZE SUB DUP2 ADD SWAP1 PUSH2 0x1E2 SWAP2 SWAP1 PUSH2 0x2956 JUMP JUMPDEST PUSH2 0x824 JUMP JUMPDEST STOP JUMPDEST CALLVALUE DUP1 ISZERO PUSH2 0x1F5 JUMPI PUSH1 0x0 DUP1 REVERT JUMPDEST POP PUSH2 0x210 PUSH1 0x4 DUP1 CALLDATASIZE SUB DUP2 ADD SWAP1 PUSH2 0x20B SWAP2 SWAP1 PUSH2 0x2A23 JUMP JUMPDEST PUSH2 0x890 JUMP JUMPDEST STOP JUMPDEST PUSH2 0x22C PUSH1 0x4 DUP1 CALLDATASIZE SUB DUP2 ADD SWAP1 PUSH2 0x227 SWAP2 SWAP1 PUSH2 0x2AD4 JUMP JUMPDEST PUSH2 0x904 JUMP JUMPDEST STOP JUMPDEST CALLVALUE DUP1 ISZERO PUSH2 0x23A JUMPI PUSH1 0x0 DUP1 REVERT JUMPDEST POP PUSH2 0x255 PUSH1 0x4 DUP1 CALLDATASIZE SUB DUP2 ADD SWAP1 PUSH2 0x250 SWAP2 SWAP1 PUSH2 0x2956 JUMP JUMPDEST PUSH2 0x1F49 JUMP JUMPDEST STOP JUMPDEST CALLVALUE DUP1 ISZERO PUSH2 0x263 JUMPI PUSH1 0x0 DUP1 REVERT JUMPDEST POP PUSH2 0x26C PUSH2 0x1FBF JUMP JUMPDEST PUSH1 0x40 MLOAD PUSH2 0x279 SWAP2 SWAP1 PUSH2 0x2759 JUMP JUMPDEST PUSH1 0x40 MLOAD DUP1 SWAP2 SUB SWAP1 RETURN JUMPDEST CALLVALUE DUP1 ISZERO PUSH2 0x28E JUMPI PUSH1 0x0 DUP1 REVERT JUMPDEST POP PUSH2 0x2A9 PUSH1 0x4 DUP1 CALLDATASIZE SUB DUP2 ADD SWAP1 PUSH2 0x2A4 SWAP2 SWAP1 PUSH2 0x2B14 JUMP JUMPDEST PUSH2 0x1FC5 JUMP JUMPDEST STOP JUMPDEST CALLVALUE DUP1 ISZERO PUSH2 0x2B7 JUMPI PUSH1 0x0 DUP1 REVERT JUMPDEST POP PUSH2 0x2D2 PUSH1 0x4 DUP1 CALLDATASIZE SUB DUP2 ADD SWAP1 PUSH2 0x2CD SWAP2 SWAP1 PUSH2 0x2956 JUMP JUMPDEST PUSH2 0x2029 JUMP JUMPDEST STOP JUMPDEST CALLVALUE DUP1 ISZERO PUSH2 0x2E0 JUMPI PUSH1 0x0 DUP1 REVERT JUMPDEST POP PUSH2 0x2FB PUSH1 0x4 DUP1 CALLDATASIZE SUB DUP2 ADD SWAP1 PUSH2 0x2F6 SWAP2 SWAP1 PUSH2 0x2B41 JUMP JUMPDEST PUSH2 0x209F JUMP JUMPDEST STOP JUMPDEST CALLVALUE DUP1 ISZERO PUSH2 0x309 JUMPI PUSH1 0x0 DUP1 REVERT JUMPDEST POP PUSH2 0x324 PUSH1 0x4 DUP1 CALLDATASIZE SUB DUP2 ADD SWAP1 PUSH2 0x31F SWAP2 SWAP1 PUSH2 0x2B6E JUMP JUMPDEST PUSH2 0x22DA JUMP JUMPDEST STOP JUMPDEST CALLVALUE DUP1 ISZERO PUSH2 0x332 JUMPI PUSH1 0x0 DUP1 REVERT JUMPDEST POP PUSH2 0x34D PUSH1 0x4 DUP1 CALLDATASIZE SUB DUP2 ADD SWAP1 PUSH2 0x348 SWAP2 SWAP1 PUSH2 0x2B14 JUMP JUMPDEST PUSH2 0x235E JUMP JUMPDEST PUSH1 0x40 MLOAD PUSH2 0x35A SWAP2 SWAP1 PUSH2 0x2C68 JUMP JUMPDEST PUSH1 0x40 MLOAD DUP1 SWAP2 SUB SWAP1 RETURN JUMPDEST CALLVALUE DUP1 ISZERO PUSH2 0x36F JUMPI PUSH1 0x0 DUP1 REVERT JUMPDEST POP PUSH2 0x38A PUSH1 0x4 DUP1 CALLDATASIZE SUB DUP2 ADD SWAP1 PUSH2 0x385 SWAP2 SWAP1 PUSH2 0x2C8A JUMP JUMPDEST PUSH2 0x23FE JUMP JUMPDEST STOP JUMPDEST CALLVALUE DUP1 ISZERO PUSH2 0x398 JUMPI PUSH1 0x0 DUP1 REVERT JUMPDEST POP PUSH2 0x3B3 PUSH1 0x4 DUP1 CALLDATASIZE SUB DUP2 ADD SWAP1 PUSH2 0x3AE SWAP2 SWAP1 PUSH2 0x2956 JUMP JUMPDEST PUSH2 0x266A JUMP JUMPDEST STOP JUMPDEST PUSH1 0x0 DUP1 PUSH1 0x0 ADD SLOAD SWAP1 POP DUP2 JUMP JUMPDEST PUSH1 0x0 PUSH1 0xF PUSH1 0x0 CALLER PUSH20 0xFFFFFFFFFFFFFFFFFFFFFFFFFFFFFFFFFFFFFFFF AND PUSH20 0xFFFFFFFFFFFFFFFFFFFFFFFFFFFFFFFFFFFFFFFF AND DUP2 MSTORE PUSH1 0x20 ADD SWAP1 DUP2 MSTORE PUSH1 0x20 ADD PUSH1 0x0 KECCAK256 SWAP1 POP PUSH1 0x0 PUSH3 0x93A80 DUP3 PUSH1 0x8 ADD SLOAD TIMESTAMP PUSH2 0x41A SWAP2 SWAP1 PUSH2 0x2D6F JUMP JUMPDEST PUSH2 0x424 SWAP2 SWAP1 PUSH2 0x2DD2 JUMP JUMPDEST SWAP1 POP PUSH1 0x0 JUMPDEST PUSH1 0x8 DUP2 LT ISZERO PUSH2 0x66C JUMPI PUSH1 0x18 SLOAD PUSH3 0x93A80 DUP5 PUSH1 0x1 ADD DUP4 DUP2 SLOAD DUP2 LT PUSH2 0x44F JUMPI PUSH2 0x44E PUSH2 0x2E03 JUMP JUMPDEST JUMPDEST SWAP1 PUSH1 0x0 MSTORE PUSH1 0x20 PUSH1 0x0 KECCAK256 ADD SLOAD TIMESTAMP PUSH2 0x465 SWAP2 SWAP1 PUSH2 0x2D6F JUMP JUMPDEST PUSH2 0x46F SWAP2 SWAP1 PUSH2 0x2DD2 JUMP JUMPDEST GT PUSH2 0x659 JUMPI PUSH1 0x9 PUSH1 0x0 SWAP1 SLOAD SWAP1 PUSH2 0x100 EXP SWAP1 DIV PUSH20 0xFFFFFFFFFFFFFFFFFFFFFFFFFFFFFFFFFFFFFFFF AND PUSH20 0xFFFFFFFFFFFFFFFFFFFFFFFFFFFFFFFFFFFFFFFF AND PUSH4 0x23B872DD PUSH1 0xA PUSH1 0x0 SWAP1 SLOAD SWAP1 PUSH2 0x100 EXP SWAP1 DIV PUSH20 0xFFFFFFFFFFFFFFFFFFFFFFFFFFFFFFFFFFFFFFFF AND CALLER PUSH1 0x18 SLOAD PUSH8 0xDE0B6B3A7640000 PUSH1 0x16 SLOAD PUSH2 0x4EF SWAP2 SWAP1 PUSH2 0x2E32 JUMP JUMPDEST DUP8 PUSH2 0x4FA SWAP2 SWAP1 PUSH2 0x2E32 JUMP JUMPDEST PUSH2 0x504 SWAP2 SWAP1 PUSH2 0x2DD2 JUMP JUMPDEST PUSH1 0x40 MLOAD DUP5 PUSH4 0xFFFFFFFF AND PUSH1 0xE0 SHL DUP2 MSTORE PUSH1 0x4 ADD PUSH2 0x522 SWAP4 SWAP3 SWAP2 SWAP1 PUSH2 0x2E83 JUMP JUMPDEST PUSH1 0x20 PUSH1 0x40 MLOAD DUP1 DUP4 SUB DUP2 PUSH1 0x0 DUP8 GAS CALL ISZERO DUP1 ISZERO PUSH2 0x541 JUMPI RETURNDATASIZE PUSH1 0x0 DUP1 RETURNDATACOPY RETURNDATASIZE PUSH1 0x0 REVERT JUMPDEST POP POP POP POP PUSH1 0x40 MLOAD RETURNDATASIZE PUSH1 0x1F NOT PUSH1 0x1F DUP3 ADD AND DUP3 ADD DUP1 PUSH1 0x40 MSTORE POP DUP2 ADD SWAP1 PUSH2 0x565 SWAP2 SWAP1 PUSH2 0x2EF2 JUMP JUMPDEST POP PUSH1 0xB PUSH1 0x0 SWAP1 SLOAD SWAP1 PUSH2 0x100 EXP SWAP1 DIV PUSH20 0xFFFFFFFFFFFFFFFFFFFFFFFFFFFFFFFFFFFFFFFF AND PUSH20 0xFFFFFFFFFFFFFFFFFFFFFFFFFFFFFFFFFFFFFFFF AND PUSH4 0x23B872DD PUSH1 0xC PUSH1 0x0 SWAP1 SLOAD SWAP1 PUSH2 0x100 EXP SWAP1 DIV PUSH20 0xFFFFFFFFFFFFFFFFFFFFFFFFFFFFFFFFFFFFFFFF AND CALLER PUSH1 0x18 SLOAD PUSH8 0xDE0B6B3A7640000 PUSH1 0x17 SLOAD PUSH2 0x5E1 SWAP2 SWAP1 PUSH2 0x2E32 JUMP JUMPDEST DUP8 PUSH2 0x5EC SWAP2 SWAP1 PUSH2 0x2E32 JUMP JUMPDEST PUSH2 0x5F6 SWAP2 SWAP1 PUSH2 0x2DD2 JUMP JUMPDEST PUSH1 0x40 MLOAD DUP5 PUSH4 0xFFFFFFFF AND PUSH1 0xE0 SHL DUP2 MSTORE PUSH1 0x4 ADD PUSH2 0x614 SWAP4 SWAP3 SWAP2 SWAP1 PUSH2 0x2E83 JUMP JUMPDEST PUSH1 0x20 PUSH1 0x40 MLOAD DUP1 DUP4 SUB DUP2 PUSH1 0x0 DUP8 GAS CALL ISZERO DUP1 ISZERO PUSH2 0x633 JUMPI RETURNDATASIZE PUSH1 0x0 DUP1 RETURNDATACOPY RETURNDATASIZE PUSH1 0x0 REVERT JUMPDEST POP POP POP POP PUSH1 0x40 MLOAD RETURNDATASIZE PUSH1 0x1F NOT PUSH1 0x1F DUP3 ADD AND DUP3 ADD DUP1 PUSH1 0x40 MSTORE POP DUP2 ADD SWAP1 PUSH2 0x657 SWAP2 SWAP1 PUSH2 0x2EF2 JUMP JUMPDEST POP JUMPDEST DUP1 DUP1 PUSH2 0x664 SWAP1 PUSH2 0x2F1F JUMP JUMPDEST SWAP2 POP POP PUSH2 0x429 JUMP JUMPDEST POP PUSH3 0x93A80 DUP2 PUSH2 0x67C SWAP2 SWAP1 PUSH2 0x2E32 JUMP JUMPDEST DUP3 PUSH1 0x8 ADD SLOAD PUSH2 0x68B SWAP2 SWAP1 PUSH2 0x2F67 JUMP JUMPDEST DUP3 PUSH1 0x8 ADD DUP2 SWAP1 SSTORE POP POP POP JUMP JUMPDEST PUSH1 0x4 PUSH1 0x0 SWAP1 SLOAD SWAP1 PUSH2 0x100 EXP SWAP1 DIV PUSH20 0xFFFFFFFFFFFFFFFFFFFFFFFFFFFFFFFFFFFFFFFF AND PUSH20 0xFFFFFFFFFFFFFFFFFFFFFFFFFFFFFFFFFFFFFFFF AND CALLER PUSH20 0xFFFFFFFFFFFFFFFFFFFFFFFFFFFFFFFFFFFFFFFF AND EQ PUSH2 0x6F1 JUMPI PUSH1 0x0 DUP1 REVERT JUMPDEST DUP1 PUSH1 0x5 PUSH1 0x0 DUP5 DUP2 MSTORE PUSH1 0x20 ADD SWAP1 DUP2 MSTORE PUSH1 0x20 ADD PUSH1 0x0 KECCAK256 SWAP1 DUP2 PUSH2 0x711 SWAP2 SWAP1 PUSH2 0x31A7 JUMP JUMPDEST POP POP POP JUMP JUMPDEST PUSH1 0x4 PUSH1 0x0 SWAP1 SLOAD SWAP1 PUSH2 0x100 EXP SWAP1 DIV PUSH20 0xFFFFFFFFFFFFFFFFFFFFFFFFFFFFFFFFFFFFFFFF AND PUSH20 0xFFFFFFFFFFFFFFFFFFFFFFFFFFFFFFFFFFFFFFFF AND CALLER PUSH20 0xFFFFFFFFFFFFFFFFFFFFFFFFFFFFFFFFFFFFFFFF AND EQ PUSH2 0x770 JUMPI PUSH1 0x0 DUP1 REVERT JUMPDEST DUP2 PUSH1 0x2A PUSH1 0x0 PUSH1 0x1 DUP5 PUSH2 0x782 SWAP2 SWAP1 PUSH2 0x2D6F JUMP JUMPDEST DUP2 MSTORE PUSH1 0x20 ADD SWAP1 DUP2 MSTORE PUSH1 0x20 ADD PUSH1 0x0 KECCAK256 DUP2 SWAP1 SSTORE POP POP POP JUMP JUMPDEST PUSH1 0x4 PUSH1 0x0 SWAP1 SLOAD SWAP1 PUSH2 0x100 EXP SWAP1 DIV PUSH20 0xFFFFFFFFFFFFFFFFFFFFFFFFFFFFFFFFFFFFFFFF AND PUSH20 0xFFFFFFFFFFFFFFFFFFFFFFFFFFFFFFFFFFFFFFFF AND CALLER PUSH20 0xFFFFFFFFFFFFFFFFFFFFFFFFFFFFFFFFFFFFFFFF AND EQ PUSH2 0x7F2 JUMPI PUSH1 0x0 DUP1 REVERT JUMPDEST DUP6 PUSH1 0x1C DUP2 SWAP1 SSTORE POP DUP5 PUSH1 0x1D DUP2 SWAP1 SSTORE POP DUP4 PUSH1 0x1E DUP2 SWAP1 SSTORE POP DUP3 PUSH1 0x1F DUP2 SWAP1 SSTORE POP DUP2 PUSH1 0x20 DUP2 SWAP1 SSTORE POP DUP1 PUSH1 0x21 DUP2 SWAP1 SSTORE POP POP POP POP POP POP POP JUMP JUMPDEST PUSH1 0x4 PUSH1 0x0 SWAP1 SLOAD SWAP1 PUSH2 0x100 EXP SWAP1 DIV PUSH20 0xFFFFFFFFFFFFFFFFFFFFFFFFFFFFFFFFFFFFFFFF AND PUSH20 0xFFFFFFFFFFFFFFFFFFFFFFFFFFFFFFFFFFFFFFFF AND CALLER PUSH20 0xFFFFFFFFFFFFFFFFFFFFFFFFFFFFFFFFFFFFFFFF AND EQ PUSH2 0x87E JUMPI PUSH1 0x0 DUP1 REVERT JUMPDEST DUP2 PUSH1 0x27 DUP2 SWAP1 SSTORE POP DUP1 PUSH1 0x28 DUP2 SWAP1 SSTORE POP POP POP JUMP JUMPDEST PUSH1 0x4 PUSH1 0x0 SWAP1 SLOAD SWAP1 PUSH2 0x100 EXP SWAP1 DIV PUSH20 0xFFFFFFFFFFFFFFFFFFFFFFFFFFFFFFFFFFFFFFFF AND PUSH20 0xFFFFFFFFFFFFFFFFFFFFFFFFFFFFFFFFFFFFFFFF AND CALLER PUSH20 0xFFFFFFFFFFFFFFFFFFFFFFFFFFFFFFFFFFFFFFFF AND EQ PUSH2 0x8EA JUMPI PUSH1 0x0 DUP1 REVERT JUMPDEST DUP3 PUSH1 0x19 DUP2 SWAP1 SSTORE POP DUP2 PUSH1 0x1A DUP2 SWAP1 SSTORE POP DUP1 PUSH1 0x1B DUP2 SWAP1 SSTORE POP POP POP POP JUMP JUMPDEST PUSH1 0x11 PUSH1 0x0 DUP4 DUP2 MSTORE PUSH1 0x20 ADD SWAP1 DUP2 MSTORE PUSH1 0x20 ADD PUSH1 0x0 KECCAK256 SLOAD CALLVALUE EQ PUSH2 0x959 JUMPI PUSH1 0x40 MLOAD PUSH32 0x8C379A000000000000000000000000000000000000000000000000000000000 DUP2 MSTORE PUSH1 0x4 ADD PUSH2 0x950 SWAP1 PUSH2 0x32C5 JUMP JUMPDEST PUSH1 0x40 MLOAD DUP1 SWAP2 SUB SWAP1 REVERT JUMPDEST PUSH1 0x0 PUSH1 0xF PUSH1 0x0 DUP4 PUSH20 0xFFFFFFFFFFFFFFFFFFFFFFFFFFFFFFFFFFFFFFFF AND PUSH20 0xFFFFFFFFFFFFFFFFFFFFFFFFFFFFFFFFFFFFFFFF AND DUP2 MSTORE PUSH1 0x20 ADD SWAP1 DUP2 MSTORE PUSH1 0x20 ADD PUSH1 0x0 KECCAK256 SWAP1 POP PUSH1 0x1 DUP4 PUSH2 0x9A9 SWAP2 SWAP1 PUSH2 0x2D6F JUMP JUMPDEST DUP2 PUSH1 0x0 ADD SLOAD EQ PUSH2 0x9EE JUMPI PUSH1 0x40 MLOAD PUSH32 0x8C379A000000000000000000000000000000000000000000000000000000000 DUP2 MSTORE PUSH1 0x4 ADD PUSH2 0x9E5 SWAP1 PUSH2 0x3331 JUMP JUMPDEST PUSH1 0x40 MLOAD DUP1 SWAP2 SUB SWAP1 REVERT JUMPDEST DUP3 DUP2 PUSH1 0x0 ADD DUP2 SWAP1 SSTORE POP TIMESTAMP DUP2 PUSH1 0x1 ADD DUP5 DUP2 SLOAD DUP2 LT PUSH2 0xA0E JUMPI PUSH2 0xA0D PUSH2 0x2E03 JUMP JUMPDEST JUMPDEST SWAP1 PUSH1 0x0 MSTORE PUSH1 0x20 PUSH1 0x0 KECCAK256 ADD DUP2 SWAP1 SSTORE POP PUSH1 0x0 PUSH2 0x2710 SWAP1 POP PUSH1 0x7 PUSH1 0x0 SWAP1 SLOAD SWAP1 PUSH2 0x100 EXP SWAP1 DIV PUSH20 0xFFFFFFFFFFFFFFFFFFFFFFFFFFFFFFFFFFFFFFFF AND PUSH20 0xFFFFFFFFFFFFFFFFFFFFFFFFFFFFFFFFFFFFFFFF AND PUSH4 0x23B872DD DUP5 PUSH1 0xA PUSH1 0x0 SWAP1 SLOAD SWAP1 PUSH2 0x100 EXP SWAP1 DIV PUSH20 0xFFFFFFFFFFFFFFFFFFFFFFFFFFFFFFFFFFFFFFFF AND PUSH2 0x2710 PUSH1 0x22 SLOAD CALLVALUE PUSH2 0xA96 SWAP2 SWAP1 PUSH2 0x2E32 JUMP JUMPDEST PUSH2 0xAA0 SWAP2 SWAP1 PUSH2 0x2DD2 JUMP JUMPDEST PUSH1 0x40 MLOAD DUP5 PUSH4 0xFFFFFFFF AND PUSH1 0xE0 SHL DUP2 MSTORE PUSH1 0x4 ADD PUSH2 0xABE SWAP4 SWAP3 SWAP2 SWAP1 PUSH2 0x2E83 JUMP JUMPDEST PUSH1 0x20 PUSH1 0x40 MLOAD DUP1 DUP4 SUB DUP2 PUSH1 0x0 DUP8 GAS CALL ISZERO DUP1 ISZERO PUSH2 0xADD JUMPI RETURNDATASIZE PUSH1 0x0 DUP1 RETURNDATACOPY RETURNDATASIZE PUSH1 0x0 REVERT JUMPDEST POP POP POP POP PUSH1 0x40 MLOAD RETURNDATASIZE PUSH1 0x1F NOT PUSH1 0x1F DUP3 ADD AND DUP3 ADD DUP1 PUSH1 0x40 MSTORE POP DUP2 ADD SWAP1 PUSH2 0xB01 SWAP2 SWAP1 PUSH2 0x2EF2 JUMP JUMPDEST POP PUSH1 0x7 PUSH1 0x0 SWAP1 SLOAD SWAP1 PUSH2 0x100 EXP SWAP1 DIV PUSH20 0xFFFFFFFFFFFFFFFFFFFFFFFFFFFFFFFFFFFFFFFF AND PUSH20 0xFFFFFFFFFFFFFFFFFFFFFFFFFFFFFFFFFFFFFFFF AND PUSH4 0x23B872DD DUP5 PUSH1 0xC PUSH1 0x0 SWAP1 SLOAD SWAP1 PUSH2 0x100 EXP SWAP1 DIV PUSH20 0xFFFFFFFFFFFFFFFFFFFFFFFFFFFFFFFFFFFFFFFF AND PUSH2 0x2710 PUSH1 0x23 SLOAD CALLVALUE PUSH2 0xB75 SWAP2 SWAP1 PUSH2 0x2E32 JUMP JUMPDEST PUSH2 0xB7F SWAP2 SWAP1 PUSH2 0x2DD2 JUMP JUMPDEST PUSH1 0x40 MLOAD DUP5 PUSH4 0xFFFFFFFF AND PUSH1 0xE0 SHL DUP2 MSTORE PUSH1 0x4 ADD PUSH2 0xB9D SWAP4 SWAP3 SWAP2 SWAP1 PUSH2 0x2E83 JUMP JUMPDEST PUSH1 0x20 PUSH1 0x40 MLOAD DUP1 DUP4 SUB DUP2 PUSH1 0x0 DUP8 GAS CALL ISZERO DUP1 ISZERO PUSH2 0xBBC JUMPI RETURNDATASIZE PUSH1 0x0 DUP1 RETURNDATACOPY RETURNDATASIZE PUSH1 0x0 REVERT JUMPDEST POP POP POP POP PUSH1 0x40 MLOAD RETURNDATASIZE PUSH1 0x1F NOT PUSH1 0x1F DUP3 ADD AND DUP3 ADD DUP1 PUSH1 0x40 MSTORE POP DUP2 ADD SWAP1 PUSH2 0xBE0 SWAP2 SWAP1 PUSH2 0x2EF2 JUMP JUMPDEST POP PUSH1 0x7 PUSH1 0x0 SWAP1 SLOAD SWAP1 PUSH2 0x100 EXP SWAP1 DIV PUSH20 0xFFFFFFFFFFFFFFFFFFFFFFFFFFFFFFFFFFFFFFFF AND PUSH20 0xFFFFFFFFFFFFFFFFFFFFFFFFFFFFFFFFFFFFFFFF AND PUSH4 0x23B872DD DUP5 PUSH1 0x15 PUSH1 0x0 SWAP1 SLOAD SWAP1 PUSH2 0x100 EXP SWAP1 DIV PUSH20 0xFFFFFFFFFFFFFFFFFFFFFFFFFFFFFFFFFFFFFFFF AND PUSH2 0x2710 PUSH1 0x24 SLOAD CALLVALUE PUSH2 0xC54 SWAP2 SWAP1 PUSH2 0x2E32 JUMP JUMPDEST PUSH2 0xC5E SWAP2 SWAP1 PUSH2 0x2DD2 JUMP JUMPDEST PUSH1 0x40 MLOAD DUP5 PUSH4 0xFFFFFFFF AND PUSH1 0xE0 SHL DUP2 MSTORE PUSH1 0x4 ADD PUSH2 0xC7C SWAP4 SWAP3 SWAP2 SWAP1 PUSH2 0x2E83 JUMP JUMPDEST PUSH1 0x20 PUSH1 0x40 MLOAD DUP1 DUP4 SUB DUP2 PUSH1 0x0 DUP8 GAS CALL ISZERO DUP1 ISZERO PUSH2 0xC9B JUMPI RETURNDATASIZE PUSH1 0x0 DUP1 RETURNDATACOPY RETURNDATASIZE PUSH1 0x0 REVERT JUMPDEST POP POP POP POP PUSH1 0x40 MLOAD RETURNDATASIZE PUSH1 0x1F NOT PUSH1 0x1F DUP3 ADD AND DUP3 ADD DUP1 PUSH1 0x40 MSTORE POP DUP2 ADD SWAP1 PUSH2 0xCBF SWAP2 SWAP1 PUSH2 0x2EF2 JUMP JUMPDEST POP PUSH1 0x24 SLOAD PUSH1 0x23 SLOAD PUSH1 0x22 SLOAD PUSH2 0xCD3 SWAP2 SWAP1 PUSH2 0x2F67 JUMP JUMPDEST PUSH2 0xCDD SWAP2 SWAP1 PUSH2 0x2F67 JUMP JUMPDEST DUP2 PUSH2 0xCE8 SWAP2 SWAP1 PUSH2 0x2D6F JUMP JUMPDEST SWAP1 POP PUSH1 0x0 PUSH1 0x10 PUSH1 0x0 DUP6 PUSH20 0xFFFFFFFFFFFFFFFFFFFFFFFFFFFFFFFFFFFFFFFF AND PUSH20 0xFFFFFFFFFFFFFFFFFFFFFFFFFFFFFFFFFFFFFFFF AND DUP2 MSTORE PUSH1 0x20 ADD SWAP1 DUP2 MSTORE PUSH1 0x20 ADD PUSH1 0x0 KECCAK256 PUSH1 0x0 SWAP1 SLOAD SWAP1 PUSH2 0x100 EXP SWAP1 DIV PUSH20 0xFFFFFFFFFFFFFFFFFFFFFFFFFFFFFFFFFFFFFFFF AND SWAP1 POP PUSH1 0x0 PUSH20 0xFFFFFFFFFFFFFFFFFFFFFFFFFFFFFFFFFFFFFFFF AND DUP2 PUSH20 0xFFFFFFFFFFFFFFFFFFFFFFFFFFFFFFFFFFFFFFFF AND EQ PUSH2 0xE72 JUMPI PUSH1 0x7 PUSH1 0x0 SWAP1 SLOAD SWAP1 PUSH2 0x100 EXP SWAP1 DIV PUSH20 0xFFFFFFFFFFFFFFFFFFFFFFFFFFFFFFFFFFFFFFFF AND PUSH20 0xFFFFFFFFFFFFFFFFFFFFFFFFFFFFFFFFFFFFFFFF AND PUSH4 0x23B872DD DUP6 DUP4 PUSH2 0x2710 PUSH1 0x2A PUSH1 0x0 DUP1 DUP2 MSTORE PUSH1 0x20 ADD SWAP1 DUP2 MSTORE PUSH1 0x20 ADD PUSH1 0x0 KECCAK256 SLOAD CALLVALUE PUSH2 0xDE4 SWAP2 SWAP1 PUSH2 0x2E32 JUMP JUMPDEST PUSH2 0xDEE SWAP2 SWAP1 PUSH2 0x2DD2 JUMP JUMPDEST PUSH1 0x40 MLOAD DUP5 PUSH4 0xFFFFFFFF AND PUSH1 0xE0 SHL DUP2 MSTORE PUSH1 0x4 ADD PUSH2 0xE0C SWAP4 SWAP3 SWAP2 SWAP1 PUSH2 0x2E83 JUMP JUMPDEST PUSH1 0x20 PUSH1 0x40 MLOAD DUP1 DUP4 SUB DUP2 PUSH1 0x0 DUP8 GAS CALL ISZERO DUP1 ISZERO PUSH2 0xE2B JUMPI RETURNDATASIZE PUSH1 0x0 DUP1 RETURNDATACOPY RETURNDATASIZE PUSH1 0x0 REVERT JUMPDEST POP POP POP POP PUSH1 0x40 MLOAD RETURNDATASIZE PUSH1 0x1F NOT PUSH1 0x1F DUP3 ADD AND DUP3 ADD DUP1 PUSH1 0x40 MSTORE POP DUP2 ADD SWAP1 PUSH2 0xE4F SWAP2 SWAP1 PUSH2 0x2EF2 JUMP JUMPDEST POP PUSH1 0x2A PUSH1 0x0 DUP1 DUP2 MSTORE PUSH1 0x20 ADD SWAP1 DUP2 MSTORE PUSH1 0x20 ADD PUSH1 0x0 KECCAK256 SLOAD DUP3 PUSH2 0xE6F SWAP2 SWAP1 PUSH2 0x2D6F JUMP JUMPDEST SWAP2 POP JUMPDEST PUSH1 0x0 PUSH1 0x1 SWAP1 POP JUMPDEST PUSH1 0x29 SLOAD DUP2 LT ISZERO PUSH2 0x101C JUMPI PUSH1 0x10 PUSH1 0x0 DUP4 PUSH20 0xFFFFFFFFFFFFFFFFFFFFFFFFFFFFFFFFFFFFFFFF AND PUSH20 0xFFFFFFFFFFFFFFFFFFFFFFFFFFFFFFFFFFFFFFFF AND DUP2 MSTORE PUSH1 0x20 ADD SWAP1 DUP2 MSTORE PUSH1 0x20 ADD PUSH1 0x0 KECCAK256 PUSH1 0x0 SWAP1 SLOAD SWAP1 PUSH2 0x100 EXP SWAP1 DIV PUSH20 0xFFFFFFFFFFFFFFFFFFFFFFFFFFFFFFFFFFFFFFFF AND SWAP2 POP PUSH1 0x0 PUSH20 0xFFFFFFFFFFFFFFFFFFFFFFFFFFFFFFFFFFFFFFFF AND DUP3 PUSH20 0xFFFFFFFFFFFFFFFFFFFFFFFFFFFFFFFFFFFFFFFF AND SUB ISZERO PUSH2 0x101C JUMPI PUSH1 0x7 PUSH1 0x0 SWAP1 SLOAD SWAP1 PUSH2 0x100 EXP SWAP1 DIV PUSH20 0xFFFFFFFFFFFFFFFFFFFFFFFFFFFFFFFFFFFFFFFF AND PUSH20 0xFFFFFFFFFFFFFFFFFFFFFFFFFFFFFFFFFFFFFFFF AND PUSH4 0x23B872DD DUP7 DUP5 PUSH2 0x2710 PUSH1 0x2A PUSH1 0x0 DUP8 DUP2 MSTORE PUSH1 0x20 ADD SWAP1 DUP2 MSTORE PUSH1 0x20 ADD PUSH1 0x0 KECCAK256 SLOAD CALLVALUE PUSH2 0xF7C SWAP2 SWAP1 PUSH2 0x2E32 JUMP JUMPDEST PUSH2 0xF86 SWAP2 SWAP1 PUSH2 0x2DD2 JUMP JUMPDEST PUSH1 0x40 MLOAD DUP5 PUSH4 0xFFFFFFFF AND PUSH1 0xE0 SHL DUP2 MSTORE PUSH1 0x4 ADD PUSH2 0xFA4 SWAP4 SWAP3 SWAP2 SWAP1 PUSH2 0x2E83 JUMP JUMPDEST PUSH1 0x20 PUSH1 0x40 MLOAD DUP1 DUP4 SUB DUP2 PUSH1 0x0 DUP8 GAS CALL ISZERO DUP1 ISZERO PUSH2 0xFC3 JUMPI RETURNDATASIZE PUSH1 0x0 DUP1 RETURNDATACOPY RETURNDATASIZE PUSH1 0x0 REVERT JUMPDEST POP POP POP POP PUSH1 0x40 MLOAD RETURNDATASIZE PUSH1 0x1F NOT PUSH1 0x1F DUP3 ADD AND DUP3 ADD DUP1 PUSH1 0x40 MSTORE POP DUP2 ADD SWAP1 PUSH2 0xFE7 SWAP2 SWAP1 PUSH2 0x2EF2 JUMP JUMPDEST POP PUSH1 0x2A PUSH1 0x0 DUP3 DUP2 MSTORE PUSH1 0x20 ADD SWAP1 DUP2 MSTORE PUSH1 0x20 ADD PUSH1 0x0 KECCAK256 SLOAD DUP4 PUSH2 0x1007 SWAP2 SWAP1 PUSH2 0x2D6F JUMP JUMPDEST SWAP3 POP DUP1 DUP1 PUSH2 0x1014 SWAP1 PUSH2 0x2F1F JUMP JUMPDEST SWAP2 POP POP PUSH2 0xE79 JUMP JUMPDEST POP PUSH1 0x7 PUSH1 0x0 SWAP1 SLOAD SWAP1 PUSH2 0x100 EXP SWAP1 DIV PUSH20 0xFFFFFFFFFFFFFFFFFFFFFFFFFFFFFFFFFFFFFFFF AND PUSH20 0xFFFFFFFFFFFFFFFFFFFFFFFFFFFFFFFFFFFFFFFF AND PUSH4 0x23B872DD DUP6 PUSH1 0x13 PUSH1 0x0 SWAP1 SLOAD SWAP1 PUSH2 0x100 EXP SWAP1 DIV PUSH20 0xFFFFFFFFFFFFFFFFFFFFFFFFFFFFFFFFFFFFFFFF AND PUSH2 0x2710 PUSH1 0x25 SLOAD CALLVALUE PUSH2 0x1090 SWAP2 SWAP1 PUSH2 0x2E32 JUMP JUMPDEST PUSH2 0x109A SWAP2 SWAP1 PUSH2 0x2DD2 JUMP JUMPDEST PUSH1 0x40 MLOAD DUP5 PUSH4 0xFFFFFFFF AND PUSH1 0xE0 SHL DUP2 MSTORE PUSH1 0x4 ADD PUSH2 0x10B8 SWAP4 SWAP3 SWAP2 SWAP1 PUSH2 0x2E83 JUMP JUMPDEST PUSH1 0x20 PUSH1 0x40 MLOAD DUP1 DUP4 SUB DUP2 PUSH1 0x0 DUP8 GAS CALL ISZERO DUP1 ISZERO PUSH2 0x10D7 JUMPI RETURNDATASIZE PUSH1 0x0 DUP1 RETURNDATACOPY RETURNDATASIZE PUSH1 0x0 REVERT JUMPDEST POP POP POP POP PUSH1 0x40 MLOAD RETURNDATASIZE PUSH1 0x1F NOT PUSH1 0x1F DUP3 ADD AND DUP3 ADD DUP1 PUSH1 0x40 MSTORE POP DUP2 ADD SWAP1 PUSH2 0x10FB SWAP2 SWAP1 PUSH2 0x2EF2 JUMP JUMPDEST POP PUSH1 0x7 PUSH1 0x0 SWAP1 SLOAD SWAP1 PUSH2 0x100 EXP SWAP1 DIV PUSH20 0xFFFFFFFFFFFFFFFFFFFFFFFFFFFFFFFFFFFFFFFF AND PUSH20 0xFFFFFFFFFFFFFFFFFFFFFFFFFFFFFFFFFFFFFFFF AND PUSH4 0x23B872DD DUP6 PUSH1 0x14 PUSH1 0x0 SWAP1 SLOAD SWAP1 PUSH2 0x100 EXP SWAP1 DIV PUSH20 0xFFFFFFFFFFFFFFFFFFFFFFFFFFFFFFFFFFFFFFFF AND PUSH2 0x2710 PUSH1 0x26 SLOAD CALLVALUE PUSH2 0x116F SWAP2 SWAP1 PUSH2 0x2E32 JUMP JUMPDEST PUSH2 0x1179 SWAP2 SWAP1 PUSH2 0x2DD2 JUMP JUMPDEST PUSH1 0x40 MLOAD DUP5 PUSH4 0xFFFFFFFF AND PUSH1 0xE0 SHL DUP2 MSTORE PUSH1 0x4 ADD PUSH2 0x1197 SWAP4 SWAP3 SWAP2 SWAP1 PUSH2 0x2E83 JUMP JUMPDEST PUSH1 0x20 PUSH1 0x40 MLOAD DUP1 DUP4 SUB DUP2 PUSH1 0x0 DUP8 GAS CALL ISZERO DUP1 ISZERO PUSH2 0x11B6 JUMPI RETURNDATASIZE PUSH1 0x0 DUP1 RETURNDATACOPY RETURNDATASIZE PUSH1 0x0 REVERT JUMPDEST POP POP POP POP PUSH1 0x40 MLOAD RETURNDATASIZE PUSH1 0x1F NOT PUSH1 0x1F DUP3 ADD AND DUP3 ADD DUP1 PUSH1 0x40 MSTORE POP DUP2 ADD SWAP1 PUSH2 0x11DA SWAP2 SWAP1 PUSH2 0x2EF2 JUMP JUMPDEST POP PUSH1 0x26 SLOAD PUSH1 0x25 SLOAD PUSH2 0x11EB SWAP2 SWAP1 PUSH2 0x2F67 JUMP JUMPDEST DUP3 PUSH2 0x11F6 SWAP2 SWAP1 PUSH2 0x2D6F JUMP JUMPDEST SWAP2 POP PUSH1 0x0 DUP1 PUSH1 0x0 JUMPDEST PUSH1 0xD SLOAD DUP2 LT ISZERO PUSH2 0x1563 JUMPI PUSH1 0x1 PUSH1 0xF PUSH1 0x0 PUSH1 0xE PUSH1 0x0 DUP6 DUP2 MSTORE PUSH1 0x20 ADD SWAP1 DUP2 MSTORE PUSH1 0x20 ADD PUSH1 0x0 KECCAK256 PUSH1 0x0 SWAP1 SLOAD SWAP1 PUSH2 0x100 EXP SWAP1 DIV PUSH20 0xFFFFFFFFFFFFFFFFFFFFFFFFFFFFFFFFFFFFFFFF AND PUSH20 0xFFFFFFFFFFFFFFFFFFFFFFFFFFFFFFFFFFFFFFFF AND PUSH20 0xFFFFFFFFFFFFFFFFFFFFFFFFFFFFFFFFFFFFFFFF AND DUP2 MSTORE PUSH1 0x20 ADD SWAP1 DUP2 MSTORE PUSH1 0x20 ADD PUSH1 0x0 KECCAK256 PUSH1 0x2 ADD SLOAD SUB PUSH2 0x13AC JUMPI PUSH3 0x24EA00 PUSH1 0x1E SLOAD PUSH2 0x1296 SWAP2 SWAP1 PUSH2 0x2E32 JUMP JUMPDEST PUSH1 0xF PUSH1 0x0 PUSH1 0xE PUSH1 0x0 DUP6 DUP2 MSTORE PUSH1 0x20 ADD SWAP1 DUP2 MSTORE PUSH1 0x20 ADD PUSH1 0x0 KECCAK256 PUSH1 0x0 SWAP1 SLOAD SWAP1 PUSH2 0x100 EXP SWAP1 DIV PUSH20 0xFFFFFFFFFFFFFFFFFFFFFFFFFFFFFFFFFFFFFFFF AND PUSH20 0xFFFFFFFFFFFFFFFFFFFFFFFFFFFFFFFFFFFFFFFF AND PUSH20 0xFFFFFFFFFFFFFFFFFFFFFFFFFFFFFFFFFFFFFFFF AND DUP2 MSTORE PUSH1 0x20 ADD SWAP1 DUP2 MSTORE PUSH1 0x20 ADD PUSH1 0x0 KECCAK256 PUSH1 0x3 ADD SLOAD TIMESTAMP PUSH2 0x1317 SWAP2 SWAP1 PUSH2 0x2D6F JUMP JUMPDEST GT PUSH2 0x132F JUMPI DUP3 DUP1 PUSH2 0x1327 SWAP1 PUSH2 0x2F1F JUMP JUMPDEST SWAP4 POP POP PUSH2 0x13AB JUMP JUMPDEST PUSH1 0x0 PUSH1 0xF PUSH1 0x0 PUSH1 0xE PUSH1 0x0 DUP6 DUP2 MSTORE PUSH1 0x20 ADD SWAP1 DUP2 MSTORE PUSH1 0x20 ADD PUSH1 0x0 KECCAK256 PUSH1 0x0 SWAP1 SLOAD SWAP1 PUSH2 0x100 EXP SWAP1 DIV PUSH20 0xFFFFFFFFFFFFFFFFFFFFFFFFFFFFFFFFFFFFFFFF AND PUSH20 0xFFFFFFFFFFFFFFFFFFFFFFFFFFFFFFFFFFFFFFFF AND PUSH20 0xFFFFFFFFFFFFFFFFFFFFFFFFFFFFFFFFFFFFFFFF AND DUP2 MSTORE PUSH1 0x20 ADD SWAP1 DUP2 MSTORE PUSH1 0x20 ADD PUSH1 0x0 KECCAK256 PUSH1 0x2 ADD DUP2 SWAP1 SSTORE POP JUMPDEST JUMPDEST PUSH1 0x2 PUSH1 0xF PUSH1 0x0 PUSH1 0xE PUSH1 0x0 DUP6 DUP2 MSTORE PUSH1 0x20 ADD SWAP1 DUP2 MSTORE PUSH1 0x20 ADD PUSH1 0x0 KECCAK256 PUSH1 0x0 SWAP1 SLOAD SWAP1 PUSH2 0x100 EXP SWAP1 DIV PUSH20 0xFFFFFFFFFFFFFFFFFFFFFFFFFFFFFFFFFFFFFFFF AND PUSH20 0xFFFFFFFFFFFFFFFFFFFFFFFFFFFFFFFFFFFFFFFF AND PUSH20 0xFFFFFFFFFFFFFFFFFFFFFFFFFFFFFFFFFFFFFFFF AND DUP2 MSTORE PUSH1 0x20 ADD SWAP1 DUP2 MSTORE PUSH1 0x20 ADD PUSH1 0x0 KECCAK256 PUSH1 0x2 ADD SLOAD SUB PUSH2 0x1550 JUMPI PUSH3 0x24EA00 PUSH1 0x1F SLOAD PUSH2 0x143A SWAP2 SWAP1 PUSH2 0x2E32 JUMP JUMPDEST PUSH1 0xF PUSH1 0x0 PUSH1 0xE PUSH1 0x0 DUP6 DUP2 MSTORE PUSH1 0x20 ADD SWAP1 DUP2 MSTORE PUSH1 0x20 ADD PUSH1 0x0 KECCAK256 PUSH1 0x0 SWAP1 SLOAD SWAP1 PUSH2 0x100 EXP SWAP1 DIV PUSH20 0xFFFFFFFFFFFFFFFFFFFFFFFFFFFFFFFFFFFFFFFF AND PUSH20 0xFFFFFFFFFFFFFFFFFFFFFFFFFFFFFFFFFFFFFFFF AND PUSH20 0xFFFFFFFFFFFFFFFFFFFFFFFFFFFFFFFFFFFFFFFF AND DUP2 MSTORE PUSH1 0x20 ADD SWAP1 DUP2 MSTORE PUSH1 0x20 ADD PUSH1 0x0 KECCAK256 PUSH1 0x3 ADD SLOAD TIMESTAMP PUSH2 0x14BB SWAP2 SWAP1 PUSH2 0x2D6F JUMP JUMPDEST GT PUSH2 0x14D3 JUMPI DUP2 DUP1 PUSH2 0x14CB SWAP1 PUSH2 0x2F1F JUMP JUMPDEST SWAP3 POP POP PUSH2 0x154F JUMP JUMPDEST PUSH1 0x0 PUSH1 0xF PUSH1 0x0 PUSH1 0xE PUSH1 0x0 DUP6 DUP2 MSTORE PUSH1 0x20 ADD SWAP1 DUP2 MSTORE PUSH1 0x20 ADD PUSH1 0x0 KECCAK256 PUSH1 0x0 SWAP1 SLOAD SWAP1 PUSH2 0x100 EXP SWAP1 DIV PUSH20 0xFFFFFFFFFFFFFFFFFFFFFFFFFFFFFFFFFFFFFFFF AND PUSH20 0xFFFFFFFFFFFFFFFFFFFFFFFFFFFFFFFFFFFFFFFF AND PUSH20 0xFFFFFFFFFFFFFFFFFFFFFFFFFFFFFFFFFFFFFFFF AND DUP2 MSTORE PUSH1 0x20 ADD SWAP1 DUP2 MSTORE PUSH1 0x20 ADD PUSH1 0x0 KECCAK256 PUSH1 0x2 ADD DUP2 SWAP1 SSTORE POP JUMPDEST JUMPDEST DUP1 DUP1 PUSH2 0x155B SWAP1 PUSH2 0x2F1F JUMP JUMPDEST SWAP2 POP POP PUSH2 0x11FE JUMP JUMPDEST POP PUSH1 0x0 JUMPDEST PUSH1 0xD SLOAD DUP2 LT ISZERO PUSH2 0x1876 JUMPI PUSH1 0x1 PUSH1 0xF PUSH1 0x0 PUSH1 0xE PUSH1 0x0 DUP6 DUP2 MSTORE PUSH1 0x20 ADD SWAP1 DUP2 MSTORE PUSH1 0x20 ADD PUSH1 0x0 KECCAK256 PUSH1 0x0 SWAP1 SLOAD SWAP1 PUSH2 0x100 EXP SWAP1 DIV PUSH20 0xFFFFFFFFFFFFFFFFFFFFFFFFFFFFFFFFFFFFFFFF AND PUSH20 0xFFFFFFFFFFFFFFFFFFFFFFFFFFFFFFFFFFFFFFFF AND PUSH20 0xFFFFFFFFFFFFFFFFFFFFFFFFFFFFFFFFFFFFFFFF AND DUP2 MSTORE PUSH1 0x20 ADD SWAP1 DUP2 MSTORE PUSH1 0x20 ADD PUSH1 0x0 KECCAK256 PUSH1 0x2 ADD SLOAD SUB PUSH2 0x16EA JUMPI PUSH1 0x7 PUSH1 0x0 SWAP1 SLOAD SWAP1 PUSH2 0x100 EXP SWAP1 DIV PUSH20 0xFFFFFFFFFFFFFFFFFFFFFFFFFFFFFFFFFFFFFFFF AND PUSH20 0xFFFFFFFFFFFFFFFFFFFFFFFFFFFFFFFFFFFFFFFF AND PUSH4 0x23B872DD DUP9 PUSH1 0xE PUSH1 0x0 DUP6 DUP2 MSTORE PUSH1 0x20 ADD SWAP1 DUP2 MSTORE PUSH1 0x20 ADD PUSH1 0x0 KECCAK256 PUSH1 0x0 SWAP1 SLOAD SWAP1 PUSH2 0x100 EXP SWAP1 DIV PUSH20 0xFFFFFFFFFFFFFFFFFFFFFFFFFFFFFFFFFFFFFFFF AND PUSH2 0x2710 DUP8 PUSH1 0x27 SLOAD CALLVALUE PUSH2 0x1673 SWAP2 SWAP1 PUSH2 0x2E32 JUMP JUMPDEST PUSH2 0x167D SWAP2 SWAP1 PUSH2 0x2DD2 JUMP JUMPDEST PUSH2 0x1687 SWAP2 SWAP1 PUSH2 0x2DD2 JUMP JUMPDEST PUSH1 0x40 MLOAD DUP5 PUSH4 0xFFFFFFFF AND PUSH1 0xE0 SHL DUP2 MSTORE PUSH1 0x4 ADD PUSH2 0x16A5 SWAP4 SWAP3 SWAP2 SWAP1 PUSH2 0x2E83 JUMP JUMPDEST PUSH1 0x20 PUSH1 0x40 MLOAD DUP1 DUP4 SUB DUP2 PUSH1 0x0 DUP8 GAS CALL ISZERO DUP1 ISZERO PUSH2 0x16C4 JUMPI RETURNDATASIZE PUSH1 0x0 DUP1 RETURNDATACOPY RETURNDATASIZE PUSH1 0x0 REVERT JUMPDEST POP POP POP POP PUSH1 0x40 MLOAD RETURNDATASIZE PUSH1 0x1F NOT PUSH1 0x1F DUP3 ADD AND DUP3 ADD DUP1 PUSH1 0x40 MSTORE POP DUP2 ADD SWAP1 PUSH2 0x16E8 SWAP2 SWAP1 PUSH2 0x2EF2 JUMP JUMPDEST POP JUMPDEST PUSH1 0x2 PUSH1 0xF PUSH1 0x0 PUSH1 0xE PUSH1 0x0 DUP6 DUP2 MSTORE PUSH1 0x20 ADD SWAP1 DUP2 MSTORE PUSH1 0x20 ADD PUSH1 0x0 KECCAK256 PUSH1 0x0 SWAP1 SLOAD SWAP1 PUSH2 0x100 EXP SWAP1 DIV PUSH20 0xFFFFFFFFFFFFFFFFFFFFFFFFFFFFFFFFFFFFFFFF AND PUSH20 0xFFFFFFFFFFFFFFFFFFFFFFFFFFFFFFFFFFFFFFFF AND PUSH20 0xFFFFFFFFFFFFFFFFFFFFFFFFFFFFFFFFFFFFFFFF AND DUP2 MSTORE PUSH1 0x20 ADD SWAP1 DUP2 MSTORE PUSH1 0x20 ADD PUSH1 0x0 KECCAK256 PUSH1 0x2 ADD SLOAD SUB PUSH2 0x1863 JUMPI PUSH1 0x7 PUSH1 0x0 SWAP1 SLOAD SWAP1 PUSH2 0x100 EXP SWAP1 DIV PUSH20 0xFFFFFFFFFFFFFFFFFFFFFFFFFFFFFFFFFFFFFFFF AND PUSH20 0xFFFFFFFFFFFFFFFFFFFFFFFFFFFFFFFFFFFFFFFF AND PUSH4 0x23B872DD DUP9 PUSH1 0xE PUSH1 0x0 DUP6 DUP2 MSTORE PUSH1 0x20 ADD SWAP1 DUP2 MSTORE PUSH1 0x20 ADD PUSH1 0x0 KECCAK256 PUSH1 0x0 SWAP1 SLOAD SWAP1 PUSH2 0x100 EXP SWAP1 DIV PUSH20 0xFFFFFFFFFFFFFFFFFFFFFFFFFFFFFFFFFFFFFFFF AND PUSH2 0x2710 DUP7 PUSH1 0x28 SLOAD CALLVALUE PUSH2 0x17EC SWAP2 SWAP1 PUSH2 0x2E32 JUMP JUMPDEST PUSH2 0x17F6 SWAP2 SWAP1 PUSH2 0x2DD2 JUMP JUMPDEST PUSH2 0x1800 SWAP2 SWAP1 PUSH2 0x2DD2 JUMP JUMPDEST PUSH1 0x40 MLOAD DUP5 PUSH4 0xFFFFFFFF AND PUSH1 0xE0 SHL DUP2 MSTORE PUSH1 0x4 ADD PUSH2 0x181E SWAP4 SWAP3 SWAP2 SWAP1 PUSH2 0x2E83 JUMP JUMPDEST PUSH1 0x20 PUSH1 0x40 MLOAD DUP1 DUP4 SUB DUP2 PUSH1 0x0 DUP8 GAS CALL ISZERO DUP1 ISZERO PUSH2 0x183D JUMPI RETURNDATASIZE PUSH1 0x0 DUP1 RETURNDATACOPY RETURNDATASIZE PUSH1 0x0 REVERT JUMPDEST POP POP POP POP PUSH1 0x40 MLOAD RETURNDATASIZE PUSH1 0x1F NOT PUSH1 0x1F DUP3 ADD AND DUP3 ADD DUP1 PUSH1 0x40 MSTORE POP DUP2 ADD SWAP1 PUSH2 0x1861 SWAP2 SWAP1 PUSH2 0x2EF2 JUMP JUMPDEST POP JUMPDEST DUP1 DUP1 PUSH2 0x186E SWAP1 PUSH2 0x2F1F JUMP JUMPDEST SWAP2 POP POP PUSH2 0x1567 JUMP JUMPDEST POP PUSH1 0x10 PUSH1 0x0 DUP8 PUSH20 0xFFFFFFFFFFFFFFFFFFFFFFFFFFFFFFFFFFFFFFFF AND PUSH20 0xFFFFFFFFFFFFFFFFFFFFFFFFFFFFFFFFFFFFFFFF AND DUP2 MSTORE PUSH1 0x20 ADD SWAP1 DUP2 MSTORE PUSH1 0x20 ADD PUSH1 0x0 KECCAK256 PUSH1 0x0 SWAP1 SLOAD SWAP1 PUSH2 0x100 EXP SWAP1 DIV PUSH20 0xFFFFFFFFFFFFFFFFFFFFFFFFFFFFFFFFFFFFFFFF AND SWAP3 POP PUSH1 0x0 JUMPDEST PUSH1 0x29 SLOAD DUP2 LT ISZERO PUSH2 0x1E45 JUMPI PUSH1 0x10 PUSH1 0x0 DUP6 PUSH20 0xFFFFFFFFFFFFFFFFFFFFFFFFFFFFFFFFFFFFFFFF AND PUSH20 0xFFFFFFFFFFFFFFFFFFFFFFFFFFFFFFFFFFFFFFFF AND DUP2 MSTORE PUSH1 0x20 ADD SWAP1 DUP2 MSTORE PUSH1 0x20 ADD PUSH1 0x0 KECCAK256 PUSH1 0x0 SWAP1 SLOAD SWAP1 PUSH2 0x100 EXP SWAP1 DIV PUSH20 0xFFFFFFFFFFFFFFFFFFFFFFFFFFFFFFFFFFFFFFFF AND SWAP4 POP PUSH1 0x0 PUSH20 0xFFFFFFFFFFFFFFFFFFFFFFFFFFFFFFFFFFFFFFFF AND DUP5 PUSH20 0xFFFFFFFFFFFFFFFFFFFFFFFFFFFFFFFFFFFFFFFF AND SUB ISZERO PUSH2 0x1E45 JUMPI CALLVALUE PUSH1 0xF PUSH1 0x0 DUP7 PUSH20 0xFFFFFFFFFFFFFFFFFFFFFFFFFFFFFFFFFFFFFFFF AND PUSH20 0xFFFFFFFFFFFFFFFFFFFFFFFFFFFFFFFFFFFFFFFF AND DUP2 MSTORE PUSH1 0x20 ADD SWAP1 DUP2 MSTORE PUSH1 0x20 ADD PUSH1 0x0 KECCAK256 PUSH1 0x4 ADD PUSH1 0x0 DUP3 DUP3 SLOAD PUSH2 0x19CF SWAP2 SWAP1 PUSH2 0x2F67 JUMP JUMPDEST SWAP3 POP POP DUP2 SWAP1 SSTORE POP PUSH1 0x0 PUSH1 0xF PUSH1 0x0 DUP7 PUSH20 0xFFFFFFFFFFFFFFFFFFFFFFFFFFFFFFFFFFFFFFFF AND PUSH20 0xFFFFFFFFFFFFFFFFFFFFFFFFFFFFFFFFFFFFFFFF AND DUP2 MSTORE PUSH1 0x20 ADD SWAP1 DUP2 MSTORE PUSH1 0x20 ADD PUSH1 0x0 KECCAK256 PUSH1 0x2 ADD SLOAD SUB PUSH2 0x1C96 JUMPI PUSH1 0x21 SLOAD PUSH1 0xF PUSH1 0x0 DUP7 PUSH20 0xFFFFFFFFFFFFFFFFFFFFFFFFFFFFFFFFFFFFFFFF AND PUSH20 0xFFFFFFFFFFFFFFFFFFFFFFFFFFFFFFFFFFFFFFFF AND DUP2 MSTORE PUSH1 0x20 ADD SWAP1 DUP2 MSTORE PUSH1 0x20 ADD PUSH1 0x0 KECCAK256 PUSH1 0x4 ADD SLOAD LT PUSH2 0x1B5A JUMPI PUSH1 0x21 SLOAD PUSH1 0xF PUSH1 0x0 DUP7 PUSH20 0xFFFFFFFFFFFFFFFFFFFFFFFFFFFFFFFFFFFFFFFF AND PUSH20 0xFFFFFFFFFFFFFFFFFFFFFFFFFFFFFFFFFFFFFFFF AND DUP2 MSTORE PUSH1 0x20 ADD SWAP1 DUP2 MSTORE PUSH1 0x20 ADD PUSH1 0x0 KECCAK256 PUSH1 0x4 ADD PUSH1 0x0 DUP3 DUP3 SLOAD PUSH2 0x1ABF SWAP2 SWAP1 PUSH2 0x2D6F JUMP JUMPDEST SWAP3 POP POP DUP2 SWAP1 SSTORE POP PUSH1 0x2 PUSH1 0xF PUSH1 0x0 DUP7 PUSH20 0xFFFFFFFFFFFFFFFFFFFFFFFFFFFFFFFFFFFFFFFF AND PUSH20 0xFFFFFFFFFFFFFFFFFFFFFFFFFFFFFFFFFFFFFFFF AND DUP2 MSTORE PUSH1 0x20 ADD SWAP1 DUP2 MSTORE PUSH1 0x20 ADD PUSH1 0x0 KECCAK256 PUSH1 0x2 ADD DUP2 SWAP1 SSTORE POP TIMESTAMP PUSH1 0xF PUSH1 0x0 DUP7 PUSH20 0xFFFFFFFFFFFFFFFFFFFFFFFFFFFFFFFFFFFFFFFF AND PUSH20 0xFFFFFFFFFFFFFFFFFFFFFFFFFFFFFFFFFFFFFFFF AND DUP2 MSTORE PUSH1 0x20 ADD SWAP1 DUP2 MSTORE PUSH1 0x20 ADD PUSH1 0x0 KECCAK256 PUSH1 0x3 ADD DUP2 SWAP1 SSTORE POP PUSH2 0x1C91 JUMP JUMPDEST PUSH1 0x20 SLOAD PUSH1 0xF PUSH1 0x0 DUP7 PUSH20 0xFFFFFFFFFFFFFFFFFFFFFFFFFFFFFFFFFFFFFFFF AND PUSH20 0xFFFFFFFFFFFFFFFFFFFFFFFFFFFFFFFFFFFFFFFF AND DUP2 MSTORE PUSH1 0x20 ADD SWAP1 DUP2 MSTORE PUSH1 0x20 ADD PUSH1 0x0 KECCAK256 PUSH1 0x4 ADD SLOAD LT PUSH2 0x1C90 JUMPI PUSH1 0x20 SLOAD PUSH1 0xF PUSH1 0x0 DUP7 PUSH20 0xFFFFFFFFFFFFFFFFFFFFFFFFFFFFFFFFFFFFFFFF AND PUSH20 0xFFFFFFFFFFFFFFFFFFFFFFFFFFFFFFFFFFFFFFFF AND DUP2 MSTORE PUSH1 0x20 ADD SWAP1 DUP2 MSTORE PUSH1 0x20 ADD PUSH1 0x0 KECCAK256 PUSH1 0x4 ADD PUSH1 0x0 DUP3 DUP3 SLOAD PUSH2 0x1BF9 SWAP2 SWAP1 PUSH2 0x2D6F JUMP JUMPDEST SWAP3 POP POP DUP2 SWAP1 SSTORE POP PUSH1 0x1 PUSH1 0xF PUSH1 0x0 DUP7 PUSH20 0xFFFFFFFFFFFFFFFFFFFFFFFFFFFFFFFFFFFFFFFF AND PUSH20 0xFFFFFFFFFFFFFFFFFFFFFFFFFFFFFFFFFFFFFFFF AND DUP2 MSTORE PUSH1 0x20 ADD SWAP1 DUP2 MSTORE PUSH1 0x20 ADD PUSH1 0x0 KECCAK256 PUSH1 0x2 ADD DUP2 SWAP1 SSTORE POP TIMESTAMP PUSH1 0xF PUSH1 0x0 DUP7 PUSH20 0xFFFFFFFFFFFFFFFFFFFFFFFFFFFFFFFFFFFFFFFF AND PUSH20 0xFFFFFFFFFFFFFFFFFFFFFFFFFFFFFFFFFFFFFFFF AND DUP2 MSTORE PUSH1 0x20 ADD SWAP1 DUP2 MSTORE PUSH1 0x20 ADD PUSH1 0x0 KECCAK256 PUSH1 0x3 ADD DUP2 SWAP1 SSTORE POP JUMPDEST JUMPDEST PUSH2 0x1E32 JUMP JUMPDEST PUSH1 0x1 PUSH1 0xF PUSH1 0x0 DUP7 PUSH20 0xFFFFFFFFFFFFFFFFFFFFFFFFFFFFFFFFFFFFFFFF AND PUSH20 0xFFFFFFFFFFFFFFFFFFFFFFFFFFFFFFFFFFFFFFFF AND DUP2 MSTORE PUSH1 0x20 ADD SWAP1 DUP2 MSTORE PUSH1 0x20 ADD PUSH1 0x0 KECCAK256 PUSH1 0x2 ADD SLOAD SUB PUSH2 0x1E31 JUMPI PUSH1 0x20 SLOAD PUSH1 0x21 SLOAD PUSH2 0x1CF0 SWAP2 SWAP1 PUSH2 0x2D6F JUMP JUMPDEST PUSH1 0xF PUSH1 0x0 DUP7 PUSH20 0xFFFFFFFFFFFFFFFFFFFFFFFFFFFFFFFFFFFFFFFF AND PUSH20 0xFFFFFFFFFFFFFFFFFFFFFFFFFFFFFFFFFFFFFFFF AND DUP2 MSTORE PUSH1 0x20 ADD SWAP1 DUP2 MSTORE PUSH1 0x20 ADD PUSH1 0x0 KECCAK256 PUSH1 0x4 ADD SLOAD LT PUSH2 0x1E30 JUMPI PUSH1 0x20 SLOAD PUSH1 0x21 SLOAD PUSH2 0x1D48 SWAP2 SWAP1 PUSH2 0x2D6F JUMP JUMPDEST PUSH1 0xF PUSH1 0x0 DUP7 PUSH20 0xFFFFFFFFFFFFFFFFFFFFFFFFFFFFFFFFFFFFFFFF AND PUSH20 0xFFFFFFFFFFFFFFFFFFFFFFFFFFFFFFFFFFFFFFFF AND DUP2 MSTORE PUSH1 0x20 ADD SWAP1 DUP2 MSTORE PUSH1 0x20 ADD PUSH1 0x0 KECCAK256 PUSH1 0x4 ADD PUSH1 0x0 DUP3 DUP3 SLOAD PUSH2 0x1D99 SWAP2 SWAP1 PUSH2 0x2D6F JUMP JUMPDEST SWAP3 POP POP DUP2 SWAP1 SSTORE POP PUSH1 0x2 PUSH1 0xF PUSH1 0x0 DUP7 PUSH20 0xFFFFFFFFFFFFFFFFFFFFFFFFFFFFFFFFFFFFFFFF AND PUSH20 0xFFFFFFFFFFFFFFFFFFFFFFFFFFFFFFFFFFFFFFFF AND DUP2 MSTORE PUSH1 0x20 ADD SWAP1 DUP2 MSTORE PUSH1 0x20 ADD PUSH1 0x0 KECCAK256 PUSH1 0x2 ADD DUP2 SWAP1 SSTORE POP TIMESTAMP PUSH1 0xF PUSH1 0x0 DUP7 PUSH20 0xFFFFFFFFFFFFFFFFFFFFFFFFFFFFFFFFFFFFFFFF AND PUSH20 0xFFFFFFFFFFFFFFFFFFFFFFFFFFFFFFFFFFFFFFFF AND DUP2 MSTORE PUSH1 0x20 ADD SWAP1 DUP2 MSTORE PUSH1 0x20 ADD PUSH1 0x0 KECCAK256 PUSH1 0x3 ADD DUP2 SWAP1 SSTORE POP JUMPDEST JUMPDEST JUMPDEST DUP1 DUP1 PUSH2 0x1E3D SWAP1 PUSH2 0x2F1F JUMP JUMPDEST SWAP2 POP POP PUSH2 0x18DC JUMP JUMPDEST POP PUSH1 0x28 SLOAD PUSH1 0x27 SLOAD PUSH2 0x1E56 SWAP2 SWAP1 PUSH2 0x2F67 JUMP JUMPDEST DUP5 PUSH2 0x1E61 SWAP2 SWAP1 PUSH2 0x2D6F JUMP JUMPDEST SWAP4 POP PUSH1 0x7 PUSH1 0x0 SWAP1 SLOAD SWAP1 PUSH2 0x100 EXP SWAP1 DIV PUSH20 0xFFFFFFFFFFFFFFFFFFFFFFFFFFFFFFFFFFFFFFFF AND PUSH20 0xFFFFFFFFFFFFFFFFFFFFFFFFFFFFFFFFFFFFFFFF AND PUSH4 0x23B872DD DUP8 PUSH1 0x4 PUSH1 0x0 SWAP1 SLOAD SWAP1 PUSH2 0x100 EXP SWAP1 DIV PUSH20 0xFFFFFFFFFFFFFFFFFFFFFFFFFFFFFFFFFFFFFFFF AND PUSH2 0x2710 DUP9 CALLVALUE PUSH2 0x1ED4 SWAP2 SWAP1 PUSH2 0x2E32 JUMP JUMPDEST PUSH2 0x1EDE SWAP2 SWAP1 PUSH2 0x2DD2 JUMP JUMPDEST PUSH1 0x40 MLOAD DUP5 PUSH4 0xFFFFFFFF AND PUSH1 0xE0 SHL DUP2 MSTORE PUSH1 0x4 ADD PUSH2 0x1EFC SWAP4 SWAP3 SWAP2 SWAP1 PUSH2 0x2E83 JUMP JUMPDEST PUSH1 0x20 PUSH1 0x40 MLOAD DUP1 DUP4 SUB DUP2 PUSH1 0x0 DUP8 GAS CALL ISZERO DUP1 ISZERO PUSH2 0x1F1B JUMPI RETURNDATASIZE PUSH1 0x0 DUP1 RETURNDATACOPY RETURNDATASIZE PUSH1 0x0 REVERT JUMPDEST POP POP POP POP PUSH1 0x40 MLOAD RETURNDATASIZE PUSH1 0x1F NOT PUSH1 0x1F DUP3 ADD AND DUP3 ADD DUP1 PUSH1 0x40 MSTORE POP DUP2 ADD SWAP1 PUSH2 0x1F3F SWAP2 SWAP1 PUSH2 0x2EF2 JUMP JUMPDEST POP POP POP POP POP POP POP POP JUMP JUMPDEST PUSH1 0x4 PUSH1 0x0 SWAP1 SLOAD SWAP1 PUSH2 0x100 EXP SWAP1 DIV PUSH20 0xFFFFFFFFFFFFFFFFFFFFFFFFFFFFFFFFFFFFFFFF AND PUSH20 0xFFFFFFFFFFFFFFFFFFFFFFFFFFFFFFFFFFFFFFFF AND CALLER PUSH20 0xFFFFFFFFFFFFFFFFFFFFFFFFFFFFFFFFFFFFFFFF AND EQ PUSH2 0x1FA3 JUMPI PUSH1 0x0 DUP1 REVERT JUMPDEST DUP2 PUSH1 0x12 PUSH1 0x0 DUP4 DUP2 MSTORE PUSH1 0x20 ADD SWAP1 DUP2 MSTORE PUSH1 0x20 ADD PUSH1 0x0 KECCAK256 DUP2 SWAP1 SSTORE POP POP POP JUMP JUMPDEST PUSH1 0x6 SLOAD DUP2 JUMP JUMPDEST PUSH1 0x4 PUSH1 0x0 SWAP1 SLOAD SWAP1 PUSH2 0x100 EXP SWAP1 DIV PUSH20 0xFFFFFFFFFFFFFFFFFFFFFFFFFFFFFFFFFFFFFFFF AND PUSH20 0xFFFFFFFFFFFFFFFFFFFFFFFFFFFFFFFFFFFFFFFF AND CALLER PUSH20 0xFFFFFFFFFFFFFFFFFFFFFFFFFFFFFFFFFFFFFFFF AND EQ PUSH2 0x201F JUMPI PUSH1 0x0 DUP1 REVERT JUMPDEST DUP1 PUSH1 0x18 DUP2 SWAP1 SSTORE POP POP JUMP JUMPDEST PUSH1 0x4 PUSH1 0x0 SWAP1 SLOAD SWAP1 PUSH2 0x100 EXP SWAP1 DIV PUSH20 0xFFFFFFFFFFFFFFFFFFFFFFFFFFFFFFFFFFFFFFFF AND PUSH20 0xFFFFFFFFFFFFFFFFFFFFFFFFFFFFFFFFFFFFFFFF AND CALLER PUSH20 0xFFFFFFFFFFFFFFFFFFFFFFFFFFFFFFFFFFFFFFFF AND EQ PUSH2 0x2083 JUMPI PUSH1 0x0 DUP1 REVERT JUMPDEST DUP2 PUSH1 0x11 PUSH1 0x0 DUP4 DUP2 MSTORE PUSH1 0x20 ADD SWAP1 DUP2 MSTORE PUSH1 0x20 ADD PUSH1 0x0 KECCAK256 DUP2 SWAP1 SSTORE POP POP POP JUMP JUMPDEST CALLER PUSH1 0xE PUSH1 0x0 PUSH1 0xD PUSH1 0x0 DUP2 SLOAD DUP1 SWAP3 SWAP2 SWAP1 PUSH2 0x20B7 SWAP1 PUSH2 0x2F1F JUMP JUMPDEST SWAP2 SWAP1 POP SSTORE DUP2 MSTORE PUSH1 0x20 ADD SWAP1 DUP2 MSTORE PUSH1 0x20 ADD PUSH1 0x0 KECCAK256 PUSH1 0x0 PUSH2 0x100 EXP DUP2 SLOAD DUP2 PUSH20 0xFFFFFFFFFFFFFFFFFFFFFFFFFFFFFFFFFFFFFFFF MUL NOT AND SWAP1 DUP4 PUSH20 0xFFFFFFFFFFFFFFFFFFFFFFFFFFFFFFFFFFFFFFFF AND MUL OR SWAP1 SSTORE POP PUSH1 0x0 PUSH1 0x1 PUSH1 0x6 SLOAD PUSH2 0x2118 SWAP2 SWAP1 PUSH2 0x2F67 JUMP JUMPDEST PUSH8 0xFFFFFFFFFFFFFFFF DUP2 GT ISZERO PUSH2 0x2131 JUMPI PUSH2 0x2130 PUSH2 0x27CF JUMP JUMPDEST JUMPDEST PUSH1 0x40 MLOAD SWAP1 DUP1 DUP3 MSTORE DUP1 PUSH1 0x20 MUL PUSH1 0x20 ADD DUP3 ADD PUSH1 0x40 MSTORE DUP1 ISZERO PUSH2 0x215F JUMPI DUP2 PUSH1 0x20 ADD PUSH1 0x20 DUP3 MUL DUP1 CALLDATASIZE DUP4 CALLDATACOPY DUP1 DUP3 ADD SWAP2 POP POP SWAP1 POP JUMPDEST POP SWAP1 POP PUSH1 0x40 MLOAD DUP1 PUSH2 0x120 ADD PUSH1 0x40 MSTORE DUP1 PUSH1 0x0 DUP2 MSTORE PUSH1 0x20 ADD DUP3 DUP2 MSTORE PUSH1 0x20 ADD PUSH1 0x0 DUP2 MSTORE PUSH1 0x20 ADD TIMESTAMP DUP2 MSTORE PUSH1 0x20 ADD PUSH1 0x0 DUP2 MSTORE PUSH1 0x20 ADD PUSH1 0x0 DUP2 MSTORE PUSH1 0x20 ADD PUSH1 0x0 DUP2 MSTORE PUSH1 0x20 ADD PUSH1 0x0 DUP2 MSTORE PUSH1 0x20 ADD TIMESTAMP DUP2 MSTORE POP PUSH1 0xF PUSH1 0x0 CALLER PUSH20 0xFFFFFFFFFFFFFFFFFFFFFFFFFFFFFFFFFFFFFFFF AND PUSH20 0xFFFFFFFFFFFFFFFFFFFFFFFFFFFFFFFFFFFFFFFF AND DUP2 MSTORE PUSH1 0x20 ADD SWAP1 DUP2 MSTORE PUSH1 0x20 ADD PUSH1 0x0 KECCAK256 PUSH1 0x0 DUP3 ADD MLOAD DUP2 PUSH1 0x0 ADD SSTORE PUSH1 0x20 DUP3 ADD MLOAD DUP2 PUSH1 0x1 ADD SWAP1 DUP1 MLOAD SWAP1 PUSH1 0x20 ADD SWAP1 PUSH2 0x220D SWAP3 SWAP2 SWAP1 PUSH2 0x26D6 JUMP JUMPDEST POP PUSH1 0x40 DUP3 ADD MLOAD DUP2 PUSH1 0x2 ADD SSTORE PUSH1 0x60 DUP3 ADD MLOAD DUP2 PUSH1 0x3 ADD SSTORE PUSH1 0x80 DUP3 ADD MLOAD DUP2 PUSH1 0x4 ADD SSTORE PUSH1 0xA0 DUP3 ADD MLOAD DUP2 PUSH1 0x5 ADD SSTORE PUSH1 0xC0 DUP3 ADD MLOAD DUP2 PUSH1 0x6 ADD SSTORE PUSH1 0xE0 DUP3 ADD MLOAD DUP2 PUSH1 0x7 ADD SSTORE PUSH2 0x100 DUP3 ADD MLOAD DUP2 PUSH1 0x8 ADD SSTORE SWAP1 POP POP DUP2 PUSH1 0x10 PUSH1 0x0 CALLER PUSH20 0xFFFFFFFFFFFFFFFFFFFFFFFFFFFFFFFFFFFFFFFF AND PUSH20 0xFFFFFFFFFFFFFFFFFFFFFFFFFFFFFFFFFFFFFFFF AND DUP2 MSTORE PUSH1 0x20 ADD SWAP1 DUP2 MSTORE PUSH1 0x20 ADD PUSH1 0x0 KECCAK256 PUSH1 0x0 PUSH2 0x100 EXP DUP2 SLOAD DUP2 PUSH20 0xFFFFFFFFFFFFFFFFFFFFFFFFFFFFFFFFFFFFFFFF MUL NOT AND SWAP1 DUP4 PUSH20 0xFFFFFFFFFFFFFFFFFFFFFFFFFFFFFFFFFFFFFFFF AND MUL OR SWAP1 SSTORE POP POP POP JUMP JUMPDEST PUSH1 0x4 PUSH1 0x0 SWAP1 SLOAD SWAP1 PUSH2 0x100 EXP SWAP1 DIV PUSH20 0xFFFFFFFFFFFFFFFFFFFFFFFFFFFFFFFFFFFFFFFF AND PUSH20 0xFFFFFFFFFFFFFFFFFFFFFFFFFFFFFFFFFFFFFFFF AND CALLER PUSH20 0xFFFFFFFFFFFFFFFFFFFFFFFFFFFFFFFFFFFFFFFF AND EQ PUSH2 0x2334 JUMPI PUSH1 0x0 DUP1 REVERT JUMPDEST DUP5 PUSH1 0x22 DUP2 SWAP1 SSTORE POP DUP4 PUSH1 0x23 DUP2 SWAP1 SSTORE POP DUP3 PUSH1 0x24 DUP2 SWAP1 SSTORE POP DUP2 PUSH1 0x25 DUP2 SWAP1 SSTORE POP DUP1 PUSH1 0x26 DUP2 SWAP1 SSTORE POP POP POP POP POP POP JUMP JUMPDEST PUSH1 0x5 PUSH1 0x20 MSTORE DUP1 PUSH1 0x0 MSTORE PUSH1 0x40 PUSH1 0x0 KECCAK256 PUSH1 0x0 SWAP2 POP SWAP1 POP DUP1 SLOAD PUSH2 0x237D SWAP1 PUSH2 0x2FCA JUMP JUMPDEST DUP1 PUSH1 0x1F ADD PUSH1 0x20 DUP1 SWAP2 DIV MUL PUSH1 0x20 ADD PUSH1 0x40 MLOAD SWAP1 DUP2 ADD PUSH1 0x40 MSTORE DUP1 SWAP3 SWAP2 SWAP1 DUP2 DUP2 MSTORE PUSH1 0x20 ADD DUP3 DUP1 SLOAD PUSH2 0x23A9 SWAP1 PUSH2 0x2FCA JUMP JUMPDEST DUP1 ISZERO PUSH2 0x23F6 JUMPI DUP1 PUSH1 0x1F LT PUSH2 0x23CB JUMPI PUSH2 0x100 DUP1 DUP4 SLOAD DIV MUL DUP4 MSTORE SWAP2 PUSH1 0x20 ADD SWAP2 PUSH2 0x23F6 JUMP JUMPDEST DUP3 ADD SWAP2 SWAP1 PUSH1 0x0 MSTORE PUSH1 0x20 PUSH1 0x0 KECCAK256 SWAP1 JUMPDEST DUP2 SLOAD DUP2 MSTORE SWAP1 PUSH1 0x1 ADD SWAP1 PUSH1 0x20 ADD DUP1 DUP4 GT PUSH2 0x23D9 JUMPI DUP3 SWAP1 SUB PUSH1 0x1F AND DUP3 ADD SWAP2 JUMPDEST POP POP POP POP POP DUP2 JUMP JUMPDEST PUSH1 0x4 PUSH1 0x0 SWAP1 SLOAD SWAP1 PUSH2 0x100 EXP SWAP1 DIV PUSH20 0xFFFFFFFFFFFFFFFFFFFFFFFFFFFFFFFFFFFFFFFF AND PUSH20 0xFFFFFFFFFFFFFFFFFFFFFFFFFFFFFFFFFFFFFFFF AND CALLER PUSH20 0xFFFFFFFFFFFFFFFFFFFFFFFFFFFFFFFFFFFFFFFF AND EQ PUSH2 0x2458 JUMPI PUSH1 0x0 DUP1 REVERT JUMPDEST DUP8 PUSH1 0x7 PUSH1 0x0 PUSH2 0x100 EXP DUP2 SLOAD DUP2 PUSH20 0xFFFFFFFFFFFFFFFFFFFFFFFFFFFFFFFFFFFFFFFF MUL NOT AND SWAP1 DUP4 PUSH20 0xFFFFFFFFFFFFFFFFFFFFFFFFFFFFFFFFFFFFFFFF AND MUL OR SWAP1 SSTORE POP DUP7 PUSH1 0x8 PUSH1 0x0 PUSH2 0x100 EXP DUP2 SLOAD DUP2 PUSH20 0xFFFFFFFFFFFFFFFFFFFFFFFFFFFFFFFFFFFFFFFF MUL NOT AND SWAP1 DUP4 PUSH20 0xFFFFFFFFFFFFFFFFFFFFFFFFFFFFFFFFFFFFFFFF AND MUL OR SWAP1 SSTORE POP DUP6 PUSH1 0x9 PUSH1 0x0 PUSH2 0x100 EXP DUP2 SLOAD DUP2 PUSH20 0xFFFFFFFFFFFFFFFFFFFFFFFFFFFFFFFFFFFFFFFF MUL NOT AND SWAP1 DUP4 PUSH20 0xFFFFFFFFFFFFFFFFFFFFFFFFFFFFFFFFFFFFFFFF AND MUL OR SWAP1 SSTORE POP DUP5 PUSH1 0xA PUSH1 0x0 PUSH2 0x100 EXP DUP2 SLOAD DUP2 PUSH20 0xFFFFFFFFFFFFFFFFFFFFFFFFFFFFFFFFFFFFFFFF MUL NOT AND SWAP1 DUP4 PUSH20 0xFFFFFFFFFFFFFFFFFFFFFFFFFFFFFFFFFFFFFFFF AND MUL OR SWAP1 SSTORE POP DUP4 PUSH1 0xB PUSH1 0x0 PUSH2 0x100 EXP DUP2 SLOAD DUP2 PUSH20 0xFFFFFFFFFFFFFFFFFFFFFFFFFFFFFFFFFFFFFFFF MUL NOT AND SWAP1 DUP4 PUSH20 0xFFFFFFFFFFFFFFFFFFFFFFFFFFFFFFFFFFFFFFFF AND MUL OR SWAP1 SSTORE POP DUP3 PUSH1 0xC PUSH1 0x0 PUSH2 0x100 EXP DUP2 SLOAD DUP2 PUSH20 0xFFFFFFFFFFFFFFFFFFFFFFFFFFFFFFFFFFFFFFFF MUL NOT AND SWAP1 DUP4 PUSH20 0xFFFFFFFFFFFFFFFFFFFFFFFFFFFFFFFFFFFFFFFF AND MUL OR SWAP1 SSTORE POP DUP2 PUSH1 0x13 PUSH1 0x0 PUSH2 0x100 EXP DUP2 SLOAD DUP2 PUSH20 0xFFFFFFFFFFFFFFFFFFFFFFFFFFFFFFFFFFFFFFFF MUL NOT AND SWAP1 DUP4 PUSH20 0xFFFFFFFFFFFFFFFFFFFFFFFFFFFFFFFFFFFFFFFF AND MUL OR SWAP1 SSTORE POP DUP1 PUSH1 0x15 PUSH1 0x0 PUSH2 0x100 EXP DUP2 SLOAD DUP2 PUSH20 0xFFFFFFFFFFFFFFFFFFFFFFFFFFFFFFFFFFFFFFFF MUL NOT AND SWAP1 DUP4 PUSH20 0xFFFFFFFFFFFFFFFFFFFFFFFFFFFFFFFFFFFFFFFF AND MUL OR SWAP1 SSTORE POP POP POP POP POP POP POP POP POP JUMP JUMPDEST PUSH1 0x4 PUSH1 0x0 SWAP1 SLOAD SWAP1 PUSH2 0x100 EXP SWAP1 DIV PUSH20 0xFFFFFFFFFFFFFFFFFFFFFFFFFFFFFFFFFFFFFFFF AND PUSH20 0xFFFFFFFFFFFFFFFFFFFFFFFFFFFFFFFFFFFFFFFF AND CALLER PUSH20 0xFFFFFFFFFFFFFFFFFFFFFFFFFFFFFFFFFFFFFFFF AND EQ PUSH2 0x26C4 JUMPI PUSH1 0x0 DUP1 REVERT JUMPDEST DUP2 PUSH1 0x16 DUP2 SWAP1 SSTORE POP DUP1 PUSH1 0x17 DUP2 SWAP1 SSTORE POP POP POP JUMP JUMPDEST DUP3 DUP1 SLOAD DUP3 DUP3 SSTORE SWAP1 PUSH1 0x0 MSTORE PUSH1 0x20 PUSH1 0x0 KECCAK256 SWAP1 DUP2 ADD SWAP3 DUP3 ISZERO PUSH2 0x2712 JUMPI SWAP2 PUSH1 0x20 MUL DUP3 ADD JUMPDEST DUP3 DUP2 GT ISZERO PUSH2 0x2711 JUMPI DUP3 MLOAD DUP3 SSTORE SWAP2 PUSH1 0x20 ADD SWAP2 SWAP1 PUSH1 0x1 ADD SWAP1 PUSH2 0x26F6 JUMP JUMPDEST JUMPDEST POP SWAP1 POP PUSH2 0x271F SWAP2 SWAP1 PUSH2 0x2723 JUMP JUMPDEST POP SWAP1 JUMP JUMPDEST JUMPDEST DUP1 DUP3 GT ISZERO PUSH2 0x273C JUMPI PUSH1 0x0 DUP2 PUSH1 0x0 SWAP1 SSTORE POP PUSH1 0x1 ADD PUSH2 0x2724 JUMP JUMPDEST POP SWAP1 JUMP JUMPDEST PUSH1 0x0 DUP2 SWAP1 POP SWAP2 SWAP1 POP JUMP JUMPDEST PUSH2 0x2753 DUP2 PUSH2 0x2740 JUMP JUMPDEST DUP3 MSTORE POP POP JUMP JUMPDEST PUSH1 0x0 PUSH1 0x20 DUP3 ADD SWAP1 POP PUSH2 0x276E PUSH1 0x0 DUP4 ADD DUP5 PUSH2 0x274A JUMP JUMPDEST SWAP3 SWAP2 POP POP JUMP JUMPDEST PUSH1 0x0 PUSH1 0x40 MLOAD SWAP1 POP SWAP1 JUMP JUMPDEST PUSH1 0x0 DUP1 REVERT JUMPDEST PUSH1 0x0 DUP1 REVERT JUMPDEST PUSH2 0x2791 DUP2 PUSH2 0x2740 JUMP JUMPDEST DUP2 EQ PUSH2 0x279C JUMPI PUSH1 0x0 DUP1 REVERT JUMPDEST POP JUMP JUMPDEST PUSH1 0x0 DUP2 CALLDATALOAD SWAP1 POP PUSH2 0x27AE DUP2 PUSH2 0x2788 JUMP JUMPDEST SWAP3 SWAP2 POP POP JUMP JUMPDEST PUSH1 0x0 DUP1 REVERT JUMPDEST PUSH1 0x0 DUP1 REVERT JUMPDEST PUSH1 0x0 PUSH1 0x1F NOT PUSH1 0x1F DUP4 ADD AND SWAP1 POP SWAP2 SWAP1 POP JUMP JUMPDEST PUSH32 0x4E487B7100000000000000000000000000000000000000000000000000000000 PUSH1 0x0 MSTORE PUSH1 0x41 PUSH1 0x4 MSTORE PUSH1 0x24 PUSH1 0x0 REVERT JUMPDEST PUSH2 0x2807 DUP3 PUSH2 0x27BE JUMP JUMPDEST DUP2 ADD DUP2 DUP2 LT PUSH8 0xFFFFFFFFFFFFFFFF DUP3 GT OR ISZERO PUSH2 0x2826 JUMPI PUSH2 0x2825 PUSH2 0x27CF JUMP JUMPDEST JUMPDEST DUP1 PUSH1 0x40 MSTORE POP POP POP JUMP JUMPDEST PUSH1 0x0 PUSH2 0x2839 PUSH2 0x2774 JUMP JUMPDEST SWAP1 POP PUSH2 0x2845 DUP3 DUP3 PUSH2 0x27FE JUMP JUMPDEST SWAP2 SWAP1 POP JUMP JUMPDEST PUSH1 0x0 PUSH8 0xFFFFFFFFFFFFFFFF DUP3 GT ISZERO PUSH2 0x2865 JUMPI PUSH2 0x2864 PUSH2 0x27CF JUMP JUMPDEST JUMPDEST PUSH2 0x286E DUP3 PUSH2 0x27BE JUMP JUMPDEST SWAP1 POP PUSH1 0x20 DUP2 ADD SWAP1 POP SWAP2 SWAP1 POP JUMP JUMPDEST DUP3 DUP2 DUP4 CALLDATACOPY PUSH1 0x0 DUP4 DUP4 ADD MSTORE POP POP POP JUMP JUMPDEST PUSH1 0x0 PUSH2 0x289D PUSH2 0x2898 DUP5 PUSH2 0x284A JUMP JUMPDEST PUSH2 0x282F JUMP JUMPDEST SWAP1 POP DUP3 DUP2 MSTORE PUSH1 0x20 DUP2 ADD DUP5 DUP5 DUP5 ADD GT ISZERO PUSH2 0x28B9 JUMPI PUSH2 0x28B8 PUSH2 0x27B9 JUMP JUMPDEST JUMPDEST PUSH2 0x28C4 DUP5 DUP3 DUP6 PUSH2 0x287B JUMP JUMPDEST POP SWAP4 SWAP3 POP POP POP JUMP JUMPDEST PUSH1 0x0 DUP3 PUSH1 0x1F DUP4 ADD SLT PUSH2 0x28E1 JUMPI PUSH2 0x28E0 PUSH2 0x27B4 JUMP JUMPDEST JUMPDEST DUP2 CALLDATALOAD PUSH2 0x28F1 DUP5 DUP3 PUSH1 0x20 DUP7 ADD PUSH2 0x288A JUMP JUMPDEST SWAP2 POP POP SWAP3 SWAP2 POP POP JUMP JUMPDEST PUSH1 0x0 DUP1 PUSH1 0x40 DUP4 DUP6 SUB SLT ISZERO PUSH2 0x2911 JUMPI PUSH2 0x2910 PUSH2 0x277E JUMP JUMPDEST JUMPDEST PUSH1 0x0 PUSH2 0x291F DUP6 DUP3 DUP7 ADD PUSH2 0x279F JUMP JUMPDEST SWAP3 POP POP PUSH1 0x20 DUP4 ADD CALLDATALOAD PUSH8 0xFFFFFFFFFFFFFFFF DUP2 GT ISZERO PUSH2 0x2940 JUMPI PUSH2 0x293F PUSH2 0x2783 JUMP JUMPDEST JUMPDEST PUSH2 0x294C DUP6 DUP3 DUP7 ADD PUSH2 0x28CC JUMP JUMPDEST SWAP2 POP POP SWAP3 POP SWAP3 SWAP1 POP JUMP JUMPDEST PUSH1 0x0 DUP1 PUSH1 0x40 DUP4 DUP6 SUB SLT ISZERO PUSH2 0x296D JUMPI PUSH2 0x296C PUSH2 0x277E JUMP JUMPDEST JUMPDEST PUSH1 0x0 PUSH2 0x297B DUP6 DUP3 DUP7 ADD PUSH2 0x279F JUMP JUMPDEST SWAP3 POP POP PUSH1 0x20 PUSH2 0x298C DUP6 DUP3 DUP7 ADD PUSH2 0x279F JUMP JUMPDEST SWAP2 POP POP SWAP3 POP SWAP3 SWAP1 POP JUMP JUMPDEST PUSH1 0x0 DUP1 PUSH1 0x0 DUP1 PUSH1 0x0 DUP1 PUSH1 0xC0 DUP8 DUP10 SUB SLT ISZERO PUSH2 0x29B3 JUMPI PUSH2 0x29B2 PUSH2 0x277E JUMP JUMPDEST JUMPDEST PUSH1 0x0 PUSH2 0x29C1 DUP10 DUP3 DUP11 ADD PUSH2 0x279F JUMP JUMPDEST SWAP7 POP POP PUSH1 0x20 PUSH2 0x29D2 DUP10 DUP3 DUP11 ADD PUSH2 0x279F JUMP JUMPDEST SWAP6 POP POP PUSH1 0x40 PUSH2 0x29E3 DUP10 DUP3 DUP11 ADD PUSH2 0x279F JUMP JUMPDEST SWAP5 POP POP PUSH1 0x60 PUSH2 0x29F4 DUP10 DUP3 DUP11 ADD PUSH2 0x279F JUMP JUMPDEST SWAP4 POP POP PUSH1 0x80 PUSH2 0x2A05 DUP10 DUP3 DUP11 ADD PUSH2 0x279F JUMP JUMPDEST SWAP3 POP POP PUSH1 0xA0 PUSH2 0x2A16 DUP10 DUP3 DUP11 ADD PUSH2 0x279F JUMP JUMPDEST SWAP2 POP POP SWAP3 SWAP6 POP SWAP3 SWAP6 POP SWAP3 SWAP6 JUMP JUMPDEST PUSH1 0x0 DUP1 PUSH1 0x0 PUSH1 0x60 DUP5 DUP7 SUB SLT ISZERO PUSH2 0x2A3C JUMPI PUSH2 0x2A3B PUSH2 0x277E JUMP JUMPDEST JUMPDEST PUSH1 0x0 PUSH2 0x2A4A DUP7 DUP3 DUP8 ADD PUSH2 0x279F JUMP JUMPDEST SWAP4 POP POP PUSH1 0x20 PUSH2 0x2A5B DUP7 DUP3 DUP8 ADD PUSH2 0x279F JUMP JUMPDEST SWAP3 POP POP PUSH1 0x40 PUSH2 0x2A6C DUP7 DUP3 DUP8 ADD PUSH2 0x279F JUMP JUMPDEST SWAP2 POP POP SWAP3 POP SWAP3 POP SWAP3 JUMP JUMPDEST PUSH1 0x0 PUSH20 0xFFFFFFFFFFFFFFFFFFFFFFFFFFFFFFFFFFFFFFFF DUP3 AND SWAP1 POP SWAP2 SWAP1 POP JUMP JUMPDEST PUSH1 0x0 PUSH2 0x2AA1 DUP3 PUSH2 0x2A76 JUMP JUMPDEST SWAP1 POP SWAP2 SWAP1 POP JUMP JUMPDEST PUSH2 0x2AB1 DUP2 PUSH2 0x2A96 JUMP JUMPDEST DUP2 EQ PUSH2 0x2ABC JUMPI PUSH1 0x0 DUP1 REVERT JUMPDEST POP JUMP JUMPDEST PUSH1 0x0 DUP2 CALLDATALOAD SWAP1 POP PUSH2 0x2ACE DUP2 PUSH2 0x2AA8 JUMP JUMPDEST SWAP3 SWAP2 POP POP JUMP JUMPDEST PUSH1 0x0 DUP1 PUSH1 0x40 DUP4 DUP6 SUB SLT ISZERO PUSH2 0x2AEB JUMPI PUSH2 0x2AEA PUSH2 0x277E JUMP JUMPDEST JUMPDEST PUSH1 0x0 PUSH2 0x2AF9 DUP6 DUP3 DUP7 ADD PUSH2 0x279F JUMP JUMPDEST SWAP3 POP POP PUSH1 0x20 PUSH2 0x2B0A DUP6 DUP3 DUP7 ADD PUSH2 0x2ABF JUMP JUMPDEST SWAP2 POP POP SWAP3 POP SWAP3 SWAP1 POP JUMP JUMPDEST PUSH1 0x0 PUSH1 0x20 DUP3 DUP5 SUB SLT ISZERO PUSH2 0x2B2A JUMPI PUSH2 0x2B29 PUSH2 0x277E JUMP JUMPDEST JUMPDEST PUSH1 0x0 PUSH2 0x2B38 DUP5 DUP3 DUP6 ADD PUSH2 0x279F JUMP JUMPDEST SWAP2 POP POP SWAP3 SWAP2 POP POP JUMP JUMPDEST PUSH1 0x0 PUSH1 0x20 DUP3 DUP5 SUB SLT ISZERO PUSH2 0x2B57 JUMPI PUSH2 0x2B56 PUSH2 0x277E JUMP JUMPDEST JUMPDEST PUSH1 0x0 PUSH2 0x2B65 DUP5 DUP3 DUP6 ADD PUSH2 0x2ABF JUMP JUMPDEST SWAP2 POP POP SWAP3 SWAP2 POP POP JUMP JUMPDEST PUSH1 0x0 DUP1 PUSH1 0x0 DUP1 PUSH1 0x0 PUSH1 0xA0 DUP7 DUP9 SUB SLT ISZERO PUSH2 0x2B8A JUMPI PUSH2 0x2B89 PUSH2 0x277E JUMP JUMPDEST JUMPDEST PUSH1 0x0 PUSH2 0x2B98 DUP9 DUP3 DUP10 ADD PUSH2 0x279F JUMP JUMPDEST SWAP6 POP POP PUSH1 0x20 PUSH2 0x2BA9 DUP9 DUP3 DUP10 ADD PUSH2 0x279F JUMP JUMPDEST SWAP5 POP POP PUSH1 0x40 PUSH2 0x2BBA DUP9 DUP3 DUP10 ADD PUSH2 0x279F JUMP JUMPDEST SWAP4 POP POP PUSH1 0x60 PUSH2 0x2BCB DUP9 DUP3 DUP10 ADD PUSH2 0x279F JUMP JUMPDEST SWAP3 POP POP PUSH1 0x80 PUSH2 0x2BDC DUP9 DUP3 DUP10 ADD PUSH2 0x279F JUMP JUMPDEST SWAP2 POP POP SWAP3 SWAP6 POP SWAP3 SWAP6 SWAP1 SWAP4 POP JUMP JUMPDEST PUSH1 0x0 DUP2 MLOAD SWAP1 POP SWAP2 SWAP1 POP JUMP JUMPDEST PUSH1 0x0 DUP3 DUP3 MSTORE PUSH1 0x20 DUP3 ADD SWAP1 POP SWAP3 SWAP2 POP POP JUMP JUMPDEST PUSH1 0x0 JUMPDEST DUP4 DUP2 LT ISZERO PUSH2 0x2C23 JUMPI DUP1 DUP3 ADD MLOAD DUP2 DUP5 ADD MSTORE PUSH1 0x20 DUP2 ADD SWAP1 POP PUSH2 0x2C08 JUMP JUMPDEST PUSH1 0x0 DUP5 DUP5 ADD MSTORE POP POP POP POP JUMP JUMPDEST PUSH1 0x0 PUSH2 0x2C3A DUP3 PUSH2 0x2BE9 JUMP JUMPDEST PUSH2 0x2C44 DUP2 DUP6 PUSH2 0x2BF4 JUMP JUMPDEST SWAP4 POP PUSH2 0x2C54 DUP2 DUP6 PUSH1 0x20 DUP7 ADD PUSH2 0x2C05 JUMP JUMPDEST PUSH2 0x2C5D DUP2 PUSH2 0x27BE JUMP JUMPDEST DUP5 ADD SWAP2 POP POP SWAP3 SWAP2 POP POP JUMP JUMPDEST PUSH1 0x0 PUSH1 0x20 DUP3 ADD SWAP1 POP DUP2 DUP2 SUB PUSH1 0x0 DUP4 ADD MSTORE PUSH2 0x2C82 DUP2 DUP5 PUSH2 0x2C2F JUMP JUMPDEST SWAP1 POP SWAP3 SWAP2 POP POP JUMP JUMPDEST PUSH1 0x0 DUP1 PUSH1 0x0 DUP1 PUSH1 0x0 DUP1 PUSH1 0x0 DUP1 PUSH2 0x100 DUP10 DUP12 SUB SLT ISZERO PUSH2 0x2CAB JUMPI PUSH2 0x2CAA PUSH2 0x277E JUMP JUMPDEST JUMPDEST PUSH1 0x0 PUSH2 0x2CB9 DUP12 DUP3 DUP13 ADD PUSH2 0x2ABF JUMP JUMPDEST SWAP9 POP POP PUSH1 0x20 PUSH2 0x2CCA DUP12 DUP3 DUP13 ADD PUSH2 0x2ABF JUMP JUMPDEST SWAP8 POP POP PUSH1 0x40 PUSH2 0x2CDB DUP12 DUP3 DUP13 ADD PUSH2 0x2ABF JUMP JUMPDEST SWAP7 POP POP PUSH1 0x60 PUSH2 0x2CEC DUP12 DUP3 DUP13 ADD PUSH2 0x2ABF JUMP JUMPDEST SWAP6 POP POP PUSH1 0x80 PUSH2 0x2CFD DUP12 DUP3 DUP13 ADD PUSH2 0x2ABF JUMP JUMPDEST SWAP5 POP POP PUSH1 0xA0 PUSH2 0x2D0E DUP12 DUP3 DUP13 ADD PUSH2 0x2ABF JUMP JUMPDEST SWAP4 POP POP PUSH1 0xC0 PUSH2 0x2D1F DUP12 DUP3 DUP13 ADD PUSH2 0x2ABF JUMP JUMPDEST SWAP3 POP POP PUSH1 0xE0 PUSH2 0x2D30 DUP12 DUP3 DUP13 ADD PUSH2 0x2ABF JUMP JUMPDEST SWAP2 POP POP SWAP3 SWAP6 SWAP9 POP SWAP3 SWAP6 SWAP9 SWAP1 SWAP4 SWAP7 POP JUMP JUMPDEST PUSH32 0x4E487B7100000000000000000000000000000000000000000000000000000000 PUSH1 0x0 MSTORE PUSH1 0x11 PUSH1 0x4 MSTORE PUSH1 0x24 PUSH1 0x0 REVERT JUMPDEST PUSH1 0x0 PUSH2 0x2D7A DUP3 PUSH2 0x2740 JUMP JUMPDEST SWAP2 POP PUSH2 0x2D85 DUP4 PUSH2 0x2740 JUMP JUMPDEST SWAP3 POP DUP3 DUP3 SUB SWAP1 POP DUP2 DUP2 GT ISZERO PUSH2 0x2D9D JUMPI PUSH2 0x2D9C PUSH2 0x2D40 JUMP JUMPDEST JUMPDEST SWAP3 SWAP2 POP POP JUMP JUMPDEST PUSH32 0x4E487B7100000000000000000000000000000000000000000000000000000000 PUSH1 0x0 MSTORE PUSH1 0x12 PUSH1 0x4 MSTORE PUSH1 0x24 PUSH1 0x0 REVERT JUMPDEST PUSH1 0x0 PUSH2 0x2DDD DUP3 PUSH2 0x2740 JUMP JUMPDEST SWAP2 POP PUSH2 0x2DE8 DUP4 PUSH2 0x2740 JUMP JUMPDEST SWAP3 POP DUP3 PUSH2 0x2DF8 JUMPI PUSH2 0x2DF7 PUSH2 0x2DA3 JUMP JUMPDEST JUMPDEST DUP3 DUP3 DIV SWAP1 POP SWAP3 SWAP2 POP POP JUMP JUMPDEST PUSH32 0x4E487B7100000000000000000000000000000000000000000000000000000000 PUSH1 0x0 MSTORE PUSH1 0x32 PUSH1 0x4 MSTORE PUSH1 0x24 PUSH1 0x0 REVERT JUMPDEST PUSH1 0x0 PUSH2 0x2E3D DUP3 PUSH2 0x2740 JUMP JUMPDEST SWAP2 POP PUSH2 0x2E48 DUP4 PUSH2 0x2740 JUMP JUMPDEST SWAP3 POP DUP3 DUP3 MUL PUSH2 0x2E56 DUP2 PUSH2 0x2740 JUMP JUMPDEST SWAP2 POP DUP3 DUP3 DIV DUP5 EQ DUP4 ISZERO OR PUSH2 0x2E6D JUMPI PUSH2 0x2E6C PUSH2 0x2D40 JUMP JUMPDEST JUMPDEST POP SWAP3 SWAP2 POP POP JUMP JUMPDEST PUSH2 0x2E7D DUP2 PUSH2 0x2A96 JUMP JUMPDEST DUP3 MSTORE POP POP JUMP JUMPDEST PUSH1 0x0 PUSH1 0x60 DUP3 ADD SWAP1 POP PUSH2 0x2E98 PUSH1 0x0 DUP4 ADD DUP7 PUSH2 0x2E74 JUMP JUMPDEST PUSH2 0x2EA5 PUSH1 0x20 DUP4 ADD DUP6 PUSH2 0x2E74 JUMP JUMPDEST PUSH2 0x2EB2 PUSH1 0x40 DUP4 ADD DUP5 PUSH2 0x274A JUMP JUMPDEST SWAP5 SWAP4 POP POP POP POP JUMP JUMPDEST PUSH1 0x0 DUP2 ISZERO ISZERO SWAP1 POP SWAP2 SWAP1 POP JUMP JUMPDEST PUSH2 0x2ECF DUP2 PUSH2 0x2EBA JUMP JUMPDEST DUP2 EQ PUSH2 0x2EDA JUMPI PUSH1 0x0 DUP1 REVERT JUMPDEST POP JUMP JUMPDEST PUSH1 0x0 DUP2 MLOAD SWAP1 POP PUSH2 0x2EEC DUP2 PUSH2 0x2EC6 JUMP JUMPDEST SWAP3 SWAP2 POP POP JUMP JUMPDEST PUSH1 0x0 PUSH1 0x20 DUP3 DUP5 SUB SLT ISZERO PUSH2 0x2F08 JUMPI PUSH2 0x2F07 PUSH2 0x277E JUMP JUMPDEST JUMPDEST PUSH1 0x0 PUSH2 0x2F16 DUP5 DUP3 DUP6 ADD PUSH2 0x2EDD JUMP JUMPDEST SWAP2 POP POP SWAP3 SWAP2 POP POP JUMP JUMPDEST PUSH1 0x0 PUSH2 0x2F2A DUP3 PUSH2 0x2740 JUMP JUMPDEST SWAP2 POP PUSH32 0xFFFFFFFFFFFFFFFFFFFFFFFFFFFFFFFFFFFFFFFFFFFFFFFFFFFFFFFFFFFFFFFF DUP3 SUB PUSH2 0x2F5C JUMPI PUSH2 0x2F5B PUSH2 0x2D40 JUMP JUMPDEST JUMPDEST PUSH1 0x1 DUP3 ADD SWAP1 POP SWAP2 SWAP1 POP JUMP JUMPDEST PUSH1 0x0 PUSH2 0x2F72 DUP3 PUSH2 0x2740 JUMP JUMPDEST SWAP2 POP PUSH2 0x2F7D DUP4 PUSH2 0x2740 JUMP JUMPDEST SWAP3 POP DUP3 DUP3 ADD SWAP1 POP DUP1 DUP3 GT ISZERO PUSH2 0x2F95 JUMPI PUSH2 0x2F94 PUSH2 0x2D40 JUMP JUMPDEST JUMPDEST SWAP3 SWAP2 POP POP JUMP JUMPDEST PUSH32 0x4E487B7100000000000000000000000000000000000000000000000000000000 PUSH1 0x0 MSTORE PUSH1 0x22 PUSH1 0x4 MSTORE PUSH1 0x24 PUSH1 0x0 REVERT JUMPDEST PUSH1 0x0 PUSH1 0x2 DUP3 DIV SWAP1 POP PUSH1 0x1 DUP3 AND DUP1 PUSH2 0x2FE2 JUMPI PUSH1 0x7F DUP3 AND SWAP2 POP JUMPDEST PUSH1 0x20 DUP3 LT DUP2 SUB PUSH2 0x2FF5 JUMPI PUSH2 0x2FF4 PUSH2 0x2F9B JUMP JUMPDEST JUMPDEST POP SWAP2 SWAP1 POP JUMP JUMPDEST PUSH1 0x0 DUP2 SWAP1 POP DUP2 PUSH1 0x0 MSTORE PUSH1 0x20 PUSH1 0x0 KECCAK256 SWAP1 POP SWAP2 SWAP1 POP JUMP JUMPDEST PUSH1 0x0 PUSH1 0x20 PUSH1 0x1F DUP4 ADD DIV SWAP1 POP SWAP2 SWAP1 POP JUMP JUMPDEST PUSH1 0x0 DUP3 DUP3 SHL SWAP1 POP SWAP3 SWAP2 POP POP JUMP JUMPDEST PUSH1 0x0 PUSH1 0x8 DUP4 MUL PUSH2 0x305D PUSH32 0xFFFFFFFFFFFFFFFFFFFFFFFFFFFFFFFFFFFFFFFFFFFFFFFFFFFFFFFFFFFFFFFF DUP3 PUSH2 0x3020 JUMP JUMPDEST PUSH2 0x3067 DUP7 DUP4 PUSH2 0x3020 JUMP JUMPDEST SWAP6 POP DUP1 NOT DUP5 AND SWAP4 POP DUP1 DUP7 AND DUP5 OR SWAP3 POP POP POP SWAP4 SWAP3 POP POP POP JUMP JUMPDEST PUSH1 0x0 DUP2 SWAP1 POP SWAP2 SWAP1 POP JUMP JUMPDEST PUSH1 0x0 PUSH2 0x30A4 PUSH2 0x309F PUSH2 0x309A DUP5 PUSH2 0x2740 JUMP JUMPDEST PUSH2 0x307F JUMP JUMPDEST PUSH2 0x2740 JUMP JUMPDEST SWAP1 POP SWAP2 SWAP1 POP JUMP JUMPDEST PUSH1 0x0 DUP2 SWAP1 POP SWAP2 SWAP1 POP JUMP JUMPDEST PUSH2 0x30BE DUP4 PUSH2 0x3089 JUMP JUMPDEST PUSH2 0x30D2 PUSH2 0x30CA DUP3 PUSH2 0x30AB JUMP JUMPDEST DUP5 DUP5 SLOAD PUSH2 0x302D JUMP JUMPDEST DUP3 SSTORE POP POP POP POP JUMP JUMPDEST PUSH1 0x0 SWAP1 JUMP JUMPDEST PUSH2 0x30E7 PUSH2 0x30DA JUMP JUMPDEST PUSH2 0x30F2 DUP2 DUP5 DUP5 PUSH2 0x30B5 JUMP JUMPDEST POP POP POP JUMP JUMPDEST JUMPDEST DUP2 DUP2 LT ISZERO PUSH2 0x3116 JUMPI PUSH2 0x310B PUSH1 0x0 DUP3 PUSH2 0x30DF JUMP JUMPDEST PUSH1 0x1 DUP2 ADD SWAP1 POP PUSH2 0x30F8 JUMP JUMPDEST POP POP JUMP JUMPDEST PUSH1 0x1F DUP3 GT ISZERO PUSH2 0x315B JUMPI PUSH2 0x312C DUP2 PUSH2 0x2FFB JUMP JUMPDEST PUSH2 0x3135 DUP5 PUSH2 0x3010 JUMP JUMPDEST DUP2 ADD PUSH1 0x20 DUP6 LT ISZERO PUSH2 0x3144 JUMPI DUP2 SWAP1 POP JUMPDEST PUSH2 0x3158 PUSH2 0x3150 DUP6 PUSH2 0x3010 JUMP JUMPDEST DUP4 ADD DUP3 PUSH2 0x30F7 JUMP JUMPDEST POP POP JUMPDEST POP POP POP JUMP JUMPDEST PUSH1 0x0 DUP3 DUP3 SHR SWAP1 POP SWAP3 SWAP2 POP POP JUMP JUMPDEST PUSH1 0x0 PUSH2 0x317E PUSH1 0x0 NOT DUP5 PUSH1 0x8 MUL PUSH2 0x3160 JUMP JUMPDEST NOT DUP1 DUP4 AND SWAP2 POP POP SWAP3 SWAP2 POP POP JUMP JUMPDEST PUSH1 0x0 PUSH2 0x3197 DUP4 DUP4 PUSH2 0x316D JUMP JUMPDEST SWAP2 POP DUP3 PUSH1 0x2 MUL DUP3 OR SWAP1 POP SWAP3 SWAP2 POP POP JUMP JUMPDEST PUSH2 0x31B0 DUP3 PUSH2 0x2BE9 JUMP JUMPDEST PUSH8 0xFFFFFFFFFFFFFFFF DUP2 GT ISZERO PUSH2 0x31C9 JUMPI PUSH2 0x31C8 PUSH2 0x27CF JUMP JUMPDEST JUMPDEST PUSH2 0x31D3 DUP3 SLOAD PUSH2 0x2FCA JUMP JUMPDEST PUSH2 0x31DE DUP3 DUP3 DUP6 PUSH2 0x311A JUMP JUMPDEST PUSH1 0x0 PUSH1 0x20 SWAP1 POP PUSH1 0x1F DUP4 GT PUSH1 0x1 DUP2 EQ PUSH2 0x3211 JUMPI PUSH1 0x0 DUP5 ISZERO PUSH2 0x31FF JUMPI DUP3 DUP8 ADD MLOAD SWAP1 POP JUMPDEST PUSH2 0x3209 DUP6 DUP3 PUSH2 0x318B JUMP JUMPDEST DUP7 SSTORE POP PUSH2 0x3271 JUMP JUMPDEST PUSH1 0x1F NOT DUP5 AND PUSH2 0x321F DUP7 PUSH2 0x2FFB JUMP JUMPDEST PUSH1 0x0 JUMPDEST DUP3 DUP2 LT ISZERO PUSH2 0x3247 JUMPI DUP5 DUP10 ADD MLOAD DUP3 SSTORE PUSH1 0x1 DUP3 ADD SWAP2 POP PUSH1 0x20 DUP6 ADD SWAP5 POP PUSH1 0x20 DUP2 ADD SWAP1 POP PUSH2 0x3222 JUMP JUMPDEST DUP7 DUP4 LT ISZERO PUSH2 0x3264 JUMPI DUP5 DUP10 ADD MLOAD PUSH2 0x3260 PUSH1 0x1F DUP10 AND DUP3 PUSH2 0x316D JUMP JUMPDEST DUP4 SSTORE POP JUMPDEST PUSH1 0x1 PUSH1 0x2 DUP9 MUL ADD DUP9 SSTORE POP POP POP JUMPDEST POP POP POP POP POP POP JUMP JUMPDEST PUSH32 0x62616C616E6365206E6F7420656E6F75676820746F2062757900000000000000 PUSH1 0x0 DUP3 ADD MSTORE POP JUMP JUMPDEST PUSH1 0x0 PUSH2 0x32AF PUSH1 0x19 DUP4 PUSH2 0x2BF4 JUMP JUMPDEST SWAP2 POP PUSH2 0x32BA DUP3 PUSH2 0x3279 JUMP JUMPDEST PUSH1 0x20 DUP3 ADD SWAP1 POP SWAP2 SWAP1 POP JUMP JUMPDEST PUSH1 0x0 PUSH1 0x20 DUP3 ADD SWAP1 POP DUP2 DUP2 SUB PUSH1 0x0 DUP4 ADD MSTORE PUSH2 0x32DE DUP2 PUSH2 0x32A2 JUMP JUMPDEST SWAP1 POP SWAP2 SWAP1 POP JUMP JUMPDEST PUSH32 0x796F752063616E206E6F74207075726368617365207468697320426F78000000 PUSH1 0x0 DUP3 ADD MSTORE POP JUMP JUMPDEST PUSH1 0x0 PUSH2 0x331B PUSH1 0x1D DUP4 PUSH2 0x2BF4 JUMP JUMPDEST SWAP2 POP PUSH2 0x3326 DUP3 PUSH2 0x32E5 JUMP JUMPDEST PUSH1 0x20 DUP3 ADD SWAP1 POP SWAP2 SWAP1 POP JUMP JUMPDEST PUSH1 0x0 PUSH1 0x20 DUP3 ADD SWAP1 POP DUP2 DUP2 SUB PUSH1 0x0 DUP4 ADD MSTORE PUSH2 0x334A DUP2 PUSH2 0x330E JUMP JUMPDEST SWAP1 POP SWAP2 SWAP1 POP JUMP INVALID LOG2 PUSH5 0x6970667358 0x22 SLT KECCAK256 0x2F 0xD1 0x5C DIFFICULTY PUSH26 0xCAB2F7D6B6811B0B1BB7768BE11481A55B18B09F0DDA99AA7FE MLOAD PUSH5 0x736F6C6343 STOP ADDMOD GT STOP CALLER PUSH9 0x747470733A2F2F6761 PUSH21 0x657761792E70696E6174612E636C6F75642F697066 PUSH20 0x2F516D5644517A6256466B3236646656665A5557 0x4B PUSH5 0x7967734B55 0x4A PUSH27 0x75484A526A3548623472664454553368674B2F0000000000000000 "},"methodIdentifiers":{"_tokenId()":"24822514","addPerson(address)":"bc672a38","claim()":"4e71d92d","nCollection()":"84ec2ed4","pinataURL(uint256)":"d581dd71","purchaseNFT(uint256,address)":"79800836","setAddresses(address,address,address,address,address,address,address,address)":"d733cfd0","setBoxReward(uint256,uint256)":"849a7442","setFriendChainRewardRate(uint256,uint256)":"58fabed5","setOtherRewardRates(uint256,uint256,uint256,uint256,uint256)":"d2af1246","setPinataURL(uint256,string)":"559e4b26","setPoolValue(uint256,uint256,uint256)":"7684fba3","setPromoterValue(uint256,uint256,uint256,uint256,uint256,uint256)":"5a8509c6","setRewardBoxPrice(uint256,uint256)":"b8edf3d7","setRewardPeroid(uint256)":"a68603fc","setSuperPromoterRewardRate(uint256,uint256)":"5be1a055","setTokenMaxReward(uint256,uint256)":"fe679963"}}}}}