{
  "_format": "hh-sol-artifact-1",
  "contractName": "DefincubatorNFT",
  "sourceName": "contracts/DefincubatorNFT.sol",
  "abi": [
    {
      "inputs": [
        {
          "internalType": "string",
          "name": "_collectionName",
          "type": "string"
        },
        {
          "internalType": "string",
          "name": "_collectionSymbol",
          "type": "string"
        },
        {
          "internalType": "uint256",
          "name": "_collectionIndex",
          "type": "uint256"
        },
        {
          "internalType": "string",
          "name": "_pinataURL",
          "type": "string"
        },
        {
          "internalType": "address",
          "name": "_rewardContractAddress",
          "type": "address"
        }
      ],
      "stateMutability": "nonpayable",
      "type": "constructor"
    },
    {
      "anonymous": false,
      "inputs": [
        {
          "indexed": true,
          "internalType": "address",
          "name": "owner",
          "type": "address"
        },
        {
          "indexed": true,
          "internalType": "address",
          "name": "approved",
          "type": "address"
        },
        {
          "indexed": true,
          "internalType": "uint256",
          "name": "tokenId",
          "type": "uint256"
        }
      ],
      "name": "Approval",
      "type": "event"
    },
    {
      "anonymous": false,
      "inputs": [
        {
          "indexed": true,
          "internalType": "address",
          "name": "owner",
          "type": "address"
        },
        {
          "indexed": true,
          "internalType": "address",
          "name": "operator",
          "type": "address"
        },
        {
          "indexed": false,
          "internalType": "bool",
          "name": "approved",
          "type": "bool"
        }
      ],
      "name": "ApprovalForAll",
      "type": "event"
    },
    {
      "anonymous": false,
      "inputs": [
        {
          "indexed": true,
          "internalType": "address",
          "name": "previousOwner",
          "type": "address"
        },
        {
          "indexed": true,
          "internalType": "address",
          "name": "newOwner",
          "type": "address"
        }
      ],
      "name": "OwnershipTransferred",
      "type": "event"
    },
    {
      "anonymous": false,
      "inputs": [
        {
          "indexed": true,
          "internalType": "address",
          "name": "from",
          "type": "address"
        },
        {
          "indexed": true,
          "internalType": "address",
          "name": "to",
          "type": "address"
        },
        {
          "indexed": true,
          "internalType": "uint256",
          "name": "tokenId",
          "type": "uint256"
        }
      ],
      "name": "Transfer",
      "type": "event"
    },
    {
      "inputs": [],
      "name": "_tokenId",
      "outputs": [
        {
          "internalType": "uint256",
          "name": "_value",
          "type": "uint256"
        }
      ],
      "stateMutability": "view",
      "type": "function"
    },
    {
      "inputs": [
        {
          "internalType": "address",
          "name": "to",
          "type": "address"
        },
        {
          "internalType": "uint256",
          "name": "tokenId",
          "type": "uint256"
        }
      ],
      "name": "approve",
      "outputs": [],
      "stateMutability": "nonpayable",
      "type": "function"
    },
    {
      "inputs": [
        {
          "internalType": "address",
          "name": "owner",
          "type": "address"
        }
      ],
      "name": "balanceOf",
      "outputs": [
        {
          "internalType": "uint256",
          "name": "",
          "type": "uint256"
        }
      ],
      "stateMutability": "view",
      "type": "function"
    },
    {
      "inputs": [],
      "name": "collectionName",
      "outputs": [
        {
          "internalType": "string",
          "name": "",
          "type": "string"
        }
      ],
      "stateMutability": "view",
      "type": "function"
    },
    {
      "inputs": [],
      "name": "collectionSymbol",
      "outputs": [
        {
          "internalType": "string",
          "name": "",
          "type": "string"
        }
      ],
      "stateMutability": "view",
      "type": "function"
    },
    {
      "inputs": [],
      "name": "createDefincubatorNFT",
      "outputs": [
        {
          "internalType": "uint256",
          "name": "",
          "type": "uint256"
        }
      ],
      "stateMutability": "payable",
      "type": "function"
    },
    {
      "inputs": [
        {
          "internalType": "uint256",
          "name": "tokenId",
          "type": "uint256"
        }
      ],
      "name": "getApproved",
      "outputs": [
        {
          "internalType": "address",
          "name": "",
          "type": "address"
        }
      ],
      "stateMutability": "view",
      "type": "function"
    },
    {
      "inputs": [],
      "name": "getPinataURL",
      "outputs": [
        {
          "internalType": "string",
          "name": "",
          "type": "string"
        }
      ],
      "stateMutability": "view",
      "type": "function"
    },
    {
      "inputs": [
        {
          "internalType": "address",
          "name": "owner",
          "type": "address"
        },
        {
          "internalType": "address",
          "name": "operator",
          "type": "address"
        }
      ],
      "name": "isApprovedForAll",
      "outputs": [
        {
          "internalType": "bool",
          "name": "",
          "type": "bool"
        }
      ],
      "stateMutability": "view",
      "type": "function"
    },
    {
      "inputs": [],
      "name": "name",
      "outputs": [
        {
          "internalType": "string",
          "name": "",
          "type": "string"
        }
      ],
      "stateMutability": "view",
      "type": "function"
    },
    {
      "inputs": [
        {
          "internalType": "address",
          "name": "owner",
          "type": "address"
        }
      ],
      "name": "ownedTokens",
      "outputs": [
        {
          "internalType": "string[]",
          "name": "",
          "type": "string[]"
        }
      ],
      "stateMutability": "view",
      "type": "function"
    },
    {
      "inputs": [],
      "name": "owner",
      "outputs": [
        {
          "internalType": "address",
          "name": "",
          "type": "address"
        }
      ],
      "stateMutability": "view",
      "type": "function"
    },
    {
      "inputs": [
        {
          "internalType": "uint256",
          "name": "tokenId",
          "type": "uint256"
        }
      ],
      "name": "ownerOf",
      "outputs": [
        {
          "internalType": "address",
          "name": "",
          "type": "address"
        }
      ],
      "stateMutability": "view",
      "type": "function"
    },
    {
      "inputs": [],
      "name": "renounceOwnership",
      "outputs": [],
      "stateMutability": "nonpayable",
      "type": "function"
    },
    {
      "inputs": [
        {
          "internalType": "address",
          "name": "from",
          "type": "address"
        },
        {
          "internalType": "address",
          "name": "to",
          "type": "address"
        },
        {
          "internalType": "uint256",
          "name": "tokenId",
          "type": "uint256"
        }
      ],
      "name": "safeTransferFrom",
      "outputs": [],
      "stateMutability": "nonpayable",
      "type": "function"
    },
    {
      "inputs": [
        {
          "internalType": "address",
          "name": "from",
          "type": "address"
        },
        {
          "internalType": "address",
          "name": "to",
          "type": "address"
        },
        {
          "internalType": "uint256",
          "name": "tokenId",
          "type": "uint256"
        },
        {
          "internalType": "bytes",
          "name": "data",
          "type": "bytes"
        }
      ],
      "name": "safeTransferFrom",
      "outputs": [],
      "stateMutability": "nonpayable",
      "type": "function"
    },
    {
      "inputs": [
        {
          "internalType": "address",
          "name": "operator",
          "type": "address"
        },
        {
          "internalType": "bool",
          "name": "approved",
          "type": "bool"
        }
      ],
      "name": "setApprovalForAll",
      "outputs": [],
      "stateMutability": "nonpayable",
      "type": "function"
    },
    {
      "inputs": [
        {
          "internalType": "string",
          "name": "_pinataURL",
          "type": "string"
        }
      ],
      "name": "setPinataURL",
      "outputs": [],
      "stateMutability": "nonpayable",
      "type": "function"
    },
    {
      "inputs": [
        {
          "internalType": "bytes4",
          "name": "interfaceId",
          "type": "bytes4"
        }
      ],
      "name": "supportsInterface",
      "outputs": [
        {
          "internalType": "bool",
          "name": "",
          "type": "bool"
        }
      ],
      "stateMutability": "view",
      "type": "function"
    },
    {
      "inputs": [],
      "name": "symbol",
      "outputs": [
        {
          "internalType": "string",
          "name": "",
          "type": "string"
        }
      ],
      "stateMutability": "view",
      "type": "function"
    },
    {
      "inputs": [
        {
          "internalType": "uint256",
          "name": "tokenId",
          "type": "uint256"
        }
      ],
      "name": "tokenURI",
      "outputs": [
        {
          "internalType": "string",
          "name": "",
          "type": "string"
        }
      ],
      "stateMutability": "view",
      "type": "function"
    },
    {
      "inputs": [
        {
          "internalType": "address",
          "name": "from",
          "type": "address"
        },
        {
          "internalType": "address",
          "name": "to",
          "type": "address"
        },
        {
          "internalType": "uint256",
          "name": "tokenId",
          "type": "uint256"
        }
      ],
      "name": "transferFrom",
      "outputs": [],
      "stateMutability": "nonpayable",
      "type": "function"
    },
    {
      "inputs": [
        {
          "internalType": "address",
          "name": "newOwner",
          "type": "address"
        }
      ],
      "name": "transferOwnership",
      "outputs": [],
      "stateMutability": "nonpayable",
      "type": "function"
    }
  ],
  "bytecode": "0x6080604052604051806080016040528060518152602001620041e260519139600990816200002e9190620005cd565b503480156200003c57600080fd5b5060405162004233380380620042338339818101604052810190620000629190620008ae565b84848160009081620000759190620005cd565b508060019081620000879190620005cd565b505050620000aa6200009e6200015160201b60201c565b6200015960201b60201c565b620000ba6200021f60201b60201c565b600a9081620000ca9190620005cd565b50620000db620002b960201b60201c565b600b9081620000eb9190620005cd565b5082600c819055508160099081620001049190620005cd565b5080600d60006101000a81548173ffffffffffffffffffffffffffffffffffffffff021916908373ffffffffffffffffffffffffffffffffffffffff160217905550505050505062000993565b600033905090565b6000600760009054906101000a900473ffffffffffffffffffffffffffffffffffffffff16905081600760006101000a81548173ffffffffffffffffffffffffffffffffffffffff021916908373ffffffffffffffffffffffffffffffffffffffff1602179055508173ffffffffffffffffffffffffffffffffffffffff168173ffffffffffffffffffffffffffffffffffffffff167f8be0079c531659141344cd1fd0a4f28419497f9722a3daafe3b4186f6b6457e060405160405180910390a35050565b6060600080546200023090620003bc565b80601f01602080910402602001604051908101604052809291908181526020018280546200025e90620003bc565b8015620002af5780601f106200028357610100808354040283529160200191620002af565b820191906000526020600020905b8154815290600101906020018083116200029157829003601f168201915b5050505050905090565b606060018054620002ca90620003bc565b80601f0160208091040260200160405190810160405280929190818152602001828054620002f890620003bc565b8015620003495780601f106200031d5761010080835404028352916020019162000349565b820191906000526020600020905b8154815290600101906020018083116200032b57829003601f168201915b5050505050905090565b600081519050919050565b7f4e487b7100000000000000000000000000000000000000000000000000000000600052604160045260246000fd5b7f4e487b7100000000000000000000000000000000000000000000000000000000600052602260045260246000fd5b60006002820490506001821680620003d557607f821691505b602082108103620003eb57620003ea6200038d565b5b50919050565b60008190508160005260206000209050919050565b60006020601f8301049050919050565b600082821b905092915050565b600060088302620004557fffffffffffffffffffffffffffffffffffffffffffffffffffffffffffffffff8262000416565b62000461868362000416565b95508019841693508086168417925050509392505050565b6000819050919050565b6000819050919050565b6000620004ae620004a8620004a28462000479565b62000483565b62000479565b9050919050565b6000819050919050565b620004ca836200048d565b620004e2620004d982620004b5565b84845462000423565b825550505050565b600090565b620004f9620004ea565b62000506818484620004bf565b505050565b5b818110156200052e5762000522600082620004ef565b6001810190506200050c565b5050565b601f8211156200057d576200054781620003f1565b620005528462000406565b8101602085101562000562578190505b6200057a620005718562000406565b8301826200050b565b50505b505050565b600082821c905092915050565b6000620005a26000198460080262000582565b1980831691505092915050565b6000620005bd83836200058f565b9150826002028217905092915050565b620005d88262000353565b67ffffffffffffffff811115620005f457620005f36200035e565b5b620006008254620003bc565b6200060d82828562000532565b600060209050601f83116001811462000645576000841562000630578287015190505b6200063c8582620005af565b865550620006ac565b601f1984166200065586620003f1565b60005b828110156200067f5784890151825560018201915060208501945060208101905062000658565b868310156200069f57848901516200069b601f8916826200058f565b8355505b6001600288020188555050505b505050505050565b6000604051905090565b600080fd5b600080fd5b600080fd5b600080fd5b6000601f19601f8301169050919050565b620006ee82620006d2565b810181811067ffffffffffffffff8211171562000710576200070f6200035e565b5b80604052505050565b600062000725620006b4565b9050620007338282620006e3565b919050565b600067ffffffffffffffff8211156200075657620007556200035e565b5b6200076182620006d2565b9050602081019050919050565b60005b838110156200078e57808201518184015260208101905062000771565b60008484015250505050565b6000620007b1620007ab8462000738565b62000719565b905082815260208101848484011115620007d057620007cf620006cd565b5b620007dd8482856200076e565b509392505050565b600082601f830112620007fd57620007fc620006c8565b5b81516200080f8482602086016200079a565b91505092915050565b620008238162000479565b81146200082f57600080fd5b50565b600081519050620008438162000818565b92915050565b600073ffffffffffffffffffffffffffffffffffffffff82169050919050565b6000620008768262000849565b9050919050565b620008888162000869565b81146200089457600080fd5b50565b600081519050620008a8816200087d565b92915050565b600080600080600060a08688031215620008cd57620008cc620006be565b5b600086015167ffffffffffffffff811115620008ee57620008ed620006c3565b5b620008fc88828901620007e5565b955050602086015167ffffffffffffffff81111562000920576200091f620006c3565b5b6200092e88828901620007e5565b9450506040620009418882890162000832565b935050606086015167ffffffffffffffff811115620009655762000964620006c3565b5b6200097388828901620007e5565b9250506080620009868882890162000897565b9150509295509295909350565b61383f80620009a36000396000f3fe6080604052600436106101405760003560e01c80638da5cb5b116100b6578063b168bb5b1161006f578063b168bb5b1461044f578063b88d4fde1461047a578063c87b56dd146104a3578063e5326ab1146104e0578063e985e9c51461050b578063f2fde38b1461054857610140565b80638da5cb5b1461034c57806395d89b4114610377578063a22cb465146103a2578063a661d64d146103cb578063a67a6b53146103f4578063b12ab40f1461041257610140565b80632482251411610108578063248225141461023c5780632f39352a1461026757806342842e0e146102925780636352211e146102bb57806370a08231146102f8578063715018a61461033557610140565b806301ffc9a71461014557806306fdde0314610182578063081812fc146101ad578063095ea7b3146101ea57806323b872dd14610213575b600080fd5b34801561015157600080fd5b5061016c600480360381019061016791906122e0565b610571565b6040516101799190612328565b60405180910390f35b34801561018e57600080fd5b50610197610653565b6040516101a491906123d3565b60405180910390f35b3480156101b957600080fd5b506101d460048036038101906101cf919061242b565b6106e5565b6040516101e19190612499565b60405180910390f35b3480156101f657600080fd5b50610211600480360381019061020c91906124e0565b61072b565b005b34801561021f57600080fd5b5061023a60048036038101906102359190612520565b610842565b005b34801561024857600080fd5b506102516108a2565b60405161025e9190612582565b60405180910390f35b34801561027357600080fd5b5061027c6108ae565b60405161028991906123d3565b60405180910390f35b34801561029e57600080fd5b506102b960048036038101906102b49190612520565b61093c565b005b3480156102c757600080fd5b506102e260048036038101906102dd919061242b565b61095c565b6040516102ef9190612499565b60405180910390f35b34801561030457600080fd5b5061031f600480360381019061031a919061259d565b6109e2565b60405161032c9190612582565b60405180910390f35b34801561034157600080fd5b5061034a610a99565b005b34801561035857600080fd5b50610361610aad565b60405161036e9190612499565b60405180910390f35b34801561038357600080fd5b5061038c610ad7565b60405161039991906123d3565b60405180910390f35b3480156103ae57600080fd5b506103c960048036038101906103c491906125f6565b610b69565b005b3480156103d757600080fd5b506103f260048036038101906103ed919061276b565b610b7f565b005b6103fc610b92565b6040516104099190612582565b60405180910390f35b34801561041e57600080fd5b506104396004803603810190610434919061259d565b610c89565b60405161044691906128c0565b60405180910390f35b34801561045b57600080fd5b50610464610d9e565b60405161047191906123d3565b60405180910390f35b34801561048657600080fd5b506104a1600480360381019061049c9190612983565b610e30565b005b3480156104af57600080fd5b506104ca60048036038101906104c5919061242b565b610e92565b6040516104d791906123d3565b60405180910390f35b3480156104ec57600080fd5b506104f5610fa4565b60405161050291906123d3565b60405180910390f35b34801561051757600080fd5b50610532600480360381019061052d9190612a06565b611032565b60405161053f9190612328565b60405180910390f35b34801561055457600080fd5b5061056f600480360381019061056a919061259d565b6110c6565b005b60007f80ac58cd000000000000000000000000000000000000000000000000000000007bffffffffffffffffffffffffffffffffffffffffffffffffffffffff1916827bffffffffffffffffffffffffffffffffffffffffffffffffffffffff1916148061063c57507f5b5e139f000000000000000000000000000000000000000000000000000000007bffffffffffffffffffffffffffffffffffffffffffffffffffffffff1916827bffffffffffffffffffffffffffffffffffffffffffffffffffffffff1916145b8061064c575061064b82611149565b5b9050919050565b60606000805461066290612a75565b80601f016020809104026020016040519081016040528092919081815260200182805461068e90612a75565b80156106db5780601f106106b0576101008083540402835291602001916106db565b820191906000526020600020905b8154815290600101906020018083116106be57829003601f168201915b5050505050905090565b60006106f0826111b3565b6004600083815260200190815260200160002060009054906101000a900473ffffffffffffffffffffffffffffffffffffffff169050919050565b60006107368261095c565b90508073ffffffffffffffffffffffffffffffffffffffff168373ffffffffffffffffffffffffffffffffffffffff16036107a6576040517f08c379a000000000000000000000000000000000000000000000000000000000815260040161079d90612b18565b60405180910390fd5b8073ffffffffffffffffffffffffffffffffffffffff166107c56111fe565b73ffffffffffffffffffffffffffffffffffffffff1614806107f457506107f3816107ee6111fe565b611032565b5b610833576040517f08c379a000000000000000000000000000000000000000000000000000000000815260040161082a90612baa565b60405180910390fd5b61083d8383611206565b505050565b61085361084d6111fe565b826112bf565b610892576040517f08c379a000000000000000000000000000000000000000000000000000000000815260040161088990612c3c565b60405180910390fd5b61089d838383611354565b505050565b60088060000154905081565b600b80546108bb90612a75565b80601f01602080910402602001604051908101604052809291908181526020018280546108e790612a75565b80156109345780601f1061090957610100808354040283529160200191610934565b820191906000526020600020905b81548152906001019060200180831161091757829003601f168201915b505050505081565b61095783838360405180602001604052806000815250610e30565b505050565b6000806109688361164d565b9050600073ffffffffffffffffffffffffffffffffffffffff168173ffffffffffffffffffffffffffffffffffffffff16036109d9576040517f08c379a00000000000000000000000000000000000000000000000000000000081526004016109d090612ca8565b60405180910390fd5b80915050919050565b60008073ffffffffffffffffffffffffffffffffffffffff168273ffffffffffffffffffffffffffffffffffffffff1603610a52576040517f08c379a0000000000000000000000000000000000000000000000000000000008152600401610a4990612d3a565b60405180910390fd5b600360008373ffffffffffffffffffffffffffffffffffffffff1673ffffffffffffffffffffffffffffffffffffffff168152602001908152602001600020549050919050565b610aa161168a565b610aab6000611708565b565b6000600760009054906101000a900473ffffffffffffffffffffffffffffffffffffffff16905090565b606060018054610ae690612a75565b80601f0160208091040260200160405190810160405280929190818152602001828054610b1290612a75565b8015610b5f5780601f10610b3457610100808354040283529160200191610b5f565b820191906000526020600020905b815481529060010190602001808311610b4257829003601f168201915b5050505050905090565b610b7b610b746111fe565b83836117ce565b5050565b8060099081610b8e9190612f06565b5050565b6000600d60009054906101000a900473ffffffffffffffffffffffffffffffffffffffff1673ffffffffffffffffffffffffffffffffffffffff16637980083634600c54336040518463ffffffff1660e01b8152600401610bf4929190612fd8565b6000604051808303818588803b158015610c0d57600080fd5b505af1158015610c21573d6000803e3d6000fd5b5050505050610c30600861193a565b6000610c3c6008611950565b905060006009610c4b8361195e565b604051602001610c5c92919061310c565b6040516020818303038152906040529050610c773383611a2c565b610c818282611a4a565b819250505090565b60606000610c96836109e2565b67ffffffffffffffff811115610caf57610cae612640565b5b604051908082528060200260200182016040528015610ce257816020015b6060815260200190600190039081610ccd5790505b509050600080610cf1856109e2565b1115610d94576000600190505b610d086008611950565b8111610d92578473ffffffffffffffffffffffffffffffffffffffff16610d2e8261095c565b73ffffffffffffffffffffffffffffffffffffffff1603610d7157610d5281610e92565b838381518110610d6557610d6461313b565b5b60200260200101819052505b8180610d7c90613199565b9250508080610d8a90613199565b915050610cfe565b505b8192505050919050565b606060098054610dad90612a75565b80601f0160208091040260200160405190810160405280929190818152602001828054610dd990612a75565b8015610e265780601f10610dfb57610100808354040283529160200191610e26565b820191906000526020600020905b815481529060010190602001808311610e0957829003601f168201915b5050505050905090565b610e41610e3b6111fe565b836112bf565b610e80576040517f08c379a0000000000000000000000000000000000000000000000000000000008152600401610e7790612c3c565b60405180910390fd5b610e8c84848484611ab7565b50505050565b6060610e9d826111b3565b6000600660008481526020019081526020016000208054610ebd90612a75565b80601f0160208091040260200160405190810160405280929190818152602001828054610ee990612a75565b8015610f365780601f10610f0b57610100808354040283529160200191610f36565b820191906000526020600020905b815481529060010190602001808311610f1957829003601f168201915b505050505090506000610f47611b13565b90506000815103610f5c578192505050610f9f565b600082511115610f91578082604051602001610f799291906131e1565b60405160208183030381529060405292505050610f9f565b610f9a84611b2a565b925050505b919050565b600a8054610fb190612a75565b80601f0160208091040260200160405190810160405280929190818152602001828054610fdd90612a75565b801561102a5780601f10610fff5761010080835404028352916020019161102a565b820191906000526020600020905b81548152906001019060200180831161100d57829003601f168201915b505050505081565b6000600560008473ffffffffffffffffffffffffffffffffffffffff1673ffffffffffffffffffffffffffffffffffffffff16815260200190815260200160002060008373ffffffffffffffffffffffffffffffffffffffff1673ffffffffffffffffffffffffffffffffffffffff16815260200190815260200160002060009054906101000a900460ff16905092915050565b6110ce61168a565b600073ffffffffffffffffffffffffffffffffffffffff168173ffffffffffffffffffffffffffffffffffffffff160361113d576040517f08c379a000000000000000000000000000000000000000000000000000000000815260040161113490613277565b60405180910390fd5b61114681611708565b50565b60007f01ffc9a7000000000000000000000000000000000000000000000000000000007bffffffffffffffffffffffffffffffffffffffffffffffffffffffff1916827bffffffffffffffffffffffffffffffffffffffffffffffffffffffff1916149050919050565b6111bc81611b92565b6111fb576040517f08c379a00000000000000000000000000000000000000000000000000000000081526004016111f290612ca8565b60405180910390fd5b50565b600033905090565b816004600083815260200190815260200160002060006101000a81548173ffffffffffffffffffffffffffffffffffffffff021916908373ffffffffffffffffffffffffffffffffffffffff160217905550808273ffffffffffffffffffffffffffffffffffffffff166112798361095c565b73ffffffffffffffffffffffffffffffffffffffff167f8c5be1e5ebec7d5bd14f71427d1e84f3dd0314c0f7b2291e5b200ac8c7c3b92560405160405180910390a45050565b6000806112cb8361095c565b90508073ffffffffffffffffffffffffffffffffffffffff168473ffffffffffffffffffffffffffffffffffffffff16148061130d575061130c8185611032565b5b8061134b57508373ffffffffffffffffffffffffffffffffffffffff16611333846106e5565b73ffffffffffffffffffffffffffffffffffffffff16145b91505092915050565b8273ffffffffffffffffffffffffffffffffffffffff166113748261095c565b73ffffffffffffffffffffffffffffffffffffffff16146113ca576040517f08c379a00000000000000000000000000000000000000000000000000000000081526004016113c190613309565b60405180910390fd5b600073ffffffffffffffffffffffffffffffffffffffff168273ffffffffffffffffffffffffffffffffffffffff1603611439576040517f08c379a00000000000000000000000000000000000000000000000000000000081526004016114309061339b565b60405180910390fd5b6114468383836001611bd3565b8273ffffffffffffffffffffffffffffffffffffffff166114668261095c565b73ffffffffffffffffffffffffffffffffffffffff16146114bc576040517f08c379a00000000000000000000000000000000000000000000000000000000081526004016114b390613309565b60405180910390fd5b6004600082815260200190815260200160002060006101000a81549073ffffffffffffffffffffffffffffffffffffffff02191690556001600360008573ffffffffffffffffffffffffffffffffffffffff1673ffffffffffffffffffffffffffffffffffffffff168152602001908152602001600020600082825403925050819055506001600360008473ffffffffffffffffffffffffffffffffffffffff1673ffffffffffffffffffffffffffffffffffffffff16815260200190815260200160002060008282540192505081905550816002600083815260200190815260200160002060006101000a81548173ffffffffffffffffffffffffffffffffffffffff021916908373ffffffffffffffffffffffffffffffffffffffff160217905550808273ffffffffffffffffffffffffffffffffffffffff168473ffffffffffffffffffffffffffffffffffffffff167fddf252ad1be2c89b69c2b068fc378daa952ba7f163c4a11628f55a4df523b3ef60405160405180910390a46116488383836001611cf9565b505050565b60006002600083815260200190815260200160002060009054906101000a900473ffffffffffffffffffffffffffffffffffffffff169050919050565b6116926111fe565b73ffffffffffffffffffffffffffffffffffffffff166116b0610aad565b73ffffffffffffffffffffffffffffffffffffffff1614611706576040517f08c379a00000000000000000000000000000000000000000000000000000000081526004016116fd90613407565b60405180910390fd5b565b6000600760009054906101000a900473ffffffffffffffffffffffffffffffffffffffff16905081600760006101000a81548173ffffffffffffffffffffffffffffffffffffffff021916908373ffffffffffffffffffffffffffffffffffffffff1602179055508173ffffffffffffffffffffffffffffffffffffffff168173ffffffffffffffffffffffffffffffffffffffff167f8be0079c531659141344cd1fd0a4f28419497f9722a3daafe3b4186f6b6457e060405160405180910390a35050565b8173ffffffffffffffffffffffffffffffffffffffff168373ffffffffffffffffffffffffffffffffffffffff160361183c576040517f08c379a000000000000000000000000000000000000000000000000000000000815260040161183390613473565b60405180910390fd5b80600560008573ffffffffffffffffffffffffffffffffffffffff1673ffffffffffffffffffffffffffffffffffffffff16815260200190815260200160002060008473ffffffffffffffffffffffffffffffffffffffff1673ffffffffffffffffffffffffffffffffffffffff16815260200190815260200160002060006101000a81548160ff0219169083151502179055508173ffffffffffffffffffffffffffffffffffffffff168373ffffffffffffffffffffffffffffffffffffffff167f17307eab39ab6107e8899845ad3d59bd9653f200f220920489ca2b5937696c318360405161192d9190612328565b60405180910390a3505050565b6001816000016000828254019250508190555050565b600081600001549050919050565b60606000600161196d84611cff565b01905060008167ffffffffffffffff81111561198c5761198b612640565b5b6040519080825280601f01601f1916602001820160405280156119be5781602001600182028036833780820191505090505b509050600082602001820190505b600115611a21578080600190039150507f3031323334353637383961626364656600000000000000000000000000000000600a86061a8153600a8581611a1557611a14613493565b5b049450600085036119cc575b819350505050919050565b611a46828260405180602001604052806000815250611e52565b5050565b611a5382611b92565b611a92576040517f08c379a0000000000000000000000000000000000000000000000000000000008152600401611a8990613534565b60405180910390fd5b80600660008481526020019081526020016000209081611ab29190612f06565b505050565b611ac2848484611354565b611ace84848484611ead565b611b0d576040517f08c379a0000000000000000000000000000000000000000000000000000000008152600401611b04906135c6565b60405180910390fd5b50505050565b606060405180602001604052806000815250905090565b6060611b35826111b3565b6000611b3f611b13565b90506000815111611b5f5760405180602001604052806000815250611b8a565b80611b698461195e565b604051602001611b7a9291906131e1565b6040516020818303038152906040525b915050919050565b60008073ffffffffffffffffffffffffffffffffffffffff16611bb48361164d565b73ffffffffffffffffffffffffffffffffffffffff1614159050919050565b6001811115611cf357600073ffffffffffffffffffffffffffffffffffffffff168473ffffffffffffffffffffffffffffffffffffffff1614611c675780600360008673ffffffffffffffffffffffffffffffffffffffff1673ffffffffffffffffffffffffffffffffffffffff1681526020019081526020016000206000828254611c5f91906135e6565b925050819055505b600073ffffffffffffffffffffffffffffffffffffffff168373ffffffffffffffffffffffffffffffffffffffff1614611cf25780600360008573ffffffffffffffffffffffffffffffffffffffff1673ffffffffffffffffffffffffffffffffffffffff1681526020019081526020016000206000828254611cea919061361a565b925050819055505b5b50505050565b50505050565b600080600090507a184f03e93ff9f4daa797ed6e38ed64bf6a1f0100000000000000008310611d5d577a184f03e93ff9f4daa797ed6e38ed64bf6a1f0100000000000000008381611d5357611d52613493565b5b0492506040810190505b6d04ee2d6d415b85acef81000000008310611d9a576d04ee2d6d415b85acef81000000008381611d9057611d8f613493565b5b0492506020810190505b662386f26fc100008310611dc957662386f26fc100008381611dbf57611dbe613493565b5b0492506010810190505b6305f5e1008310611df2576305f5e1008381611de857611de7613493565b5b0492506008810190505b6127108310611e17576127108381611e0d57611e0c613493565b5b0492506004810190505b60648310611e3a5760648381611e3057611e2f613493565b5b0492506002810190505b600a8310611e49576001810190505b80915050919050565b611e5c8383612034565b611e696000848484611ead565b611ea8576040517f08c379a0000000000000000000000000000000000000000000000000000000008152600401611e9f906135c6565b60405180910390fd5b505050565b6000611ece8473ffffffffffffffffffffffffffffffffffffffff16612251565b15612027578373ffffffffffffffffffffffffffffffffffffffff1663150b7a02611ef76111fe565b8786866040518563ffffffff1660e01b8152600401611f1994939291906136a3565b6020604051808303816000875af1925050508015611f5557506040513d601f19601f82011682018060405250810190611f529190613704565b60015b611fd7573d8060008114611f85576040519150601f19603f3d011682016040523d82523d6000602084013e611f8a565b606091505b506000815103611fcf576040517f08c379a0000000000000000000000000000000000000000000000000000000008152600401611fc6906135c6565b60405180910390fd5b805181602001fd5b63150b7a0260e01b7bffffffffffffffffffffffffffffffffffffffffffffffffffffffff1916817bffffffffffffffffffffffffffffffffffffffffffffffffffffffff19161491505061202c565b600190505b949350505050565b600073ffffffffffffffffffffffffffffffffffffffff168273ffffffffffffffffffffffffffffffffffffffff16036120a3576040517f08c379a000000000000000000000000000000000000000000000000000000000815260040161209a9061377d565b60405180910390fd5b6120ac81611b92565b156120ec576040517f08c379a00000000000000000000000000000000000000000000000000000000081526004016120e3906137e9565b60405180910390fd5b6120fa600083836001611bd3565b61210381611b92565b15612143576040517f08c379a000000000000000000000000000000000000000000000000000000000815260040161213a906137e9565b60405180910390fd5b6001600360008473ffffffffffffffffffffffffffffffffffffffff1673ffffffffffffffffffffffffffffffffffffffff16815260200190815260200160002060008282540192505081905550816002600083815260200190815260200160002060006101000a81548173ffffffffffffffffffffffffffffffffffffffff021916908373ffffffffffffffffffffffffffffffffffffffff160217905550808273ffffffffffffffffffffffffffffffffffffffff16600073ffffffffffffffffffffffffffffffffffffffff167fddf252ad1be2c89b69c2b068fc378daa952ba7f163c4a11628f55a4df523b3ef60405160405180910390a461224d600083836001611cf9565b5050565b6000808273ffffffffffffffffffffffffffffffffffffffff163b119050919050565b6000604051905090565b600080fd5b600080fd5b60007fffffffff0000000000000000000000000000000000000000000000000000000082169050919050565b6122bd81612288565b81146122c857600080fd5b50565b6000813590506122da816122b4565b92915050565b6000602082840312156122f6576122f561227e565b5b6000612304848285016122cb565b91505092915050565b60008115159050919050565b6123228161230d565b82525050565b600060208201905061233d6000830184612319565b92915050565b600081519050919050565b600082825260208201905092915050565b60005b8381101561237d578082015181840152602081019050612362565b60008484015250505050565b6000601f19601f8301169050919050565b60006123a582612343565b6123af818561234e565b93506123bf81856020860161235f565b6123c881612389565b840191505092915050565b600060208201905081810360008301526123ed818461239a565b905092915050565b6000819050919050565b612408816123f5565b811461241357600080fd5b50565b600081359050612425816123ff565b92915050565b6000602082840312156124415761244061227e565b5b600061244f84828501612416565b91505092915050565b600073ffffffffffffffffffffffffffffffffffffffff82169050919050565b600061248382612458565b9050919050565b61249381612478565b82525050565b60006020820190506124ae600083018461248a565b92915050565b6124bd81612478565b81146124c857600080fd5b50565b6000813590506124da816124b4565b92915050565b600080604083850312156124f7576124f661227e565b5b6000612505858286016124cb565b925050602061251685828601612416565b9150509250929050565b6000806000606084860312156125395761253861227e565b5b6000612547868287016124cb565b9350506020612558868287016124cb565b925050604061256986828701612416565b9150509250925092565b61257c816123f5565b82525050565b60006020820190506125976000830184612573565b92915050565b6000602082840312156125b3576125b261227e565b5b60006125c1848285016124cb565b91505092915050565b6125d38161230d565b81146125de57600080fd5b50565b6000813590506125f0816125ca565b92915050565b6000806040838503121561260d5761260c61227e565b5b600061261b858286016124cb565b925050602061262c858286016125e1565b9150509250929050565b600080fd5b600080fd5b7f4e487b7100000000000000000000000000000000000000000000000000000000600052604160045260246000fd5b61267882612389565b810181811067ffffffffffffffff8211171561269757612696612640565b5b80604052505050565b60006126aa612274565b90506126b6828261266f565b919050565b600067ffffffffffffffff8211156126d6576126d5612640565b5b6126df82612389565b9050602081019050919050565b82818337600083830152505050565b600061270e612709846126bb565b6126a0565b90508281526020810184848401111561272a5761272961263b565b5b6127358482856126ec565b509392505050565b600082601f83011261275257612751612636565b5b81356127628482602086016126fb565b91505092915050565b6000602082840312156127815761278061227e565b5b600082013567ffffffffffffffff81111561279f5761279e612283565b5b6127ab8482850161273d565b91505092915050565b600081519050919050565b600082825260208201905092915050565b6000819050602082019050919050565b600082825260208201905092915050565b60006127fc82612343565b61280681856127e0565b935061281681856020860161235f565b61281f81612389565b840191505092915050565b600061283683836127f1565b905092915050565b6000602082019050919050565b6000612856826127b4565b61286081856127bf565b935083602082028501612872856127d0565b8060005b858110156128ae578484038952815161288f858261282a565b945061289a8361283e565b925060208a01995050600181019050612876565b50829750879550505050505092915050565b600060208201905081810360008301526128da818461284b565b905092915050565b600067ffffffffffffffff8211156128fd576128fc612640565b5b61290682612389565b9050602081019050919050565b6000612926612921846128e2565b6126a0565b9050828152602081018484840111156129425761294161263b565b5b61294d8482856126ec565b509392505050565b600082601f83011261296a57612969612636565b5b813561297a848260208601612913565b91505092915050565b6000806000806080858703121561299d5761299c61227e565b5b60006129ab878288016124cb565b94505060206129bc878288016124cb565b93505060406129cd87828801612416565b925050606085013567ffffffffffffffff8111156129ee576129ed612283565b5b6129fa87828801612955565b91505092959194509250565b60008060408385031215612a1d57612a1c61227e565b5b6000612a2b858286016124cb565b9250506020612a3c858286016124cb565b9150509250929050565b7f4e487b7100000000000000000000000000000000000000000000000000000000600052602260045260246000fd5b60006002820490506001821680612a8d57607f821691505b602082108103612aa057612a9f612a46565b5b50919050565b7f4552433732313a20617070726f76616c20746f2063757272656e74206f776e6560008201527f7200000000000000000000000000000000000000000000000000000000000000602082015250565b6000612b0260218361234e565b9150612b0d82612aa6565b604082019050919050565b60006020820190508181036000830152612b3181612af5565b9050919050565b7f4552433732313a20617070726f76652063616c6c6572206973206e6f7420746f60008201527f6b656e206f776e6572206f7220617070726f76656420666f7220616c6c000000602082015250565b6000612b94603d8361234e565b9150612b9f82612b38565b604082019050919050565b60006020820190508181036000830152612bc381612b87565b9050919050565b7f4552433732313a2063616c6c6572206973206e6f7420746f6b656e206f776e6560008201527f72206f7220617070726f76656400000000000000000000000000000000000000602082015250565b6000612c26602d8361234e565b9150612c3182612bca565b604082019050919050565b60006020820190508181036000830152612c5581612c19565b9050919050565b7f4552433732313a20696e76616c696420746f6b656e2049440000000000000000600082015250565b6000612c9260188361234e565b9150612c9d82612c5c565b602082019050919050565b60006020820190508181036000830152612cc181612c85565b9050919050565b7f4552433732313a2061646472657373207a65726f206973206e6f74206120766160008201527f6c6964206f776e65720000000000000000000000000000000000000000000000602082015250565b6000612d2460298361234e565b9150612d2f82612cc8565b604082019050919050565b60006020820190508181036000830152612d5381612d17565b9050919050565b60008190508160005260206000209050919050565b60006020601f8301049050919050565b600082821b905092915050565b600060088302612dbc7fffffffffffffffffffffffffffffffffffffffffffffffffffffffffffffffff82612d7f565b612dc68683612d7f565b95508019841693508086168417925050509392505050565b6000819050919050565b6000612e03612dfe612df9846123f5565b612dde565b6123f5565b9050919050565b6000819050919050565b612e1d83612de8565b612e31612e2982612e0a565b848454612d8c565b825550505050565b600090565b612e46612e39565b612e51818484612e14565b505050565b5b81811015612e7557612e6a600082612e3e565b600181019050612e57565b5050565b601f821115612eba57612e8b81612d5a565b612e9484612d6f565b81016020851015612ea3578190505b612eb7612eaf85612d6f565b830182612e56565b50505b505050565b600082821c905092915050565b6000612edd60001984600802612ebf565b1980831691505092915050565b6000612ef68383612ecc565b9150826002028217905092915050565b612f0f82612343565b67ffffffffffffffff811115612f2857612f27612640565b5b612f328254612a75565b612f3d828285612e79565b600060209050601f831160018114612f705760008415612f5e578287015190505b612f688582612eea565b865550612fd0565b601f198416612f7e86612d5a565b60005b82811015612fa657848901518255600182019150602085019450602081019050612f81565b86831015612fc35784890151612fbf601f891682612ecc565b8355505b6001600288020188555050505b505050505050565b6000604082019050612fed6000830185612573565b612ffa602083018461248a565b9392505050565b600081905092915050565b6000815461301981612a75565b6130238186613001565b9450600182166000811461303e576001811461305357613086565b60ff1983168652811515820286019350613086565b61305c85612d5a565b60005b8381101561307e5781548189015260018201915060208101905061305f565b838801955050505b50505092915050565b600061309a82612343565b6130a48185613001565b93506130b481856020860161235f565b80840191505092915050565b7f2e6a736f6e000000000000000000000000000000000000000000000000000000600082015250565b60006130f6600583613001565b9150613101826130c0565b600582019050919050565b6000613118828561300c565b9150613124828461308f565b915061312f826130e9565b91508190509392505050565b7f4e487b7100000000000000000000000000000000000000000000000000000000600052603260045260246000fd5b7f4e487b7100000000000000000000000000000000000000000000000000000000600052601160045260246000fd5b60006131a4826123f5565b91507fffffffffffffffffffffffffffffffffffffffffffffffffffffffffffffffff82036131d6576131d561316a565b5b600182019050919050565b60006131ed828561308f565b91506131f9828461308f565b91508190509392505050565b7f4f776e61626c653a206e6577206f776e657220697320746865207a65726f206160008201527f6464726573730000000000000000000000000000000000000000000000000000602082015250565b600061326160268361234e565b915061326c82613205565b604082019050919050565b6000602082019050818103600083015261329081613254565b9050919050565b7f4552433732313a207472616e736665722066726f6d20696e636f72726563742060008201527f6f776e6572000000000000000000000000000000000000000000000000000000602082015250565b60006132f360258361234e565b91506132fe82613297565b604082019050919050565b60006020820190508181036000830152613322816132e6565b9050919050565b7f4552433732313a207472616e7366657220746f20746865207a65726f2061646460008201527f7265737300000000000000000000000000000000000000000000000000000000602082015250565b600061338560248361234e565b915061339082613329565b604082019050919050565b600060208201905081810360008301526133b481613378565b9050919050565b7f4f776e61626c653a2063616c6c6572206973206e6f7420746865206f776e6572600082015250565b60006133f160208361234e565b91506133fc826133bb565b602082019050919050565b60006020820190508181036000830152613420816133e4565b9050919050565b7f4552433732313a20617070726f766520746f2063616c6c657200000000000000600082015250565b600061345d60198361234e565b915061346882613427565b602082019050919050565b6000602082019050818103600083015261348c81613450565b9050919050565b7f4e487b7100000000000000000000000000000000000000000000000000000000600052601260045260246000fd5b7f45524337323155524953746f726167653a2055524920736574206f66206e6f6e60008201527f6578697374656e7420746f6b656e000000000000000000000000000000000000602082015250565b600061351e602e8361234e565b9150613529826134c2565b604082019050919050565b6000602082019050818103600083015261354d81613511565b9050919050565b7f4552433732313a207472616e7366657220746f206e6f6e20455243373231526560008201527f63656976657220696d706c656d656e7465720000000000000000000000000000602082015250565b60006135b060328361234e565b91506135bb82613554565b604082019050919050565b600060208201905081810360008301526135df816135a3565b9050919050565b60006135f1826123f5565b91506135fc836123f5565b92508282039050818111156136145761361361316a565b5b92915050565b6000613625826123f5565b9150613630836123f5565b92508282019050808211156136485761364761316a565b5b92915050565b600081519050919050565b600082825260208201905092915050565b60006136758261364e565b61367f8185613659565b935061368f81856020860161235f565b61369881612389565b840191505092915050565b60006080820190506136b8600083018761248a565b6136c5602083018661248a565b6136d26040830185612573565b81810360608301526136e4818461366a565b905095945050505050565b6000815190506136fe816122b4565b92915050565b60006020828403121561371a5761371961227e565b5b6000613728848285016136ef565b91505092915050565b7f4552433732313a206d696e7420746f20746865207a65726f2061646472657373600082015250565b600061376760208361234e565b915061377282613731565b602082019050919050565b600060208201905081810360008301526137968161375a565b9050919050565b7f4552433732313a20746f6b656e20616c7265616479206d696e74656400000000600082015250565b60006137d3601c8361234e565b91506137de8261379d565b602082019050919050565b60006020820190508181036000830152613802816137c6565b905091905056fea26469706673582212200becbd450b5605b848c5724ed473f9b2176c407d40441808352291d2887e3ca064736f6c6343000811003368747470733a2f2f676174657761792e70696e6174612e636c6f75642f697066732f516d5644517a6256466b3236646656665a55574b647967734b554a7a75484a526a3548623472664454553368674b2f",
  "linkReferences": {},
  "deployedLinkReferences": {}
}