{
  "_format": "hh-sol-artifact-1",
  "contractName": "DefincubatorNFT",
  "sourceName": "contracts/DefincubatorNFT.sol",
  "abi": [
    {
      "inputs": [
        {
          "internalType": "string",
          "name": "_collectionName",
          "type": "string"
        },
        {
          "internalType": "string",
          "name": "_collectionSymbol",
          "type": "string"
        },
        {
          "internalType": "uint256",
          "name": "_collectionID",
          "type": "uint256"
        },
        {
          "internalType": "string",
          "name": "_pinataURL",
          "type": "string"
        },
        {
          "internalType": "address",
          "name": "_rewardContractAddress",
          "type": "address"
        }
      ],
      "stateMutability": "nonpayable",
      "type": "constructor"
    },
    {
      "anonymous": false,
      "inputs": [
        {
          "indexed": true,
          "internalType": "address",
          "name": "owner",
          "type": "address"
        },
        {
          "indexed": true,
          "internalType": "address",
          "name": "approved",
          "type": "address"
        },
        {
          "indexed": true,
          "internalType": "uint256",
          "name": "tokenId",
          "type": "uint256"
        }
      ],
      "name": "Approval",
      "type": "event"
    },
    {
      "anonymous": false,
      "inputs": [
        {
          "indexed": true,
          "internalType": "address",
          "name": "owner",
          "type": "address"
        },
        {
          "indexed": true,
          "internalType": "address",
          "name": "operator",
          "type": "address"
        },
        {
          "indexed": false,
          "internalType": "bool",
          "name": "approved",
          "type": "bool"
        }
      ],
      "name": "ApprovalForAll",
      "type": "event"
    },
    {
      "anonymous": false,
      "inputs": [
        {
          "indexed": true,
          "internalType": "address",
          "name": "previousOwner",
          "type": "address"
        },
        {
          "indexed": true,
          "internalType": "address",
          "name": "newOwner",
          "type": "address"
        }
      ],
      "name": "OwnershipTransferred",
      "type": "event"
    },
    {
      "anonymous": false,
      "inputs": [
        {
          "indexed": true,
          "internalType": "address",
          "name": "from",
          "type": "address"
        },
        {
          "indexed": true,
          "internalType": "address",
          "name": "to",
          "type": "address"
        },
        {
          "indexed": true,
          "internalType": "uint256",
          "name": "tokenId",
          "type": "uint256"
        }
      ],
      "name": "Transfer",
      "type": "event"
    },
    {
      "inputs": [],
      "name": "_tokenId",
      "outputs": [
        {
          "internalType": "uint256",
          "name": "_value",
          "type": "uint256"
        }
      ],
      "stateMutability": "view",
      "type": "function"
    },
    {
      "inputs": [
        {
          "internalType": "address",
          "name": "to",
          "type": "address"
        },
        {
          "internalType": "uint256",
          "name": "tokenId",
          "type": "uint256"
        }
      ],
      "name": "approve",
      "outputs": [],
      "stateMutability": "nonpayable",
      "type": "function"
    },
    {
      "inputs": [
        {
          "internalType": "address",
          "name": "owner",
          "type": "address"
        }
      ],
      "name": "balanceOf",
      "outputs": [
        {
          "internalType": "uint256",
          "name": "",
          "type": "uint256"
        }
      ],
      "stateMutability": "view",
      "type": "function"
    },
    {
      "inputs": [],
      "name": "collectionName",
      "outputs": [
        {
          "internalType": "string",
          "name": "",
          "type": "string"
        }
      ],
      "stateMutability": "view",
      "type": "function"
    },
    {
      "inputs": [],
      "name": "collectionSymbol",
      "outputs": [
        {
          "internalType": "string",
          "name": "",
          "type": "string"
        }
      ],
      "stateMutability": "view",
      "type": "function"
    },
    {
      "inputs": [
        {
          "internalType": "address",
          "name": "invitedPerson",
          "type": "address"
        },
        {
          "internalType": "uint256",
          "name": "rewardBoxIndex",
          "type": "uint256"
        }
      ],
      "name": "createDefincubatorNFT",
      "outputs": [
        {
          "internalType": "uint256",
          "name": "",
          "type": "uint256"
        }
      ],
      "stateMutability": "nonpayable",
      "type": "function"
    },
    {
      "inputs": [
        {
          "internalType": "uint256",
          "name": "tokenId",
          "type": "uint256"
        }
      ],
      "name": "getApproved",
      "outputs": [
        {
          "internalType": "address",
          "name": "",
          "type": "address"
        }
      ],
      "stateMutability": "view",
      "type": "function"
    },
    {
      "inputs": [],
      "name": "getPinataURL",
      "outputs": [
        {
          "internalType": "string",
          "name": "",
          "type": "string"
        }
      ],
      "stateMutability": "view",
      "type": "function"
    },
    {
      "inputs": [
        {
          "internalType": "address",
          "name": "owner",
          "type": "address"
        },
        {
          "internalType": "address",
          "name": "operator",
          "type": "address"
        }
      ],
      "name": "isApprovedForAll",
      "outputs": [
        {
          "internalType": "bool",
          "name": "",
          "type": "bool"
        }
      ],
      "stateMutability": "view",
      "type": "function"
    },
    {
      "inputs": [],
      "name": "name",
      "outputs": [
        {
          "internalType": "string",
          "name": "",
          "type": "string"
        }
      ],
      "stateMutability": "view",
      "type": "function"
    },
    {
      "inputs": [
        {
          "internalType": "address",
          "name": "owner",
          "type": "address"
        }
      ],
      "name": "ownedTokens",
      "outputs": [
        {
          "internalType": "string[]",
          "name": "",
          "type": "string[]"
        }
      ],
      "stateMutability": "view",
      "type": "function"
    },
    {
      "inputs": [],
      "name": "owner",
      "outputs": [
        {
          "internalType": "address",
          "name": "",
          "type": "address"
        }
      ],
      "stateMutability": "view",
      "type": "function"
    },
    {
      "inputs": [
        {
          "internalType": "uint256",
          "name": "tokenId",
          "type": "uint256"
        }
      ],
      "name": "ownerOf",
      "outputs": [
        {
          "internalType": "address",
          "name": "",
          "type": "address"
        }
      ],
      "stateMutability": "view",
      "type": "function"
    },
    {
      "inputs": [],
      "name": "renounceOwnership",
      "outputs": [],
      "stateMutability": "nonpayable",
      "type": "function"
    },
    {
      "inputs": [
        {
          "internalType": "address",
          "name": "from",
          "type": "address"
        },
        {
          "internalType": "address",
          "name": "to",
          "type": "address"
        },
        {
          "internalType": "uint256",
          "name": "tokenId",
          "type": "uint256"
        }
      ],
      "name": "safeTransferFrom",
      "outputs": [],
      "stateMutability": "nonpayable",
      "type": "function"
    },
    {
      "inputs": [
        {
          "internalType": "address",
          "name": "from",
          "type": "address"
        },
        {
          "internalType": "address",
          "name": "to",
          "type": "address"
        },
        {
          "internalType": "uint256",
          "name": "tokenId",
          "type": "uint256"
        },
        {
          "internalType": "bytes",
          "name": "data",
          "type": "bytes"
        }
      ],
      "name": "safeTransferFrom",
      "outputs": [],
      "stateMutability": "nonpayable",
      "type": "function"
    },
    {
      "inputs": [
        {
          "internalType": "address",
          "name": "operator",
          "type": "address"
        },
        {
          "internalType": "bool",
          "name": "approved",
          "type": "bool"
        }
      ],
      "name": "setApprovalForAll",
      "outputs": [],
      "stateMutability": "nonpayable",
      "type": "function"
    },
    {
      "inputs": [
        {
          "internalType": "string",
          "name": "_pinataURL",
          "type": "string"
        }
      ],
      "name": "setPinataURL",
      "outputs": [],
      "stateMutability": "nonpayable",
      "type": "function"
    },
    {
      "inputs": [
        {
          "internalType": "bytes4",
          "name": "interfaceId",
          "type": "bytes4"
        }
      ],
      "name": "supportsInterface",
      "outputs": [
        {
          "internalType": "bool",
          "name": "",
          "type": "bool"
        }
      ],
      "stateMutability": "view",
      "type": "function"
    },
    {
      "inputs": [],
      "name": "symbol",
      "outputs": [
        {
          "internalType": "string",
          "name": "",
          "type": "string"
        }
      ],
      "stateMutability": "view",
      "type": "function"
    },
    {
      "inputs": [
        {
          "internalType": "address",
          "name": "from",
          "type": "address"
        },
        {
          "internalType": "address",
          "name": "to",
          "type": "address"
        }
      ],
      "name": "tokenTransfer",
      "outputs": [],
      "stateMutability": "nonpayable",
      "type": "function"
    },
    {
      "inputs": [
        {
          "internalType": "uint256",
          "name": "tokenId",
          "type": "uint256"
        }
      ],
      "name": "tokenURI",
      "outputs": [
        {
          "internalType": "string",
          "name": "",
          "type": "string"
        }
      ],
      "stateMutability": "view",
      "type": "function"
    },
    {
      "inputs": [
        {
          "internalType": "address",
          "name": "from",
          "type": "address"
        },
        {
          "internalType": "address",
          "name": "to",
          "type": "address"
        },
        {
          "internalType": "uint256",
          "name": "tokenId",
          "type": "uint256"
        }
      ],
      "name": "transferFrom",
      "outputs": [],
      "stateMutability": "nonpayable",
      "type": "function"
    },
    {
      "inputs": [
        {
          "internalType": "address",
          "name": "newOwner",
          "type": "address"
        }
      ],
      "name": "transferOwnership",
      "outputs": [],
      "stateMutability": "nonpayable",
      "type": "function"
    }
  ],
  "bytecode": "0x60806040526040518060800160405280605181526020016200443060519139600990816200002e919062000660565b503480156200003c57600080fd5b506040516200448138038062004481833981810160405281019062000062919062000941565b8484816000908162000075919062000660565b50806001908162000087919062000660565b505050620000aa6200009e620001e460201b60201c565b620001ec60201b60201c565b620000ba620002b260201b60201c565b600a9081620000ca919062000660565b50620000db6200034c60201b60201c565b600b9081620000eb919062000660565b5082600c81905550816009908162000104919062000660565b5080600d60006101000a81548173ffffffffffffffffffffffffffffffffffffffff021916908373ffffffffffffffffffffffffffffffffffffffff160217905550600d60009054906101000a900473ffffffffffffffffffffffffffffffffffffffff1673ffffffffffffffffffffffffffffffffffffffff1663760917af600c546040518263ffffffff1660e01b8152600401620001a5919062000a37565b600060405180830381600087803b158015620001c057600080fd5b505af1158015620001d5573d6000803e3d6000fd5b50505050505050505062000a54565b600033905090565b6000600760009054906101000a900473ffffffffffffffffffffffffffffffffffffffff16905081600760006101000a81548173ffffffffffffffffffffffffffffffffffffffff021916908373ffffffffffffffffffffffffffffffffffffffff1602179055508173ffffffffffffffffffffffffffffffffffffffff168173ffffffffffffffffffffffffffffffffffffffff167f8be0079c531659141344cd1fd0a4f28419497f9722a3daafe3b4186f6b6457e060405160405180910390a35050565b606060008054620002c3906200044f565b80601f0160208091040260200160405190810160405280929190818152602001828054620002f1906200044f565b8015620003425780601f10620003165761010080835404028352916020019162000342565b820191906000526020600020905b8154815290600101906020018083116200032457829003601f168201915b5050505050905090565b6060600180546200035d906200044f565b80601f01602080910402602001604051908101604052809291908181526020018280546200038b906200044f565b8015620003dc5780601f10620003b057610100808354040283529160200191620003dc565b820191906000526020600020905b815481529060010190602001808311620003be57829003601f168201915b5050505050905090565b600081519050919050565b7f4e487b7100000000000000000000000000000000000000000000000000000000600052604160045260246000fd5b7f4e487b7100000000000000000000000000000000000000000000000000000000600052602260045260246000fd5b600060028204905060018216806200046857607f821691505b6020821081036200047e576200047d62000420565b5b50919050565b60008190508160005260206000209050919050565b60006020601f8301049050919050565b600082821b905092915050565b600060088302620004e87fffffffffffffffffffffffffffffffffffffffffffffffffffffffffffffffff82620004a9565b620004f48683620004a9565b95508019841693508086168417925050509392505050565b6000819050919050565b6000819050919050565b6000620005416200053b62000535846200050c565b62000516565b6200050c565b9050919050565b6000819050919050565b6200055d8362000520565b620005756200056c8262000548565b848454620004b6565b825550505050565b600090565b6200058c6200057d565b6200059981848462000552565b505050565b5b81811015620005c157620005b560008262000582565b6001810190506200059f565b5050565b601f8211156200061057620005da8162000484565b620005e58462000499565b81016020851015620005f5578190505b6200060d620006048562000499565b8301826200059e565b50505b505050565b600082821c905092915050565b6000620006356000198460080262000615565b1980831691505092915050565b600062000650838362000622565b9150826002028217905092915050565b6200066b82620003e6565b67ffffffffffffffff811115620006875762000686620003f1565b5b6200069382546200044f565b620006a0828285620005c5565b600060209050601f831160018114620006d85760008415620006c3578287015190505b620006cf858262000642565b8655506200073f565b601f198416620006e88662000484565b60005b828110156200071257848901518255600182019150602085019450602081019050620006eb565b868310156200073257848901516200072e601f89168262000622565b8355505b6001600288020188555050505b505050505050565b6000604051905090565b600080fd5b600080fd5b600080fd5b600080fd5b6000601f19601f8301169050919050565b620007818262000765565b810181811067ffffffffffffffff82111715620007a357620007a2620003f1565b5b80604052505050565b6000620007b862000747565b9050620007c6828262000776565b919050565b600067ffffffffffffffff821115620007e957620007e8620003f1565b5b620007f48262000765565b9050602081019050919050565b60005b838110156200082157808201518184015260208101905062000804565b60008484015250505050565b6000620008446200083e84620007cb565b620007ac565b90508281526020810184848401111562000863576200086262000760565b5b6200087084828562000801565b509392505050565b600082601f83011262000890576200088f6200075b565b5b8151620008a28482602086016200082d565b91505092915050565b620008b6816200050c565b8114620008c257600080fd5b50565b600081519050620008d681620008ab565b92915050565b600073ffffffffffffffffffffffffffffffffffffffff82169050919050565b60006200090982620008dc565b9050919050565b6200091b81620008fc565b81146200092757600080fd5b50565b6000815190506200093b8162000910565b92915050565b600080600080600060a0868803121562000960576200095f62000751565b5b600086015167ffffffffffffffff81111562000981576200098062000756565b5b6200098f8882890162000878565b955050602086015167ffffffffffffffff811115620009b357620009b262000756565b5b620009c18882890162000878565b9450506040620009d488828901620008c5565b935050606086015167ffffffffffffffff811115620009f857620009f762000756565b5b62000a068882890162000878565b925050608062000a19888289016200092a565b9150509295509295909350565b62000a31816200050c565b82525050565b600060208201905062000a4e600083018462000a26565b92915050565b6139cc8062000a646000396000f3fe608060405234801561001057600080fd5b50600436106101585760003560e01c806395d89b41116100c3578063b88d4fde1161007c578063b88d4fde146103c7578063c87b56dd146103e3578063e11a328e14610413578063e5326ab11461042f578063e985e9c51461044d578063f2fde38b1461047d57610158565b806395d89b41146102f3578063a22cb46514610311578063a661d64d1461032d578063b05cccd614610349578063b12ab40f14610379578063b168bb5b146103a957610158565b80632f39352a116101155780632f39352a1461023157806342842e0e1461024f5780636352211e1461026b57806370a082311461029b578063715018a6146102cb5780638da5cb5b146102d557610158565b806301ffc9a71461015d57806306fdde031461018d578063081812fc146101ab578063095ea7b3146101db57806323b872dd146101f75780632482251414610213575b600080fd5b6101776004803603810190610172919061237a565b610499565b60405161018491906123c2565b60405180910390f35b61019561057b565b6040516101a2919061246d565b60405180910390f35b6101c560048036038101906101c091906124c5565b61060d565b6040516101d29190612533565b60405180910390f35b6101f560048036038101906101f0919061257a565b610653565b005b610211600480360381019061020c91906125ba565b61076a565b005b61021b6107ca565b604051610228919061261c565b60405180910390f35b6102396107d6565b604051610246919061246d565b60405180910390f35b610269600480360381019061026491906125ba565b610864565b005b610285600480360381019061028091906124c5565b610884565b6040516102929190612533565b60405180910390f35b6102b560048036038101906102b09190612637565b61090a565b6040516102c2919061261c565b60405180910390f35b6102d36109c1565b005b6102dd6109d5565b6040516102ea9190612533565b60405180910390f35b6102fb6109ff565b604051610308919061246d565b60405180910390f35b61032b60048036038101906103269190612690565b610a91565b005b61034760048036038101906103429190612805565b610aa7565b005b610363600480360381019061035e919061257a565b610aba565b604051610370919061261c565b60405180910390f35b610393600480360381019061038e9190612637565b610bb7565b6040516103a0919061295a565b60405180910390f35b6103b1610ccc565b6040516103be919061246d565b60405180910390f35b6103e160048036038101906103dc9190612a1d565b610d5e565b005b6103fd60048036038101906103f891906124c5565b610dc0565b60405161040a919061246d565b60405180910390f35b61042d60048036038101906104289190612aa0565b610ed2565b005b61043761103e565b604051610444919061246d565b60405180910390f35b61046760048036038101906104629190612aa0565b6110cc565b60405161047491906123c2565b60405180910390f35b61049760048036038101906104929190612637565b611160565b005b60007f80ac58cd000000000000000000000000000000000000000000000000000000007bffffffffffffffffffffffffffffffffffffffffffffffffffffffff1916827bffffffffffffffffffffffffffffffffffffffffffffffffffffffff1916148061056457507f5b5e139f000000000000000000000000000000000000000000000000000000007bffffffffffffffffffffffffffffffffffffffffffffffffffffffff1916827bffffffffffffffffffffffffffffffffffffffffffffffffffffffff1916145b806105745750610573826111e3565b5b9050919050565b60606000805461058a90612b0f565b80601f01602080910402602001604051908101604052809291908181526020018280546105b690612b0f565b80156106035780601f106105d857610100808354040283529160200191610603565b820191906000526020600020905b8154815290600101906020018083116105e657829003601f168201915b5050505050905090565b60006106188261124d565b6004600083815260200190815260200160002060009054906101000a900473ffffffffffffffffffffffffffffffffffffffff169050919050565b600061065e82610884565b90508073ffffffffffffffffffffffffffffffffffffffff168373ffffffffffffffffffffffffffffffffffffffff16036106ce576040517f08c379a00000000000000000000000000000000000000000000000000000000081526004016106c590612bb2565b60405180910390fd5b8073ffffffffffffffffffffffffffffffffffffffff166106ed611298565b73ffffffffffffffffffffffffffffffffffffffff16148061071c575061071b81610716611298565b6110cc565b5b61075b576040517f08c379a000000000000000000000000000000000000000000000000000000000815260040161075290612c44565b60405180910390fd5b61076583836112a0565b505050565b61077b610775611298565b82611359565b6107ba576040517f08c379a00000000000000000000000000000000000000000000000000000000081526004016107b190612cd6565b60405180910390fd5b6107c58383836113ee565b505050565b60088060000154905081565b600b80546107e390612b0f565b80601f016020809104026020016040519081016040528092919081815260200182805461080f90612b0f565b801561085c5780601f106108315761010080835404028352916020019161085c565b820191906000526020600020905b81548152906001019060200180831161083f57829003601f168201915b505050505081565b61087f83838360405180602001604052806000815250610d5e565b505050565b600080610890836116e7565b9050600073ffffffffffffffffffffffffffffffffffffffff168173ffffffffffffffffffffffffffffffffffffffff1603610901576040517f08c379a00000000000000000000000000000000000000000000000000000000081526004016108f890612d42565b60405180910390fd5b80915050919050565b60008073ffffffffffffffffffffffffffffffffffffffff168273ffffffffffffffffffffffffffffffffffffffff160361097a576040517f08c379a000000000000000000000000000000000000000000000000000000000815260040161097190612dd4565b60405180910390fd5b600360008373ffffffffffffffffffffffffffffffffffffffff1673ffffffffffffffffffffffffffffffffffffffff168152602001908152602001600020549050919050565b6109c9611724565b6109d360006117a2565b565b6000600760009054906101000a900473ffffffffffffffffffffffffffffffffffffffff16905090565b606060018054610a0e90612b0f565b80601f0160208091040260200160405190810160405280929190818152602001828054610a3a90612b0f565b8015610a875780601f10610a5c57610100808354040283529160200191610a87565b820191906000526020600020905b815481529060010190602001808311610a6a57829003601f168201915b5050505050905090565b610aa3610a9c611298565b8383611868565b5050565b8060099081610ab69190612fa0565b5050565b6000600d60009054906101000a900473ffffffffffffffffffffffffffffffffffffffff1673ffffffffffffffffffffffffffffffffffffffff1663b0456c0a600c548433876040518563ffffffff1660e01b8152600401610b1f9493929190613072565b600060405180830381600087803b158015610b3957600080fd5b505af1158015610b4d573d6000803e3d6000fd5b50505050610b5b60086119d4565b6000610b6760086119ea565b905060006009610b76836119f8565b604051602001610b879291906131c2565b6040516020818303038152906040529050610ba23383611ac6565b610bac8282611ae4565b819250505092915050565b60606000610bc48361090a565b67ffffffffffffffff811115610bdd57610bdc6126da565b5b604051908082528060200260200182016040528015610c1057816020015b6060815260200190600190039081610bfb5790505b509050600080610c1f8561090a565b1115610cc2576000600190505b610c3660086119ea565b8111610cc0578473ffffffffffffffffffffffffffffffffffffffff16610c5c82610884565b73ffffffffffffffffffffffffffffffffffffffff1603610c9f57610c8081610dc0565b838381518110610c9357610c926131f1565b5b60200260200101819052505b8180610caa9061324f565b9250508080610cb89061324f565b915050610c2c565b505b8192505050919050565b606060098054610cdb90612b0f565b80601f0160208091040260200160405190810160405280929190818152602001828054610d0790612b0f565b8015610d545780601f10610d2957610100808354040283529160200191610d54565b820191906000526020600020905b815481529060010190602001808311610d3757829003601f168201915b5050505050905090565b610d6f610d69611298565b83611359565b610dae576040517f08c379a0000000000000000000000000000000000000000000000000000000008152600401610da590612cd6565b60405180910390fd5b610dba84848484611b51565b50505050565b6060610dcb8261124d565b6000600660008481526020019081526020016000208054610deb90612b0f565b80601f0160208091040260200160405190810160405280929190818152602001828054610e1790612b0f565b8015610e645780601f10610e3957610100808354040283529160200191610e64565b820191906000526020600020905b815481529060010190602001808311610e4757829003601f168201915b505050505090506000610e75611bad565b90506000815103610e8a578192505050610ecd565b600082511115610ebf578082604051602001610ea7929190613297565b60405160208183030381529060405292505050610ecd565b610ec884611bc4565b925050505b919050565b60011515600d60009054906101000a900473ffffffffffffffffffffffffffffffffffffffff1673ffffffffffffffffffffffffffffffffffffffff16635bbd104884846040518363ffffffff1660e01b8152600401610f339291906132bb565b602060405180830381865afa158015610f50573d6000803e3d6000fd5b505050506040513d601f19601f82011682018060405250810190610f7491906132f9565b151514610fb6576040517f08c379a0000000000000000000000000000000000000000000000000000000008152600401610fad90613372565b60405180910390fd5b6000610fc18361090a565b111561103a576000600190505b610fd860086119ea565b8111611038578273ffffffffffffffffffffffffffffffffffffffff16610ffe82610884565b73ffffffffffffffffffffffffffffffffffffffff1603611025576110248383836113ee565b5b80806110309061324f565b915050610fce565b505b5050565b600a805461104b90612b0f565b80601f016020809104026020016040519081016040528092919081815260200182805461107790612b0f565b80156110c45780601f10611099576101008083540402835291602001916110c4565b820191906000526020600020905b8154815290600101906020018083116110a757829003601f168201915b505050505081565b6000600560008473ffffffffffffffffffffffffffffffffffffffff1673ffffffffffffffffffffffffffffffffffffffff16815260200190815260200160002060008373ffffffffffffffffffffffffffffffffffffffff1673ffffffffffffffffffffffffffffffffffffffff16815260200190815260200160002060009054906101000a900460ff16905092915050565b611168611724565b600073ffffffffffffffffffffffffffffffffffffffff168173ffffffffffffffffffffffffffffffffffffffff16036111d7576040517f08c379a00000000000000000000000000000000000000000000000000000000081526004016111ce90613404565b60405180910390fd5b6111e0816117a2565b50565b60007f01ffc9a7000000000000000000000000000000000000000000000000000000007bffffffffffffffffffffffffffffffffffffffffffffffffffffffff1916827bffffffffffffffffffffffffffffffffffffffffffffffffffffffff1916149050919050565b61125681611c2c565b611295576040517f08c379a000000000000000000000000000000000000000000000000000000000815260040161128c90612d42565b60405180910390fd5b50565b600033905090565b816004600083815260200190815260200160002060006101000a81548173ffffffffffffffffffffffffffffffffffffffff021916908373ffffffffffffffffffffffffffffffffffffffff160217905550808273ffffffffffffffffffffffffffffffffffffffff1661131383610884565b73ffffffffffffffffffffffffffffffffffffffff167f8c5be1e5ebec7d5bd14f71427d1e84f3dd0314c0f7b2291e5b200ac8c7c3b92560405160405180910390a45050565b60008061136583610884565b90508073ffffffffffffffffffffffffffffffffffffffff168473ffffffffffffffffffffffffffffffffffffffff1614806113a757506113a681856110cc565b5b806113e557508373ffffffffffffffffffffffffffffffffffffffff166113cd8461060d565b73ffffffffffffffffffffffffffffffffffffffff16145b91505092915050565b8273ffffffffffffffffffffffffffffffffffffffff1661140e82610884565b73ffffffffffffffffffffffffffffffffffffffff1614611464576040517f08c379a000000000000000000000000000000000000000000000000000000000815260040161145b90613496565b60405180910390fd5b600073ffffffffffffffffffffffffffffffffffffffff168273ffffffffffffffffffffffffffffffffffffffff16036114d3576040517f08c379a00000000000000000000000000000000000000000000000000000000081526004016114ca90613528565b60405180910390fd5b6114e08383836001611c6d565b8273ffffffffffffffffffffffffffffffffffffffff1661150082610884565b73ffffffffffffffffffffffffffffffffffffffff1614611556576040517f08c379a000000000000000000000000000000000000000000000000000000000815260040161154d90613496565b60405180910390fd5b6004600082815260200190815260200160002060006101000a81549073ffffffffffffffffffffffffffffffffffffffff02191690556001600360008573ffffffffffffffffffffffffffffffffffffffff1673ffffffffffffffffffffffffffffffffffffffff168152602001908152602001600020600082825403925050819055506001600360008473ffffffffffffffffffffffffffffffffffffffff1673ffffffffffffffffffffffffffffffffffffffff16815260200190815260200160002060008282540192505081905550816002600083815260200190815260200160002060006101000a81548173ffffffffffffffffffffffffffffffffffffffff021916908373ffffffffffffffffffffffffffffffffffffffff160217905550808273ffffffffffffffffffffffffffffffffffffffff168473ffffffffffffffffffffffffffffffffffffffff167fddf252ad1be2c89b69c2b068fc378daa952ba7f163c4a11628f55a4df523b3ef60405160405180910390a46116e28383836001611d93565b505050565b60006002600083815260200190815260200160002060009054906101000a900473ffffffffffffffffffffffffffffffffffffffff169050919050565b61172c611298565b73ffffffffffffffffffffffffffffffffffffffff1661174a6109d5565b73ffffffffffffffffffffffffffffffffffffffff16146117a0576040517f08c379a000000000000000000000000000000000000000000000000000000000815260040161179790613594565b60405180910390fd5b565b6000600760009054906101000a900473ffffffffffffffffffffffffffffffffffffffff16905081600760006101000a81548173ffffffffffffffffffffffffffffffffffffffff021916908373ffffffffffffffffffffffffffffffffffffffff1602179055508173ffffffffffffffffffffffffffffffffffffffff168173ffffffffffffffffffffffffffffffffffffffff167f8be0079c531659141344cd1fd0a4f28419497f9722a3daafe3b4186f6b6457e060405160405180910390a35050565b8173ffffffffffffffffffffffffffffffffffffffff168373ffffffffffffffffffffffffffffffffffffffff16036118d6576040517f08c379a00000000000000000000000000000000000000000000000000000000081526004016118cd90613600565b60405180910390fd5b80600560008573ffffffffffffffffffffffffffffffffffffffff1673ffffffffffffffffffffffffffffffffffffffff16815260200190815260200160002060008473ffffffffffffffffffffffffffffffffffffffff1673ffffffffffffffffffffffffffffffffffffffff16815260200190815260200160002060006101000a81548160ff0219169083151502179055508173ffffffffffffffffffffffffffffffffffffffff168373ffffffffffffffffffffffffffffffffffffffff167f17307eab39ab6107e8899845ad3d59bd9653f200f220920489ca2b5937696c31836040516119c791906123c2565b60405180910390a3505050565b6001816000016000828254019250508190555050565b600081600001549050919050565b606060006001611a0784611d99565b01905060008167ffffffffffffffff811115611a2657611a256126da565b5b6040519080825280601f01601f191660200182016040528015611a585781602001600182028036833780820191505090505b509050600082602001820190505b600115611abb578080600190039150507f3031323334353637383961626364656600000000000000000000000000000000600a86061a8153600a8581611aaf57611aae613620565b5b04945060008503611a66575b819350505050919050565b611ae0828260405180602001604052806000815250611eec565b5050565b611aed82611c2c565b611b2c576040517f08c379a0000000000000000000000000000000000000000000000000000000008152600401611b23906136c1565b60405180910390fd5b80600660008481526020019081526020016000209081611b4c9190612fa0565b505050565b611b5c8484846113ee565b611b6884848484611f47565b611ba7576040517f08c379a0000000000000000000000000000000000000000000000000000000008152600401611b9e90613753565b60405180910390fd5b50505050565b606060405180602001604052806000815250905090565b6060611bcf8261124d565b6000611bd9611bad565b90506000815111611bf95760405180602001604052806000815250611c24565b80611c03846119f8565b604051602001611c14929190613297565b6040516020818303038152906040525b915050919050565b60008073ffffffffffffffffffffffffffffffffffffffff16611c4e836116e7565b73ffffffffffffffffffffffffffffffffffffffff1614159050919050565b6001811115611d8d57600073ffffffffffffffffffffffffffffffffffffffff168473ffffffffffffffffffffffffffffffffffffffff1614611d015780600360008673ffffffffffffffffffffffffffffffffffffffff1673ffffffffffffffffffffffffffffffffffffffff1681526020019081526020016000206000828254611cf99190613773565b925050819055505b600073ffffffffffffffffffffffffffffffffffffffff168373ffffffffffffffffffffffffffffffffffffffff1614611d8c5780600360008573ffffffffffffffffffffffffffffffffffffffff1673ffffffffffffffffffffffffffffffffffffffff1681526020019081526020016000206000828254611d8491906137a7565b925050819055505b5b50505050565b50505050565b600080600090507a184f03e93ff9f4daa797ed6e38ed64bf6a1f0100000000000000008310611df7577a184f03e93ff9f4daa797ed6e38ed64bf6a1f0100000000000000008381611ded57611dec613620565b5b0492506040810190505b6d04ee2d6d415b85acef81000000008310611e34576d04ee2d6d415b85acef81000000008381611e2a57611e29613620565b5b0492506020810190505b662386f26fc100008310611e6357662386f26fc100008381611e5957611e58613620565b5b0492506010810190505b6305f5e1008310611e8c576305f5e1008381611e8257611e81613620565b5b0492506008810190505b6127108310611eb1576127108381611ea757611ea6613620565b5b0492506004810190505b60648310611ed45760648381611eca57611ec9613620565b5b0492506002810190505b600a8310611ee3576001810190505b80915050919050565b611ef683836120ce565b611f036000848484611f47565b611f42576040517f08c379a0000000000000000000000000000000000000000000000000000000008152600401611f3990613753565b60405180910390fd5b505050565b6000611f688473ffffffffffffffffffffffffffffffffffffffff166122eb565b156120c1578373ffffffffffffffffffffffffffffffffffffffff1663150b7a02611f91611298565b8786866040518563ffffffff1660e01b8152600401611fb39493929190613830565b6020604051808303816000875af1925050508015611fef57506040513d601f19601f82011682018060405250810190611fec9190613891565b60015b612071573d806000811461201f576040519150601f19603f3d011682016040523d82523d6000602084013e612024565b606091505b506000815103612069576040517f08c379a000000000000000000000000000000000000000000000000000000000815260040161206090613753565b60405180910390fd5b805181602001fd5b63150b7a0260e01b7bffffffffffffffffffffffffffffffffffffffffffffffffffffffff1916817bffffffffffffffffffffffffffffffffffffffffffffffffffffffff1916149150506120c6565b600190505b949350505050565b600073ffffffffffffffffffffffffffffffffffffffff168273ffffffffffffffffffffffffffffffffffffffff160361213d576040517f08c379a00000000000000000000000000000000000000000000000000000000081526004016121349061390a565b60405180910390fd5b61214681611c2c565b15612186576040517f08c379a000000000000000000000000000000000000000000000000000000000815260040161217d90613976565b60405180910390fd5b612194600083836001611c6d565b61219d81611c2c565b156121dd576040517f08c379a00000000000000000000000000000000000000000000000000000000081526004016121d490613976565b60405180910390fd5b6001600360008473ffffffffffffffffffffffffffffffffffffffff1673ffffffffffffffffffffffffffffffffffffffff16815260200190815260200160002060008282540192505081905550816002600083815260200190815260200160002060006101000a81548173ffffffffffffffffffffffffffffffffffffffff021916908373ffffffffffffffffffffffffffffffffffffffff160217905550808273ffffffffffffffffffffffffffffffffffffffff16600073ffffffffffffffffffffffffffffffffffffffff167fddf252ad1be2c89b69c2b068fc378daa952ba7f163c4a11628f55a4df523b3ef60405160405180910390a46122e7600083836001611d93565b5050565b6000808273ffffffffffffffffffffffffffffffffffffffff163b119050919050565b6000604051905090565b600080fd5b600080fd5b60007fffffffff0000000000000000000000000000000000000000000000000000000082169050919050565b61235781612322565b811461236257600080fd5b50565b6000813590506123748161234e565b92915050565b6000602082840312156123905761238f612318565b5b600061239e84828501612365565b91505092915050565b60008115159050919050565b6123bc816123a7565b82525050565b60006020820190506123d760008301846123b3565b92915050565b600081519050919050565b600082825260208201905092915050565b60005b838110156124175780820151818401526020810190506123fc565b60008484015250505050565b6000601f19601f8301169050919050565b600061243f826123dd565b61244981856123e8565b93506124598185602086016123f9565b61246281612423565b840191505092915050565b600060208201905081810360008301526124878184612434565b905092915050565b6000819050919050565b6124a28161248f565b81146124ad57600080fd5b50565b6000813590506124bf81612499565b92915050565b6000602082840312156124db576124da612318565b5b60006124e9848285016124b0565b91505092915050565b600073ffffffffffffffffffffffffffffffffffffffff82169050919050565b600061251d826124f2565b9050919050565b61252d81612512565b82525050565b60006020820190506125486000830184612524565b92915050565b61255781612512565b811461256257600080fd5b50565b6000813590506125748161254e565b92915050565b6000806040838503121561259157612590612318565b5b600061259f85828601612565565b92505060206125b0858286016124b0565b9150509250929050565b6000806000606084860312156125d3576125d2612318565b5b60006125e186828701612565565b93505060206125f286828701612565565b9250506040612603868287016124b0565b9150509250925092565b6126168161248f565b82525050565b6000602082019050612631600083018461260d565b92915050565b60006020828403121561264d5761264c612318565b5b600061265b84828501612565565b91505092915050565b61266d816123a7565b811461267857600080fd5b50565b60008135905061268a81612664565b92915050565b600080604083850312156126a7576126a6612318565b5b60006126b585828601612565565b92505060206126c68582860161267b565b9150509250929050565b600080fd5b600080fd5b7f4e487b7100000000000000000000000000000000000000000000000000000000600052604160045260246000fd5b61271282612423565b810181811067ffffffffffffffff82111715612731576127306126da565b5b80604052505050565b600061274461230e565b90506127508282612709565b919050565b600067ffffffffffffffff8211156127705761276f6126da565b5b61277982612423565b9050602081019050919050565b82818337600083830152505050565b60006127a86127a384612755565b61273a565b9050828152602081018484840111156127c4576127c36126d5565b5b6127cf848285612786565b509392505050565b600082601f8301126127ec576127eb6126d0565b5b81356127fc848260208601612795565b91505092915050565b60006020828403121561281b5761281a612318565b5b600082013567ffffffffffffffff8111156128395761283861231d565b5b612845848285016127d7565b91505092915050565b600081519050919050565b600082825260208201905092915050565b6000819050602082019050919050565b600082825260208201905092915050565b6000612896826123dd565b6128a0818561287a565b93506128b08185602086016123f9565b6128b981612423565b840191505092915050565b60006128d0838361288b565b905092915050565b6000602082019050919050565b60006128f08261284e565b6128fa8185612859565b93508360208202850161290c8561286a565b8060005b85811015612948578484038952815161292985826128c4565b9450612934836128d8565b925060208a01995050600181019050612910565b50829750879550505050505092915050565b6000602082019050818103600083015261297481846128e5565b905092915050565b600067ffffffffffffffff821115612997576129966126da565b5b6129a082612423565b9050602081019050919050565b60006129c06129bb8461297c565b61273a565b9050828152602081018484840111156129dc576129db6126d5565b5b6129e7848285612786565b509392505050565b600082601f830112612a0457612a036126d0565b5b8135612a148482602086016129ad565b91505092915050565b60008060008060808587031215612a3757612a36612318565b5b6000612a4587828801612565565b9450506020612a5687828801612565565b9350506040612a67878288016124b0565b925050606085013567ffffffffffffffff811115612a8857612a8761231d565b5b612a94878288016129ef565b91505092959194509250565b60008060408385031215612ab757612ab6612318565b5b6000612ac585828601612565565b9250506020612ad685828601612565565b9150509250929050565b7f4e487b7100000000000000000000000000000000000000000000000000000000600052602260045260246000fd5b60006002820490506001821680612b2757607f821691505b602082108103612b3a57612b39612ae0565b5b50919050565b7f4552433732313a20617070726f76616c20746f2063757272656e74206f776e6560008201527f7200000000000000000000000000000000000000000000000000000000000000602082015250565b6000612b9c6021836123e8565b9150612ba782612b40565b604082019050919050565b60006020820190508181036000830152612bcb81612b8f565b9050919050565b7f4552433732313a20617070726f76652063616c6c6572206973206e6f7420746f60008201527f6b656e206f776e6572206f7220617070726f76656420666f7220616c6c000000602082015250565b6000612c2e603d836123e8565b9150612c3982612bd2565b604082019050919050565b60006020820190508181036000830152612c5d81612c21565b9050919050565b7f4552433732313a2063616c6c6572206973206e6f7420746f6b656e206f776e6560008201527f72206f7220617070726f76656400000000000000000000000000000000000000602082015250565b6000612cc0602d836123e8565b9150612ccb82612c64565b604082019050919050565b60006020820190508181036000830152612cef81612cb3565b9050919050565b7f4552433732313a20696e76616c696420746f6b656e2049440000000000000000600082015250565b6000612d2c6018836123e8565b9150612d3782612cf6565b602082019050919050565b60006020820190508181036000830152612d5b81612d1f565b9050919050565b7f4552433732313a2061646472657373207a65726f206973206e6f74206120766160008201527f6c6964206f776e65720000000000000000000000000000000000000000000000602082015250565b6000612dbe6029836123e8565b9150612dc982612d62565b604082019050919050565b60006020820190508181036000830152612ded81612db1565b9050919050565b60008190508160005260206000209050919050565b60006020601f8301049050919050565b600082821b905092915050565b600060088302612e567fffffffffffffffffffffffffffffffffffffffffffffffffffffffffffffffff82612e19565b612e608683612e19565b95508019841693508086168417925050509392505050565b6000819050919050565b6000612e9d612e98612e938461248f565b612e78565b61248f565b9050919050565b6000819050919050565b612eb783612e82565b612ecb612ec382612ea4565b848454612e26565b825550505050565b600090565b612ee0612ed3565b612eeb818484612eae565b505050565b5b81811015612f0f57612f04600082612ed8565b600181019050612ef1565b5050565b601f821115612f5457612f2581612df4565b612f2e84612e09565b81016020851015612f3d578190505b612f51612f4985612e09565b830182612ef0565b50505b505050565b600082821c905092915050565b6000612f7760001984600802612f59565b1980831691505092915050565b6000612f908383612f66565b9150826002028217905092915050565b612fa9826123dd565b67ffffffffffffffff811115612fc257612fc16126da565b5b612fcc8254612b0f565b612fd7828285612f13565b600060209050601f83116001811461300a5760008415612ff8578287015190505b6130028582612f84565b86555061306a565b601f19841661301886612df4565b60005b828110156130405784890151825560018201915060208501945060208101905061301b565b8683101561305d5784890151613059601f891682612f66565b8355505b6001600288020188555050505b505050505050565b6000608082019050613087600083018761260d565b613094602083018661260d565b6130a16040830185612524565b6130ae6060830184612524565b95945050505050565b600081905092915050565b600081546130cf81612b0f565b6130d981866130b7565b945060018216600081146130f457600181146131095761313c565b60ff198316865281151582028601935061313c565b61311285612df4565b60005b8381101561313457815481890152600182019150602081019050613115565b838801955050505b50505092915050565b6000613150826123dd565b61315a81856130b7565b935061316a8185602086016123f9565b80840191505092915050565b7f2e6a736f6e000000000000000000000000000000000000000000000000000000600082015250565b60006131ac6005836130b7565b91506131b782613176565b600582019050919050565b60006131ce82856130c2565b91506131da8284613145565b91506131e58261319f565b91508190509392505050565b7f4e487b7100000000000000000000000000000000000000000000000000000000600052603260045260246000fd5b7f4e487b7100000000000000000000000000000000000000000000000000000000600052601160045260246000fd5b600061325a8261248f565b91507fffffffffffffffffffffffffffffffffffffffffffffffffffffffffffffffff820361328c5761328b613220565b5b600182019050919050565b60006132a38285613145565b91506132af8284613145565b91508190509392505050565b60006040820190506132d06000830185612524565b6132dd6020830184612524565b9392505050565b6000815190506132f381612664565b92915050565b60006020828403121561330f5761330e612318565b5b600061331d848285016132e4565b91505092915050565b7f596f752073686f756c6420617070726f76652061742066697273742074696d65600082015250565b600061335c6020836123e8565b915061336782613326565b602082019050919050565b6000602082019050818103600083015261338b8161334f565b9050919050565b7f4f776e61626c653a206e6577206f776e657220697320746865207a65726f206160008201527f6464726573730000000000000000000000000000000000000000000000000000602082015250565b60006133ee6026836123e8565b91506133f982613392565b604082019050919050565b6000602082019050818103600083015261341d816133e1565b9050919050565b7f4552433732313a207472616e736665722066726f6d20696e636f72726563742060008201527f6f776e6572000000000000000000000000000000000000000000000000000000602082015250565b60006134806025836123e8565b915061348b82613424565b604082019050919050565b600060208201905081810360008301526134af81613473565b9050919050565b7f4552433732313a207472616e7366657220746f20746865207a65726f2061646460008201527f7265737300000000000000000000000000000000000000000000000000000000602082015250565b60006135126024836123e8565b915061351d826134b6565b604082019050919050565b6000602082019050818103600083015261354181613505565b9050919050565b7f4f776e61626c653a2063616c6c6572206973206e6f7420746865206f776e6572600082015250565b600061357e6020836123e8565b915061358982613548565b602082019050919050565b600060208201905081810360008301526135ad81613571565b9050919050565b7f4552433732313a20617070726f766520746f2063616c6c657200000000000000600082015250565b60006135ea6019836123e8565b91506135f5826135b4565b602082019050919050565b60006020820190508181036000830152613619816135dd565b9050919050565b7f4e487b7100000000000000000000000000000000000000000000000000000000600052601260045260246000fd5b7f45524337323155524953746f726167653a2055524920736574206f66206e6f6e60008201527f6578697374656e7420746f6b656e000000000000000000000000000000000000602082015250565b60006136ab602e836123e8565b91506136b68261364f565b604082019050919050565b600060208201905081810360008301526136da8161369e565b9050919050565b7f4552433732313a207472616e7366657220746f206e6f6e20455243373231526560008201527f63656976657220696d706c656d656e7465720000000000000000000000000000602082015250565b600061373d6032836123e8565b9150613748826136e1565b604082019050919050565b6000602082019050818103600083015261376c81613730565b9050919050565b600061377e8261248f565b91506137898361248f565b92508282039050818111156137a1576137a0613220565b5b92915050565b60006137b28261248f565b91506137bd8361248f565b92508282019050808211156137d5576137d4613220565b5b92915050565b600081519050919050565b600082825260208201905092915050565b6000613802826137db565b61380c81856137e6565b935061381c8185602086016123f9565b61382581612423565b840191505092915050565b60006080820190506138456000830187612524565b6138526020830186612524565b61385f604083018561260d565b818103606083015261387181846137f7565b905095945050505050565b60008151905061388b8161234e565b92915050565b6000602082840312156138a7576138a6612318565b5b60006138b58482850161387c565b91505092915050565b7f4552433732313a206d696e7420746f20746865207a65726f2061646472657373600082015250565b60006138f46020836123e8565b91506138ff826138be565b602082019050919050565b60006020820190508181036000830152613923816138e7565b9050919050565b7f4552433732313a20746f6b656e20616c7265616479206d696e74656400000000600082015250565b6000613960601c836123e8565b915061396b8261392a565b602082019050919050565b6000602082019050818103600083015261398f81613953565b905091905056fea2646970667358221220a61b1f293fee8a92e10f897aa0f08aea0ee6520b031a6364e0a17c7a5b72ed0764736f6c6343000811003368747470733a2f2f676174657761792e70696e6174612e636c6f75642f697066732f516d5644517a6256466b3236646656665a55574b647967734b554a7a75484a526a3548623472664454553368674b2f",
  "linkReferences": {},
  "deployedLinkReferences": {}
}